:100000000C9435000C945D000C945D000C945D0024
:100010000C945D000C945D000C945D000C94EE1546
:100020000C945D000C94C7150C94A0150C947915D4
:100030000C945D000C945D000C945D000C945D00CC
:100040000C942F150C945D000C945D000C945D00D5
:100050000C945D000C945D000C945D000C945D00AC
:100060000C945D000C945D00011611241FBECFEFAF
:10007000D8E0DEBFCDBF12E0A0E0B1E0E6E0F8E3FB
:1000800002C005900D92AC35B107D9F725E0ACE57B
:10009000B2E001C01D92A835B207E1F710E0C5E358
:1000A000D0E004C02197FE010E94BC1AC433D107DE
:1000B000C9F70E942F160C94011C0C940000A0910B
:1000C0003F05B0914005ED91FC9111970190F081B1
:1000D000E02D682FCD0109942091490530914A0502
:1000E0002115310529F4019751F080E20C945F004D
:1000F0002130310521F022303105A9F308958AE03D
:10010000F5CFCF93DF93EC010E946C0080914905FD
:1001100090914A05009729F4219759F0DF91CF91EA
:1001200008958130910529F082309105A9F3039754
:10013000A9F7C0E080914B05C81780F780E20E94C4
:100140005F0080E20E945F00CF5FF4CFDC016115A9
:100150007105D1F08091520590915305861797074C
:1001600098F099E0969FF001979FF00D112420914F
:100170004C0530914D05E20FF31F399701900D9218
:100180009A95E1F781E0089580E008954F925F929B
:100190006F927F928F929F92AF92BF92CF92DF9297
:1001A000EF92FF920F931F93CF93DF936C0182E046
:1001B00090E00E948100C0913F05D0914005F12C54
:1001C000E12C15E080E1882E87E2982EA12CB12C3D
:1001D0009AE0492E512C612C712CC701B601A50162
:1001E00094010E949A1A022F60E3620FE881F9815C
:1001F0000190F081E02DCE010995A02FB0E0A5017E
:1002000094010E94D11AC61AD70AE80AF90AC50150
:10021000B401A30192010E949A1A49015A01115096
:10022000E1F682E090E090934A0580934905DF91E2
:10023000CF911F910F91FF90EF90DF90CF90BF90E3
:10024000AF909F908F907F906F905F904F900895A8
:100250000F931F93CF93DF93CDB7DEB762970FB69F
:10026000F894DEBF0FBECDBF0A871B872C873D8762
:100270004E875F87688B798B8A8B8091520590912E
:10028000530520915005309151058217930761F471
:1002900080E062960FB6F894DEBF0FBECDBFDF914F
:1002A000CF911F910F9108950196909353058093DC
:1002B000520529E0FE013A96DE01119601900D9259
:1002C0002A95E1F7009721F329E0289FD001299F83
:1002D000B00D112480914C0590914D05A80FB91FC8
:1002E0001997FE01319601900D922A95E1F781E070
:1002F000D0CF0895FC01E11589E0F80790F468304B
:1003000080F4908121E030E001C0220F6A95EAF785
:10031000413021F4292B208381E008952095292361
:10032000FACF80E00895E0EBF0E08181887F81835F
:100330000895909122059770E0EBF0E08181887F2D
:10034000892B818308958F929F92AF92BF92CF9213
:10035000DF92EF92FF920F931F93CF93DF93EC0105
:100360004A015B01122F032FC12CD12C7601C394BB
:10037000A7019601012E04C0220F331F441F551FF1
:100380000A94D2F7211531054105510509F44EC0F3
:1003900060E078E488EE91E00E949A1ACA01B901FF
:1003A0006F5F7F4F8F4F9F4F969587957795679596
:1003B0006115710581059105C9F181149104A104AC
:1003C000B104A1F1660F771F881F991FA501940141
:1003D0000E949A1A2F5F3F4F4F4F5F4F5695479598
:1003E000379527952115310541055105F9F004C0D0
:1003F000CC0CDD1CEE1CFF1C0A95D2F7C216D306EE
:10040000E406F50698F01883215031093A832983D0
:1004100081E0DF91CF911F910F91FF90EF90DF90DE
:10042000CF90BF90AF909F908F90089580E0F1CFD4
:100430007F928F929F92AF92BF92CF92DF92EF9274
:10044000FF920F931F93CF93DF93CDB7DEB76B97D8
:100450000FB6F894DEBF0FBECDBFAB8ABC8ACD8A83
:10046000DE8AEF8AF88E098F1A8F2B8F29E0FE0122
:100470007396DE011A9601900D922A95E1F72B8969
:10048000222309F448C07B8CFE013A9610E0AFEFBE
:10049000A70DA03108F03FC031813131E0F51123C3
:1004A00019F0B081B317B8F51F5F31961213F1CF71
:1004B0004A015B016C0189E0FE017396DE01119631
:1004C00001900D928A95E1F77E01F2E0EF0EF11CAA
:1004D00000E0F70121917F01372DB501A401C6018C
:1004E0000E94A301811103C00F5F1013F2CF6B961E
:1004F0000FB6F894DEBF0FBECDBFDF91CF911F9135
:100500000F91FF90EF90DF90CF90BF90AF909F90B2
:100510008F907F90089580E0EACFAF92BF92CF9204
:10052000DF92EF92FF920F931F93CF93DF93CDB79C
:10053000DEB72C970FB6F894DEBF0FBECDBF80910B
:10054000C1008F718B7F8093C10086E08093C200D1
:1005500082E0A82E93E0B92E24E0C22EDC80ED804C
:10056000FE800F8118852CE040E052EC61E070E0E5
:10057000CE010A960E941802882389F14A852B85AC
:100580003C853F703F709091C500907F932B909376
:10059000C5002093C4004330E1F49091C000926004
:1005A0009093C0009091C100906198609093C100B9
:1005B0002C960FB6F894DEBF0FBECDBFDF91CF9162
:1005C0001F910F91FF90EF90DF90CF90BF90AF9071
:1005D0000895443021F49091C0009D7FE1CF80E0E8
:1005E000E7CFEF92FF920F931F93CF93DF931F926A
:1005F000CDB7DEB77C018B01D701ED91FC91019065
:10060000F081E02DBE016F5F7F4FC7010995882300
:1006100099F0D801ED91FC910190F081E02D698174
:10062000C80109958111E8CF0F90DF91CF911F91FB
:100630000F91FF90EF90089581E0F6CFCF93DF9375
:100640001F92CDB7DEB76983DC011296ED91FC9164
:10065000CE01019609950F90DF91CF910895DC01AD
:100660001296ED91FC91CB010994FB01108281E07F
:1006700008950F931F93CF93DF93EC018D8188230F
:1006800051F09E81DB019C931C821D82DF91CF91F2
:100690001F910F9108958B018A819B81BE016A5F32
:1006A0007F4FDC01ED91FC910190F081E02D0995E7
:1006B000882361F39E81F801908391E09C83E6CFCB
:1006C000CF93DF931F92CDB7DEB7FC01698386819C
:1006D000811118C0648175818281938168177907BF
:1006E00061F481E086830384F485E02DCE010196D8
:1006F00009950F90DF91CF910895CB0101969583D5
:100700008483F1CF80E0F5CFCF92DF92EF92FF921A
:100710001F93CF93DF931F92CDB7DEB76C017B01A0
:10072000BE016F5F7F4FC7010E943903182F8823D6
:1007300069F06981C6010E9460038111F1CFF70160
:100740008481882319F091E09583182F812F0F90D1
:10075000DF91CF911F91FF90EF90DF90CF900895A0
:10076000EF92FF920F931F93CF93DF93CDB7DEB736
:1007700028970FB6F894DEBF0FBECDBF7C018EE286
:1007800091E09A8389837C836B831D821E82BE01E4
:10079000685F7F4FCE0101960E943903882369F07C
:1007A00088858032A1F38D3091F38950833078F3BE
:1007B0008D81882311F081E08E8310E0BE01685F97
:1007C0007F4FCE0101960E943903082F882371F0D4
:1007D0006885603259F06D3049F087EF860F8330BD
:1007E00028F0C7010E946003102FE8CF812F2896C0
:1007F0000FB6F894DEBF0FBECDBFDF91CF911F9132
:100800000F91FF90EF900895FC01CB0126812111FB
:1008100013C064817581228133816217730731F4BB
:1008200021E026830384F485E02D09949B012F5F4A
:100830003F4F35832483F6CF80E00895FC01458146
:100840005681278130858481811121C082819381E5
:1008500021153105E1F066277727621B730B6417BA
:100860007507A8F08417950790F0B901640F751FFC
:10087000615071096817790750F09C012F5F3F4F55
:10088000241B350B4115510511F021503109BA01D6
:10089000C9010895FC01CA011382128211821082DB
:1008A00021E0248361157105A9F022273327261B37
:1008B000370B2417350770F053834283860F971F39
:1008C0000197918380831482458356836783708761
:1008D00081E0089580E00895CF93DF93EC010296C4
:1008E0000E944A04882321F029EA34E03C872B87C0
:1008F000DF91CF910895CF93DF93CDB7DEB72F97D8
:100900000FB6F894DEBF0FBECDBFAB01BC0184E3D0
:1009100091E09F878E87198618861B861A8686E146
:1009200091E09A838983CE0101960E946C0488230A
:1009300039F0BE016F5F7F4FCE010E960E94F1022B
:100940002F960FB6F894DEBF0FBECDBFDF91CF91CB
:100950000895611529E0720730F4FC018081FB01E4
:10096000808381E0089580E00895CF93DF93EC01C8
:1009700002960E944A04882321F026EE36E03C8746
:100980002B87DF91CF910895CF93DF93CDB7DEB75B
:100990002D970FB6F894DEBF0FBECDBFAB01BC01E3
:1009A000198618861B861A8680E291E09A838983CD
:1009B000CE0101960E94B504882341F060913F0565
:1009C00070914005CE0101960E94F1022D960FB65E
:1009D000F894DEBF0FBECDBFDF91CF910895CF92C7
:1009E000DF92EF92FF926B017C0190E080E00E9429
:1009F0008100C701B6010E94C40410924A051092FA
:100A00004905FF90EF90DF90CF900895CF92DF924D
:100A1000EF92FF920F931F93CF93DF93CDB7DEB783
:100A2000A0970FB6F894DEBF0FBECDBF6C018B014F
:100A3000198618861B861A8686E191E09A83898337
:100A40001E8A1D8A188E1F8A80E291E09F878E87FA
:100A5000AE01455E5F4F65E070E0CE0101960E94F9
:100A60006C04B801CE0101960E94B003F82E8823D1
:100A700091F1CE0103960E941E04AB01BC01CE0190
:100A80000E960E94B50410E000E08AE0E82EBE0158
:100A9000605E7F4FCE010E960E9404048823C1F051
:100AA00088A180538A3038F50A3999E1190718F579
:100AB000E09E9001E19E300D1124082F10E0C80146
:100AC0008095909582179307B0F0020F131FDFCF28
:100AD000F601118300838F2DA0960FB6F894DEBF28
:100AE0000FBECDBFDF91CF911F910F91FF90EF907F
:100AF000DF90CF900895F12CEECFCF92DF92EF925E
:100B0000FF920F931F93CF93DF93CDB7DEB76C9710
:100B10000FB6F894DEBF0FBECDBF69017A0119860A
:100B200018861B861A8620E231E03A8329831E8AC2
:100B30001D8A188E1F8A3F872E87AB01BC01CE010C
:100B400001960E94B504811102C080E021C0B70166
:100B5000A601CE010E960E94B5048823B1F311E0E0
:100B6000BE01645E7F4FCE0101960E940404082FEF
:100B7000BE01655E7F4FCE010E960E940404812760
:100B8000002331F08111E1CF2C8D9B8D291741F38A
:100B90006C960FB6F894DEBF0FBECDBFDF91CF913C
:100BA0001F910F91FF90EF90DF90CF9008950F93DA
:100BB0001F93CF93DF938C01EB01288139814A8108
:100BC0005B81FC0160817181828193810E947D053E
:100BD000882311F01D830C83DF91CF911F910F911A
:100BE0000895CF92DF92EF92FF92CF93DF93CDB72C
:100BF000DEB76A970FB6F894DEBF0FBECDBF6B01AC
:100C00007C01BA01A901198618861B861A8680E222
:100C100091E09A8389831E8A1D8A188E1F8A86E135
:100C200091E09F878E87CE0101960E94B5048823AC
:100C300079F0B701A601CE010E960E946C048823BC
:100C400039F0BE01625F7F4FCE0101960E94F10232
:100C50006A960FB6F894DEBF0FBECDBFDF91CF917D
:100C6000FF90EF90DF90CF900895EF92FF920F9357
:100C70001F93CF93DF93CDB7DEB72E970FB6F894BF
:100C8000DEBF0FBECDBF7C01198618861B861A8673
:100C900080E291E09A838983A701662777276E19FE
:100CA0007F09CE0101960E94B50410E000E0BE016C
:100CB000625F7F4FCE0101960E940404882331F0C9
:100CC0008E85882319F00F5F1F4FF1CFB701C80140
:100CD0002E960FB6F894DEBF0FBECDBFDF91CF9139
:100CE0001F910F91FF90EF900895CF92DF92EF92B6
:100CF000FF920E9435066B017C0181E090E00E942A
:100D00008100C701B6010E94C4048AE00E945F000E
:100D100083E090E090934A0580934905FF90EF901F
:100D2000DF90CF900895CF93DF93EC0168817981B4
:100D30008A819B810E94EF048E819F81892B61F0C3
:100D400083E491E00E9435060E94EF046C817D816E
:100D50008E819F810E94EF0481E090E00E946C00F0
:100D600083E090E090934A0580934905DF91CF910D
:100D70000895CF93DF93EC0182E491E00E94750621
:100D800080914B05823319F08F5F80934B0509905A
:100D9000D881C02D209751F070E060E08881998162
:100DA0000E9493060A80DB81C02DF4CF80914B0511
:100DB000882319F0815080934B0585E491E0DF9101
:100DC000CF910C947506CB010C94B906611529E0FE
:100DD000720730F4FB012081FC01208381E008953B
:100DE00080E00895FC0180819091C00095FFFCCFC8
:100DF0008093C6008091C00086FFFCCF8091C00028
:100E000080648093C00081E00895FC018091C0005F
:100E100087FFFCCF9091C000969596959770809132
:100E2000C60080839111F2CF81E00895611524E01E
:100E30007207A8F4F999FECFFC01908161BD272FBC
:100E4000237082B58C7F822B82BD90BD8FB7F894C2
:100E5000FA9AF99A8FBFF999FECF81E0089580E060
:100E60000895FC01611584E0780780F4F999FECFBC
:100E700061BD872F837092B59C7F982B92BDF89AA5
:100E8000F899FECF80B5808381E0089580E00895D1
:100E90009C01235031092D303742D0F40297B0E045
:100EA000A0E0BC01CD0124E0660F771F881F991FC9
:100EB0002A95D1F724E130E040E050E00E949A1AF0
:100EC0002115310529F0C9010E94F8150197E1F7B4
:100ED00008958F929F92AF92BF92CF92DF92EF923E
:100EE000FF921F93CF93DF93EC016A017B0110E027
:100EF00081E0C81688E2D8068BE6E8068EEEF80692
:100F000040F011E0C12C98E2D92E9BE6E92E9EEE2E
:100F1000F92EC701B60120E03AEC4AE95BE30E94F2
:100F20009A1A39832883C701B60120E432E44FE0DE
:100F300050E00E949A1A88EE882E83E0982EA12C09
:100F4000B12CCA01B901A50194010E949A1A7B83B0
:100F50006A83C701B601A50194010E949A1A6B0128
:100F6000CA01B901A50194010E949A1A7D836C837C
:100F7000DF82CE8281E08127DF91CF911F91FF90A8
:100F8000EF90DF90CF90BF90AF909F908F9008959B
:100F90002F923F924F925F926F927F928F929F9289
:100FA000AF92BF92CF92DF92EF92FF920F931F9377
:100FB000CF93DF93CDB7DEB7A2970FB6F894DEBF1D
:100FC0000FBECDBF1B8683E08C8785E08D8786E0D2
:100FD0008E8787E08F8788E0888B8AE0898BFE0187
:100FE0003A9680E09181913108F059C0882321F030
:100FF0002081291708F053C08F5F3196873091F711
:101000001A8293E09B8395E09C8396E09D838E8378
:1010100088E08F838AE088877E01F2E0EF0EF11C82
:1010200000E0AA24AA94BA2CCC24CA94DC2C10E0A8
:10103000470120E4422E22E4522E2FE0622E712C32
:1010400032E3232E312CF70181917F0120E034E23D
:1010500044EF50E004C056954795379527958A95FB
:10106000D2F7C301B2010E949A1A2233310560F50A
:10107000C101821B930B9C01C216D30648F0A21635
:10108000B30610F0012F59011F5F69011730D9F61F
:10109000080D192D111DF801808180932105809183
:1010A00021058B30B8F4E82FF0E0E75AF74F0C94A5
:1010B000BC1A67086A086A08E1086A08E308E508D4
:1010C000E708E9086A08EB0822533109D5CF91E017
:1010D0009093220540E051E060E070E004C0440FCE
:1010E000551F661F771F8A95D2F7E4E076956795BE
:1010F00057954795EA95D1F7CE014B960E9469071F
:1011000088E0FE017B96DE01539601900D928A9550
:10111000E1F788E0FE017396DE015B9601900D9287
:101120008A95E1F788E0FE017B96A9E1B5E00190A0
:101130000D928A95E1F70E9493018091B0008C7F17
:101140008093B0008091B100877F8093B1001092AE
:10115000B2008DEE9BE0909301018093000180919D
:101160007000816080937000B89A8FB7F8941092E5
:101170001205109211051092140510921305109289
:1011800016051092150510921805109217058FBFBD
:10119000A2960FB6F894DEBF0FBECDBFDF91CF9100
:1011A0001F910F91FF90EF90DF90CF90BF90AF9085
:1011B0009F908F907F906F905F904F903F902F9077
:1011C000089592E085CF93E083CF94E081CF95E0BE
:1011D0007FCF96E07DCF97E07BCF7F928F929F92DB
:1011E000AF92BF92CF92DF92EF92FF920F931F9335
:1011F000CF93DF93CDB7DEB728970FB6F894DEBF55
:101200000FBECDBF6C0109831A832B833C834D83B2
:101210005E836F837887A981BA81EB80FC800D8122
:101220001E81EF81F885A530B10508F052C0712C00
:10123000A430B10599F4E114F10409F055C0011589
:10124000110509F058C077247394EF2B09F4712C21
:10125000F0E0E0E0F12CE12CA4E0B0E020E03AEC9A
:101260004AE95BE30E94D11A4B015C01D70120E4FB
:1012700032E44FE050E00E94D11A860E971EA81E5D
:10128000B91E9801A8EEB3E00E94C21A860E971EFE
:10129000A81EB91E8E0E9F1EA11CB11CF6018082D5
:1012A0009182A282B38281E0872528960FB6F894B6
:1012B000DEBF0FBECDBFDF91CF911F910F91FF9089
:1012C000EF90DF90CF90BF90AF909F908F907F90E6
:1012D0000895F0E0E0E010E000E0F12CE12CA4E063
:1012E000B0E077247394BACFF0E0E0E010E000E0E3
:1012F000F12CE12CF6CFF0E0E0E010E000E0F1CFDF
:101300002F923F924F925F926F927F928F929F9215
:10131000AF92BF92CF92DF92EF92FF920F931F9303
:10132000CF93DF93CDB7DEB728970FB6F894DEBF23
:101330000FBECDBFFC0109831A832B833C834D83F1
:101340005E836F83788700811181083E43E0140734
:1013500008F08EC062817381683E83E0780708F0F0
:1013600087C0A481B581A83E93E0B90708F080C08A
:101370008680978048EE841643E0940608F078C093
:1013800029813A81283E83E0380708F071C02B801C
:101390003C8098EE291693E0390608F069C04D812B
:1013A0005E81483E83E0580708F062C0AF80B88491
:1013B00098EEA91693E0B90608F05AC0EE24E3941B
:1013C000F12C8A149B0410F0F12CE12C6D01C41A4D
:1013D000D50AC60188519C4F2C014E185F084E0D4E
:1013E0005F1DEE24E394F12CA417B50710F0F12C47
:1013F000E12C3B0162187308D301A851BC4F3D0199
:101400006E187F08C1018E0D9F1DCC24C394D12C72
:101410006817790710F0D12CC12C88EEE82E83E0F4
:10142000F82EC701821B930B800F911F8C199D0909
:10143000B7010E94861A91838083C301B7010E947D
:10144000861A93838283C201B7010E94861A95830C
:1014500084832C0D3D1D0217130718F1C7018A194B
:101460009B09880D991DB7010E94861A9783868370
:1014700028960FB6F894DEBF0FBECDBFDF91CF9197
:101480001F910F91FF90EF90DF90CF90BF90AF90A2
:101490009F908F907F906F905F904F903F902F9094
:1014A000089588E0DF011D928A95E9F7E1CFAF92B8
:1014B000BF92CF92DF92EF92FF920F931F93CF9341
:1014C000DF93CDB7DEB728970FB6F894DEBF0FBE17
:1014D000CDBF7C0109831A832B833C834D835E83BC
:1014E0006F837887DC01AD90BC90B8EEAB16B3E0AB
:1014F000BB0608F084C0FC0102811381083EF3E0C2
:101500001F0708F07CC0DC0114966D917C91683E49
:10151000B3E07B0708F073C0FC01C680D780F8EE0B
:10152000CF16F3E0DF0608F06AC029813A81283E31
:1015300043E0340708F063C04B815C81483E83E0A0
:10154000580708F05CC0ED81FE81E83EA3E0FA0791
:1015500008F055C0AF81B885A83E83E0B80708F011
:101560004EC0CA0EDB1EE60FF71F61E070E0A8EE6A
:10157000CA16A3E0DA0610F470E060E0E60FF71F89
:10158000040F151F41E050E0E83EB3E0FB0710F404
:1015900050E040E0040F151F2A0D3B1D81E090E054
:1015A000083E43E0140710F490E080E0280F391F54
:1015B00088EEA82E83E0B82EC901B5010E94861AD4
:1015C000D7018D939C93C801B5010E94861AD7015B
:1015D00013969C938E931297CF01B5010E94861AA1
:1015E000F70195838483283E3340D0F4C601B501CA
:1015F0000E94861AD70117969C938E931697289669
:101600000FB6F894DEBF0FBECDBFDF91CF911F9113
:101610000F91FF90EF90DF90CF90BF90AF90089523
:1016200088E0E2E2F1E0D70101900D928A95E1F7BE
:10163000E6CFAF92BF92CF92DF92EF92FF920F93DD
:101640001F93CF93DF93CDB7DEB728970FB6F894EB
:10165000DEBF0FBECDBFFC0109831A832B833C8301
:101660004D835E836F837887A080B18028EEA216B9
:1016700023E0B20608F075C062817381683E83E0A2
:10168000780708F06EC0A481B581A83E23E0B207B8
:1016900008F067C0C680D78088EEC81683E0D806F9
:1016A00008F05FC049815A81483E23E0520708F0A4
:1016B00058C00B811C81083E83E0180708F051C018
:1016C0002D813E81283E83E0380708F04AC0EF8034
:1016D000F88488EEE81683E0F80608F042C0EC0CC7
:1016E000FD1C2A0F3B1FA1E0B0E088EEE81683E066
:1016F000F80610F4B0E0A0E02A0F3B1F060F171FFA
:1017000061E070E0283E83E0380710F470E060E0AC
:10171000060F171F4A0D5B1D81E090E0083E63E055
:10172000160710F490E080E0840F951F48EEC42E59
:1017300043E0D42EB6010E94861A91838083C801AB
:10174000B6010E94861A93838283C901B6010E9462
:10175000861A95838483C701B6010E94861A9783EF
:10176000868328960FB6F894DEBF0FBECDBFDF91FB
:10177000CF911F910F91FF90EF90DF90CF90BF908E
:10178000AF900895CF93DF93CDB7DEB728970FB60C
:10179000F894DEBF0FBECDBFFC01AFB7F894208137
:1017A0003181428153816481758186819781AFBF88
:1017B0003A8329835C834B837E836D8398878F83F1
:1017C0003A815C817E81988528960FB6F894DEBFB9
:1017D0000FBECDBFDF91CF9108950F931F93CF938D
:1017E000DF93CDB7DEB728970FB6F894DEBF0FBEF4
:1017F000CDBF81E195E00E94C20B29833A834B83E0
:101800005C836D837E838F83988700911905109187
:101810001A0520911B0530911C0540911D05509122
:101820001E0560911F0570912005CE0101960E9452
:10183000190BA981BA816B817C814D815E812F81D9
:1018400038858FB7F894E1E1F5E0B183A083738325
:10185000628355834483378326838FBF28960FB6D0
:10186000F894DEBF0FBECDBFDF91CF911F910F91D6
:1018700008950F931F93CF93DF93CDB7DEB7E09713
:101880000FB6F894DEBF0FBECDBF0FB7F8940E941D
:101890009301B89B03C00E94ED0BB89A81E195E0DB
:1018A0000E94C20B29833A834B835C836D837E83C2
:1018B0008F83988788E0FE013196DE019196019032
:1018C0000D928A95E1F71091B2000E9499010FBF25
:1018D00088E0FE01B196DE01999601900D928A95FD
:1018E000E1F7412F50E070E060E04F5F5F4F6F4FD6
:1018F0007F4F8091210504C0440F551F661F771F3D
:101900008A95D2F784E076956795579547958A959D
:10191000D1F7CE0141960E94690788E0FE017196D9
:10192000DE01199601900D928A95E1F788E0FE019B
:101930003996DE01599601900D928A95E1F7098D4D
:101940001A8D2B8D3C8D4D8D5E8D6F8D78A1CE01C6
:1019500089960E94190B88E0FE01B996DE01519626
:1019600001900D928A95E1F729893A894B895C8922
:101970006D897E898F89988DE0960FB6F894DEBFC9
:101980000FBECDBFDF91CF911F910F9108950F939F
:101990001F93CF93DF93CDB7DEB72C970FB6F89494
:1019A000DEBF0FBECDBF0E94390C89019A01AB0189
:1019B000BC01CE0109960E94ED0869857A858B8568
:1019C0009C852C960FB6F894DEBF0FBECDBFDF917D
:1019D000CF911F910F910895EF92FF920F931F9354
:1019E000CF93DF93CDB7DEB7C456D1090FB6F894C5
:1019F000DEBF0FBECDBF6E962FAF6E976F963FAF17
:101A00006F97A0964FAFA097A1965FAFA197A296B0
:101A10006FAFA297A3967FAFA397A4968FAFA4971B
:101A2000A5969FAFA59788E0FE01E35AFF4FDE0120
:101A3000AF5ABF4F01900D928A95E1F788E0E9E136
:101A4000F5E0DE01599601900D928A95E1F788E064
:101A5000FE017996DE01D99601900D928A95E1F703
:101A600009AD1AAD2BAD3CAD4DAD5EAD6FAD219660
:101A70007FAD2197CE018F5A9F4F0E9480090E940F
:101A8000390C22962FAF229723963FAF23972496A7
:101A90004FAF249725965FAF259726966FAF269771
:101AA00027967FAF279728968FAF289729969FAFC5
:101AB00029976E960FAD6E976F961FAD6F97A09694
:101AC0002FADA097A1963FADA197A2964FADA2973B
:101AD000A3965FADA397A4966FADA497A5967FAD8F
:101AE000A597CE018F5B9F4F0E94570A88E0FE01A9
:101AF000EF5AFF4FDE01D19601900D928A95E1F7E2
:101B000081E195E00E94C20B29873A874B875C8769
:101B10006D877E878F87988B88E0FE013996DE017E
:101B2000519601900D928A95E1F788E0FE01719639
:101B3000DE01999601900D928A95E1F709A91AA9FB
:101B40002BA93CA94DA95EA96FA978ADCE018996B4
:101B50000E94570A81E195E00E94C20B29833A83D3
:101B60004B835C836D837E838F83988788E0FE013F
:101B70003196DE01919601900D928A95E1F7E9A1E7
:101B8000FAA1A9A5BAA5EA17FB0720F34BA15CA10E
:101B90008DA19EA10FA118A56BA57CA52DA53EA585
:101BA000EFA4F8A8AE17BF0778F04617570790F2D2
:101BB0006417750748F08217930760F228173907F2
:101BC00018F00E151F0530F20E94390C29A73AA70C
:101BD0004BA75CA76DA77EA78FA798AB88E0FE01F7
:101BE000EF5BFF4FDE01A75BBF4F01900D928A951F
:101BF000E1F709A51AA52BA53CA54DA55EA56FA5E6
:101C000078A9CE01875B9F4F0E9480092A960FAD6D
:101C10002A972B961FAD2B972C962FAD2C972D9690
:101C20003FAD2D972E964FAD2E972F965FAD2F97E8
:101C300060966FAD609761967FAD6197CE01875AD0
:101C40009F4F0E94ED086B968EAD9FAD6B970E94E3
:101C50004807CC59DF4F0FB6F894DEBF0FBECDBF9B
:101C6000DF91CF911F910F91FF90EF900895FC01AC
:101C700086E390E0918380838FE690E09383828374
:101C800080E890E09583848384E890E0978386835E
:101C900086E890E09187808788E890E09387828744
:101CA0008AE890E0958784870895FF920F931F93A9
:101CB000CF93DF93CDB7DEB7EE970FB6F894DEBFC4
:101CC0000FBECDBFCE010F960E94370EEB89FC8967
:101CD000F180F6FAFF24F0F8CE0101960E94370E4B
:101CE0008FEF94E00E94C20B2D8F3E8F4F8F58A331
:101CF00069A37AA38BA39CA3E985FA85208131810E
:101D0000A8EEB3E00E94C21A2091060130910701AB
:101D100050E040E00E949A1A18AA1FA61AAA19AA0F
:101D20001CAA1BAA622F3EAB2DAB00E018A920E035
:101D30003AA940E05CA97EA9CE014D960E94190BFC
:101D400088E0FE017D96DE01D79601900D928A957E
:101D5000E1F788E0FE01F796DE01979601900D927B
:101D60008A95E1F781E0F826FEA299E0FE01B69699
:101D7000DE015D9601900D929A95E1F79091100524
:101D800091111FC099E0FE017D96A7E0B5E001909A
:101D90000D929A95E1F780931005EB89FC8991816A
:101DA00081818F7B96FF80648183EE960FB6F894D5
:101DB000DEBF0FBECDBFDF91CF911F910F91FF907E
:101DC000089580910705898388E0FE017E96DE01F3
:101DD000129601900D928A95E1F7009108051091F5
:101DE000090520910A0530910B0540910C05509191
:101DF0000D0560910E0570910F05CE0102960E94AF
:101E0000800989E0FE017D96A7E0B5E001900D9282
:101E10008A95E1F709811A812B813C814D815E8190
:101E20006F81788589850E942801B7CF0F931F9312
:101E3000CF93DF93CDB7DEB728970FB6F894DEBF08
:101E40000FBECDBF8FEF94E00E94C20B29833A836F
:101E50004B835C836D837E838F83988700912305FA
:101E600010912405209125053091260540912705E4
:101E7000509128056091290570912A05CE0101969F
:101E80000E94190BA981BA816B817C814D815E8191
:101E90002F8138858FB7F894EFEFF4E0B183A083FA
:101EA0007383628355834483378326838FBF289649
:101EB0000FB6F894DEBF0FBECDBFDF91CF911F915B
:101EC0000F9108958F929F92AF92BF92CF92DF921F
:101ED000EF92FF920F931F93CF93DF93CDB7DEB7AF
:101EE000AC970FB6F894DEBF0FBECDBF1E8A1D8A19
:101EF000188E1F8A80E291E09F878E87409118019B
:101F00005091190160911A0170911B01CE01409608
:101F10000E944A04882321F081E397E09A8F898FF9
:101F20008EE291E09DA38CA3198618861B861A86E3
:101F300086E191E09A838983CE010E969FA38EA3BA
:101F400018A619A6AE01455D5F4F62E070E00D97DF
:101F50000E946C04BE016C5D7F4FCE0101960E9411
:101F60008403882379F1EE24E394F12C6E018BE154
:101F7000C80ED11C8BA59CA58E159F0518F189E074
:101F8000A82EB12CB501A601CE0101960E946C04C9
:101F9000BE016C5D7F4FCE0101960E9484038823B1
:101FA00089F00B8D1C8D2D8D3E8D4F8D58A169A113
:101FB0007AA18BA10E942801882321F08FEFE81AD3
:101FC000F80AD8CFAC960FB6F894DEBF0FBECDBFDF
:101FD000DF91CF911F910F91FF90EF90DF90CF9005
:101FE000BF90AF909F908F900895AF92BF92CF9285
:101FF000DF92EF92FF920F931F93CF93DF93CDB7B2
:10200000DEB7A5970FB6F894DEBF0FBECDBF1E8A10
:102010001D8A188E1F8A86E191E09F878E874091E6
:1020200018015091190160911A0170911B01CE01A4
:1020300040960E944A04882321F086E197E09A8F17
:10204000898F198618861B861A8680E291E09A830A
:10205000898380915205909153059DA38CA3AE0175
:102060004C5D5F4F62E070E0CE0101960E94B504C6
:10207000BE01625F7F4FCE0101960E94F10288236C
:1020800031F101E010E05E018BE1A80EB11C8CA1E2
:102090009DA180179107D8F0B801C5010E94A60044
:1020A0008823A9F089E0E82EF12CB701A501CE0123
:1020B00001960E94B504BE01625F7F4FCE0101967A
:1020C0000E94F102882319F00F5F1F4FE0CFA59601
:1020D0000FB6F894DEBF0FBECDBFDF91CF911F9139
:1020E0000F91FF90EF90DF90CF90BF90AF90089549
:1020F0003F924F925F926F927F928F929F92AF9298
:10210000BF92CF92DF92EF92FF920F931F93CF93E4
:10211000DF93CDB7DEB7A0970FB6F894DEBF0FBE42
:10212000CDBF60913D0570913E05CE014F960E9456
:102130000605882309F492C0EE24E394F12C6E0185
:1021400087E1C80ED11C332433948F8D98A18E154E
:102150009F0508F487C000913D0510913E05198642
:1021600018861B861A8686E191E09A83898384E02B
:10217000682E712CB301A601CE0101960E946C0459
:10218000B801CE0101960E94B003882309F466C00D
:10219000CE0103960E941E044B015C01209139057B
:1021A00030913A0540913B0550913C050E947D05D8
:1021B000882309F443C03E8660913D0570913E0539
:1021C000CE014D960E940605882309F447C0609110
:1021D0003D0570913E05CE014B960E940605882371
:1021E000E9F160913D0570913E05C6010E9406052A
:1021F0008823A1F160913D0570913E05CE010196C5
:102200000E940605882351F18D8D9E8D182F988B85
:102210008B8D9C8D382F9A8B8F89988D582F9C8B06
:1022200089819A81782F0E8528894A896C89892F1E
:102230000E9428019FEFE91AF90A87CF20913505FE
:10224000309136054091370550913805C501B401EC
:102250000E947D05882311F01E86AECF88E491E0B0
:102260000E947506A0960FB6F894DEBF0FBECDBFD4
:10227000DF91CF911F910F91FF90EF90DF90CF9062
:10228000BF90AF909F908F907F906F905F904F9096
:102290003F9008954F925F926F927F928F929F929C
:1022A000AF92BF92CF92DF92EF92FF920F931F9364
:1022B000CF93DF93CDB7DEB76F970FB6F894DEBF3D
:1022C0000FBECDBFE0905205F0905305C7010E94AC
:1022D000C60081E090E00E946C0083E090E0909363
:1022E0004A058093490501E010E080E2682E81E014
:1022F000782E93E0492E512CE016F10608F45DC0CB
:10230000B801CE0147960E94A60089E0FE017796AB
:10231000DE011E9601900D928A95E1F7BF8882E05A
:1023200090E00E948100C0903F05D0904005198642
:1023300018861B861A867A826982BB20A9F1409191
:10234000390550913A0560913B0570913C05CE01ED
:1023500001960E94B504B601CE0101960E94F102D9
:1023600082E090E090934A058093490589889A8895
:10237000AB88BC88CD88DE888F8598890E94C6008E
:10238000C4010E94C600C5010E94C600C6010E9489
:10239000C60081E090E00E946C0050924A05409295
:1023A00049050F5F1F4FA8CF409135055091360565
:1023B0006091370570913805CACF6F960FB6F894C3
:1023C000DEBF0FBECDBFDF91CF911F910F91FF9068
:1023D000EF90DF90CF90BF90AF909F908F907F90C5
:1023E0006F905F904F900895109253051092520590
:1023F00008952F923F924F925F926F927F928F92A9
:102400009F92AF92BF92CF92DF92EF92FF920F9383
:102410001F93CF93DF93CDB7DEB7A5970FB6F89490
:10242000DEBF0FBECDBFC0905205D0905305EE2445
:10243000E394F12C9EE8792E23E0622ECE14DF0483
:1024400008F4D0C0B701CE0101960E94A600898190
:10245000882309F482C088E0FE013296DE0152969C
:1024600001900D928A95E1F70A891B892C893D8993
:102470004E895F89688D798DCE0182960E94ED0824
:102480001FB7F8940E94C70C25B5287F226025BD90
:1024900024B52F73206424BD8AA09BA0ACA0BDA04E
:1024A0009B01AC01280D391D4A1D5B1D49015A01D4
:1024B000EFE28E1A9108A108B108ECED8E16E5E066
:1024C0009E06A104B10418F12B5036404109510970
:1024D0006217730784079507D0F41FBF19012A01FB
:1024E000261A370A480A590AB201A101CE014296BA
:1024F0000E9469072A893B894C895D896E897F8999
:10250000888D998D0E94EC0CF8940E94C70C861659
:102510009706A806B906E8F0A5019401261B370B1B
:10252000480B590BC9010E94480785B5877061F0B7
:1025300084B5806C84BDA99AA99BFECF84B58F73A6
:1025400084BD85B5887F85BD1FBF5FEFE51AF50A9D
:1025500075CF80E090E0DC01E6CF88E0FE013296A6
:10256000DE011A9601900D928A95E1F78A859B8586
:10257000892B69F48C859D85892B49F48E859F85EF
:10258000892B29F4888999898F389340F8F01B8E1C
:102590001A8E1D8E1C8E1F8E1E8E672D78A269A22C
:1025A00000E01B8D20E03D8D40E05F8D762DCE015B
:1025B00002960E9480092A813B814C815D816E8157
:1025C0007F81888599850E94EC0CBFCF888599858D
:1025D000893641E0940708F4B8CF885691400E94AC
:1025E0004807B3CFA5960FB6F894DEBF0FBECDBF98
:1025F000DF91CF911F910F91FF90EF90DF90CF90DF
:10260000BF90AF909F908F907F906F905F904F9012
:102610003F902F900895CF93DF93CDB7DEB76C979F
:102620000FB6F894DEBF0FBECDBFCE010F960E944D
:10263000370ECE0101960E94370EED81FE81818119
:10264000887F8183E989FA8980818F7D8083EF8506
:10265000F8898081806280836C960FB6F894DEBF23
:102660000FBECDBFDF91CF910895CF93DF93CDB74C
:10267000DEB76C970FB6F894DEBF0FBECDBFCE01AC
:102680000F960E94370E10921005EF85F889808111
:1026900080628083E989FA898081806280838FB734
:1026A000F894EFEFF4E01182108213821282158207
:1026B0001482178216828FBFED89FE8911821082E3
:1026C000EF85F889808182608083CE0101960E9427
:1026D000370EED81FE8190912B0597708181887F67
:1026E000892B81836C960FB6F894DEBF0FBECDBFE9
:1026F000DF91CF9108950F931F93CF93DF93EC0158
:102700008B01CB010E94DC1A009781F099838883AA
:102710001B830A83688179818A819B810E947B0463
:1027200081E0DF91CF911F910F91089580E0F9CF63
:10273000CF93DF93EC018A819B810097B1F0919553
:1027400081959109288139818217930770F06881FA
:1027500079818A819B810E947B04888199810E9472
:10276000781B198218821B821A82DF91CF910895FB
:10277000CF92DF92EF92FF920F931F93CF93DF934D
:1027800000D000D0CDB7DEB78C0184E0C82ED12CAC
:10279000D801ED91FC91309771F0E280F380FA83DB
:1027A000E983DC82CB82CE0101960E949813F80166
:1027B000F182E082EDCF0F900F900F900F90DF919C
:1027C000CF911F910F91FF90EF90DF90CF900895E0
:1027D0000F931F93CF93DF9300D000D0CDB7DEB718
:1027E0008C019A8389838CE090E09C838B83C80161
:1027F0000E949813C80104960E949813CE01019676
:102800000E9498130F900F900F900F90DF91CF912F
:102810001F910F9108950C94E8130F931F93CF937A
:10282000DF938C01FC01C081D181209741F0888128
:1028300099810E94E8130A80DB81C02DF6CFC80180
:10284000DF91CF911F910F910C94B813CB010C9491
:102850000D144F925F926F927F928F929F92AF92E0
:10286000BF92CF92DF92EF92FF920F931F93CF937D
:10287000DF93CDB7DEB728970FB6F894DEBF0FBE53
:10288000CDBF7C01CB015A0169011A8219821C82D9
:102890001B821E821D8218861F820E9435062B0114
:1028A0003C01C5010E9435064B015C0161147104B5
:1028B00009F5F701118210821382128215821482A7
:1028C00017821682C70128960FB6F894DEBF0FBE96
:1028D000CDBFDF91CF911F910F91FF90EF90DF90CF
:1028E000CF90BF90AF909F908F907F906F905F90B0
:1028F0004F900895B301CE0101960E947B13882367
:10290000C1F269817A818B819C81A30192010E942D
:10291000F105A114B10429F4CE0101960E94981387
:10292000C8CFB501CE0105960E947B138823A1F381
:102930006D817E818F819885A50194010E94F105AA
:1029400049815A816B817C818D819E81AF81B8855F
:10295000F701408351836283738384839583A683C5
:10296000B783D186C08613870287ACCFAF92BF9260
:10297000CF92DF92EF92FF920F931F93CF93DF934B
:10298000CDB7DEB764970FB6F894DEBF0FBECDBFEC
:102990005C01C986DA86EB86FC860D871E872F8749
:1029A000388B498B5A8B6B8B7C8B1E821D821886D1
:1029B0001F826CE070E0CE0105960E947B13182FF9
:1029C0008823F1F09E01275F3F4F4CE050E06D817E
:1029D0007E818F8198850E94F105ED80FE801A82AC
:1029E00019821C821B8264E070E0CE0101960E9475
:1029F0007B13182F811116C0CE0105960E949813E3
:102A0000812F64960FB6F894DEBF0FBECDBFDF9165
:102A1000CF911F910F91FF90EF90DF90CF90BF90DB
:102A2000AF900895E981FA81F182E082D5018D911C
:102A30009C911197892B11F4ED93FC93D50112967B
:102A40008D919C91009729F0DC011396FC93EE93F5
:102A50001297D5011396FC93EE931297D1CF1F9244
:102A60000F920FB60F9211242F933F938F939F9342
:102A7000AF93BF938091310590913205A0913305BA
:102A8000B09134053091300523E0230F2D3758F5F0
:102A90000196A11DB11D20933005809331059093BF
:102AA0003205A0933305B093340580912C059091A5
:102AB0002D05A0912E05B0912F050196A11DB11DE8
:102AC00080932C0590932D05A0932E05B0932F0590
:102AD000BF91AF919F918F913F912F910F900FBE1A
:102AE0000F901F90189526E8230F0296A11DB11D87
:102AF000D2CF1F920F920FB60F9211242F933F93B4
:102B00004F935F936F937F938F939F93AF93BF93F5
:102B1000EF93FF93E0910401F09105010995FF9176
:102B2000EF91BF91AF919F918F917F916F915F9145
:102B30004F913F912F910F900FBE0F901F901895BE
:102B40001F920F920FB60F9211242F933F934F9322
:102B50005F936F937F938F939F93AF93BF93EF9305
:102B6000FF93E0910201F09103010995FF91EF912C
:102B7000BF91AF919F918F917F916F915F914F9195
:102B80003F912F910F900FBE0F901F9018951F929D
:102B90000F920FB60F9211242F933F934F935F9391
:102BA0006F937F938F939F93AF93BF93EF93FF9315
:102BB000E0910001F09101010995FF91EF91BF9122
:102BC000AF919F918F917F916F915F914F913F91C5
:102BD0002F910F900FBE0F901F9018951F920F927C
:102BE0000FB60F9211240F900FBE0F901F901895E3
:102BF00000000000000000000000000000000000D5
:102C0000089588E591E00E94350660933905709338
:102C10003A0580933B0590933C058AE591E00E943C
:102C2000350660933505709336058093370590938C
:102C30003805EDE3F5E080E491E0958384838AE351
:102C400091E09187808783E090E09587848716865E
:102C5000ECE4F5E011821082138212820895CF9382
:102C6000DF93CDB7DEB7C95BD1090FB6F894DEBFED
:102C70000FBECDBF789484B5826084BD84B5816079
:102C800084BD85B5826085BD85B5816085BD809137
:102C90006E00816080936E001092810080918100AF
:102CA00082608093810080918100816080938100A7
:102CB000809180008160809380008091B100846069
:102CC0008093B1008091B00081608093B0008091CA
:102CD0007A00846080937A0080917A008260809389
:102CE0007A0080917A00816080937A0080917A00E6
:102CF000806880937A001092C1000E948D02882320
:102D000031F085E097E090934405809343050E945D
:102D10008D02882331F082EF96E0909348058093EE
:102D2000470581E495E090933E0580933D0585E459
:102D300095E09093400580933F050E94C8070E944C
:102D400099010E94C8070E94990180910E019091FB
:102D50000F01A0911001B091110180934C05909347
:102D60004D05A0934E05B0934F058BE490E09093F2
:102D70005105809350051092530510925205CE01D3
:102D800081960E94370E40E060E084E290E00E946D
:102D90007A0141E060E085E290E00E947A01CE0194
:102DA00001964C010E94370EED81FE818181887F62
:102DB0008183EDA1FEA180818C7F80838181877ECC
:102DC0008860818395E0392EC955DF4F3882C75A14
:102DD000D040C855DF4F1882C85AD04023E0222E79
:102DE000C755DF4F2882C95AD04086E0C655DF4F0D
:102DF0008883CA5AD04088E0C555DF4F8883CB5AB4
:102E0000D0408AE0C455DF4F8883CC5AD04080E15F
:102E1000C155DF4F8883CF5AD04035E0A32EB12C67
:102E200043E0C42E56E0D52E68E0E62E7AE0F72E79
:102E3000C355DF4F0881CD5AD040C255DF4F1881AE
:102E4000CE5AD04020E148EE53E060E070E0C4018B
:102E50000E9418028A819B81EBA5FCA59183808347
:102E60008A819B8101969093070180930601898155
:102E7000863009F414C308F004C3882309F409C395
:102E8000833009F40AC386E19FE0909305018093A3
:102E90000401EBA1FCA1808125E53EE03093030114
:102EA0002093020182608F7D8083EDA1FEA181814C
:102EB0008F7B818348EE53E060E070E083E295E031
:102EC0000E94690723E038E040EE58E261E070E0DC
:102ED000C4010E94A301882309F4E6C241E066E030
:102EE0008AE290E00E947A0140E066E08BE290E0A6
:102EF0000E947A0140E066E08BE290E00E947A0155
:102F000085B5887F85BD84B5836084BD85B58860BF
:102F100085BD8A8187BD16BC80916E008E7F8093AF
:102F20006E0085E791E00E947506CA54DF4F198252
:102F30001882C65BD040C854DF4F19821882C85B24
:102F4000D04010E000E025E333E14FE851E06FE9C5
:102F500071E0CE0185569F4F0E942914C556DF4F60
:102F6000C880CB59D040C456DF4FD880CC59D04010
:102F7000C356DF4FE880CD59D040C256DF4FF880AE
:102F8000CE59D040C156DF4F0881CF59D040C056EE
:102F9000DF4F1881C05AD040CF55DF4F2881C15A2A
:102FA000D040CE55DF4F3881C25AD040CD55DF4F8B
:102FB0004881C35AD040CC55DF4F5881C45AD040C5
:102FC000CB55DF4F6881C55AD040CA55DF4F788155
:102FD000C65AD040CE018A549F4F0E94B61410E0CA
:102FE00000E02BE033E141EA51E068EF71E0CE010F
:102FF00081579F4F0E942914C157DF4FC880CF5877
:10300000D040C057DF4FD880C059D040CF56DF4F97
:10301000E880C159D040CE56DF4FF880C259D04029
:10302000CD56DF4F0881C359D040CC56DF4F1881B1
:10303000C459D040CB56DF4F2881C559D040CA561D
:10304000DF4F3881C659D040C956DF4F4881C75934
:10305000D040C856DF4F5881C859D040C756DF4FBF
:103060006881C959D040C656DF4F7881CA59D040CF
:10307000CE018A549F4F0E94B61410E000E029EF61
:1030800031E14FEA51E06DE871E0CE018D579F4F7D
:103090000E942914CD57DF4FC880C358D040CC5769
:1030A000DF4FD880C458D040CB57DF4FE880C55899
:1030B000D040CA57DF4FF880C658D040C957DF4FBD
:1030C0000881C758D040C857DF4F1881C858D04032
:1030D000C757DF4F2881C958D040C657DF4F3881C6
:1030E000CA58D040C557DF4F4881CB58D040C4574D
:1030F000DF4F5881CC58D040C357DF4F6881CD583F
:10310000D040C257DF4F7881CE58D040CE018A548C
:103110009F4F0E94B61410E000E024EF31E14BEB2A
:1031200051E068EC71E0CE0189589F4F0E9429144C
:10313000E896CFACE897E996DFACE997EA96EFAC72
:10314000EA97EB96FFACEB97EC960FADEC97ED960C
:103150001FADED97EE962FADEE97EF963FADEF9743
:10316000C158DF4F4881CF57D040C058DF4F5881FA
:10317000C058D040CF57DF4F6881C158D040CE579C
:10318000DF4F7881C258D040CE018A549F4F0E94B1
:10319000B61410E000E02AE431E14AEC51E060EEC0
:1031A00071E0CE0185599F4F0E942914AC96CFAC97
:1031B000AC97AD96DFACAD97AE96EFACAE97AF9651
:1031C000FFACAF97E0960FADE097E1961FADE197AA
:1031D000E2962FADE297E3963FADE397E4964FADCD
:1031E000E497E5965FADE597E6966FADE697E796CF
:1031F0007FADE797CE018A549F4F0E94B61410E02E
:1032000000E028E730E143EE51E06AEF71E0CE01E3
:10321000815A9F4F0E942914A096CFACA097A196E7
:10322000DFACA197A296EFACA297A396FFACA397B1
:10323000A4960FADA497A5961FADA597A6962FAD02
:10324000A697A7963FADA797A8964FADA897A99622
:103250005FADA997AA966FADAA97AB967FADAB97D6
:10326000CE018A549F4F0E94B61410E000E025EF73
:103270003FE04DEF51E06AE172E0CE018D5A9F4F81
:103280000E9429146496CFAC64976596DFAC65976D
:103290006696EFAC66976796FFAC679768960FAD3A
:1032A000689769961FAD69976A962FAD6A976B9676
:1032B0003FAD6B976C964FAD6C976D965FAD6D970C
:1032C0006E966FAD6E976F967FAD6F97CE018A54F5
:1032D0009F4F0E94B61410E000E022E63FE04DE16F
:1032E00052E06CE372E0CE01895B9F4F0E9429148B
:1032F0002896CFAC28972996DFAC29972A96EFAC71
:103300002A972B96FFAC2B972C960FAD2C972D96CA
:103310001FAD2D972E962FAD2E972F963FAD2F9741
:1033200060964FAD609761965FAD619762966FADA5
:10333000629763967FAD6397CE018A549F4F0E9438
:10334000B6148E010A541F4F23EE36E04FE352E0CD
:103350006DE472E0CE01CB960E942914CBACDCACBC
:10336000EDACFEAC0FAD21961FAD219722962FAD8F
:10337000229723963FAD239724964FAD2497259609
:103380005FAD259726966FAD269727967FAD279739
:10339000CE018A549F4F0E94B6148823F1F08E010B
:1033A0000A541F4F26E234E14FE452E064E572E034
:1033B000CE018F960E942914CFA4D8A8E9A8FAA814
:1033C0000BA91CA92DA93EA94FA958AD69AD7AAD8D
:1033D000CE018A549F4F0E94B614CE018A549F4F4B
:1033E0000E94B90606E111E0CA54DF4F8881998135
:1033F000C65BD040892B09F473C019A618A61BA67A
:103400001AA61AA309A380E2682E712CB301A401A5
:10341000CE0181960E946C0460913D0570913E053D
:10342000CE0181960E94B0038823F1F2CE018396EB
:103430000E941E04C055DF4F79836883C05BD04073
:10344000CE54DF4F99838883C25BD040CC54DF4F8A
:1034500019821882C45BD040CA54DF4F288039805B
:10346000C65BD0402114310421F1BE0160557F4F6D
:10347000F101808191810E94D705F1012280338082
:10348000F1CF883079F08A3009F0FDCC30922B05ED
:10349000FACC81E080932B05F6CC82E0FBCF209222
:1034A0002B05F1CC84E0F6CF8CE591E00E94750607
:1034B00038CDCC54DF4FA881B981C45BD040109780
:1034C00009F492CF1896ED91FC9119971A966D9187
:1034D0007C91309709F488CF90E080E0099584CF03
:1034E000CE018A549F4F0E940D14CE018A549F4FE3
:1034F0000E94B81386E592E00E94750600E010E095
:1035000001151105E9F30E940000FACFAA1BBB1BAD
:1035100051E107C0AA1FBB1FA617B70710F0A61BD3
:10352000B70B881F991F5A95A9F780959095BC01F4
:10353000CD010895A1E21A2EAA1BBB1BFD010DC0EF
:10354000AA1FBB1FEE1FFF1FA217B307E407F50753
:1035500020F0A21BB30BE40BF50B661F771F881F2F
:10356000991F1A9469F760957095809590959B01C5
:10357000AC01BD01CF010895EE0FFF1F0590F4913E
:10358000E02D0994A29FB001B39FC001A39F700DCD
:10359000811D1124911DB29F700D811D1124911D5B
:1035A00008950E94C21AA59F900DB49F900DA49FEC
:1035B000800D911D112408950F931F93CF93DF93D6
:1035C0008230910510F482E090E0E0915605F09190
:1035D000570530E020E0B0E0A0E0309799F42115E5
:1035E000310509F44AC0281B390B24303105D8F5C0
:1035F0008A819B816115710589F1FB019383828327
:10360000FE0111C040815181028113814817590781
:10361000E0F04817590799F4109761F012960C934F
:10362000129713961C933296CF01DF91CF911F9181
:103630000F9108950093560510935705F4CF211567
:10364000310551F04217530738F0A901DB019A0107
:10365000BD01DF01F801C1CFEF01F9CF909357050C
:1036600080935605CDCFFE01E20FF31F8193919316
:103670002250310939832883D7CF209154053091C6
:103680005505232B41F420910A0130910B01309311
:103690005505209354052091080130910901211509
:1036A000310541F42DB73EB740910C0150910D0109
:1036B000241B350BE0915405F0915505E217F307F3
:1036C000A0F42E1B3F0B2817390778F0AC014E5F92
:1036D0005F4F2417350748F04E0F5F1F5093550575
:1036E00040935405819391939FCFF0E0E0E09CCF0D
:1036F000CF93DF930097E9F0FC0132971382128297
:10370000A0915605B0915705ED0130E020E01097EB
:10371000A1F420813181820F931F209154053091B3
:1037200055052817390709F061C0F0935505E09356
:103730005405DF91CF910895EA01CE17DF07E8F530
:103740004A815B819E0141155105B1F7E901FB8377
:10375000EA8349915991C40FD51FEC17FD0761F415
:10376000808191810296840F951FE9019983888356
:10377000828193819B838A83F0E0E0E012968D91B1
:103780009C9113970097B9F52D913C911197CD011C
:103790000296820F931F20915405309155052817EA
:1037A000390739F6309751F51092570510925605A2
:1037B000B0935505A0935405BCCFD383C2834081F9
:1037C0005181840F951FC817D90761F44E5F5F4F71
:1037D00088819981480F591F518340838A819B8139
:1037E000938382832115310509F0B0CFF0935705FB
:1037F000E09356059ECFFD01DC01C0CF13821282FB
:06380000D7CFF894FFCFC2
:1038060079017901790101000000580580005C0208
:10381600A3020000000060030000FFFF000000009C
:103826000404E703E703E703E703000000003903A6
:10383600000000003503000000001E030000000029
:103846002F032D2D003D3D004661696C6564207493
:103856006F2070617273650059004E004661696C95
:10386600656420746F207365742066726571756572
:103876006E63792E004952207369676E616C207001
:103886006C617965722F7265636F7264657200424E
:103896006567696E207265636F7264696E67006240
:1038A60000456E64207265636F7264696E670052CC
:1038B60065706C6179206461746100446973636149
:1038C600726420646174610064005072696E7420D1
:1038D6006461746120746F206F7574736964650028
:1038E6006573004C6F616420646174612066726F59
:1038F6006D206F75747369646500656C005361763D
:1039060065206461746120746F20696E7465726EDF
:10391600616C206D656D6F7279006973004C6F6123
:103926006420646174612066726F6D20696E7465CF
:10393600726E616C206D656D6F727900696C004CFA
:1039460069737420636F6D6D616E6473003F00452B
:0C395600786974005E00446F6E6500002C
:00000001FF
