:100000000C9435000C945D000C945D000C945D0024
:100010000C945D000C945D000C945D000C94860FB4
:100020000C945D000C945F0F0C94380F0C94110F1E
:100030000C945D000C945D000C945D000C945D00CC
:100040000C94C70E0C945D000C945D000C945D0044
:100050000C945D000C945D000C945D000C945D00AC
:100060000C945D000C945D00990F11241FBECFEF1E
:10007000D8E0DEBFCDBF12E0A0E0B1E0E8E6FCE2F0
:1000800002C005900D92AE34B107D9F724E0AEE47A
:10009000B2E001C01D92A039B207E1F710E0C5E35C
:1000A000D0E004C02197FE010E94ED14C433D107B3
:1000B000C9F70E94E50F0C9432160C940000A09131
:1000C0007704B0917804ED91FC9111970190F08143
:1000D000E02D682FCD010994CF93C0E08091830477
:1000E000C81740F480E20E945F0080E20E945F0037
:1000F000CF5FF4CFCF910895DC0161157105D1F088
:1001000080918A0490918B048617970798F095E068
:10011000969FF001979FF00D112420918404309157
:100120008504E20FF31F359701900D929A95E1F740
:1001300081E0089580E00895CF93DF93CDB7DEB7D7
:100140002A970FB6F894DEBF0FBECDBF4E835F83F4
:10015000688779878A8780918A0490918B0420919F
:100160008804309189048217930751F480E02A961D
:100170000FB6F894DEBF0FBECDBFDF91CF910895CB
:10018000019690938B0480938A0425E0FE013696B5
:10019000DE01119601900D922A95E1F7009731F357
:1001A00025E0289FD001299FB00D1124809184045F
:1001B00090918504A80FB91F1597FE013196019003
:1001C0000D922A95E1F781E0D2CF089580914D04F8
:1001D00090914E04A0914F04B0915004409151046D
:1001E000509152046091530470915404840F951FF0
:1001F000A61FB71F80934D0490934E04A0934F0405
:10020000B093500408958091480490914904A091BE
:100210004A04B0914B0488519C4FAF4FBF4F80931D
:10022000480490934904A0934A04B0934B04089562
:10023000FC01E11589E0F80790F4683080F49081C2
:1002400021E030E001C0220F6A95EAF7413021F445
:10025000292B208381E0089520952923FACF80E07F
:1002600008954F925F926F927F928F929F92AF927A
:10027000BF92CF92DF92EF92FF920F931F93CF9393
:10028000DF934B015C01E42F8901C12CD12C760155
:10029000C394C1E0CE1751F0AAE0B0E0A7019601E7
:1002A0000E9402156B017C01CF5FF4CFC501B40140
:1002B000A70196010E94CB1480E02A303105410548
:1002C000510558F58AE0482E512C612C712CC5013E
:1002D000B401A70196010E94CB14D22F60E3620FF4
:1002E000D801ED91FC910190F081E02DC8010995B4
:1002F000AD2FB0E0A70196010E940215861A970A59
:10030000A80AB90AC701B601A30192010E94CB1441
:1003100069017A01C150D9F681E0DF91CF911F9137
:100320000F91FF90EF90DF90CF90BF90AF909F9094
:100330008F907F906F905F904F9008958F929F92D3
:10034000AF92BF92CF92DF92EF92FF920F931F93E3
:10035000CF93DF93EC014A015B01122FC12CD12C0A
:100360007601C394A7019601012E04C0220F331F0A
:10037000441F551F0A94D2F7211531054105510537
:1003800009F44EC060E078E488EE91E00E94CB145E
:10039000CA01B9016F5F7F4F8F4F9F4F9695879529
:1003A000779567956115710581059105C9F18114EE
:1003B0009104A104B104A1F1660F771F881F991F52
:1003C000A50194010E94CB142F5F3F4F4F4F5F4F09
:1003D00056954795379527952115310541055105C6
:1003E000F9F004C0CC0CDD1CEE1CFF1C0A95D2F702
:1003F000C216D306E406F50698F018832150310999
:100400003A83298381E0DF91CF911F910F91FF9073
:10041000EF90DF90CF90BF90AF909F908F90089516
:1004200080E0F1CF4F925F926F927F92AF92BF9236
:10043000CF92DF92EF92FF920F931F93CF93DF93B0
:10044000CDB7DEB76B970FB6F894DEBF0FBECDBF4A
:10045000AB8ABC8ACD8ADE8AEF8AF88E098F1A8F22
:100460002B8F29E0FE017396DE011A9601900D9202
:100470002A95E1F72B89222399F1EB8CFE013A961C
:1004800010E0AFEFAE0D3181313150F5A03140F5C4
:10049000112319F0B081B31718F51F5F31961213AD
:1004A000F2CF2A013B015C0189E0FE017396DE0177
:1004B000119601900D928A95E1F76E01F2E0CF0E50
:1004C000D11CF12CF60121916F010E2DB301A20177
:1004D000C5010E949E01811104C0F3941F11F2CF47
:1004E00080E06B960FB6F894DEBF0FBECDBFDF91F4
:1004F000CF911F910F91FF90EF90DF90CF90BF9021
:10050000AF907F906F905F904F900895AF92BF92A1
:10051000CF92DF92EF92FF920F931F93CF93DF93CF
:10052000CDB7DEB72C970FB6F894DEBF0FBECDBFA8
:100530008091C1008F718B7F8093C10086E0809392
:10054000C200FE01339687E0DF011D928A95E9F72C
:1005500082E0A82E93E0B92E24E0C22EDC80ED804C
:10056000FE800F8118852CE040E052EC61E070E0E5
:10057000CE010A960E941202882389F14A852B85B2
:100580003C853F703F709091C500907F932B909376
:10059000C5002093C4004330E1F49091C000926004
:1005A0009093C0009091C100906198609093C100B9
:1005B0002C960FB6F894DEBF0FBECDBFDF91CF9162
:1005C0001F910F91FF90EF90DF90CF90BF90AF9071
:1005D0000895443021F49091C0009D7FE1CF80E0E8
:1005E000E7CFE0916B04F0916C048181887F818377
:1005F000E0916704F0916804808180FF09C00E9447
:10060000E600E0916704F091680480818160808356
:1006100040914D0450914E0460914F0470915004EC
:10062000E0916D04F0916E048081E0915504A091F9
:100630006B04B0916C042E2F277011969C9111972A
:10064000987F922B11969C93E150E73028F5F0E0CB
:10065000E45DFC4F0C94ED14590333034F03510335
:1006600053035503570323E090E0B0E0A0E0019668
:10067000A11DB11D04C0880F991FAA1FBB1F2A9579
:10068000D2F724E0B695A795979587952A95D1F747
:10069000480F591F6A1F7B1FCB01BA01089525E03F
:1006A000E3CF26E0E1CF27E0DFCF28E0DDCF2AE06F
:1006B000DBCF20E0D9CFEF92FF920F931F93CF9320
:1006C000DF931F92CDB7DEB77C018B01D701ED918F
:1006D000FC910190F081E02DBE016F5F7F4FC7015B
:1006E0000995882399F0D801ED91FC910190F08152
:1006F000E02D6981C80109958111E8CF0F90DF9144
:10070000CF911F910F91FF90EF90089581E0F6CF68
:10071000CF93DF931F92CDB7DEB76983DC011296CA
:10072000ED91FC91CE01019609950F90DF91CF914B
:100730000895DC011296ED91FC91CB010994FB0127
:10074000108281E008950F931F93CF93DF93EC0104
:100750008D81882351F09E81DB019C931C821D8238
:10076000DF91CF911F910F9108958B018A819B8119
:10077000BE016A5F7F4FDC01ED91FC910190F08139
:10078000E02D0995882361F39E81F801908391E023
:100790009C83E6CFCF93DF931F92CDB7DEB7FC01EA
:1007A00069838681811118C06481758182819381FA
:1007B0006817790761F481E086830384F485E02D6E
:1007C000CE01019609950F90DF91CF910895CB014D
:1007D000019695838483F1CF80E0F5CFCF92DF92AD
:1007E000EF92FF921F93CF93DF931F92CDB7DEB7A7
:1007F0006C017B01BE016F5F7F4FC7010E94A303A5
:10080000182F882369F06981C6010E94CA038111EB
:10081000F1CFF7018481882319F091E09583182F97
:10082000812F0F90DF91CF911F91FF90EF90DF907C
:10083000CF900895EF92FF920F931F93CF93DF9382
:10084000CDB7DEB728970FB6F894DEBF0FBECDBF89
:100850007C018FE291E09A8389837C836B831D8284
:100860001E82BE01685F7F4FCE0101960E94A303E6
:10087000882369F088858032A1F38D3091F3895007
:10088000833078F38D81882311F081E08E8310E02E
:10089000BE01685F7F4FCE0101960E94A303082F1F
:1008A000882371F06885603259F06D3049F087EF28
:1008B000860F833028F0C7010E94CA03102FE8CFAB
:1008C000812F28960FB6F894DEBF0FBECDBFDF9103
:1008D000CF911F910F91FF90EF900895FC01CB01F4
:1008E0002681211113C064817581228133816217B1
:1008F000730731F421E026830384F485E02D099405
:100900009B012F5F3F4F35832483F6CF80E008950E
:10091000FC0145815681278130858481811121C068
:100920008281938121153105E1F066277727621BCB
:10093000730B64177507A8F08417950790F0B90139
:10094000640F751F615071096817790750F09C0199
:100950002F5F3F4F241B350B4115510511F02150DE
:100960003109BA01C9010895FC01CA01138212823A
:100970001182108221E0248361157105A9F02227DC
:100980003327261B370B2417350770F05383428318
:10099000860F971F01979183808314824583568326
:1009A0006783708781E0089580E00895CF93DF9397
:1009B000EC0102960E94B404882321F023E135E083
:1009C0003C872B87DF91CF910895CF93DF93CDB7ED
:1009D000DEB72F970FB6F894DEBF0FBECDBFAB01C9
:1009E000BC0185E391E09F878E87198618861B8658
:1009F0001A868FE191E09A838983CE0101960E9445
:100A0000D604882339F0BE016F5F7F4FCE010E966A
:100A10000E945B032F960FB6F894DEBF0FBECDBFCA
:100A2000DF91CF910895611529E0720730F4FC0140
:100A30008081FB01808381E0089580E00895CF9359
:100A4000DF93EC0102960E94B404882321F02CE786
:100A500037E03C872B87DF91CF910895CF93DF93C9
:100A6000CDB7DEB72D970FB6F894DEBF0FBECDBF62
:100A7000AB01BC01198618861B861A8689E291E0B3
:100A80009A838983CE0101960E941F05882341F035
:100A90006091770470917804CE0101960E945B0307
:100AA0002D960FB6F894DEBF0FBECDBFDF91CF916C
:100AB0000895CF92DF92EF92FF926B017C018091BB
:100AC0008104909182040097E9F081309105F1F062
:100AD0000297C1F08091810490918204009729F0DF
:100AE0008D7F019711F40E946C00C701B6010E942E
:100AF0002E051092820410928104FF90EF90DF90F7
:100B0000CF90089580E20E945F00E4CF8AE0FBCF9F
:100B1000CF92DF92EF92FF920F931F93CF93DF93C9
:100B2000CDB7DEB7A0970FB6F894DEBF0FBECDBF2E
:100B30006C018B01198618861B861A868FE191E05D
:100B40009A8389831E8A1D8A188E1F8A89E291E002
:100B50009F878E87AE01455E5F4F65E070E0CE01F6
:100B600001960E94D604B801CE0101960E941A0493
:100B7000F82E882391F1CE0103960E948804AB01E0
:100B8000BC01CE010E960E941F0510E000E08AE035
:100B9000E82EBE01605E7F4FCE010E960E946E046D
:100BA0008823C1F088A180538A3038F50A3999E149
:100BB000190718F5E09E9001E19E300D1124082FD1
:100BC00010E0C8018095909582179307B0F0020F4E
:100BD000131FDFCFF601118300838F2DA0960FB670
:100BE000F894DEBF0FBECDBFDF91CF911F910F9163
:100BF000FF90EF90DF90CF900895F12CEECFCF9241
:100C0000DF92EF92FF920F931F93CF93DF93CDB7B5
:100C1000DEB76C970FB6F894DEBF0FBECDBF69018B
:100C20007A01198618861B861A8629E231E03A83F2
:100C300029831E8A1D8A188E1F8A3F872E87AB0143
:100C4000BC01CE0101960E941F05811102C080E007
:100C500021C0B701A601CE010E960E941F05882370
:100C6000B1F311E0BE01645E7F4FCE0101960E9498
:100C70006E04082FBE01655E7F4FCE010E960E9466
:100C80006E048127002331F08111E1CF2C8D9B8DE3
:100C9000291741F36C960FB6F894DEBF0FBECDBF97
:100CA000DF91CF911F910F91FF90EF90DF90CF9048
:100CB00008950F931F93CF93DF938C01EB0128814D
:100CC00039814A815B81FC016081718182819381DC
:100CD0000E94FF05882311F01D830C83DF91CF91C3
:100CE0001F910F910895CF92DF92EF92FF92CF93D1
:100CF000DF93CDB7DEB76A970FB6F894DEBF0FBEAD
:100D0000CDBF6B017C01BA01A901198618861B862B
:100D10001A8689E291E09A8389831E8A1D8A188E39
:100D20001F8A8FE191E09F878E87CE0101960E94F6
:100D30001F05882379F0B701A601CE010E960E9407
:100D4000D604882339F0BE01625F7F4FCE01019641
:100D50000E945B036A960FB6F894DEBF0FBECDBF4C
:100D6000DF91CF91FF90EF90DF90CF900895EF92B9
:100D7000FF920F931F93CF93DF93CDB7DEB72E97DC
:100D80000FB6F894DEBF0FBECDBF7C011986188662
:100D90001B861A8689E291E09A838983A7016627D8
:100DA00077276E197F09CE0101960E941F0510E07A
:100DB00000E0BE01625F7F4FCE0101960E946E048B
:100DC000882331F08E85882319F00F5F1F4FF1CFF4
:100DD000B701C8012E960FB6F894DEBF0FBECDBF87
:100DE000DF91CF911F910F91FF90EF900895CF92D7
:100DF000DF92EF92FF920E94B7066B017C01809117
:100E00008104909182040397D0F0809181049091A5
:100E10008204049710F40E946C00C701B6010E947E
:100E20002E058AE00E945F0083E090E090938204A8
:100E300080938104FF90EF90DF90CF9008958AE037
:100E40000E945F00E2CFCF93DF93EC01688179814C
:100E50008A819B810E9459058E819F81892B61F037
:100E600084E491E00E94B7060E9459056C817D815F
:100E70008E819F810E945905809181049091820406
:100E8000039748F083E090E090938204809381047C
:100E9000DF91CF9108958AE00E945F00F3CFCF9356
:100EA000DF93EC0183E491E00E94F70680918304D4
:100EB000823319F08F5F809383040990D881C02D0D
:100EC000209751F070E060E0888199810E942307AB
:100ED0000A80DB81C02DF4CF80918304882319F030
:100EE00081508093830486E491E0DF91CF910C944C
:100EF000F706CB010C944F07611529E0720730F417
:100F0000FB012081FC01208381E0089580E00895A9
:100F1000FC0180819091C00095FFFCCF8093C600BA
:100F20008091C00086FFFCCF8091C00080648093D8
:100F3000C00081E00895FC018091C00087FFFCCFD4
:100F40009091C0009695969597708091C600808389
:100F50009111F2CF81E00895611524E07207A8F4A1
:100F6000F999FECFFC01908161BD272F237082B5D6
:100F70008C7F822B82BD90BD8FB7F894FA9AF99A34
:100F80008FBFF999FECF81E0089580E00895FC01BC
:100F9000611584E0780780F4F999FECF61BD872F51
:100FA000837092B59C7F982B92BDF89AF899FECFEA
:100FB00080B5808381E0089580E0089583309105B5
:100FC000D0F00297B0E0A0E0BC01CD0124E0660FB4
:100FD000771F881F991F2A95D1F724E130E040E060
:100FE00050E00E94CB142115310529F0C9010E945F
:100FF000900F0197E1F70895CF93DF93EC01CB01B8
:101000000E94DE07209731F08FEF9FEF0E94DE07EE
:101010002197F8CFDF91CF910895FC0186E390E00E
:10102000918380838FE690E09383828380E890E0D1
:101030009583848384E890E09783868386E890E0B4
:101040009187808788E890E0938782878AE890E09C
:101050009587848708958F929F92AF92BF92CF9287
:10106000DF92EF92FF920F931F93CF93DF93CDB751
:10107000DEB763970FB6F894DEBF0FBECDBFCE01CB
:1010800001960E940D08ED81FE81118116FB11274A
:1010900010F901E01027E985FA8520813181C0909F
:1010A0004804D0904904E0904A04F0904B04A8EE24
:1010B000B3E00E94F314209104013091050150E047
:1010C00040E00E94CB14BA01A901662777274C0D96
:1010D0005D1D6E1D7F1D80914704811127C01093F7
:1010E0004204409343045093440460934504709336
:1010F000460400934704ED81FE81918181818F7BBD
:1011000096FF8064818363960FB6F894DEBF0FBEAE
:10111000CDBFDF91CF911F910F91FF90EF90DF90A6
:10112000CF90BF90AF909F908F9008958091420490
:101130008F87C0904304D0904404E0904504F09021
:1011400046044A015B018C189D08AE08BF08750172
:101150006401982DC88AD98AEA8AFB8A10934204CE
:1011600040934304509344046093450470934604B1
:10117000AC0169897A898B890E949C00BCCFAF92AF
:10118000BF92CF92DF92EF92FF920F931F93CF9374
:10119000DF93CDB7DEB7A8970FB6F894DEBF0FBECA
:1011A000CDBF10928B0410928A041E8A1D8A188E5D
:1011B0001F8A89E291E09F878E874091210150919B
:1011C00022016091230170912401CE0140960E947A
:1011D000B404882321F087EC97E09A8F898F8FE2FF
:1011E00091E09C8F8B8F198618861B861A868FE15B
:1011F00091E09A838983CE010E969E8F8D8F1F8EEC
:1012000018A2AE01495D5F4F62E070E00D970E9449
:10121000D604BE01655E7F4FCE0101960E94EE03AB
:10122000882349F101E010E05E0182E2A80EB11CC2
:101230008FA198A580179107F0F085E0E82EF12C9A
:10124000B701A501CE0101960E94D604BE01655EDC
:101250007F4FCE0101960E94EE03882361F04AA1E0
:101260005BA16CA17DA18EA10E949C00882319F036
:101270000F5F1F4FDDCFA8960FB6F894DEBF0FBEED
:10128000CDBFDF91CF911F910F91FF90EF90DF9035
:10129000CF90BF90AF900895AF92BF92CF92DF9260
:1012A000EF92FF920F931F93CF93DF93CDB7DEB7EB
:1012B000A1970FB6F894DEBF0FBECDBF1E8A1D8A60
:1012C000188E1F8A8FE191E09F878E8740912101C0
:1012D000509122016091230170912401CE0140962A
:1012E0000E94B404882321F08CEA97E09A8F898FBA
:1012F000198618861B861A8689E291E09A8389836B
:1013000080918A0490918B0499A388A3AE01405EDA
:101310005F4F62E070E0CE0101960E941F05BE01A2
:10132000625F7F4FCE0101960E945B03882331F1FB
:1013300001E010E05E018BE1A80EB11C88A199A12B
:1013400080179107D8F0B801C5010E947C0088235E
:10135000A9F085E0E82EF12CB701A501CE01019698
:101360000E941F05BE01625F7F4FCE0101960E9461
:101370005B03882319F00F5F1F4FE0CFA1960FB6D4
:10138000F894DEBF0FBECDBFDF91CF911F910F91BB
:10139000FF90EF90DF90CF90BF90AF9008952F9285
:1013A0003F924F925F926F927F928F929F92AF92F5
:1013B000BF92CF92DF92EF92FF920F931F93CF9342
:1013C000DF93CDB7DEB7A0970FB6F894DEBF0FBEA0
:1013D000CDBF10928B0410928A0400917504109175
:1013E0007604B801CE014D960E948805882309F441
:1013F000C9C0EE24E394F12C8D8D9E8D8E159F0532
:1014000008F4C4C09E01255E3F4F82E0682E712C17
:10141000198618861B861A868FE191E09A83898344
:10142000B301A901CE0101960E94D604B801CE01F4
:1014300001960E941A04882309F4A4C0CE010396E1
:101440000E9488044B015C01209163043091640484
:1014500040916504509166040E94FF05882309F4B9
:1014600081C091E09E8BB801CE0101960E94880553
:10147000882309F487C0B801CE0103960E9488052D
:10148000882309F47FC0B801CE0105960E94880523
:10149000882309F477C0B801CE0107960E94880519
:1014A000882309F46FC089819A81049708F06AC083
:1014B0002B803C8028EE221623E0320608F062C022
:1014C000CD80DE8038EEC31633E0D30608F05AC074
:1014D0008F81988598A38F8F883E934008F052C0E3
:1014E00088E0FE013196DE011E9601900D928A95EC
:1014F000E1F7AE85BF85A430B10508F043C020E018
:101500003AEC4AE95BE30E9402154B015C01D10110
:1015100020E432E44FE050E00E940215860E971E50
:10152000A81EB91E9601A8EEB3E00E94F314DC01D8
:10153000CB01880D991DAA1DBB1D2F8D38A1820FCF
:10154000931FA11DB11D582F8F8B988FA98FBA8F14
:101550004E89688D798D8A8D0E949C003FEFE31A39
:10156000F30A4ACF20915F043091600440916104F6
:1015700050916204C501B4010E94FF05882311F057
:101580001E8A71CF89E491E00E94F706A0960FB6FB
:10159000F894DEBF0FBECDBFDF91CF911F910F91A9
:1015A000FF90EF90DF90CF90BF90AF909F908F9083
:1015B0007F906F905F904F903F902F9008952F9263
:1015C0003F924F925F926F927F928F929F92AF92D3
:1015D000BF92CF92DF92EF92FF920F931F93CF9320
:1015E000DF93CDB7DEB768970FB6F894DEBF0FBEB6
:1015F000CDBF009177041091780420918A04309136
:101600008B043C8B2B8BB90190E080E0980145E086
:101610000E943101D801ED91FC910190F081E02D03
:101620006AE0C801099588248394912C98EE492E8C
:1016300093E0592E612C712C2B893C892815390592
:1016400008F4C0C0B401CE010E960E947C00AF84A5
:10165000B888C988DA888E85198618861B861A8606
:10166000A9E2B1E0BA83A983882309F499C0409123
:101670006304509164046091650470916604CE0126
:1016800001960E941F05B801CE0101960E945B03DE
:10169000D801ED91FC910190F081E02D60E2C8014C
:1016A0000995C601B50120E03AEC4AE95BE30E94E6
:1016B000CB1479012430310509F47BC0C601B50192
:1016C00020E432E44FE050E00E94CB14CA01B9019B
:1016D000A30192010E94CB141B01C601B501A30115
:1016E00092010E94CB146D8B7E8B8F8B988FCA01D9
:1016F000B901A30192010E94CB145B01CD88DE8861
:10170000B70190E080E0980141E00E943101882318
:10171000D1F1D801ED91FC910190F081E02D60E2D2
:10172000C8010995882379F1B10190E080E0980122
:1017300043E00E943101882331F1D801ED91FC9101
:101740000190F081E02D60E2C80109958823D9F06D
:10175000B50190E080E0980143E00E9431018823C8
:1017600091F0D801ED91FC910190F081E02D60E2C3
:10177000C8010995882339F0B60190E080E098010E
:1017800043E00E943101D801ED91FC910190F0817C
:10179000E02D6AE0C8010995BFEF8B1A9B0A4CCF78
:1017A00040915F0450916004609161047091620403
:1017B00066CF312C212CD12CC12CF12CE12CB12C59
:1017C000A12C9ECF68960FB6F894DEBF0FBECDBF9A
:1017D000DF91CF911F910F91FF90EF90DF90CF900D
:1017E000BF90AF909F908F907F906F905F904F9041
:1017F0003F902F9008954F925F926F927F929F92A9
:10180000AF92BF92CF92DF92EF92FF920F931F930E
:10181000CF93DF9300D000D01F92CDB7DEB7A0905A
:101820008A04B0908B0401E010E0A016B10608F421
:1018300077C0B801CE0101960E947C008981CA80E0
:10184000DB80EC80FD80882309F45BC09FB6F894B0
:101850000E94F10225B5287F226025BD24B52F7393
:10186000206424BDC60ED71EE81EF91E26013701CE
:1018700028E2421A51086108710836E943165104FA
:1018800061047104C0F04EEBC41AD108E108F108FC
:101890006C157D058E059F0570F49FBEA70196010E
:1018A000261B370B480B590BCA01B9010E94FC07D4
:1018B000F8940E94F1024616570668067906E8F089
:1018C000A3019201261B370B480B590BCA01B90122
:1018D0000E94FC0785B5877061F084B5806C84BD7B
:1018E000A99AA99BFECF84B58F7384BD85B5887FE7
:1018F00085BD9FBE0F5F1F4F98CF60E070E0CB01AA
:10190000E7CF3DE3C316D104E104F10498F3C70126
:10191000B6016C537109810991090E94FC07EACF55
:101920000F900F900F900F900F90DF91CF911F911C
:101930000F91FF90EF90DF90CF90BF90AF909F906E
:101940007F906F905F904F900895CF93DF93CDB7C6
:10195000DEB76C970FB6F894DEBF0FBECDBFCE01D9
:101960000F960E940D08CE0101960E940D08ED8190
:10197000FE818181887F8183E989FA8980818F7DD9
:101980008083EF85F8898081806280836C960FB6B2
:10199000F894DEBF0FBECDBFDF91CF910895CF93F6
:1019A000DF93CDB7DEB76C970FB6F894DEBF0FBEEE
:1019B000CDBF10928B0410928A04CE010F960E9424
:1019C0000D0810924704EF85F8898081806280833A
:1019D000A989BA898C9180628C93109248041092E4
:1019E000490410924A0410924B04AD89BE891196A5
:1019F0001C921E92808182608083CE0101960E949B
:101A00000D08ED81FE8190914C0497708181887F53
:101A1000892B81836C960FB6F894DEBF0FBECDBFC5
:101A2000DF91CF9108950F931F93CF93DF93EC0134
:101A30008B01CB010E940D15009781F0998388835B
:101A40001B830A83688179818A819B810E94E504D6
:101A500081E0DF91CF911F910F91089580E0F9CF40
:101A6000CF93DF93EC018A819B810097B1F0919530
:101A700081959109288139818217930770F06881D7
:101A800079818A819B810E94E504888199810E94E5
:101A9000A915198218821B821A82DF91CF910895AD
:101AA000CF92DF92EF92FF920F931F93CF93DF932A
:101AB00000D000D0CDB7DEB78C0184E0C82ED12C89
:101AC000D801ED91FC91309771F0E280F380FA83B8
:101AD000E983DC82CB82CE0101960E94300DF801B1
:101AE000F182E082EDCF0F900F900F900F90DF9179
:101AF000CF911F910F91FF90EF90DF90CF900895BD
:101B00000F931F93CF93DF9300D000D0CDB7DEB7F4
:101B10008C019A8389838CE090E09C838B83C8013D
:101B20000E94300DC80104960E94300DCE0101962E
:101B30000E94300D0F900F900F900F90DF91CF917A
:101B40001F910F9108950C94800D0F931F93CF93C5
:101B5000DF938C01FC01C081D181209741F0888105
:101B600099810E94800D0A80DB81C02DF6CFC801CB
:101B7000DF91CF911F910F910C94500DCB010C94DC
:101B8000A50D4F925F926F927F928F929F92AF922C
:101B9000BF92CF92DF92EF92FF920F931F93CF935A
:101BA000DF93CDB7DEB728970FB6F894DEBF0FBE30
:101BB000CDBF7C01CB015A0169011A8219821C82B6
:101BC0001B821E821D8218861F820E94B7062B016F
:101BD0003C01C5010E94B7064B015C016114710410
:101BE00009F5F70111821082138212821582148284
:101BF00017821682C70128960FB6F894DEBF0FBE73
:101C0000CDBFDF91CF911F910F91FF90EF90DF90AB
:101C1000CF90BF90AF909F908F907F906F905F908C
:101C20004F900895B301CE0101960E94130D8823B1
:101C3000C1F269817A818B819C81A30192010E940A
:101C40007306A114B10429F4CE0101960E94300D4F
:101C5000C8CFB501CE0105960E94130D8823A1F3CC
:101C60006D817E818F819885A50194010E94730604
:101C700049815A816B817C818D819E81AF81B8853C
:101C8000F701408351836283738384839583A683A2
:101C9000B783D186C08613870287ACCFAF92BF923D
:101CA000CF92DF92EF92FF920F931F93CF93DF9328
:101CB000CDB7DEB764970FB6F894DEBF0FBECDBFC9
:101CC0005C01C986DA86EB86FC860D871E872F8726
:101CD000388B498B5A8B6B8B7C8B1E821D821886AE
:101CE0001F826CE070E0CE0105960E94130D182F44
:101CF0008823F1F09E01275F3F4F4CE050E06D815B
:101D00007E818F8198850E947306ED80FE801A8205
:101D100019821C821B8264E070E0CE0101960E9451
:101D2000130D182F811116C0CE0105960E94300D9B
:101D3000812F64960FB6F894DEBF0FBECDBFDF9142
:101D4000CF911F910F91FF90EF90DF90CF90BF90B8
:101D5000AF900895E981FA81F182E082D5018D91F9
:101D60009C911197892B11F4ED93FC93D501129658
:101D70008D919C91009729F0DC011396FC93EE93D2
:101D80001297D5011396FC93EE931297D1CF1F9221
:101D90000F920FB60F9211242F933F938F939F931F
:101DA000AF93BF9380915B0490915C04A0915D041C
:101DB000B0915E0430915A0423E0230F2D3758F57B
:101DC0000196A11DB11D20935A0480935B0490934A
:101DD0005C04A0935D04B0935E04809156049091DE
:101DE0005704A0915804B09159040196A11DB11D4A
:101DF0008093560490935704A0935804B0935904C9
:101E0000BF91AF919F918F913F912F910F900FBEF6
:101E10000F901F90189526E8230F0296A11DB11D63
:101E2000D2CF1F920F920FB60F9211242F933F9390
:101E30004F935F936F937F938F939F93AF93BF93D2
:101E4000EF93FF93E0910201F09103010995FF9157
:101E5000EF91BF91AF919F918F917F916F915F9122
:101E60004F913F912F910F900FBE0F901F9018959B
:101E70001F920F920FB60F9211242F933F934F93FF
:101E80005F936F937F938F939F93AF93BF93EF93E2
:101E9000FF93E0910001F09101010995FF91EF910D
:101EA000BF91AF919F918F917F916F915F914F9172
:101EB0003F912F910F900FBE0F901F9018951F927A
:101EC0000F920FB60F9211242F933F934F935F936E
:101ED0006F937F938F939F93AF93BF93EF93FF93F2
:101EE000E0910601F09107010995FF91EF91BF91F3
:101EF000AF919F918F917F916F915F914F913F91A2
:101F00002F910F900FBE0F901F9018951F920F9258
:101F10000FB60F9211240F900FBE0F901F901895BF
:101F200000000000000000000000000000000000B1
:101F3000089589E591E00E94B70660936304709369
:101F4000640480936504909366048BE591E00E949D
:101F5000B70660935F04709360048093610490936C
:101F60006204E7E6F4E087E390E09183808380E712
:101F700090E09383828380EB90E09583848382EB6F
:101F800090E09783868383EB90E09187808784EB52
:101F900090E09387828786EB90E095878487E5E7DA
:101FA000F4E081E491E0958384838BE391E0918771
:101FB000808783E090E0958784871686E4E8F4E0E4
:101FC00011821082138212820895CF93DF93CDB7CE
:101FD000DEB7C35DD1090FB6F894DEBF0FBECDBF2B
:101FE000789484B5826084BD84B5816084BD85B5F4
:101FF000826085BD85B5816085BD80916E00816000
:1020000080936E00109281008091810082608093A5
:1020100081008091810081608093810080918000A7
:102020008160809380008091B10084608093B100D2
:102030008091B00081608093B00080917A008460CC
:1020400080937A0080917A00826080937A008091F8
:102050007A00816080937A0080917A008068809312
:102060007A001092C1000E948602882331F08BE929
:1020700097E090937C0480937B040E9486028823DF
:1020800031F088E897E09093800480937F0489E79B
:1020900094E090937604809375048DE794E0909398
:1020A00078048093770480910E0190910F01A091A4
:1020B0001001B09111018093840490938504A09342
:1020C0008604B093870484E690E09093890480931B
:1020D000880410928B0410928A04CE0181960E948B
:1020E0000D0840E060E084E290E00E94180141E0C9
:1020F00060E085E290E00E941801CE0101964C015B
:102100000E940D08ED81FE818181887F8183EDA190
:10211000FEA180818C7F80838181877E886081831E
:10212000FE01E154FF4F89E0DF011D928A95E9F736
:1021300065E0362E308273E0272E228286E083838C
:1021400088E084838AE0858380E18087A5E0AA2EE9
:10215000B180B3E0CB2E16E0D12E08E0E02E8AE06D
:10216000F82E0681178120E148EE53E060E070E030
:10217000C4010E9412028A819B81EBA5FCA5918378
:1021800080838A819B81019690930501809304014D
:102190008981863009F4D0C008F0C0C0882309F4D2
:1021A000C5C0833009F4C6C083E091E09093030179
:1021B00080930201EBA1FCA180812BE238E03093F7
:1021C00001012093000182608F7D8083EDA1FEA13B
:1021D00081818F7B818389E0E2E1F1E0DE01AA5415
:1021E000BF4F01900D928A95E1F789E0FE01EA5414
:1021F000FF4FDE01A355BF4F01900D928A95E1F785
:1022000089E0FE01E355FF4FDE01AC55BF4F019061
:102210000D928A95E1F7FE01EC55FF4F80E0918128
:10222000913108F0D9C0882321F02081291708F0C6
:10223000D3C08F5F3196873091F789E0FE01E35577
:10224000FF4FDE01A556BF4F01900D928A95E1F731
:102250008BE990E08C0F9D1F0196CE52DF4F998342
:102260008883C25DD04000E022242A94322CAA2424
:10227000AA94BA2C10E020E4C22E22E4D22E2FE041
:10228000E22EF12CCE52DF4FE881F981C25DD040C1
:102290008191CE52DF4FF983E883C25DD04020E0C8
:1022A00034E244EF50E004C05695479537952795A2
:1022B0008A95D2F7C701B6010E94CB1422303105AE
:1022C00008F03FC082E090E0821B930B9C01A216B5
:1022D000B30648F02216330610F0012F19011F5FD4
:1022E0005901173079F6EBE9F0E0EC0FFD1FE00F34
:1022F000F11D21812B3008F06FC0E22FF0E0ED5787
:10230000FE4E0C94ED14A411EC11EC116E14EC11B2
:102310007014721474147614EC117814883079F0F7
:102320008A3009F041CF30924C043ECF81E0809357
:102330004C043ACF82E0FBCF20924C0435CF84E0AE
:10234000F6CF22503109C3CF81E08093550480E05D
:1023500091E0A0E0B0E004C0880F991FAA1FBB1F46
:102360002A95D2F754E0B695A795979587955A95F3
:10237000D1F78093510490935204A0935304B093E7
:102380005404E0916B04F0916C0480818C7F808315
:102390008181877F818386EE90E09093070180930F
:1023A0000601E0916704F091680480818160808378
:1023B000E0916904F0916A04808181608083E091FA
:1023C0006D04F0916E04108210924D0410924E0430
:1023D00010924F0410925004E0916B04F0916C0441
:1023E0002091550427709181987F922B9183818150
:1023F000887F822B818308E023E040EE58E261E091
:1024000070E0C4010E949E01811174C28DE591E0CB
:102410000E94F70686E791E00E94F706C253DF4F5D
:1024200019821882CE5CD040C053DF4F19821882C7
:10243000C05DD04010E000E02FEC3CE040E951E00E
:1024400060EA71E0CE0181579F4F0E94C10DC157D4
:10245000DF4FC880CF58D040C057DF4FD880C05919
:10246000D040CF56DF4FE880C159D040CE56DF4F25
:10247000F880C259D040CD56DF4F0881C359D040B3
:10248000CC56DF4F1881C459D040CB56DF4F28813E
:10249000C559D040CA56DF4F3881C659D040C956B9
:1024A000DF4F4881C759D040C856DF4F5881C859BF
:1024B000D040C756DF4F6881C959D040C656DF4F5C
:1024C0007881CA59D040CE0182539F4F0E944E0E50
:1024D00010E000E025EA3CE042EA51E06AEE71E0FB
:1024E000CE018D579F4F0E94C10DCD57DF4FC88041
:1024F000C358D040CC57DF4FD880C458D040CB57BA
:10250000DF4FE880C558D040CA57DF4FF880C65823
:10251000D040C957DF4F0881C758D040C857DF4F58
:102520001881C858D040C757DF4F2881C958D040BC
:10253000C657DF4F3881CA58D040C557DF4F488152
:10254000CB58D040C457DF4F5881CC58D040C357E8
:10255000DF4F6881CD58D040C257DF4F7881CE58C9
:10256000D040CE0182539F4F0E944E0E10E000E0FB
:102570002BEF3BE040EB51E06AEB71E0CE01895874
:102580009F4F0E94C10DE896CFACE897E996DFAC6B
:10259000E997EA96EFACEA97EB96FFACEB97EC96EF
:1025A0000FADEC97ED961FADED97EE962FADEE9734
:1025B000EF963FADEF97C158DF4F4881CF57D040DE
:1025C000C058DF4F5881C058D040CF57DF4F688187
:1025D000C158D040CE57DF4F7881C258D040CE018D
:1025E00082539F4F0E944E0E10E000E02FED3AE024
:1025F0004CEB51E062ED71E0CE0185599F4F0E9496
:10260000C10DAC96CFACAC97AD96DFACAD97AE96A6
:10261000EFACAE97AF96FFACAF97E0960FADE097FB
:10262000E1961FADE197E2962FADE297E3963FADBD
:10263000E397E4964FADE497E5965FADE597E696B0
:102640006FADE697E7967FADE797CE0182539F4F38
:102650000E944E0E10E000E02FEC39E045ED51E015
:102660006CEE71E0CE01815A9F4F0E94C10DA09681
:10267000CFACA097A196DFACA197A296EFACA297A2
:10268000A396FFACA397A4960FADA497A5961FADF4
:10269000A597A6962FADA697A7963FADA797A89604
:1026A0004FADA897A9965FADA997AA966FADAA97C7
:1026B000AB967FADAB97CE0182539F4F0E944E0EDB
:1026C00010E000E02CE439E04FEE51E06CE072E005
:1026D000CE018D5A9F4F0E94C10D6496CFAC649776
:1026E0006596DFAC65976696EFAC66976796FFAC2C
:1026F000679768960FAD689769961FAD69976A9658
:102700002FAD6A976B963FAD6B976C964FAD6C97FC
:102710006D965FAD6D976E966FAD6E976F967FAD50
:102720006F97CE0182539F4F0E944E0E10E000E043
:102730002FEB38E04FE052E06EE272E0CE01895BB1
:102740009F4F0E94C10D2896CFAC28972996DFACE9
:1027500029972A96EFAC2A972B96FFAC2B972C96AD
:102760000FAD2C972D961FAD2D972E962FAD2E9732
:102770002F963FAD2F9760964FAD609761965FADF6
:10278000619762966FAD629763967FAD6397CE0156
:1027900082539F4F0E944E0E8E0102531F4F29E716
:1027A00037E041E352E06FE372E0CE01CB960E9446
:1027B000C10DCBACDCACEDACFEAC0FAD21961FADCA
:1027C000219722962FAD229723963FAD23972496EB
:1027D0004FAD249725965FAD259726966FAD26972A
:1027E00027967FAD2797CE0182539F4F0E944E0EB2
:1027F0008823F1F08E0102531F4F2EEB3DE041E4A0
:1028000052E066E472E0CE018F960E94C10DCFA423
:10281000D8A8E9A8FAA80BA91CA92DA93EA94FA9D7
:1028200058AD69AD7AADCE0182539F4F0E944E0ED6
:10283000CE0182539F4F0E944F074FE1E42E41E0AB
:10284000F42EC253DF4F88819981CE5CD040892B12
:1028500009F48BC019A618A61BA61AA6FAA2E9A20B
:1028600030E2632E712CB301A401CE0181960E9447
:10287000D6046091750470917604CE0181960E9411
:102880001A048823F1F2CE0183960E948804C8536B
:10289000DF4F79836883C85CD040C653DF4F99838C
:1028A0008883CA5CD040C453DF4F19821882CC5C45
:1028B000D040C253DF4F08811981CE5CD040011552
:1028C0001105E1F1BE0168537F4FD8018D919C91B4
:1028D0000E945906F80102811381F1CF82E035CDC3
:1028E00083E033CD84E031CD85E02FCD86E02DCD62
:1028F00087E02BCD41E066E08AE290E00E9418017B
:1029000040E066E08BE290E00E94180140E066E063
:102910008BE290E00E94180185B5887F85BD84B563
:10292000836084BD85B5886085BD8A8187BD16BCFE
:1029300080916E008E7F80936E006CCDC453DF4F0C
:10294000A881B981CC5CD040109709F47ACF189651
:10295000ED91FC9119971A966D917C91309709F43D
:1029600070CF90E080E009956CCFCE0182539F4FED
:102970000E94A50DCE0182539F4F0E94500D88E406
:1029800092E00E94F70600E010E001151105E9F35E
:102990000E940000FACFA1E21A2EAA1BBB1BFD0168
:1029A0000DC0AA1FBB1FEE1FFF1FA217B307E4072E
:1029B000F50720F0A21BB30BE40BF50B661F771F86
:1029C000881F991F1A9469F7609570958095909566
:1029D0009B01AC01BD01CF010895EE0FFF1F0590D3
:1029E000F491E02D0994A29FB001B39FC001A39F71
:1029F000700D811D1124911DB29F700D811D112438
:102A0000911D08950E94F314A59F900DB49F900D01
:102A1000A49F800D911D112408950F931F93CF93B0
:102A2000DF938230910510F482E090E0E0918E0413
:102A3000F0918F0430E020E0B0E0A0E0309799F40E
:102A40002115310509F44AC0281B390B2430310502
:102A5000D8F58A819B816115710589F1FB0193830A
:102A60008283FE0111C04081518102811381481788
:102A70005907E0F04817590799F4109761F012963A
:102A80000C93129713961C933296CF01DF91CF913E
:102A90001F910F91089500938E0410938F04F4CF2B
:102AA0002115310551F04217530738F0A901DB0118
:102AB0009A01BD01DF01F801C1CFEF01F9CF909379
:102AC0008F0480938E04CDCFFE01E20FF31F81931C
:102AD00091932250310939832883D7CF20918C04D8
:102AE00030918D04232B41F420910A0130910B0188
:102AF00030938D0420938C042091080130910901BA
:102B00002115310541F42DB73EB740910C0150918C
:102B10000D01241B350BE0918C04F0918D04E2171C
:102B2000F307A0F42E1B3F0B2817390778F0AC01F0
:102B30004E5F5F4F2417350748F04E0F5F1F5093CD
:102B40008D0440938C04819391939FCFF0E0E0E05B
:102B50009CCFCF93DF930097E9F0FC01329713826B
:102B60001282A0918E04B0918F04ED0130E020E03C
:102B70001097A1F420813181820F931F20918C0442
:102B800030918D042817390709F061C0F0938D0446
:102B9000E0938C04DF91CF910895EA01CE17DF070F
:102BA000E8F54A815B819E0141155105B1F7E901C4
:102BB000FB83EA8349915991C40FD51FEC17FD0798
:102BC00061F4808191810296840F951FE9019983B8
:102BD0008883828193819B838A83F0E0E0E0129670
:102BE0008D919C9113970097B9F52D913C91119778
:102BF000CD010296820F931F20918C0430918D0499
:102C00002817390739F6309751F510928F04109232
:102C10008E04B0938D04A0938C04BCCFD383C28365
:102C200040815181840F951FC817D90761F44E5F09
:102C30005F4F88819981480F591F518340838A8152
:102C40009B81938382832115310509F0B0CFF093E6
:102C50008F04E0938E049ECFFD01DC01C0CF138270
:082C60001282D7CFF894FFCFD8
:102C6800E500E5000100E5000000900480004E0248
:102C7800F401070003050607080A0800000000CA57
:102C8800030000FFFF000000006E0400000000A326
:102C980003000000009F03000000008803000000FC
:102CA8000099032D2D003D3D004661696C65642047
:102CB800746F2070617273650059004E0046616937
:102CC8006C656420746F2073657420667265717515
:102CD800656E63792E004952207369676E616C20B6
:102CE800706C617965722F7265636F7264657200CA
:102CF800426567696E207265636F7264696E67000A
:102D08006200456E64207265636F7264696E670065
:102D1800506C617920646174610070005072696E52
:102D280074206461746120746F206F7574736964B2
:102D380065006573004C6F6164206461746120668E
:102D4800726F6D206F75747369646500656C0053EC
:102D5800617665206461746120746F20696E7465A2
:102D6800726E616C206D656D6F7279006973004CCD
:102D78006F616420646174612066726F6D20696E92
:102D88007465726E616C206D656D6F727900696C27
:102D9800004C69737420636F6D6D616E6473003FDE
:0E2DA8000045786974005E00446F6E6500009F
:00000001FF
