:100000000C9435000C945D000C945D000C945D0024
:100010000C945D000C945D000C945D000C94FE113A
:100020000C945D000C945D000C94D7110C945D0051
:100030000C945D000C945D000C945D000C945D00CC
:100040000C948D110C945D000C945D000C945D007B
:100050000C945D000C945D000C945D000C945D00AC
:100060000C945D000C945D002E1211241FBECFEF86
:10007000D8E0DEBFCDBF11E0A0E0B1E0E6E8FEE2EF
:1000800002C005900D92AC3EB107D9F723E0ACEE6B
:10009000B1E001C01D92AC3FB207E1F710E0C5E34B
:1000A000D0E004C02197FE010E941616C433D10788
:1000B000C9F70E9444120C9441170C940000A091BF
:1000C000DC03B091DD03ED91FC9111970190F0817B
:1000D000E02D682FCD0109942091E6033091E703CC
:1000E0002115310529F4019751F080E20C945F004D
:1000F0002130310521F022303105A9F308958AE03D
:10010000F5CFCF93DF93EC010E946C008091E60362
:100110009091E703009729F4219759F0DF91CF914F
:1001200008958130910529F082309105A9F3039754
:10013000A9F7C0E08091E803C81780F780E20E9429
:100140005F0080E20E945F00CF5FF4CF4F925F922A
:100150006F927F928F929F92AF92BF92CF92DF92D7
:10016000EF92FF920F931F93CF93DF936C0182E086
:1001700090E00E948100C091DC03D091DD03F12C5E
:10018000E12C15E080E1882E87E2982EA12CB12C7D
:100190009AE0492E512C612C712CC701B601A501A2
:1001A00094010E94DA15022F60E3620FE881F98161
:1001B0000190F081E02DCE010995A02FB0E0A501BE
:1001C00094010E940B16C61AD70AE80AF90AC5015B
:1001D000B401A30192010E94DA1549015A0111509C
:1001E000E1F682E090E09093E7038093E603DF91ED
:1001F000CF911F910F91FF90EF90DF90CF90BF9024
:10020000AF909F908F907F906F905F904F900895E8
:10021000DC0161157105D1F08091EF039091F0033D
:100220008617970798F096E0969FF001979FF00D3C
:1002300011242091E9033091EA03E20FF31F36976E
:1002400001900D929A95E1F781E0089580E008957C
:100250000895FC01E11589E0F80790F4683080F416
:10026000908121E030E001C0220F6A95EAF7413029
:1002700021F4292B208381E0089520952923FACFAA
:1002800080E008958F929F92AF92BF92CF92DF92BB
:10029000EF92FF920F931F93CF93DF93EC014A01EC
:1002A0005B01122F032FC12CD12C7601C394A7011F
:1002B0009601012E04C0220F331F441F551F0A94BC
:1002C000D2F7211531054105510509F44EC060E012
:1002D00078E488EE91E00E94DA15CA01B9016F5FF7
:1002E0007F4F8F4F9F4F96958795779567956115AF
:1002F000710581059105C9F181149104A104B1042E
:10030000A1F1660F771F881F991FA50194010E9414
:10031000DA152F5F3F4F4F4F5F4F569547953795F3
:1003200027952115310541055105F9F004C0CC0C84
:10033000DD1CEE1CFF1C0A95D2F7C216D306E4069C
:10034000F50698F01883215031093A83298381E01A
:10035000DF91CF911F910F91FF90EF90DF90CF90A1
:10036000BF90AF909F908F90089580E0F1CFCF9392
:10037000DF93CDB7DEB76E970FB6F894DEBF0FBE32
:10038000CDBF8091C1008F718B7F8093C10086E0CB
:100390008093C20082E08B8B83E08C8B84E08D8B1A
:1003A0008CE08B8F89E0FE017396DE011A96019036
:1003B0000D928A95E1F78B85813108F052C09C85BA
:1003C000913108F04EC0891708F04BC089E0FE015A
:1003D0007396DE01119601900D928A95E1F72A81BC
:1003E0003CE040E052EC61E070E0CE014C960E94AF
:1003F0004201882351F19C8D2D8D3E8D3F703F70C1
:100400008091C500807F832B8093C5002093C4001A
:100410009330A9F48091C00082608093C0008091E5
:10042000C100806188608093C10081E06E960FB644
:10043000F894DEBF0FBECDBFDF91CF910895943009
:1004400081F48091C0008D7FE8CF2B813CE040E0BB
:1004500052EC61E070E0CE014C960E9442018111A5
:10046000CACF80E0E3CFE0EBF0E08181887F818339
:100470000895E0EBF0E08181887F846081830895B6
:10048000CF93DF9300D01F92CDB7DEB726E038E0E0
:1004900048EE53E060E070E0CE0101960E94420118
:1004A0008823E9F00E9433028091B0008C7F826043
:1004B0008093B0008091B100877F8093B1008A81E2
:1004C0008093B30084EA98E0909301018093000147
:1004D0001092B200809170008260809370000F9043
:1004E0000F900F90DF91CF910895CF93DF9300D0BD
:1004F00000D01F92CDB7DEB76FB7F8942091CC0330
:10050000EDECF3E030814081842F86958695EEEC0A
:10051000F3E040814295440F440F407C482B90818A
:100520005081852F82958F70EFECF3E050815295CA
:10053000507F582B80816FBF642F660F660F33701A
:10054000362B42954695469543709C70652F629573
:10055000607F492B462B52955F708073582B60E06B
:1005600070E080E090E00F900F900F900F900F9050
:10057000DF91CF910895EF92FF920F931F93CF9346
:10058000DF931F92CDB7DEB77C018B01D701ED91D0
:10059000FC910190F081E02DBE016F5F7F4FC7019C
:1005A0000995882399F0D801ED91FC910190F08193
:1005B000E02D6981C80109958111E8CF0F90DF9185
:1005C000CF911F910F91FF90EF90089581E0F6CFAA
:1005D000CF93DF931F92CDB7DEB76983DC0112960C
:1005E000ED91FC91CE01019609950F90DF91CF918D
:1005F0000895DC011296ED91FC91CB010994FB0169
:10060000108281E008950F931F93CF93DF93EC0145
:100610008D81882351F09E81DB019C931C821D8279
:10062000DF91CF911F910F9108958B018A819B815A
:10063000BE016A5F7F4FDC01ED91FC910190F0817A
:10064000E02D0995882361F39E81F801908391E064
:100650009C83E6CFCF93DF931F92CDB7DEB7FC012B
:1006600069838681811118C064817581828193813B
:100670006817790761F481E086830384F485E02DAF
:10068000CE01019609950F90DF91CF910895CB018E
:10069000019695838483F1CF80E0F5CFCF92DF92EE
:1006A000EF92FF921F93CF93DF931F92CDB7DEB7E8
:1006B0006C017B01BE016F5F7F4FC7010E94030386
:1006C000182F882369F06981C6010E942A038111CD
:1006D000F1CFF7018481882319F091E09583182FD9
:1006E000812F0F90DF91CF911F91FF90EF90DF90BE
:1006F000CF900895FC01CB012681211113C06481A4
:100700007581228133816217730731F421E02683DA
:100710000384F485E02D09949B012F5F3F4F3583BF
:100720002483F6CF80E00895FC01CA01138212826F
:100730001182108221E0248361157105A9F022271E
:100740003327261B370B2417350770F0538342835A
:10075000860F971F01979183808314824583568368
:100760006783708781E0089580E00895CF93DF93D9
:10077000CDB7DEB72F970FB6F894DEBF0FBECDBF53
:10078000AB01BC0187E291E09F878E8719861886AE
:100790001B861A8682E191E09A838983CE010396B3
:1007A0000E949403882359F087EF93E09D878C87FC
:1007B000BE016F5F7F4FCE010E960E94BB022F9647
:1007C0000FB6F894DEBF0FBECDBFDF91CF91089575
:1007D000CF93DF93EC0102960E949403882321F0CB
:1007E00027EF33E03C872B87DF91CF910895611588
:1007F00029E0720730F4FC018081FB01808381E0F5
:10080000089580E00895CF93DF93EC0102960E9453
:100810009403882321F02AEB35E03C872B87DF9176
:10082000CF910895CF93DF93CDB7DEB72D970FB655
:10083000F894DEBF0FBECDBFAB01BC011986188690
:100840001B861A868CE191E09A838983CE010196FA
:100850000E940304882341F06091DC037091DD0362
:10086000CE0101960E94BB022D960FB6F894DEBF12
:100870000FBECDBFDF91CF910895CF92DF92EF925F
:10088000FF926B017C0190E080E00E948100C70133
:10089000B6010E9412041092E7031092E603FF9043
:1008A000EF90DF90CF900895CF92DF92EF92FF927A
:1008B000CF93DF93CDB7DEB76A970FB6F894DEBF5C
:1008C0000FBECDBF6B017C01BA01A9011986188644
:1008D0001B861A868CE191E09A8389831E8A1D8A81
:1008E000188E1F8A82E191E09F878E87CE01019644
:1008F0000E940304882379F0B701A601CE010E9669
:100900000E94E803882339F0BE01625F7F4FCE0169
:1009100001960E94BB026A960FB6F894DEBF0FBE26
:10092000CDBFDF91CF91FF90EF90DF90CF900895F2
:10093000EF92FF920F931F93CF93DF93CDB7DEB764
:100940002E970FB6F894DEBF0FBECDBF7C0119867F
:1009500018861B861A868CE191E09A838983A70109
:10096000662777276E197F09CE0101960E9403043E
:1009700010E000E0BE01625F7F4FCE0101960E9451
:100980007A03882331F08E85882319F00F5F1F4F7B
:10099000F1CFB701C8012E960FB6F894DEBF0FBE97
:1009A000CDBFDF91CF911F910F91FF90EF900895F0
:1009B000CF92DF92EF92FF920E9498046B017C012C
:1009C00081E090E00E948100C701B6010E941204FC
:1009D0008AE00E945F0083E090E09093E7038093B9
:1009E000E603FF90EF90DF90CF9008950E94980467
:1009F0000C943D04CF93DF93EC01688179818A8167
:100A00009B810E943D048E819F81892B51F08CE354
:100A100091E00E94F6046C817D818E819F810E940D
:100A20003D0481E090E00E946C0083E090E09093B0
:100A3000E7038093E603DF91CF910895CF93DF938F
:100A4000EC018BE391E00E94D8048091E8038233AB
:100A500019F08F5F8093E8030990D881C02D20970B
:100A600051F070E060E0888199810E94FA040A8068
:100A7000DB81C02DF4CF8091E803882319F08150E9
:100A80008093E8038EE391E0DF91CF910C94D8043A
:100A9000CB010C941E058F929F92AF92BF92CF9282
:100AA000DF92EF92FF920F931F93CF93DF93CDB717
:100AB000DEB76C970FB6F894DEBF0FBECDBF8C01CA
:100AC0007B01FB0180809180A280B380FC0140818A
:100AD0005181628173811E8A1D8A188E1F8A8CE162
:100AE00091E09F878E87198618861B861A869A83BF
:100AF0008983CE010E960E940304882311F1B5016B
:100B0000A401CE0101960E9403048823D1F0DD24C4
:100B1000D394BE01645E7F4FCE010E960E947A038D
:100B2000C82EBE01655E7F4FCE0101960E947A03FA
:100B30008D25CC20C9F0811104C09C8D8B8D981718
:100B400041F36C960FB6F894DEBF0FBECDBFDF91B8
:100B5000CF911F910F91FF90EF90DF90CF90BF90BA
:100B6000AF909F908F900895882359F3F7011583D4
:100B70000483E7CF611529E0720730F4FB0120817F
:100B8000FC01208381E0089580E00895FC018081CC
:100B90009091C00095FFFCCF8093C6008091C0006B
:100BA00086FFFCCF8091C00080648093C00081E00C
:100BB0000895FC018091C00087FFFCCF9091C00098
:100BC0009695969597708091C60080839111F2CF8B
:100BD00081E00895611524E07207A8F4F999FECF29
:100BE000FC01908161BD272F237082B58C7F822B01
:100BF00082BD90BD8FB7F894FA9AF99A8FBFF99990
:100C0000FECF81E0089580E00895FC01611584E045
:100C1000780780F4F999FECF61BD872F837092B574
:100C20009C7F982B92BDF89AF899FECF80B580836F
:100C300081E0089580E008959C01235031092D3012
:100C40003742C8F40297B0E0A0E0BC01CD0124E037
:100C5000660F771F881F991F2A95D1F724E130E08E
:100C600040E050E00E94DA15C9010E942512019768
:100C7000E1F781E0089580E008954F925F926F92CE
:100C80007F928F929F92AF92BF92CF92DF92EF921C
:100C9000FF920F931F93CF93DF9300D000D01F924A
:100CA000CDB7DEB7FC0129833A834B835C836D8328
:100CB000A0809181892F8370B82E88EEA81683E0DA
:100CC000B80608F007C1969596958281282F22953F
:100CD000220F220F207C622F692B982F96959695D4
:100CE000792F7370683E93E0790708F0F3C0982F6E
:100CF00092959F708381282F2295207FA22FA92B68
:100D0000982F92959F70B92FB370A83E93E0B907C2
:100D100008F0E0C082958695869583709481292F8E
:100D2000220F220F022F082B192F129516951695B8
:100D30001370083E83E0180708F0CCC02981832F88
:100D40003370283E93E0390708F0C4C08695869535
:100D5000F42E942F9295990F990F907C492F482B40
:100D60008F2D86958695582F5370483E83E05807FF
:100D700008F0B0C0F2949FE0F922DC80ED2CE29400
:100D800080EFE8224E2C4F28FD2CF2949FE0F922B0
:100D90009F2D9370592E88EE481683E0580608F070
:100DA00099C0D294D694D69493E0D922CD809C2C2D
:100DB000990C990CE92CED28FC2CF294F694F694FD
:100DC00083E0F82298EEE91693E0F90608F082C075
:100DD00038016E187F08C30188519C4F3C01CC2418
:100DE000C394D12C0E151F0510F0D12CC12C8D01F0
:100DF0000419150908511C4F0C191D09C2018C0D4D
:100E00009D1D88248394912CA817B90710F0912C6C
:100E1000812C7B01E41AF50AC70188519C4F7C01A3
:100E2000E818F908480D591DCC24C394D12C641737
:100E3000750710F0D12CC12C88EE882E83E0982EF7
:100E4000C401821B930B8A0D9B1D8C199D09B40153
:100E50000E94C615492F8083C701B4010E94C615A0
:100E6000582F550F550F4370452B4183482F4295FE
:100E70004695469543709370F92EFF0CFF0CC80100
:100E8000B4010E94C615582F5295507FF42AF52AB6
:100E9000F282182F12951F709370492F4295407F50
:100EA000C301B4010E94C615582F5295550F550F16
:100EB000507C412B452B43839295990F990F907C41
:100EC00086958695892B84832C0D3D1D81E0A21685
:100ED000B30608F480E00F900F900F900F900F90E2
:100EE000DF91CF911F910F91FF90EF90DF90CF9006
:100EF000BF90AF909F908F907F906F905F904F903A
:100F000008959F92AF92BF92CF92DF92EF92FF929D
:100F10000F931F93CF93DF9300D000D01F92CDB7D4
:100F2000DEB7FC0129833A834B835C836D83408168
:100F30009181592F5370483E63E0560708F0F2C084
:100F4000969596958281282F2295220F220F207C3C
:100F5000A22FA92B982F96959695B92FB370A83EDE
:100F600073E0B70708F0DEC0982F92959F708381D9
:100F7000282F2295207FA22EA92A982F9295937030
:100F8000B92E98EEA91693E0B90608F0CBC0829569
:100F90008695869583709481292F220F220FE22E49
:100FA000E82AF92EF294F694F69493E0F92268EE8A
:100FB000E61663E0F60608F0B5C00981832F132F0B
:100FC0001370083E73E0170708F0ACC0869586954D
:100FD0006B81962F9295990F990F907C292F282B32
:100FE000862F86958695382F3370283E83E0380704
:100FF00008F098C0762F72957F706C81D62ED294AF
:1010000080EFD8228D2D872B762F72957F70972FAA
:101010009370883E73E0970708F084C062956695E8
:10102000669563707D81972E990C990CC92CC62A00
:10103000D72ED294D694D69463E0D62268EEC61604
:1010400063E0D60608F06EC0EC0CFD1CA80EB91EBD
:1010500061E070E088EEE81683E0F80610F470E0D6
:1010600060E0A60EB71E2A0F3B1F81E090E068EEFD
:10107000A61663E0B60610F490E080E0280F391F52
:10108000040F151F81E090E0283E73E0370710F44D
:1010900090E080E0080F191F88EEC82E83E0D82E5C
:1010A000C801B6010E94C615492F8083C901B60147
:1010B0000E94C615282F220F220F4370422B418316
:1010C000282F22952695269523709370392F330F5C
:1010D000330FC501B6010E94C615482F4295407FC7
:1010E000322B342B3283382F32953F709370292F57
:1010F0002295207FC701B6010E94C615482F429550
:10110000440F440F407C232B242B23839295990F6B
:10111000990F907C86958695892B848381E0083E83
:10112000134008F080E00F900F900F900F900F90F9
:10113000DF91CF911F910F91FF90EF90DF90CF90B3
:10114000BF90AF909F900895CF93DF9300D000D0D1
:101150001F92CDB7DEB70E94750229833A834B8375
:101160005C836D8320911E0130911F01409120010D
:101170005091210160912201CE0101960E948107C8
:1011800049818A81682F6370869586959B81292F76
:101190002295220F220F207C282B392F3695369549
:1011A000337092959F708C81582F5295507F952B5C
:1011B000829583705FB7F8944093CC03EDECF3E035
:1011C00040814C7F462B4083622F660F660F408123
:1011D0004370462B4083EEECF3E02295269526954E
:1011E000237040814C7F242B2083330F330F2081C9
:1011F000237F232B2083392F3295307F20812F703E
:10120000232B2083EFECF3E0292F22952F70908180
:10121000907F922B9083982F9295907F80818F7CE6
:10122000892B808380818F738083E0EDF3E0808160
:10123000807C808380818F7380835FBF0F900F904D
:101240000F900F900F90DF91CF9108950F931F9300
:10125000CF93DF93CDB7DEB72A970FB6F894DEBFF2
:101260000FBECDBF0FB7F8940E9433020E947502E3
:101270002E833F83488759876A871091B2000E9466
:1012800039020FBFB99B10C020911E0130911F0180
:10129000409120015091210160912201CE010696DA
:1012A0000E9481071091B200212F30E0A8EEB3E038
:1012B0000E94FC152091B30030E02F5F3F4F032EBA
:1012C000000C440B550B0E94DA15922F9295990F42
:1012D000990F907C89858F73892B89873295330F7D
:1012E000330F307C26952695232B2A8785E0FE0137
:1012F0003696DE01119601900D928A95E1F72981CB
:101300003A814B815C816D8170E080E090E02A96AB
:101310000FB6F894DEBF0FBECDBFDF91CF911F9106
:101320000F910895CF92DF92EF92FF921F93CF9388
:10133000DF9300D000D01F92CDB7DEB70E94260900
:10134000F42FE52F162F36953695AF2FA295AA0FBD
:10135000AA0FA07CA32BBF2FB695B695B37020E43F
:1013600032E44FE050E00E940B166B017C01F295D5
:10137000FF702E2F2295207F2F2B3E2F329533701A
:10138000A8EEB3E00E94FC156C0D7D1D8E1D9F1D07
:10139000E295E695E695E370412F440F440F242F24
:1013A0002E2B312F3295369536953370620F731F81
:1013B000811D911D0F900F900F900F900F90DF9156
:1013C000CF911F91FF90EF90DF90CF900895AF9253
:1013D000BF92CF92DF92EF92FF920F931F93CF9322
:1013E000DF93CDB7DEB72F970FB6F894DEBF0FBEF1
:1013F000CDBF4B875C876D877F737E871F860E947A
:1014000075022E833F83488759876A872B853C85E1
:101410004D855E856F85CE0106960E948107D82E88
:10142000882309F478C00E947502D901B3700E8137
:101430008F81182F1370A017B107A8F33695369532
:10144000942F9295990F990F907CE92FE32B942F6D
:1014500096959695F92FF37042954F70952F92952A
:10146000907F292F242B952F92959F70392F3370C1
:101470005295569556955370962F990F990FE92EC0
:10148000E52AF62EF294F694F69493E0F922982F3A
:10149000969596958885482F4295440F440F407C39
:1014A000642F692B982F96959695792F7370982FA6
:1014B00092959F708985C82EC29440EFC4224C2D0E
:1014C000492B982F92959F70592F5370829586952E
:1014D000869583709A85C92ECC0CCC0CAC2CA82A8E
:1014E000B92EB294B694B69483E0B8220A171B07BB
:1014F00090F0E617F70708F496CF6E177F0758F0BD
:101500002417350708F48FCF4217530720F0EA1449
:10151000FB0408F488CF8D2D2F960FB6F894DEBF0C
:101520000FBECDBFDF91CF911F910F91FF90EF9034
:10153000DF90CF90BF90AF9008951F93CF93DF932C
:10154000CDB7DEB76E970FB6F894DEBF0FBECDBF36
:101550001091810016FB112710F90E9426092A8F8D
:101560003B8F4C8F5D8F6E8F81E01827198F96E02F
:10157000FE017996DE01539601900D929A95E1F75E
:101580009091F10391111EC096E0FE017396A2EFB7
:10159000B3E001900D929A95E1F78093F103909159
:1015A0008100809181008F7B96FF80648093810011
:1015B0006E960FB6F894DEBF0FBECDBFDF91CF9110
:1015C0001F91089585E0FE017496DE011E9601903C
:1015D0000D928A95E1F72091F3033091F403409145
:1015E000F5035091F6036091F703CE010E960E9429
:1015F0003D068091F2038D8786E0FE017396A2EF8F
:10160000B3E001900D928A95E1F786E0FE013D96E8
:10161000DE01179601900D928A95E1F78091EF0314
:101620009091F0032091ED033091EE038217930720
:1016300009F4B5CF01969093F0038093EF0326E071
:10164000FE013796DE01119601900D922A95E1F781
:10165000009709F4A4CF26E0289FD001299FB00D60
:1016600011248091E9039091EA03A80FB91F1697FE
:10167000FE01319601900D922A95E1F790CF8F925D
:101680009F92AF92BF92DF92EF92FF920F931F93C0
:10169000CF93DF93CDB7DEB7E5970FB6F894DEBFF3
:1016A0000FBECDBF1E8A1D8A188E1F8A8CE191E065
:1016B0009F878E874091140150911501609116010A
:1016C00070911701CE0140960E949403882321F067
:1016D00085E096E09A8F898F8DE291E09C8F8B8FC9
:1016E000198618861B861A8682E191E09A8389837F
:1016F000CE010E969E8F8D8F1F8E18A21092F00332
:101700001092EF031092F103869622E0A22EB12CE4
:10171000B501AC01C3970E94E803BE01655E7F4F2F
:10172000CE0101960E944E03882309F459C001E0BE
:1017300010E07E019EE2E90EF11C96E0D92E8CA904
:101740009DA98017910708F44BC086E0A82EB12C04
:10175000B501A701CE0101960E94E803BE01655EB6
:101760007F4FCE0101960E944E038823C9F186E087
:10177000F701DE01989601900D928A95E1F780912C
:10178000EF039091F0032091ED033091EE03821767
:10179000930731F101969093F0038093EF0326E0D5
:1017A000FE01B896DE01929601900D922A95E1F71E
:1017B0000097B1F0D89ED001D99EB00D1124809130
:1017C000E9039091EA03A80FB91F1697FE01B2969C
:1017D0008D2D01900D928A95E1F70F5F1F4FAFCFCE
:1017E000E5960FB6F894DEBF0FBECDBFDF91CF9167
:1017F0001F910F91FF90EF90DF90BF90AF909F905F
:101800008F900895AF92BF92CF92DF92EF92FF92A6
:101810000F931F93CF93DF93CDB7DEB7A2970FB689
:10182000F894DEBF0FBECDBF1E8A1D8A188E1F8A98
:1018300082E191E09F878E874091140150911501BC
:101840006091160170911701CE0140960E94940399
:10185000882321F08AEE95E09A8F898F1986188661
:101860001B861A868CE191E09A8389838091EF032D
:101870009091F0039AA389A3CE01819622E0E22EF3
:10188000F12CB701AC0180970E940304BE01625F96
:101890007F4FCE0101960E94BB02882331F101E007
:1018A00010E05E019BE1A90EB11C89A19AA18017ED
:1018B0009107D8F0B801C5010E9408018823A9F05A
:1018C00086E0E82EF12CB701A501CE0101960E9419
:1018D0000304BE01625F7F4FCE0101960E94BB02EE
:1018E000882319F00F5F1F4FE0CFA2960FB6F89430
:1018F000DEBF0FBECDBFDF91CF911F910F91FF9043
:10190000EF90DF90CF90BF90AF9008952F923F92CD
:101910004F925F926F927F928F929F92AF92BF92FF
:10192000CF92DF92EF92FF920F931F93CF93DF93AB
:10193000CDB7DEB7AF970FB6F894DEBF0FBECDBF01
:101940001DA21EA21FA280E888A781E689A7209178
:10195000EF033091F0033EA72DA722242394312CCE
:10196000AE014E5F5F4F5BA74AA78DA59EA582156E
:10197000930508F4BBC1B101CE0101960E94080194
:101980008981882309F41BC185E0FE013296DE01BE
:10199000909601900D928A95E1F71FB7F8940E94F6
:1019A00092096B017C0185B5887F826085BD84B515
:1019B0008F73806484BDA9A18A2F86958695EAA13C
:1019C000AE2FA295AA0FAA0FA07CA82BBE2FB6956A
:1019D000B695B37020E432E44FE050E00E940B165D
:1019E0004B015C01E295EF704BA1242F2295207FE3
:1019F0002E2B342F32953370A8EEB3E00E94FC15E5
:101A0000DC01CB01880D991DAA1DBB1D4295469591
:101A1000469543705CA1652F660F660F262F242B19
:101A2000352F3295369536953370820F931FA11D51
:101A3000B11D8C0D9D1DAE1DBF1D4C015D01EFE262
:101A40008E1A9108A108B108F4EF8F16F1E09F06F5
:101A5000A104B10408F48FC02C013D0123E2421A15
:101A600022E0520A6108710838EE831633E09306CB
:101A7000A104B10408F433C1C414D504E604F70486
:101A800008F079C087519440A109B109C816D90658
:101A9000EA06FB0608F059C01FBF9C01AD012C19D6
:101AA0003D094E095F0969017A011B8ECA01B9011E
:101AB00020E432E44FE050E00E94DA15422F440F58
:101AC000440F4CA74C8F22952695269523702FA75F
:101AD000032F0370000F000FC701B60128EE33E09B
:101AE00040E050E00E94DA15F62EE72ECA01B90157
:101AF00028EE33E040E050E00E94DA15262F2295D0
:101B0000207F5FA5052B022B0D8F62956F70737080
:101B10007295707F8F2D8295880F880F807C762B31
:101B2000782B7E8F8E2D8295880F880F807CF6947F
:101B3000F6948F298F8F40E05CA5602F0E94E70903
:101B4000F8940E9492096B017C011FBF80E090E035
:101B5000DC014C145D046E047F0430F0D301C2013B
:101B60008C199D09AE09BF090E941C06F8940E94B9
:101B700092096B017C0180E090E0DC018C149D04F3
:101B8000AE04BF0430F0D501C4018C199D09AE0923
:101B9000BF090E941C0685B5877061F084B5806C12
:101BA00084BDA99AA99BFECF84B58F7384BD85B5EA
:101BB000887F85BD1FBF3FEF231A330AD6CE2DA1E4
:101BC0003EA14FA158A569A5CE0102960E943D06EF
:101BD000811106C0EAA5FBA525E011922A95E9F737
:101BE00085E0FE013296DE01569601900D928A95AF
:101BF000E1F70E942609298B3A8B4B8B5C8B6D8B0E
:101C00002E893F89488D598D6A8DCE0141960E945B
:101C100081074E895F89688D798D8A8D0E94E709D9
:101C2000882349F20E9426092C873D874E875F87CB
:101C3000688B85E0FE017196DE01179601900D928A
:101C40008A95E1F72C853D854E855F856889CE01B3
:101C500007960E943D06882309F4ADCFA8858A2FF8
:101C600086958695E985AE2FA295AA0FAA0FA07C2E
:101C7000A82BBE2FB695B695B37020E432E44FE0A2
:101C800050E00E940B166B017C01E295EF704A85D3
:101C9000242F2295207F2E2B342F32953370A8EEDF
:101CA000B3E00E94FC15DC01CB018C0D9D1DAE1D27
:101CB000BF1D42954695469543705B85652F660F1F
:101CC000660F262F242B352F329536953695337097
:101CD000820F931FA11DB11D0E941C066CCFC4145E
:101CE000D504E604F70408F430CF45CFAF960FB61D
:101CF000F894DEBF0FBECDBFDF91CF911F910F9142
:101D0000FF90EF90DF90CF90BF90AF909F908F901B
:101D10007F906F905F904F903F902F9008952F92FB
:101D20003F924F925F926F927F928F929F92AF926B
:101D3000BF92CF92DF92EF92FF920F931F93CF93B8
:101D4000DF93CDB7DEB72C970FB6F894DEBF0FBE8A
:101D5000CDBF6090DC037090DD0381E491E00E94D0
:101D6000D8048091E803823319F08F5F8093E803F1
:101D700088248394912C93E0492E512CB401CE01F8
:101D800007960E940801882309F486C086E0FE01B8
:101D90003796DE01119601900D928A95E1F71F8129
:101DA0002090DC033090DD037092DD036092DC0351
:101DB00081E491E00E94F60482E090E00E948100BC
:101DC00083E491E0111102C087E491E00E9498043D
:101DD0000E94120482E090E09093E7038093E60370
:101DE000AA809B81892F8370B82E969596958C81B9
:101DF000282F2295220F220F207CC22EC92A982F2D
:101E0000969596959370D92E982F92959F708D8167
:101E1000282F2295207FE22EE92A982F9295937001
:101E2000F92E82958695869583709E81292F220FA3
:101E3000220F022F082B192F129516951695137045
:101E400081E491E00E94F604A114B10409F44CC0AD
:101E5000C5010E94A600C6010E94A600C7010E94FB
:101E6000A600C8010E94A6008BE491E00E94F6043F
:101E70008BE491E00E94F60481E090E00E946C0007
:101E80005092E7034092E6033092DD032092DC0398
:101E90008FEF881A980A72CF8091E803882319F08F
:101EA00081508093E8038BE491E00E94D804709203
:101EB000DD036092DC032C960FB6F894DEBF0FBEF4
:101EC000CDBFDF91CF911F910F91FF90EF90DF90E9
:101ED000CF90BF90AF909F908F907F906F905F90CA
:101EE0004F903F902F900895C114D10409F0B3CFC3
:101EF000E114F10409F0B2CF0115110509F4B4CFD2
:101F0000B0CFEFE6F0E080818F7D80830C943302C8
:101F1000E9EEF3E017821682108640E060E084E28A
:101F200090E00E94290141E060E085E290E00E949B
:101F30002901E0E8F0E081818F7B81838DE99AE0DF
:101F40009093030180930201B59AEFE6F0E080815F
:101F5000806280830E9440029FB7F8941092CC0365
:101F6000EDECF3E080818C7F8083808183708083BF
:101F7000EEECF3E080818C7F80838081837F80839F
:101F800080818F708083EFECF3E08081807F80839D
:101F900080818F7C808380818F738083E0EDF3E08C
:101FA0008081807C808380818F7380839FBF0C942D
:101FB00039020F931F93CF93DF93EC018B01CB0179
:101FC0000E941C16009781F0998388831B830A83E3
:101FD000688179818A819B810E94B60381E0DF91CB
:101FE000CF911F910F91089580E0F9CFCF93DF93A8
:101FF000EC018A819B810097B1F0919581959109BF
:10200000288139818217930770F0688179818A81EC
:102010009B810E94B603888199810E94B81619821B
:1020200018821B821A82DF91CF910895CF92DF929E
:10203000EF92FF920F931F93CF93DF9300D000D0C6
:10204000CDB7DEB78C0184E0C82ED12CD801ED913C
:10205000FC91309771F0E280F380DC82CB82FA83CE
:10206000E983CE0101960E94F60FF801F182E08229
:10207000EDCF0F900F900F900F90DF91CF911F91A8
:102080000F91FF90EF90DF90CF9008950F931F93E3
:10209000CF93DF9300D000D0CDB7DEB78C018CE0BA
:1020A00090E09C838B831A830983C8010E94F60FFA
:1020B000C80104960E94F60FCE0101960E94F60F09
:1020C0000F900F900F900F90DF91CF911F910F9174
:1020D00008950C9446100F931F93CF93DF938C01B8
:1020E000FC01C081D181209741F0888199810E94B3
:1020F00046100A80DB81C02DF6CFC801DF91CF9159
:102100001F910F910C941610CB010C946B104F92F1
:102110005F926F927F928F929F92AF92BF92CF9277
:10212000DF92EF92FF920F931F93CF93DF93CDB780
:10213000DEB728970FB6F894DEBF0FBECDBF7C0187
:10214000CB015A0169011A8219821C821B821E82EC
:102150001D8218861F820E9498042B013C01C50134
:102160000E9498044B015C016114710409F5F701A8
:1021700011821082138212821582148217821682B3
:10218000C70128960FB6F894DEBF0FBECDBFDF9112
:10219000CF911F910F91FF90EF90DF90CF90BF9064
:1021A000AF909F908F907F906F905F904F90089529
:1021B000B301CE0101960E94D90F8823C1F2698133
:1021C0007A818B819C81A30192010E945404A11405
:1021D000B10429F4CE0101960E94F60FC8CFB501D3
:1021E000CE0105960E94D90F8823A1F36D817E81CF
:1021F0008F819885A50194010E94540449815A81D8
:102200006B817C818D819E81AF81B885F701408390
:1022100051836283738384839583A683B783D18636
:10222000C08613870287ACCFAF92BF92CF92DF9266
:10223000EF92FF920F931F93CF93DF93CDB7DEB74B
:1022400064970FB6F894DEBF0FBECDBF5C01C986A0
:10225000DA86EB86FC860D871E872F87388B498BA5
:102260005A8B6B8B7C8B1E821D8218861F826CE0C2
:1022700070E0CE0105960E94D90F182F8823F1F047
:102280009E01275F3F4F4CE050E06D817E818F8142
:1022900098850E945404ED80FE801A8219821C8267
:1022A0001B8264E070E0CE0101960E94D90F182FC6
:1022B000811116C0CE0105960E94F60F812F6496FB
:1022C0000FB6F894DEBF0FBECDBFDF91CF911F9147
:1022D0000F91FF90EF90DF90CF90BF90AF90089557
:1022E000E981FA81F182E082D5018D919C9111976B
:1022F000892B11F4ED93FC93D50112968D919C914D
:10230000009729F0DC011396FC93EE931297D50108
:102310001396FC93EE931297D1CF1F920F920FB6A4
:102320000F9211242F933F938F939F93AF93BF935B
:102330008091D6039091D703A091D803B091D9038F
:102340003091D50323E0230F2D3758F50196A11DB9
:10235000B11D2093D5038093D6039093D703A09308
:10236000D803B093D9038091D1039091D203A09167
:10237000D303B091D4030196A11DB11D8093D10365
:102380009093D203A093D303B093D403BF91AF91A2
:102390009F918F913F912F910F900FBE0F901F90A3
:1023A000189526E8230F0296A11DB11DD2CF1F92CA
:1023B0000F920FB60F9211242F933F934F935F9379
:1023C0006F937F938F939F93AF93BF93EF93FF93FD
:1023D000E0910201F09103010995FF91EF91BF9106
:1023E000AF919F918F917F916F915F914F913F91AD
:1023F0002F910F900FBE0F901F9018951F920F9264
:102400000FB60F9211242F933F934F935F936F93C7
:102410007F938F939F93AF93BF93EF93FF93E0913D
:102420000001F09101010995FF91EF91BF91AF91EA
:102430009F918F917F916F915F914F913F912F91DC
:102440000F900FBE0F901F90189500000000000025
:10245000000000000000000000000895EAEDF3E035
:1024600089E391E09583848383E391E0918780877A
:1024700083E090E0958784871686E9EEF3E0118289
:102480001082138212820895CF93DF93CDB7DEB707
:10249000C959D1090FB6F894DEBF0FBECDBF7894ED
:1024A00084B5826084BD84B5816084BD85B5826059
:1024B00085BD85B5816085BD80916E00816080930A
:1024C0006E00109281008091810082608093810073
:1024D0008091810081608093810080918000816083
:1024E000809380008091B10084608093B1008091DE
:1024F000B00081608093B00080917A008460809306
:102500007A0080917A00826080937A0080917A00CC
:10251000816080937A0080917A00806880937A004D
:102520001092C1000E94B701882331F089ED95E037
:102530009093E1038093E0030E94B701882331F078
:1025400086EC95E09093E5038093E4038EED93E0B1
:102550009093DB038093DA0382EE93E09093DD03A4
:102560008093DC030E9440020E9439020E944002D4
:102570000E94390280910A0190910B01A0910C01F7
:10258000B0910D018093E9039093EA03A093EB03CC
:10259000B093EC0380E590E09093EE038093ED031D
:1025A0001092F0031092EF031092F10323E038E051
:1025B00040EE58E261E070E0CE0101965C010E94BD
:1025C0004201882309F461C241E066E08AE290E0BA
:1025D0000E94290140E066E08BE290E00E94290120
:1025E00040E066E08BE290E00E94290185B5887F9B
:1025F00085BD84B5836084BD85B5886085BD8A81CD
:1026000087BD16BC80916E008E7F80936E0086E63B
:1026100091E00E94D804CB56DF4F19821882C55929
:10262000D040C956DF4F19821882C759D04010E0F8
:1026300000E028E83FE040E851E060E971E0CE01C9
:102640008E579F4F0E948710CE57DF4FC880C258C9
:10265000D040CD57DF4FD880C358D040CC57DF4F44
:10266000E880C458D040CB57DF4FF880C558D040E1
:10267000CA57DF4F0881C658D040C957DF4F18816D
:10268000C758D040C857DF4F2881C858D040C757D7
:10269000DF4F3881C958D040C657DF4F4881CA58EC
:1026A000D040C557DF4F5881CB58D040C457DF4F7B
:1026B0006881CC58D040C357DF4F7881CD58D04087
:1026C000CE018B569F4F0E94141110E000E021E8CC
:1026D0003FE042E951E069EE71E0CE018A589F4F38
:1026E0000E948710E796CFACE797E896DFACE897B3
:1026F000E996EFACE997EA96FFACEA97EB960FAD57
:10270000EB97EC961FADEC97ED962FADED97EE960F
:102710003FADEE97EF964FADEF97C158DF4F588121
:10272000CF57D040C058DF4F6881C058D040CF57F6
:10273000DF4F7881C158D040CE018B569F4F0E9409
:10274000141110E000E02FE83EE040EA51E06BEAAF
:1027500071E0CE0186599F4F0E948710AB96CFAC97
:10276000AB97AC96DFACAC97AD96EFACAD97AE96B1
:10277000FFACAE97AF960FADAF97E0961FADE09769
:10278000E1962FADE197E2963FADE297E3964FAD2C
:10279000E397E4965FADE497E5966FADE597E6962F
:1027A0007FADE697CE018B569F4F0E94141110E02B
:1027B00000E026E83CE04DEA51E06EE771E0CE0132
:1027C000825A9F4F0E9487106F96CFAC6F97A0964A
:1027D000DFACA097A196EFACA197A296FFACA29711
:1027E000A3960FADA397A4961FADA497A5962FAD62
:1027F000A597A6963FADA697A7964FADA797A89683
:102800005FADA897A9966FADA997AA967FADAA9735
:10281000CE018B569F4F0E94141110E000E022E081
:102820003CE049EB51E06BED71E0CE018E5A9F4FD9
:102830000E9487106396CFAC63976496DFAC649771
:102840006596EFAC65976696FFAC669767960FAD99
:10285000679768961FAD689769962FAD69976A96D6
:102860003FAD6A976B964FAD6B976C965FAD6C976B
:102870006D966FAD6D976E967FAD6E97CE018B5650
:102880009F4F0E94141110E000E02FE33BE043EC67
:1028900051E06DEC71E0CE018A5B9F4F0E94871082
:1028A0002796CFAC27972896DFAC28972996EFACD0
:1028B00029972A96FFAC2A972B960FAD2B972C962B
:1028C0001FAD2C972D962FAD2D972E963FAD2E97A1
:1028D0002F964FAD2F9760965FAD609761966FAD65
:1028E000619762967FAD6297CE018B569F4F0E9493
:1028F00014118E010B561F4F28E435E04FEC51E0C8
:102900006DED71E0CE01CA960E948710CAACDBACB7
:10291000ECACFDAC0EAD1FAD21962FAD21972296EC
:102920003FAD229723964FAD239724965FAD249712
:1029300025966FAD259726967FAD2697CE018B56AF
:102940009F4F0E9414118823F1F08E010B561F4FE8
:1029500024E830E14FED51E064EE71E0CE018E9657
:102960000E948710CEA4DFA4E8A8F9A80AA91BA991
:102970002CA93DA94EA95FA968AD79ADCE018B56B2
:102980009F4F0E941411CE018B569F4F0E941E052F
:102990009DE2C92E91E0D92E22E1E22E21E0F22E15
:1029A00099249394CB56DF4F88819981C559D040A3
:1029B000892B09F4D5C019A618A61BA61AA6FAA237
:1029C000E9A280E2682E712CB301A501CE018196A7
:1029D0000E94E8038091DA039091DB03C257DF4F36
:1029E000D982C882CE58D040C057DF4F99838883A0
:1029F000C059D040CE56DF4F1882C259D040CD5674
:102A0000DF4F1882C359D040BE0167567F4FCE01B9
:102A100082579F4F0E9403038823C1F0C756DF4FA0
:102A20008881C959D040803279F38D3069F389505B
:102A3000833050F3CE56DF4F8881C259D04088236F
:102A400029F0CD56DF4F9882C359D04010E0BE0127
:102A500067567F4FCE0182579F4F0E940303082F76
:102A60008823C1F0C756DF4F6881C959D040603212
:102A700089F06D3079F087EF860F833058F0CE0102
:102A800081960E942A03102FE2CF8DE491E00E94EC
:102A9000D804BDCD112309F485CF28A539A58AA571
:102AA0009BA54FA141111EC04DA15EA10097D1F081
:102AB00066277727681B790B6217730798F0421710
:102AC000530780F0BC01620F731F615071096417D6
:102AD000750740F0CA010196821B930B2115310541
:102AE00009F00197C257DF4F39832883CE58D04071
:102AF000C057DF4F99838883C059D040CE56DF4FEF
:102B000019821882C259D040CB56DF4F08811981F3
:102B1000C559D0400115110561F0BE0162577F4FC4
:102B2000F801808191810E944B05F8010281138197
:102B3000F1CFCE56DF4FA881B981C259D04010974E
:102B400009F430CF1896ED91FC9119971A966D9172
:102B50007C91309709F426CF90E080E0099520CF52
:102B6000CE018B569F4F0E946B10CE018B569F4F0C
:102B70000E94161086EE91E00E94D80400E010E05A
:102B800001151105E9F30E940000FACFAA1BBB1B37
:102B900051E107C0AA1FBB1FA617B70710F0A61B5D
:102BA000B70B881F991F5A95A9F780959095BC017E
:102BB000CD010895A1E21A2EAA1BBB1BFD010DC079
:102BC000AA1FBB1FEE1FFF1FA217B307E407F507DD
:102BD00020F0A21BB30BE40BF50B661F771F881FB9
:102BE000991F1A9469F760957095809590959B014F
:102BF000AC01BD01CF010895A29FB001B39FC001F8
:102C0000A39F700D811D1124911DB29F700D811D18
:102C10001124911D08950E94FC15A59F900DB49F4D
:102C2000900DA49F800D911D11240895EE0FFF1F9C
:102C30000590F491E02D09940F931F93CF93DF93A8
:102C40008230910510F482E090E0E091FA03F09177
:102C5000FB0330E020E0B0E0A0E0309799F42115CC
:102C6000310509F44AC0281B390B24303105D8F549
:102C70008A819B816115710589F1FB0193838283B0
:102C8000FE0111C04081518102811381481759070B
:102C9000E0F04817590799F4109761F012960C93D9
:102CA000129713961C933296CF01DF91CF911F910B
:102CB0000F9108950093FA031093FB03F4CF2115AD
:102CC000310551F04217530738F0A901DB019A0191
:102CD000BD01DF01F801C1CFEF01F9CF9093FB03F4
:102CE0008093FA03CDCFFE01E20FF31F81939193FE
:102CF0002250310939832883D7CF2091F8033091AE
:102D0000F903232B41F42091060130910701309300
:102D1000F9032093F8032091040130910501211556
:102D2000310541F42DB73EB740910801509109019A
:102D3000241B350BE091F803F091F903E217F30738
:102D4000A0F42E1B3F0B2817390778F0AC014E5F1B
:102D50005F4F2417350748F04E0F5F1F5093F9035C
:102D60004093F803819391939FCFF0E0E0E09CCFF4
:102D7000CF93DF930097E9F0FC0132971382128220
:102D8000A091FA03B091FB03ED0130E020E0109731
:102D9000A1F420813181820F931F2091F80330919B
:102DA000F9032817390709F061C0F093F903E0939C
:102DB000F803DF91CF910895EA01CE17DF07E8F518
:102DC0004A815B819E0141155105B1F7E901FB8301
:102DD000EA8349915991C40FD51FEC17FD0761F49F
:102DE000808191810296840F951FE90199838883E0
:102DF000828193819B838A83F0E0E0E012968D913B
:102E00009C9113970097B9F52D913C911197CD01A5
:102E10000296820F931F2091F8033091F90328172F
:102E2000390739F6309751F51092FB031092FA03E7
:102E3000B093F903A093F803BCCFD383C28340813E
:102E40005181840F951FC817D90761F44E5F5F4FFA
:102E500088819981480F591F518340838A819B81C2
:102E6000938382832115310509F0B0CFF093FB03E2
:102E7000E093FA039ECFFD01DC01C0CF13821282E2
:062E8000D7CFF894FFCF4C
:102E8600280128010000FC038000EC01E00100009D
:102E960000002A030000FFFF000000007A03000084
:102EA60010000000000000FF020000000003030005
:102EB600000000E80200000000F9022D2D003D3D53
:102EC60000280059455300204E4F002900466169ED
:102ED6006C656420746F2073657420667265717505
:102EE600656E63792E004952207369676E616C20A6
:102EF600706C617965722F7265636F7264657200BA
:102F0600426567696E207265636F7264696E6700F9
:102F16006200456E64207265636F7264696E670055
:102F26005072696E7420646174610070005265703D
:102F36006C61792064617461005361766520646117
:102F46007461004C6F61642064617461006C004CB4
:102F560069737420636F6D6D616E6473003F004525
:0C2F6600786974005E00446F6E65000026
:00000001FF
