:100000000C9435000C945D000C945D000C945D0024
:100010000C945D000C945D000C945D000C945813DE
:100020000C945D000C9431130C940A130C94E3129D
:100030000C945D000C945D000C945D000C945D00CC
:100040000C9499120C945D000C945D000C945D006E
:100050000C945D000C945D000C945D000C945D00AC
:100060000C945D000C945D006B1311241FBECFEF48
:10007000D8E0DEBFCDBF12E0A0E0B1E0ECE8F4E3F1
:1000800002C005900D92AE34B107D9F725E0AEE479
:10009000B2E001C01D92A735B207E1F710E0C5E359
:1000A000D0E004C02197FE010E94FF18C433D1079D
:1000B000C9F70E94B7130C94441A0C940000A09145
:1000C0003E05B0913F05ED91FC9111970190F081B3
:1000D000E02D682FCD010994209148053091490504
:1000E0002115310529F4019751F080E20C945F004D
:1000F0002130310521F022303105A9F308958AE03D
:10010000F5CFCF93DF93EC010E946C0080914805FE
:1001100090914905009729F4219759F0DF91CF91EB
:1001200008958130910529F082309105A9F3039754
:10013000A9F7C0E080914A05C81780F780E20E94C5
:100140005F0080E20E945F00CF5FF4CFDC016115A9
:100150007105D1F08091510590915205861797074E
:1001600098F099E0969FF001979FF00D112420914F
:100170004B0530914C05E20FF31F399701900D921A
:100180009A95E1F781E0089580E008954F925F929B
:100190006F927F928F929F92AF92BF92CF92DF9297
:1001A000EF92FF920F931F93CF93DF936C0182E046
:1001B00090E00E948100C0913E05D0913F05F12C56
:1001C000E12C15E080E1882E87E2982EA12CB12C3D
:1001D0009AE0492E512C612C712CC701B601A50162
:1001E00094010E94DD18022F60E3620FE881F9811B
:1001F0000190F081E02DCE010995A02FB0E0A5017E
:1002000094010E941419C61AD70AE80AF90AC5010E
:10021000B401A30192010E94DD1849015A01115055
:10022000E1F682E090E09093490580934805DF91E4
:10023000CF911F910F91FF90EF90DF90CF90BF90E3
:10024000AF909F908F907F906F905F904F900895A8
:100250000F931F93CF93DF93CDB7DEB762970FB69F
:10026000F894DEBF0FBECDBF0A871B872C873D8762
:100270004E875F87688B798B8A8B8091510590912F
:10028000520520914F05309150058217930761F474
:1002900080E062960FB6F894DEBF0FBECDBFDF914F
:1002A000CF911F910F9108950196909352058093DD
:1002B000510529E0FE013A96DE01119601900D925A
:1002C0002A95E1F7009721F329E0289FD001299F83
:1002D000B00D112480914B0590914C05A80FB91FCA
:1002E0001997FE01319601900D922A95E1F781E070
:1002F000D0CF0895FC01E11589E0F80790F468304B
:1003000080F4908121E030E001C0220F6A95EAF785
:10031000413021F4292B208381E008952095292361
:10032000FACF80E008958F929F92AF92BF92CF92C2
:10033000DF92EF92FF920F931F93CF93DF93EC0125
:100340004A015B01122FC12CD12C7601C394A70165
:100350009601012E04C0220F331F441F551F0A941B
:10036000D2F7211531054105510509F44EC060E071
:1003700078E488EE91E00E94DD18CA01B9016F5F50
:100380007F4F8F4F9F4F969587957795679561150E
:10039000710581059105C9F181149104A104B1048D
:1003A000A1F1660F771F881F991FA50194010E9474
:1003B000DD182F5F3F4F4F4F5F4F5695479537954D
:1003C00027952115310541055105F9F004C0CC0CE4
:1003D000DD1CEE1CFF1C0A95D2F7C216D306E406FC
:1003E000F50698F01883215031093A83298381E07A
:1003F000DF91CF911F910F91FF90EF90DF90CF9001
:10040000BF90AF909F908F90089580E0F1CF4F9272
:100410005F926F927F92AF92BF92CF92DF92EF92F4
:10042000FF920F931F93CF93DF93CDB7DEB76B97F8
:100430000FB6F894DEBF0FBECDBFAB8ABC8ACD8AA3
:10044000DE8AEF8AF88E098F1A8F2B8F29E0FE0142
:100450007396DE011A9601900D922A95E1F72B8989
:10046000222399F1EB8CFE013A9610E0AFEFAE0D2E
:100470003181313150F5A03140F5112319F0B081AF
:10048000B31718F51F5F31961213F2CF2A013B0103
:100490005C0189E0FE017396DE01119601900D92D8
:1004A0008A95E1F76E01F2E0CF0ED11CF12CF60136
:1004B00021916F010E2DB301A201C5010E9493018C
:1004C000811104C0F3941F11F2CF80E06B960FB638
:1004D000F894DEBF0FBECDBFDF91CF911F910F917A
:1004E000FF90EF90DF90CF90BF90AF907F906F9094
:1004F0005F904F900895AF92BF92CF92DF92EF92AC
:10050000FF920F931F93CF93DF93CDB7DEB72C9756
:100510000FB6F894DEBF0FBECDBF8091C1008F71C2
:100520008B7F8093C10086E08093C200FE013396EA
:1005300087E0DF011D928A95E9F782E0A82E93E01B
:10054000B92E24E0C22EDC80ED80FE800F8118855C
:100550002CE040E052EC61E070E0CE010A960E948F
:100560000702882389F14A852B853C853F703F70BF
:100570009091C500907F932B9093C5002093C40069
:100580004330E1F49091C00092609093C00090914C
:10059000C100906198609093C1002C960FB6F894BA
:1005A000DEBF0FBECDBFDF91CF911F910F91FF90A6
:1005B000EF90DF90CF90BF90AF900895443021F43A
:1005C0009091C0009D7FE1CF80E0E7CFEF92FF9256
:1005D0000F931F93CF93DF931F92CDB7DEB77C01AC
:1005E0008B01D701ED91FC910190F081E02DBE01CE
:1005F0006F5F7F4FC7010995882399F0D801ED916E
:10060000FC910190F081E02D6981C801099581116B
:10061000E8CF0F90DF91CF911F910F91FF90EF9056
:10062000089581E0F6CFCF93DF931F92CDB7DEB769
:100630006983DC011296ED91FC91CE01019609953A
:100640000F90DF91CF910895DC011296ED91FC910E
:10065000CB010994FB01108281E008950F931F9351
:10066000CF93DF93EC018D81882351F09E81DB01D4
:100670009C931C821D82DF91CF911F910F91089551
:100680008B018A819B81BE016A5F7F4FDC01ED9106
:10069000FC910190F081E02D0995882361F39E8102
:1006A000F801908391E09C83E6CFCF93DF931F9274
:1006B000CDB7DEB7FC0169838681811118C06481E2
:1006C0007581828193816817790761F481E086835F
:1006D0000384F485E02DCE01019609950F90DF91FA
:1006E000CF910895CB01019695838483F1CF80E06B
:1006F000F5CFCF92DF92EF92FF921F93CF93DF93CC
:100700001F92CDB7DEB76C017B01BE016F5F7F4FDB
:10071000C7010E942E03182F882369F06981C60142
:100720000E9455038111F1CFF7018481882319F0CC
:1007300091E09583182F812F0F90DF91CF911F911A
:10074000FF90EF90DF90CF900895EF92FF920F937C
:100750001F93CF93DF93CDB7DEB728970FB6F894EA
:10076000DEBF0FBECDBF7C018FE291E09A8389830B
:100770007C836B831D821E82BE01685F7F4FCE012A
:1007800001960E942E03882369F088858032A1F3A8
:100790008D3091F38950833078F38D81882311F067
:1007A00081E08E8310E0BE01685F7F4FCE0101962D
:1007B0000E942E03082F882371F06885603259F05B
:1007C0006D3049F087EF860F833028F0C7010E9413
:1007D0005503102FE8CF812F28960FB6F894DEBF6F
:1007E0000FBECDBFDF91CF911F910F91FF90EF9082
:1007F0000895FC01CB012681211113C0648175810C
:10080000228133816217730731F421E02683038448
:10081000F485E02D09949B012F5F3F4F358324839E
:10082000F6CF80E00895FC0145815681278130850F
:100830008481811121C08281938121153105E1F0EC
:1008400066277727621B730B64177507A8F0841758
:10085000950790F0B901640F751F61507109681711
:10086000790750F09C012F5F3F4F241B350B41153A
:10087000510511F021503109BA01C9010895FC0157
:10088000CA01138212821182108221E02483611531
:100890007105A9F022273327261B370B24173507AC
:1008A00070F053834283860F971F01979183808353
:1008B0001482458356836783708781E0089580E0C2
:1008C0000895CF93DF93EC0102960E943F048823A2
:1008D00021F02EE934E03C872B87DF91CF910895FA
:1008E000CF93DF93CDB7DEB72F970FB6F894DEBF67
:1008F0000FBECDBFAB01BC0185E391E09F878E8722
:10090000198618861B861A868FE191E09A8389835F
:10091000CE0101960E946104882339F0BE016F5F09
:100920007F4FCE010E960E94E6022F960FB6F894E6
:10093000DEBF0FBECDBFDF91CF910895611529E0D5
:10094000720730F4FC018081FB01808381E008950F
:1009500080E00895CF93DF93EC0102960E943F045C
:10096000882321F02BED36E03C872B87DF91CF9158
:100970000895CF93DF93CDB7DEB72D970FB6F894D8
:10098000DEBF0FBECDBFAB01BC01198618861B862A
:100990001A8689E291E09A838983CE0101960E94AA
:1009A000AA04882341F060913E0570913F05CE0175
:1009B00001960E94E6022D960FB6F894DEBF0FBE98
:1009C000CDBFDF91CF910895CF92DF92EF92FF924A
:1009D0006B017C0190E080E00E948100C701B601BC
:1009E0000E94B9041092490510924805FF90EF90BB
:1009F000DF90CF900895CF92DF92EF92FF920F9306
:100A00001F93CF93DF93CDB7DEB7A0970FB6F894BF
:100A1000DEBF0FBECDBF6C018B01198618861B8609
:100A20001A868FE191E09A8389831E8A1D8A188E27
:100A30001F8A89E291E09F878E87AE01455E5F4FF6
:100A400065E070E0CE0101960E946104B801CE011C
:100A500001960E94A503F82E882391F1CE010396FA
:100A60000E941304AB01BC01CE010E960E94AA04A1
:100A700010E000E08AE0E82EBE01605E7F4FCE010C
:100A80000E960E94F9038823C1F088A180538A3012
:100A900038F50A3999E1190718F5E09E9001E19EB1
:100AA000300D1124082F10E0C80180959095821711
:100AB0009307B0F0020F131FDFCFF60111830083FD
:100AC0008F2DA0960FB6F894DEBF0FBECDBFDF917D
:100AD000CF911F910F91FF90EF90DF90CF900895ED
:100AE000F12CEECFCF92DF92EF92FF920F931F93F4
:100AF000CF93DF93CDB7DEB76C970FB6F894DEBF18
:100B00000FBECDBF69017A01198618861B861A8629
:100B100029E231E03A8329831E8A1D8A188E1F8AB2
:100B20003F872E87AB01BC01CE0101960E94AA042B
:100B3000811102C080E021C0B701A601CE010E964E
:100B40000E94AA048823B1F311E0BE01645E7F4FC6
:100B5000CE0101960E94F903082FBE01655E7F4F0A
:100B6000CE010E960E94F9038127002331F08111F6
:100B7000E1CF2C8D9B8D291741F36C960FB6F8941D
:100B8000DEBF0FBECDBFDF91CF911F910F91FF90C0
:100B9000EF90DF90CF9008950F931F93CF93DF9343
:100BA0008C01EB01288139814A815B81FC016081E4
:100BB0007181828193810E947205882311F01D83C7
:100BC0000C83DF91CF911F910F910895CF92DF9207
:100BD000EF92FF92CF93DF93CDB7DEB76A970FB650
:100BE000F894DEBF0FBECDBF6B017C01BA01A90135
:100BF000198618861B861A8689E291E09A83898372
:100C00001E8A1D8A188E1F8A8FE191E09F878E872A
:100C1000CE0101960E94AA04882379F0B701A601AB
:100C2000CE010E960E946104882339F0BE01625FF6
:100C30007F4FCE0101960E94E6026A960FB6F894A5
:100C4000DEBF0FBECDBFDF91CF91FF90EF90DF9061
:100C5000CF900895EF92FF920F931F93CF93DF935E
:100C6000CDB7DEB72E970FB6F894DEBF0FBECDBF5F
:100C70007C01198618861B861A8689E291E09A8380
:100C80008983A701662777276E197F09CE01019610
:100C90000E94AA0410E000E0BE01625F7F4FCE0117
:100CA00001960E94F903882331F08E85882319F07C
:100CB0000F5F1F4FF1CFB701C8012E960FB6F89402
:100CC000DEBF0FBECDBFDF91CF911F910F91FF907F
:100CD000EF900895CF92DF92EF92FF920E942A0642
:100CE0006B017C0181E090E00E948100C701B601A8
:100CF0000E94B9048AE00E945F0083E090E0909334
:100D0000490580934805FF90EF90DF90CF900895BC
:100D1000CF93DF93EC01688179818A819B810E9466
:100D2000E4048E819F81892B61F084E491E00E942C
:100D30002A060E94E4046C817D818E819F810E943D
:100D4000E40481E090E00E946C0083E090E09093E6
:100D5000490580934805DF91CF910895CF93DF93A4
:100D6000EC0183E491E00E946A0680914A05823397
:100D700019F08F5F80934A050990D881C02D209784
:100D800051F070E060E0888199810E9488060A80B5
:100D9000DB81C02DF4CF80914A05882319F0815062
:100DA00080934A0586E491E0DF91CF910C946A0626
:100DB000CB010C94AE06611529E0720730F4FB01FB
:100DC0002081FC01208381E0089580E00895FC01EA
:100DD00080819091C00095FFFCCF8093C6008091E8
:100DE000C00086FFFCCF8091C00080648093C0006B
:100DF00081E00895FC018091C00087FFFCCF9091B5
:100E0000C0009695969597708091C6008083911149
:100E1000F2CF81E00895611524E07207A8F4F999F2
:100E2000FECFFC01908161BD272F237082B58C7F9E
:100E3000822B82BD90BD8FB7F894FA9AF99A8FBF32
:100E4000F999FECF81E0089580E00895FC016115D5
:100E500084E0780780F4F999FECF61BD872F837015
:100E600092B59C7F982B92BDF89AF899FECF80B5E9
:100E7000808381E0089580E008959C01235031092A
:100E80002D303742D0F40297B0E0A0E0BC01CD0194
:100E900024E0660F771F881F991F2A95D1F724E158
:100EA00030E040E050E00E94DD182115310529F0C6
:100EB000C9010E9462130197E1F70895EF92FF9232
:100EC0000F931F93CF93DF937C01C1E0D0E0EC162A
:100ED000FD0658F008EE13E088EE93E00E943D070F
:100EE00001501109C9F72196F2CFDF91CF911F91DF
:100EF0000F91FF90EF9008958F929F92AF92BF92C3
:100F0000CF92DF92EF92FF921F93CF93DF93EC018A
:100F10006A017B0110E081E0C81688E2D8068BE602
:100F2000E8068EEEF80640F011E0C12C98E2D92ECA
:100F30009BE6E92E9EEEF92EC701B60120E03AECC1
:100F40004AE95BE30E94DD1839832883C701B601B3
:100F500020E432E44FE050E00E94DD1888EE882E55
:100F600083E0982EA12CB12CCA01B901A5019401EE
:100F70000E94DD187B836A83C701B601A501940135
:100F80000E94DD186B01CA01B901A50194010E94FC
:100F9000DD187D836C83DF82CE8281E08127DF9143
:100FA000CF911F91FF90EF90DF90CF90BF90AF90C7
:100FB0009F908F9008957F928F929F92AF92BF9251
:100FC000CF92DF92EF92FF920F931F93CF93DF9315
:100FD000CDB7DEB728970FB6F894DEBF0FBECDBFF2
:100FE0006C0109831A832B833C834D835E836F835B
:100FF0007887A981BA81EB80FC800D811E81EF8109
:10100000F885A530B10508F052C0712CA430B105A7
:1010100099F4E114F10409F055C00115110509F026
:1010200058C077247394EF2B09F4712CF0E0E0E0C2
:10103000F12CE12CA4E0B0E020E03AEC4AE95BE3DB
:101040000E9414194B015C01D70120E432E44FE007
:1010500050E00E941419860E971EA81EB91E980112
:10106000A8EEB3E00E940519860E971EA81EB91EB1
:101070008E0E9F1EA11CB11CF60180829182A2825D
:10108000B38281E0872528960FB6F894DEBF0FBEA5
:10109000CDBFDF91CF911F910F91FF90EF90DF9027
:1010A000CF90BF90AF909F908F907F900895F0E089
:1010B000E0E010E000E0F12CE12CA4E0B0E07724C7
:1010C0007394BACFF0E0E0E010E000E0F12CE12C06
:1010D000F6CFF0E0E0E010E000E0F1CF2F923F9299
:1010E0004F925F926F927F928F929F92AF92BF9238
:1010F000CF92DF92EF92FF920F931F93CF93DF93E4
:10110000CDB7DEB728970FB6F894DEBF0FBECDBFC0
:10111000FC0109831A832B833C834D835E836F8399
:10112000788700811181083E43E0140708F08EC0E3
:1011300062817381683E83E0780708F087C0A481EC
:10114000B581A83E93E0B90708F080C086809780FB
:1011500048EE841643E0940608F078C029813A816D
:10116000283E83E0380708F071C02B803C8098EE61
:10117000291693E0390608F069C04D815E81483E2A
:1011800083E0580708F062C0AF80B88498EEA916D3
:1011900093E0B90608F05AC0EE24E394F12C8A14C7
:1011A0009B0410F0F12CE12C6D01C41AD50AC60184
:1011B00088519C4F2C014E185F084E0D5F1DEE2488
:1011C000E394F12CA417B50710F0F12CE12C3B01AE
:1011D00062187308D301A851BC4F3D016E187F08F7
:1011E000C1018E0D9F1DCC24C394D12C68177907A3
:1011F00010F0D12CC12C88EEE82E83E0F82EC70128
:10120000821B930B800F911F8C199D09B7010E94BF
:10121000C91891838083C301B7010E94C9189383C1
:101220008283C201B7010E94C918958384832C0D63
:101230003D1D0217130718F1C7018A199B09880D74
:10124000991DB7010E94C9189783868328960FB607
:10125000F894DEBF0FBECDBFDF91CF911F910F91EC
:10126000FF90EF90DF90CF90BF90AF909F908F90C6
:101270007F906F905F904F903F902F90089588E0FF
:10128000DF011D928A95E9F7E1CFAF92BF92CF922D
:10129000DF92EF92FF920F931F93CF93DF93CDB71F
:1012A000DEB728970FB6F894DEBF0FBECDBFFC01A6
:1012B00009831A832B833C834D835E836F837887F6
:1012C000A080B18028EEA21623E0B20608F075C017
:1012D00062817381683E83E0780708F06EC0A48164
:1012E000B581A83E23E0B20708F067C0C680D7806A
:1012F00088EEC81683E0D80608F05FC049815A819D
:10130000483E23E0520708F058C00B811C81083E7C
:1013100083E0180708F051C02D813E81283E83E00C
:10132000380708F04AC0EF80F88488EEE81683E0BA
:10133000F80608F042C0EC0CFD1C2A0F3B1FA1E090
:10134000B0E088EEE81683E0F80610F4B0E0A0E024
:101350002A0F3B1F060F171F61E070E0283E83E055
:10136000380710F470E060E0060F171F4A0D5B1D90
:1013700081E090E0083E63E0160710F490E080E022
:10138000840F951F48EEC42E43E0D42EB6010E9470
:10139000C91891838083C801B6010E94C91893833C
:1013A0008283C901B6010E94C91895838483C7014D
:1013B000B6010E94C9189783868328960FB6F894C1
:1013C000DEBF0FBECDBFDF91CF911F910F91FF9078
:1013D000EF90DF90CF90BF90AF900895EF92FF9283
:1013E0000F931F93CF93DF93CDB7DEB728970FB638
:1013F000F894DEBF0FBECDBFEFB7F8948CE0E82EB7
:1014000085E0F82ED7016D917C91119712964D9140
:101410005C91139714962D913C91159716968D918A
:101420009C91EFBF7A8369835C834B833E832D83DA
:1014300098878F830091140510911505209116054A
:1014400030911705409118055091190560911A05C2
:1014500070911B05CE0101960E944509E981FA8130
:101460006B817C814D815E812F8138858FB7F894A7
:10147000D7011196FC93EE9313967C936E9312977B
:1014800015965C934E93149717963C932E9316974C
:101490008FBF28960FB6F894DEBF0FBECDBFDF9189
:1014A000CF911F910F91FF90EF9008958F929F928F
:1014B000AF92BF92CF92DF92EF92FF920F931F9362
:1014C000CF93DF93CDB7DEB768970FB6F894DEBF42
:1014D0000FBECDBFE0913205F09133058181887F49
:1014E0008183E0912E05F0912F05808180FF09C056
:1014F0000E94EE09E0912E05F0912F058081816018
:1015000080838FB7F89480900C0590900D05A09083
:101510000E05B0900F05C0901005D0901105E09019
:101520001205F09013058FBFE0913405F091350559
:101530004081E0911C05A0913205B09133059E2FAA
:10154000977011968C911197887F892B11968C93A7
:10155000E150E73008F054C0F0E0EF54F54F0C9440
:10156000FF18350BB80A2B0B2D0B2F0B310B330B40
:1015700083E050E070E060E04F5F5F4F6F4F7F4F60
:1015800004C0440F551F661F771F8A95D2F784E069
:1015900076956795579547958A95D1F7CE01099627
:1015A0000E947C0788E0FE013996DE0111960190C9
:1015B0000D928A95E1F788E0FE013196DE015196A1
:1015C00001900D928A95E1F79A868986BC86AB8652
:1015D000DE86CD86F88AEF8609891A892B893C89AF
:1015E0004D895E896F89788DCE0109960E944509E3
:1015F00089849A84AB84BC84CD84DE84EF84F888AB
:10160000082D9A8689862A2DBC86AB864C2DDE86CF
:10161000CD866E2DF88AEF861A853C855E857889A1
:10162000CE0141960E94DB0769897A898B899C8962
:1016300068960FB6F894DEBF0FBECDBFDF91CF9195
:101640001F910F91FF90EF90DF90CF90BF90AF90E0
:101650009F908F90089585E08CCF86E08ACF87E0B9
:1016600088CF88E086CF8AE084CF80E082CFFC01FB
:1016700086E390E0918380838FE690E0938382837A
:1016800080E890E09583848384E890E09783868364
:1016900086E890E09187808788E890E0938782874A
:1016A0008AE890E0958784870895FF920F931F93AF
:1016B000CF93DF93CDB7DEB7EE970FB6F894DEBFCA
:1016C0000FBECDBFCE010F960E94370BEB89FC8970
:1016D000F180F6FAFF24F0F8CE0101960E94370B54
:1016E000EFB7F8946091F1047091F2044091F30423
:1016F0005091F4042091F5043091F6048091F704A0
:101700009091F804EFBF7E8F6D8F58A34F8F3AA34F
:1017100029A39CA38BA3E985FA8520813181A8EEBA
:10172000B3E00E940519209104013091050150E0B9
:1017300040E00E94DD1818AA1FA61AAA19AA1CAA1E
:101740001BAA622F3EAB2DAB00E018A920E03AA9FE
:1017500040E05CA97EA9CE014D960E94450988E033
:10176000FE017D96DE01D79601900D928A95E1F7F4
:1017700088E0FE01F796DE01979601900D928A951A
:10178000E1F781E0F826FEA299E0FE01B696DE01BF
:101790005D9601900D929A95E1F790910205911155
:1017A0001FC099E0FE017D96A9EFB4E001900D9273
:1017B0009A95E1F780930205EB89FC8991818181FB
:1017C0008F7B96FF80648183EE960FB6F894DEBF20
:1017D0000FBECDBFDF91CF911F910F91FF90089564
:1017E0008091F904898388E0FE017E96DE011296DD
:1017F00001900D928A95E1F70091FA041091FB0493
:101800002091FC043091FD044091FE045091FF04AE
:101810006091000570910105CE0102960E946E084C
:1018200089E0FE017D96A9EFB4E001900D928A95C2
:10183000E1F709811A812B813C814D815E816F81A5
:10184000788589850E942801B7CFEF92FF920F9388
:101850001F93CF93DF93CDB7DEB728970FB6F894D9
:10186000DEBF0FBECDBFEFB7F89481EFE82E84E066
:10187000F82ED7016D917C91119712964D915C9144
:10188000139714962D913C91159716968D919C91D6
:10189000EFBF7A8369835C834B833E832D83988774
:1018A0008F83009103051091040520910505309167
:1018B0000605409107055091080560910905709152
:1018C0000A05CE0101960E944509E981FA816B81E2
:1018D0007C814D815E812F8138858FB7F894D70147
:1018E0001196FC93EE9313967C936E931297159634
:1018F0005C934E93149717963C932E9316978FBF35
:1019000028960FB6F894DEBF0FBECDBFDF91CF9102
:101910001F910F91FF90EF9008958F929F92AF9239
:10192000BF92CF92DF92EF92FF920F931F93CF93CC
:10193000DF93CDB7DEB7AC970FB6F894DEBF0FBE1E
:10194000CDBF10925205109251051E8A1D8A188E25
:101950001F8A89E291E09F878E87409121015091F3
:1019600022016091230170912401CE0140960E94D2
:101970003F04882321F086E297E09A8F898F8FE2D7
:1019800091E09DA38CA3198618861B861A868FE189
:1019900091E09A838983CE010E969FA38EA318A609
:1019A00019A6AE01455D5F4F62E070E00D970E94A1
:1019B0006104BE016C5D7F4FCE0101960E947903E8
:1019C000882379F1EE24E394F12C6E018BE1C80EAB
:1019D000D11C8BA59CA58E159F0518F189E0A82E1A
:1019E000B12CB501A601CE0101960E946104BE0191
:1019F0006C5D7F4FCE0101960E947903882389F0A8
:101A00000B8D1C8D2D8D3E8D4F8D58A169A17AA116
:101A10008BA10E942801882321F08FEFE81AF80A91
:101A2000D8CFAC960FB6F894DEBF0FBECDBFDF9116
:101A3000CF911F910F91FF90EF90DF90CF90BF90CB
:101A4000AF909F908F900895AF92BF92CF92DF9208
:101A5000EF92FF920F931F93CF93DF93CDB7DEB733
:101A6000A5970FB6F894DEBF0FBECDBF1E8A1D8AA4
:101A7000188E1F8A8FE191E09F878E874091210108
:101A8000509122016091230170912401CE01409672
:101A90000E943F04882321F08BE097E09A8F898F82
:101AA000198618861B861A8689E291E09A838983B3
:101AB00080915105909152059DA38CA3AE014C5D80
:101AC0005F4F62E070E0CE0101960E94AA04BE0161
:101AD000625F7F4FCE0101960E94E602882331F1BA
:101AE00001E010E05E018BE1A80EB11C8CA19DA16C
:101AF00080179107D8F0B801C5010E94A60088237D
:101B0000A9F089E0E82EF12CB701A501CE010196DC
:101B10000E94AA04BE01625F7F4FCE0101960E941F
:101B2000E602882319F00F5F1F4FE0CFA5960FB68E
:101B3000F894DEBF0FBECDBFDF91CF911F910F9103
:101B4000FF90EF90DF90CF90BF90AF9008953F92BD
:101B50004F925F926F927F928F929F92AF92BF92BD
:101B6000CF92DF92EF92FF920F931F93CF93DF9369
:101B7000CDB7DEB76E970FB6F894DEBF0FBECDBF00
:101B8000109252051092510560913C0570913D05EF
:101B9000CE014D960E94FB04882309F492C0EE24E6
:101BA000E394F12C6E0187E1C80ED11C33243394E9
:101BB0008D8D9E8D8E159F0508F487C000913C0584
:101BC00010913D0582E0682E712C198618861B86BF
:101BD0001A868FE191E09A838983B301A601CE0131
:101BE00001960E946104B801CE0101960E94A503EE
:101BF000882309F466C0CE0103960E9413044B01AA
:101C00005C0120912A0530912B0540912C055091C3
:101C10002D050E947205882309F443C03E86609119
:101C20003C0570913D05CE014B960E94FB04882334
:101C300009F447C060913C0570913D05CE0149967D
:101C40000E94FB048823E9F160913C0570913D05F9
:101C5000C6010E94FB048823A1F160913C057091AC
:101C60003D05CE0101960E94FB04882351F18B8D26
:101C70009C8D182F988B898D9A8D382F9A8B8F89F0
:101C8000988D582F9C8B89819A81782F0E85288971
:101C90004A896C89892F0E9428019FEFE91AF90A65
:101CA00087CF209126053091270540912805509136
:101CB0002905C501B4010E947205882311F01E8612
:101CC000AECF89E491E00E946A066E960FB6F89452
:101CD000DEBF0FBECDBFDF91CF911F910F91FF905F
:101CE000EF90DF90CF90BF90AF909F908F907F90BC
:101CF0006F905F904F903F9008954F925F926F92D8
:101D00007F928F929F92AF92BF92CF92DF92EF928B
:101D1000FF920F931F93CF93DF93CDB7DEB76F97EB
:101D20000FB6F894DEBF0FBECDBFE0905105F09026
:101D30005205C7010E94C60081E090E00E946C003D
:101D400083E090E0909349058093480501E010E01E
:101D500089E2682E81E0782E93E0492E512CE0161E
:101D6000F10608F45DC0B801CE0147960E94A600B6
:101D700089E0FE017796DE011E9601900D928A950C
:101D8000E1F7BF8882E090E00E948100C0903E05AC
:101D9000D0903F05198618861B861A867A8269823A
:101DA000BB20A9F140912A0550912B0560912C058B
:101DB00070912D05CE0101960E94AA04B601CE01B4
:101DC00001960E94E60282E090E09093490580939C
:101DD000480589889A88AB88BC88CD88DE888F853D
:101DE00098890E94C600C4010E94C600C5010E94D5
:101DF000C600C6010E94C60081E090E00E946C000F
:101E000050924905409248050F5F1F4FA8CF40915F
:101E10002605509127056091280570912905CACFA4
:101E20006F960FB6F894DEBF0FBECDBFDF91CF9196
:101E30001F910F91FF90EF90DF90CF90BF90AF90E8
:101E40009F908F907F906F905F904F9008952F920A
:101E50003F924F925F926F927F928F929F92AF923A
:101E6000BF92CF92DF92EF92FF920F931F93CF9387
:101E7000DF93CDB7DEB7A8970FB6F894DEBF0FBEDD
:101E8000CDBFA0905105B0905205B8A6AFA2EE24E8
:101E9000E394F12CCFA0D8A4CE14DF0408F408C139
:101EA000B701CE0101960E94A6008981882309F41A
:101EB0009FC088E0FE013296DE01529601900D929D
:101EC0008A95E1F70A891B892C893D894E895F89AA
:101ED000688D798DCE0182960E94DB07DFB6DEA287
:101EE000F8940E94560A25B5287F226025BD24B5A6
:101EF0002F73206424BD0AA11BA12CA13DA1060FB4
:101F0000171F281F391F280139014FE2441A5108B1
:101F10006108710858EE451653E0550661047104D6
:101F200008F43FC0075114402109310960177107B7
:101F300082079307B0F5DFBE58016901A61AB70AF8
:101F4000C80AD90AB601A501CE0142960E947C07B3
:101F50008A889B88AC88BD882E883F88C88CD98C9D
:101F600001E010E08016910638F088EE93E00E94C0
:101F70005E070F5F1F4FF6CFC5010E945E0701E0AD
:101F800010E02016310638F088EE93E00E943D07FD
:101F90000F5F1F4FF6CFC6010E943D07F8940E94C5
:101FA000560A4616570668067906F0F0A301920114
:101FB000261B370B480B590BC9010E943D0785B5FD
:101FC000877061F084B5806C84BDA99AA99BFECF0F
:101FD00084B58F7384BD85B5887F85BDAEA0AFBE47
:101FE0005FEFE51AF50A56CF80E090E0DC01E5CF1F
:101FF00088E0FE013296DE011A9601900D928A95D4
:10200000E1F78A859B85892B69F48C859D85892BD1
:1020100049F48E859F85892B29F4888999898F3881
:102020009340E0F11B8E1A8E1D8E1C8E1F8E1E8E0D
:102030006EE868A333E039A300E01B8D20E03D8DFE
:1020400040E05F8D73E0CE0102960E946E088A80A8
:102050009B80AC80BD806E807F80C884D98401E085
:1020600010E08016910638F088EE93E00E945E073B
:102070000F5F1F4FF6CFC5010E945E0701E010E021
:102080006016710638F088EE93E00E943D070F5FFE
:102090001F4FF6CFC6010E943D07A2CF88859985C4
:1020A000893641E0940708F49BCF88569140F3CFDE
:1020B000A8960FB6F894DEBF0FBECDBFDF91CF91CB
:1020C0001F910F91FF90EF90DF90CF90BF90AF9056
:1020D0009F908F907F906F905F904F903F902F9048
:1020E0000895CF93DF93CDB7DEB76C970FB6F89412
:1020F000DEBF0FBECDBFCE010F960E94370BCE01C3
:1021000001960E94370BED81FE818181887F81835A
:10211000E989FA8980818F7D8083EF85F8898081C4
:10212000806280836C960FB6F894DEBF0FBECDBF81
:10213000DF91CF910895CF93DF93CDB7DEB76C9742
:102140000FB6F894DEBF0FBECDBF109252051092AD
:102150005105CE010F960E94370B10920205EF85B4
:10216000F889808180628083E989FA898081806230
:1021700080838FB7F894E1EFF4E01182108213822C
:10218000128215821482178216828FBFED89FE8912
:1021900011821082EF85F889808182608083CE0170
:1021A00001960E94370BED81FE8190910B0597708F
:1021B0008181887F892B81836C960FB6F894DEBF6E
:1021C0000FBECDBFDF91CF9108950F931F93CF9393
:1021D000DF93EC018B01CB010E941F19009781F066
:1021E000998388831B830A83688179818A819B8193
:1021F0000E94700481E0DF91CF911F910F910895AB
:1022000080E0F9CFCF93DF93EC018A819B81009727
:10221000B1F09195819591092881398182179307B1
:1022200070F0688179818A819B810E947004888125
:1022300099810E94BB19198218821B821A82DF9130
:10224000CF910895CF92DF92EF92FF920F931F9359
:10225000CF93DF9300D000D0CDB7DEB78C0184E000
:10226000C82ED12CD801ED91FC91309771F0E2800D
:10227000F380FA83E983DC82CB82CE0101960E944F
:102280000211F801F182E082EDCF0F900F900F90D4
:102290000F90DF91CF911F910F91FF90EF90DF9002
:1022A000CF9008950F931F93CF93DF9300D000D06A
:1022B000CDB7DEB78C019A8389838CE090E09C8354
:1022C0008B83C8010E940211C80104960E9402116A
:1022D000CE0101960E9402110F900F900F900F9067
:1022E000DF91CF911F910F9108950C9452110F938C
:1022F0001F93CF93DF938C01FC01C081D181209784
:1023000041F0888199810E9452110A80DB81C02DA1
:10231000F6CFC801DF91CF911F910F910C9422113C
:10232000CB010C9477114F925F926F927F928F92B4
:102330009F92AF92BF92CF92DF92EF92FF920F9354
:102340001F93CF93DF93CDB7DEB728970FB6F894DE
:10235000DEBF0FBECDBF7C01CB015A0169011A82DD
:1023600019821C821B821E821D8218861F820E9477
:102370002A062B013C01C5010E942A064B015C0183
:102380006114710409F5F70111821082138212821F
:102390001582148217821682C70128960FB6F89408
:1023A000DEBF0FBECDBFDF91CF911F910F91FF9088
:1023B000EF90DF90CF90BF90AF909F908F907F90E5
:1023C0006F905F904F900895B301CE0101960E94E7
:1023D000E5108823C1F269817A818B819C81A301F8
:1023E00092010E94E605A114B10429F4CE010196E0
:1023F0000E940211C8CFB501CE0105960E94E510DA
:102400008823A1F36D817E818F819885A501940138
:102410000E94E60549815A816B817C818D819E8174
:10242000AF81B885F70140835183628373838483CE
:102430009583A683B783D186C08613870287ACCFE6
:10244000AF92BF92CF92DF92EF92FF920F931F93C2
:10245000CF93DF93CDB7DEB764970FB6F894DEBFA6
:102460000FBECDBF5C01C986DA86EB86FC860D8780
:102470001E872F87388B498B5A8B6B8B7C8B1E82E8
:102480001D8218861F826CE070E0CE0105960E94C6
:10249000E510182F8823F1F09E01275F3F4F4CE095
:1024A00050E06D817E818F8198850E94E605ED80E8
:1024B000FE801A8219821C821B8264E070E0CE01C9
:1024C00001960E94E510182F811116C0CE010596C5
:1024D0000E940211812F64960FB6F894DEBF0FBEE2
:1024E000CDBFDF91CF911F910F91FF90EF90DF90C3
:1024F000CF90BF90AF900895E981FA81F182E08298
:10250000D5018D919C911197892B11F4ED93FC933A
:10251000D50112968D919C91009729F0DC011396BC
:10252000FC93EE931297D5011396FC93EE931297BA
:10253000D1CF1F920F920FB60F9211242F933F937A
:102540008F939F93AF93BF93809122059091230522
:10255000A0912405B09125053091210523E0230F9A
:102560002D3758F50196A11DB11D209321058093AB
:10257000220590932305A0932405B093250580910F
:102580001D0590911E05A0911F05B0912005019693
:10259000A11DB11D80931D0590931E05A0931F05DD
:1025A000B0932005BF91AF919F918F913F912F9153
:1025B0000F900FBE0F901F90189526E8230F0296DC
:1025C000A11DB11DD2CF1F920F920FB60F921124F1
:1025D0002F933F934F935F936F937F938F939F932B
:1025E000AF93BF93EF93FF93E0910201F09103014A
:1025F0000995FF91EF91BF91AF919F918F917F913D
:102600006F915F914F913F912F910F900FBE0F905F
:102610001F9018951F920F920FB60F9211242F93AF
:102620003F934F935F936F937F938F939F93AF935A
:10263000BF93EF93FF93E0910001F09101010995A1
:10264000FF91EF91BF91AF919F918F917F916F918A
:102650005F914F913F912F910F900FBE0F901F9060
:1026600018951F920F920FB60F9211242F933F933C
:102670004F935F936F937F938F939F93AF93BF938A
:10268000EF93FF93E0910601F09107010995FF9107
:10269000EF91BF91AF919F918F917F916F915F91DA
:1026A0004F913F912F910F900FBE0F901F90189553
:1026B0001F920F920FB60F9211240F900FBE0F9022
:1026C0001F901895000000000000000000000000AE
:1026D00000000000089589E591E00E942A066093B9
:1026E0002A0570932B0580932C0590932D058BE57F
:1026F00091E00E942A066093260570932705809337
:10270000280590932905EEE2F5E087E390E09183B8
:10271000808380E790E09383828380EB90E09583D1
:10272000848382EB90E09783868383EB90E09187AC
:10273000808784EB90E09387828786EB90E0958793
:102740008487ECE3F5E081E491E0958384838BE377
:1027500091E09187808783E090E095878487168653
:10276000EBE4F5E011821082138212820895CF9378
:10277000DF93CDB7DEB7C35ED1090FB6F894DEBFE5
:102780000FBECDBF789484B5826084BD84B581606E
:1027900084BD85B5826085BD85B5816085BD80912C
:1027A0006E00816080936E001092810080918100A4
:1027B000826080938100809181008160809381009C
:1027C000809180008160809380008091B10084605E
:1027D0008093B1008091B00081608093B0008091BF
:1027E0007A00846080937A0080917A00826080937E
:1027F0007A0080917A00816080937A0080917A00DB
:10280000806880937A001092C1000E947B02882326
:1028100031F08AEF96E090934305809342050E9441
:102820007B02882331F087EE96E0909347058093F2
:10283000460580E495E090933D0580933C0584E453
:1028400095E090933F0580933E0580910E01909115
:102850000F01A0911001B091110180934B0590934D
:102860004C05A0934D05B0934E058BE490E09093FA
:10287000500580934F051092520510925105CE01DC
:1028800081960E94370B40E060E084E290E00E9475
:102890007A0141E060E085E290E00E947A01CE0199
:1028A00001964C010E94370BED81FE818181887F6A
:1028B0008183EDA1FEA180818C7F80838181877ED1
:1028C00088608183FE01E154FF4F89E0DF011D92A2
:1028D0008A95E9F7A5E03A2E3082B3E02B2E2282CA
:1028E00086E0838388E084838AE0858380E1808733
:1028F00015E0A12EB18003E0C02E86E0D82E98E02E
:10290000E92E2AE0F22E0681178120E148EE53E0FD
:1029100060E070E0C4010E9407028A819B81EBA500
:10292000FCA5918380838A819B8101969093050108
:10293000809304018981863009F4D8C008F0C8C0AA
:10294000882309F4CDC0833009F4CEC085E29CE031
:102950009093030180930201EBA1FCA1808125E506
:102960003BE0309301012093000182608F7D8083E2
:10297000EDA1FEA181818F7B818348EE53E060E071
:1029800070E083E095E00E947C0789E0E2E1F1E0FD
:10299000DE01AA54BF4F01900D928A95E1F789E0BC
:1029A000FE01EA54FF4FDE01A355BF4F01900D9287
:1029B0008A95E1F789E0FE01E355FF4FDE01AC5552
:1029C000BF4F01900D928A95E1F7FE01EC55FF4F44
:1029D00080E09181913108F0FDC0882321F02081B1
:1029E000291708F0F7C08F5F3196873091F789E09B
:1029F000FE01E355FF4FDE01A556BF4F01900D923A
:102A00008A95E1F78BE990E08C0F9D1F0196CE51DE
:102A1000DF4F99838883C25ED04000E022242A944D
:102A2000322CAA24AA94BA2C10E020E4C22E22E46C
:102A3000D22E2FE0E22EF12CCE51DF4FE881F9812A
:102A4000C25ED0408191CE51DF4FF983E883C25EF0
:102A5000D04020E034E244EF50E004C05695479562
:102A6000379527958A95D2F7C701B6010E94DD18E0
:102A70002233310508F03FC082E390E0821B930BC4
:102A80009C01A216B30648F02216330610F0012F5F
:102A900019011F5F5901173079F6EBE9F0E0EC0FEF
:102AA000FD1FE00FF11D81818B3008F093C0E82FEE
:102AB000F0E0E35AFA4E0C94FF187E15EA15EA1579
:102AC0006C18EA156E18701872187418EA157618D2
:102AD000883079F08A3009F039CF30920B0536CF43
:102AE00081E080930B0532CF82E0FBCF20920B0573
:102AF0002DCF84E0F6CF22533109C3CF91E09093DC
:102B00001C0540E051E060E070E004C0440F551F38
:102B1000661F771F8A95D2F7E4E0769567955795FB
:102B20004795EA95D1F7C4010E947C0788E0F4013B
:102B3000DE01A853BF4F01900D928A95E1F788E01E
:102B4000FE01E853FF4FDE01A053BF4F01900D92ED
:102B50008A95E1F788E0FE01E053FF4FA4E1B5E07C
:102B600001900D928A95E1F7E0913205F0913305DD
:102B700080818C7F80838181877F81838EEE99E045
:102B80009093070180930601E0912E05F0912F05A7
:102B9000808181608083E0913005F09131058081F2
:102BA00081608083E0913405F091350510828FB704
:102BB000F89410920D0510920C0510920F051092CA
:102BC0000E05109211051092100510921305109227
:102BD00012058FBFE0913205F091330520911C055D
:102BE00027709181987F922B91838181887F822B9E
:102BF000818308E023E040EE58E261E070E0C40128
:102C00000E949301811174C28DE591E00E946A06D1
:102C100086E791E00E946A06C252DF4F198218824D
:102C2000CE5DD040C052DF4F19821882C05ED040C6
:102C300010E000E02BE930E140E951E060EA71E0AA
:102C4000CE0181579F4F0E949311C157DF4FC8801B
:102C5000CF58D040C057DF4FD880C059D040CF5652
:102C6000DF4FE880C159D040CE56DF4FF880C259BF
:102C7000D040CD56DF4F0881C359D040CC56DF4FEE
:102C80001881C459D040CB56DF4F2881C559D04058
:102C9000CA56DF4F3881C659D040C956DF4F4881E8
:102CA000C759D040C856DF4F5881C859D040C75681
:102CB000DF4F6881C959D040C656DF4F7881CA5965
:102CC000D040CE0182529F4F0E94201210E000E0BF
:102CD00021E730E142EA51E06AEE71E0CE018D5722
:102CE0009F4F0E949311CD57DF4FC880C358D040EB
:102CF000CC57DF4FD880C458D040CB57DF4FE88047
:102D0000C558D040CA57DF4FF880C658D040C95781
:102D1000DF4F0881C758D040C857DF4F1881C858C7
:102D2000D040C757DF4F2881C958D040C657DF4F22
:102D30003881CA58D040C557DF4F4881CB58D04062
:102D4000C457DF4F5881CC58D040C357DF4F6881FC
:102D5000CD58D040C257DF4F7881CE58D040CE01F9
:102D600082529F4F0E94201210E000E027E23FE0D5
:102D700040EB51E06EE871E0CE0189589F4F0E9410
:102D80009311E896CFACE897E996DFACE997EA961D
:102D9000EFACEA97EB96FFACEB97EC960FADEC97A8
:102DA000ED961FADED97EE962FADEE97EF963FADFA
:102DB000EF97C158DF4F4881CF57D040C058DF4F01
:102DC0005881C058D040CF57DF4F6881C158D0409C
:102DD000CE57DF4F7881C258D040CE0182529F4FEC
:102DE0000E94201210E000E02DE73EE04CEB51E0A5
:102DF00062ED71E0CE0185599F4F0E949311AC9610
:102E0000CFACAC97AD96DFACAD97AE96EFACAE97CE
:102E1000AF96FFACAF97E0960FADE097E1961FAD90
:102E2000E197E2962FADE297E3963FADE397E49604
:102E30004FADE497E5965FADE597E6966FADE69703
:102E4000E7967FADE797CE0182529F4F0E942012F6
:102E500010E000E027EA3DE045ED51E06CEE71E066
:102E6000CE01815A9F4F0E949311A096CFACA0979C
:102E7000A196DFACA197A296EFACA297A396FFAC68
:102E8000A397A4960FADA497A5961FADA597A69658
:102E90002FADA697A7963FADA797A8964FADA89739
:102EA000A9965FADA997AA966FADAA97AB967FAD8D
:102EB000AB97CE0182529F4F0E94201210E000E09B
:102EC00024E23DE04FEE51E06CE072E0CE018D5A1D
:102ED0009F4F0E9493116496CFAC64976596DFACC8
:102EE00065976696EFAC66976796FFAC67976896AE
:102EF0000FAD689769961FAD69976A962FAD6A976F
:102F00006B963FAD6B976C964FAD6C976D965FADC2
:102F10006D976E966FAD6E976F967FAD6F97CE0182
:102F200082529F4F0E94201210E000E02DE83CE00A
:102F30004FE052E06EE272E0CE01895B9F4F0E944B
:102F400093112896CFAC28972996DFAC29972A961B
:102F5000EFAC2A972B96FFAC2B972C960FAD2C97A6
:102F60002D961FAD2D972E962FAD2E972F963FADF8
:102F70002F9760964FAD609761965FAD61976296AF
:102F80006FAD629763967FAD6397CE0182529F4F7C
:102F90000E9420128E0102521F4F28ED36E041E3BD
:102FA00052E06FE372E0CE01CB960E949311CBAC5E
:102FB000DCACEDACFEAC0FAD21961FAD2197229697
:102FC0002FAD229723963FAD239724964FAD24979C
:102FD00025965FAD259726966FAD269727967FADF0
:102FE0002797CE0182529F4F0E9420128823F1F032
:102FF0008E0102521F4F20E931E141E452E066E4C4
:1030000072E0CE018F960E949311CFA4D8A8E9A8B0
:10301000FAA80BA91CA92DA93EA94FA958AD69ADC5
:103020007AADCE0182529F4F0E942012CE01825271
:103030009F4F0E94AE064FE1E42E41E0F42EC252B3
:10304000DF4F88819981CE5DD040892B09F48BC0F8
:1030500019A618A61BA61AA6FAA2E9A230E2632EA8
:10306000712CB301A401CE0181960E94610460918C
:103070003C0570913D05CE0181960E94A5038823F1
:10308000F1F2CE0183960E941304C852DF4F798378
:103090006883C85DD040C652DF4F99838883CA5D7C
:1030A000D040C452DF4F19821882CC5DD040C2524A
:1030B000DF4F08811981CE5DD04001151105E1F186
:1030C000BE0168527F4FD8018D919C910E94CC0522
:1030D000F80102811381F1CF92E011CD93E00FCD81
:1030E00094E00DCD95E00BCD96E009CD97E007CDAE
:1030F00041E066E08AE290E00E947A0140E066E00A
:103100008BE290E00E947A0140E066E08BE290E082
:103110000E947A0185B5887F85BD84B5836084BDB2
:1031200085B5886085BD8A8187BD16BC80916E009B
:103130008E7F80936E006CCDC452DF4FA881B98121
:10314000CC5DD040109709F47ACF1896ED91FC91A0
:1031500019971A966D917C91309709F470CF90E091
:1031600080E009956CCFCE0182529F4F0E9477116B
:10317000CE0182529F4F0E94221188E492E00E9469
:103180006A0600E010E001151105E9F30E94000055
:10319000FACFAA1BBB1B51E107C0AA1FBB1FA61772
:1031A000B70710F0A61BB70B881F991F5A95A9F7F0
:1031B00080959095BC01CD010895A1E21A2EAA1B1D
:1031C000BB1BFD010DC0AA1FBB1FEE1FFF1FA217D7
:1031D000B307E407F50720F0A21BB30BE40BF50BD4
:1031E000661F771F881F991F1A9469F7609570955D
:1031F000809590959B01AC01BD01CF010895EE0F24
:10320000FF1F0590F491E02D0994A29FB001B39F98
:10321000C001A39F700D811D1124911DB29F700DDF
:10322000811D1124911D08950E940519A59F900DDF
:10323000B49F900DA49F800D911D112408950F93AC
:103240001F93CF93DF938230910510F482E090E0DA
:10325000E0915505F091560530E020E0B0E0A0E0A7
:10326000309799F42115310509F44AC0281B390B10
:1032700024303105D8F58A819B816115710589F16A
:10328000FB0193838283FE0111C040815181028141
:10329000138148175907E0F04817590799F4109718
:1032A00061F012960C93129713961C933296CF01ED
:1032B000DF91CF911F910F910895009355051093C1
:1032C0005605F4CF2115310551F04217530738F058
:1032D000A901DB019A01BD01DF01F801C1CFEF01B6
:1032E000F9CF9093560580935505CDCFFE01E20F9F
:1032F000F31F819391932250310939832883D7CFCB
:103300002091530530915405232B41F420910A015B
:1033100030910B01309354052093530520910801FF
:10332000309109012115310541F42DB73EB7409187
:103330000C0150910D01241B350BE0915305F091C8
:103340005405E217F307A0F42E1B3F0B281739078B
:1033500078F0AC014E5F5F4F2417350748F04E0FF1
:103360005F1F5093540540935305819391939FCFD2
:10337000F0E0E0E09CCFCF93DF930097E9F0FC0111
:10338000329713821282A0915505B0915605ED0136
:1033900030E020E01097A1F420813181820F931F4B
:1033A00020915305309154052817390709F061C061
:1033B000F0935405E0935305DF91CF910895EA010E
:1033C000CE17DF07E8F54A815B819E014115510563
:1033D000B1F7E901FB83EA8349915991C40FD51FE5
:1033E000EC17FD0761F4808191810296840F951F8F
:1033F000E90199838883828193819B838A83F0E0AA
:10340000E0E012968D919C9113970097B9F52D915C
:103410003C911197CD010296820F931F2091530585
:10342000309154052817390739F6309751F5109225
:10343000560510925505B0935405A0935305BCCF83
:10344000D383C28340815181840F951FC817D90748
:1034500061F44E5F5F4F88819981480F591F5183F6
:1034600040838A819B81938382832115310509F0F2
:10347000B0CFF0935605E09355059ECFFD01DC01DA
:0C348000C0CF13821282D7CFF894FFCF88
:10348C0079017901010079010000570580004E0295
:10349C00A302070003050607080A080000000055F0
:1034AC00030000FFFF00000000F903000000002EE5
:1034BC0003000000002A03000000001303000000BA
:1034CC000024032D2D003D3D004661696C65642090
:1034DC00746F2070617273650059004E004661690B
:1034EC006C656420746F20736574206672657175E9
:1034FC00656E63792E004952207369676E616C208A
:10350C00706C617965722F7265636F72646572009D
:10351C00426567696E207265636F7264696E6700DD
:10352C006200456E64207265636F7264696E670039
:10353C005265706C61792064617461005072696EBF
:10354C0074206461746120746F206F757473696486
:10355C0065006573004C6F61642064617461206662
:10356C00726F6D206F75747369646500656C0053C0
:10357C00617665206461746120746F20696E746576
:10358C00726E616C206D656D6F7279006973004CA1
:10359C006F616420646174612066726F6D20696E66
:1035AC007465726E616C206D656D6F727900696CFB
:1035BC00004C69737420636F6D6D616E6473003FB2
:0E35CC000045786974005E00446F6E65000073
:00000001FF
