:100000000C9435000C945D000C945D000C945D0024
:100010000C945D000C945D000C945D000C94100D2C
:100020000C945D000C945D000C94E90C0C945D0044
:100030000C945D000C945D000C945D000C945D00CC
:100040000C949F0C0C945D000C945D000C945D006E
:100050000C945D000C945D000C945D000C945D00AC
:100060000C945D000C945D00370D11241FBECFEF82
:10007000D8E0DEBFCDBF11E0A0E0B1E0E6ECF3E2F6
:1000800002C005900D92A63DB107D9F723E0A6ED79
:10009000B1E001C01D92A43EB207E1F710E0C5E354
:1000A000D0E004C02197FE010E94A710C433D107FD
:1000B000C9F70E94500D0C94E1110C940000A0911E
:1000C000CA03B091CB03ED91FC9111970190F0819F
:1000D000E02D682FCD0109942091D4033091D503F0
:1000E0002115310529F4019751F080E20C945F004D
:1000F0002130310521F022303105A9F308958AE03D
:10010000F5CFCF93DF93EC010E946C008091D40374
:100110009091D503009729F4219759F0DF91CF9161
:1001200008958130910529F082309105A9F3039754
:10013000A9F7C0E08091D603C81780F780E20E943B
:100140005F0080E20E945F00CF5FF4CF4F925F922A
:100150006F927F928F929F92AF92BF92CF92DF92D7
:10016000EF92FF920F931F93CF93DF936C0182E086
:1001700090E00E948100C091CA03D091CB03F12C82
:10018000E12C15E080E1882E87E2982EA12CB12C7D
:100190009AE0492E512C612C712CC701B601A501A2
:1001A00094010E947A10022F60E3620FE881F981C6
:1001B0000190F081E02DCE010995A02FB0E0A501BE
:1001C00094010E949C10C61AD70AE80AF90AC501D0
:1001D000B401A30192010E947A1049015A01115001
:1001E000E1F682E090E09093D5038093D403DF9111
:1001F000CF911F910F91FF90EF90DF90CF90BF9024
:10020000AF909F908F907F906F905F904F900895E8
:10021000DC012091D8033091D9036115710511F4E7
:1002200061E070E096E0969FF001979FF00D112439
:1002300026503109E20FF31F01900D929A95E1F7D4
:1002400081E00895E0ECF0E0818196E09283958171
:10025000907F958390E194839081926090838B71DD
:1002600080618860818381E00895CF93FC01A08143
:100270009181B92FB370A83E83E0B80708F081C020
:10028000969596958281282F2295220F220F207C09
:10029000622F692B982F96959695792F7370683EEB
:1002A00093E0790708F06DC0982F92959F70838135
:1002B000482F4295407F242F292B982F92959F708D
:1002C000392F3370283E93E0390708F05AC08295E1
:1002D0008695869583709481C92FCC0FCC0F4C2FB7
:1002E000482B592F5295569556955370483E53407A
:1002F00008F047C02F5F3F4F40E0283E93E03907AA
:1003000019F441E030E020E0460F572F511D60E026
:10031000483E83E0580719F461E050E040E06A0F7E
:100320007B2F711D80E0683E93E0790719F481E02E
:1003300070E060E06083642F660F660F972F937004
:10034000962B9183642F6295669566956370952FC1
:100350009370990F990F422F4295407F962B942BC3
:100360009283422F42954F709381907C232F23706C
:100370002295207F942B922B938391E08927CF9114
:10038000089580E0FCCF0895FC01E11589E0F807AD
:1003900090F4683080F4908121E030E001C0220FB9
:1003A0006A95EAF7413021F4292B208381E00895F2
:1003B00020952923FACF80E00895E0EBF0E08181D9
:1003C000887F81830895E0EBF0E08181887F8460FD
:1003D000818308951F93CF93DF93CDB7DEB72A971C
:1003E0000FB6F894DEBF0FBECDBF0E94DD014FB740
:1003F000F89417B3169511702091B6038091B70346
:1004000083702E839F819C7F982B9F838091B7035D
:10041000282F269526958091B8038295880F880FFE
:10042000807C822B2091B803382F330F330F9370C9
:10043000932B9F83982F9295969596959370888588
:10044000807F2C70892B822B88879091B803292F6D
:1004500022952F709091B9039295907F922B2091C5
:10046000B903392F3295307F8F70832B888792950F
:100470009F708985807C2073892B822B89872091AE
:10048000B20094E0299F900111248F738987832FF4
:100490008295880F880F807C26952695282B2A87A1
:1004A0004FBF0E94E301112321F0CE0106960E9466
:1004B000350185E0FE013696DE01119601900D9220
:1004C0008A95E1F729813A814B815C816D8170E0E9
:1004D00080E090E02A960FB6F894DEBF0FBECDBF45
:1004E000DF91CF911F910895CF93DF9300D000D07B
:1004F0001F92CDB7DEB70E94EA0129833A834B836E
:100500005C836D83CE0101960E943501E9813A81B9
:10051000A32FA370369536952B81822F8295880F55
:10052000880F807C382B722F769576957370229584
:100530002F709C81892F8295807F282B492F42958F
:10054000437092959695969593708D81582F550F7F
:10055000550F952B82958695869583705FB7F89495
:10056000E093B603E7EBF3E060816C7F6A2B608376
:10057000A32FAA0FAA0F608163706A2B6083E8EB38
:10058000F3E0329536953695337060816C7F362B6B
:100590003083672F660F660F3081337F362B3083B1
:1005A000622F6295607F30813F70362B3083E9EB9C
:1005B000F3E0322F32953F702081207F232B208360
:1005C0004295407F20812F7C242B2083392F329528
:1005D000330F330F307C20812F73232B2083EAEBE2
:1005E000F3E0292F269526959081907C922B90837D
:1005F000982F9295990F990F907C80818F73892BFA
:1006000080835FBF0F900F900F900F900F90DF913E
:10061000CF910895EF92FF920F931F93CF93DF93A3
:100620001F92CDB7DEB77C018B01D701ED91FC9114
:100630000190F081E02DBE016F5F7F4FC7010995EA
:10064000882399F0D801ED91FC910190F081E02D83
:100650006981C80109958111E8CF0F90DF91CF9191
:100660001F910F91FF90EF90089581E0F6CFCF9307
:10067000DF931F92CDB7DEB76983DC011296ED914F
:10068000FC91CE01019609950F90DF91CF910895CD
:10069000DC011296ED91FC91CB010994FB011082D3
:1006A00081E008950F931F93CF93DF93EC018E8128
:1006B000882351F09C81DB019C931D821E82DF9177
:1006C000CF911F910F9108958B018A819B81BE016B
:1006D0006C5F7F4FDC01ED91FC910190F081E02D8A
:1006E0000995882361F39C81F801908391E09D83B3
:1006F000E6CFCF93DF931F92CDB7DEB7FC016983BE
:100700008681811118C06481758182819381681707
:10071000790761F481E086830384F485E02DCE01BE
:10072000019609950F90DF91CF910895CB01019625
:1007300095838483F1CF80E0F5CFFC01CB01268146
:10074000211113C06481758122813381621773077F
:1007500031F421E026830384F485E02D09949B0184
:100760002F5F3F4F35832483F6CF80E00895FC014F
:10077000CA01138212821182108221E02483611542
:100780007105A9F022273327261B370B24173507BD
:1007900070F053834283860F971F01979183808364
:1007A0001482458356836783708781E0089580E0D3
:1007B0000895CF93DF93CDB7DEB72D970FB6F8949A
:1007C000DEBF0FBECDBFAB01BC01198618861B86EC
:1007D0001A8684E291E09A838983CE0103960E946F
:1007E000B703882361F086E195E09D878C8760914F
:1007F000CA037091CB03CE0101960E940A032D9685
:100800000FB6F894DEBF0FBECDBFDF91CF91089534
:10081000CF92DF92EF92FF926B017C0190E080E03B
:100820000E948100C701B6010E94D9031092D5032E
:100830001092D403FF90EF90DF90CF900895CF9364
:10084000DF93CDB7DEB72F970FB6F894DEBF0FBE9C
:10085000CDBFAB01BC018EE091E09F878E871986EA
:1008600018861B861A868EE191E09A838983CE01D1
:1008700003960E94B703882359F081E594E09D8791
:100880008C87BE016F5F7F4FCE010E960E940A03D8
:100890002F960FB6F894DEBF0FBECDBFDF91CF917C
:1008A0000895611529E0720730F4FC018081FB0195
:1008B000808381E0089580E00895CF93DF93EC0179
:1008C00002960E94B703882321F026E135E03C8799
:1008D0002B87DF91CF910895CF92DF92EF92FF9215
:1008E000CF93DF93CDB7DEB76A970FB6F894DEBF2C
:1008F0000FBECDBF6B017C01BA01A9011986188614
:100900001B861A8684E291E09A8389831E8A1D8A57
:10091000188E1F8A8EE191E09F878E87CE01019607
:100920000E945D04882399F0B701A601CE0140968C
:100930000E94B703882359F081E594E09A8F898F4C
:10094000BE01625F7F4FCE0101960E940A036A9644
:100950000FB6F894DEBF0FBECDBFDF91CF91FF90F1
:10096000EF90DF90CF900895EF92FF920F931F9337
:10097000CF93DF93CDB7DEB72E970FB6F894DEBFD7
:100980000FBECDBF7C01198618861B861A8684E2AD
:1009900091E09A838983A701662777276E197F09DB
:1009A000CE0101960E945D0410E000E0BE01625F8E
:1009B0007F4FCE0101960E949D03882331F08E85E2
:1009C000882319F00F5F1F4FF1CFB701C8012E9692
:1009D0000FB6F894DEBF0FBECDBFDF91CF911F9150
:1009E0000F91FF90EF900895CF92DF92EF92FF92D8
:1009F0000E94B4046B017C0181E090E00E948100C0
:100A0000C701B6010E94D9038AE00E945F0083E01B
:100A100090E09093D5038093D403FF90EF90DF9004
:100A2000CF9008950E94B4040C940804611529E045
:100A3000720730F4FB012081FC01208381E00895DE
:100A400080E00895FC0180819091C00095FFFCCF6B
:100A50008093C6008091C00086FFFCCF8091C000CB
:100A600080648093C00081E00895FC018091C00003
:100A700087FFFCCF9091C0009695969597708091D6
:100A8000C60080839111F2CF81E00895CF93DF9368
:100A9000EC01688179818A819B810E9408048E81A2
:100AA0009F81892B51F083E391E00E9412056C81B4
:100AB0007D818E819F810E94080481E090E00E94E8
:100AC0006C0083E090E09093D5038093D403DF9192
:100AD000CF910895CF93DF93EC0182E391E00E94E0
:100AE000F4048091D603823319F08F5F8093D6038C
:100AF0000990D881C02D209751F070E060E0888186
:100B000099810E9446050A80DB81C02DF4CF809137
:100B1000D603882319F081508093D60385E391E0B2
:100B2000DF91CF910C94F404CB010C946A058F9261
:100B30009F92AF92BF92CF92DF92EF92FF920F936C
:100B40001F93CF93DF93CDB7DEB76C970FB6F894B2
:100B5000DEBF0FBECDBF8C017B01FB018080918089
:100B6000A280B380FC0140815181628173811E8A21
:100B70001D8A188E1F8A84E291E09F878E871986CE
:100B800018861B861A869A838983CE010E960E9448
:100B90005D04882311F1B501A401CE0101960E94E4
:100BA0005D048823D1F0DD24D394BE01645E7F4FC1
:100BB000CE010E960E949D03C82EBE01655E7F4F3A
:100BC000CE0101960E949D038D25CC20C9F0811194
:100BD00004C09C8D8B8D981741F36C960FB6F894DA
:100BE000DEBF0FBECDBFDF91CF911F910F91FF9060
:100BF000EF90DF90CF90BF90AF909F908F9008952F
:100C0000882359F3F70115830483E7CF0000000020
:100C10000000000000000000000000000895FF92A6
:100C20000F931F93CF93DF938430910538F1B0E099
:100C3000A0E0BC01CD0124E0660F771F881F991F3B
:100C40002A95D1F724E130E040E050E00E947A108C
:100C5000890103501109FFB6F894C1E0D0E00C17E8
:100C60001D0720F00E9406062196F9CFFFBE81E005
:100C7000DF91CF911F910F91FF90089580E0F8CF01
:100C8000CF93DF93C0E2D3E00E9406062197E1F7FD
:100C9000DF91CF910895CF93DF93C8EED3E00E9408
:100CA00040062197E1F7DF91CF910895DF92EF920F
:100CB000FF920F931F93CF93DF9300D000D01F922A
:100CC000CDB7DEB749835A836B837C838D8301E084
:100CD00010E029819A81392F33702017310768F08D
:100CE00028EEE22E23E0F22E0E944B0681E0E81A65
:100CF000F108D1F70F5F1F4FECCF969596958B813A
:100D0000282F2295220F220F207C022F092B869557
:100D10008695182F13700115110559F0EE24E394F0
:100D2000F12C0E944B068FEFE81AF80A0E151F05EA
:100D3000C0F79B8192959F708C81282F2295207FF0
:100D4000022F092B82958F70182F13700115110532
:100D500071F0DFB6F894EE24E394F12C0E94400683
:100D60008FEFE81AF80A0E151F05C0F7DFBE8C8159
:100D700082958695869583709D81292F220F220F5B
:100D8000822B92959695969593700E940F0681E01E
:100D90000F900F900F900F900F90DF91CF911F91B8
:100DA0000F91FF90EF90DF9008955F926F927F9286
:100DB0008F929F92AF92BF92CF92DF92EF92FF926B
:100DC0000F931F93CF93DF9300D000D01F92CDB726
:100DD000DEB7FC0129833A834B835C836D834081BA
:100DE0009181592F5370483E23E0520708F0FEC00E
:100DF000969596958281282F2295220F220F207C8E
:100E0000622F692B982F96959695792F7370683E6F
:100E100033E0730708F0EAC082958F702381922F28
:100E20009295907FA92FA82B822F82958F70B82F33
:100E3000B370A83E83E0B80708F0D8C02295269585
:100E4000269523703481132F110F110F812F822BC0
:100E5000932F9295969596959370883E23E09207EE
:100E600008F0C4C089803A81232F2370922E28EE87
:100E7000821623E0920608F0B9C0369536952B818C
:100E8000122F1295110F110F107CE12EE32A322F31
:100E9000369536953370F32E38EEE31633E0F306CD
:100EA00008F0A4C0322F32953F702C81122F12957A
:100EB000107FC12EC32A322F32953370D32E38EED5
:100EC000C31633E0D30608F091C0229526952695E7
:100ED00023703D81B32EBB0CBB0C0B2D022B132FAB
:100EE0001295169516951370083E23E0120708F028
:100EF0007DC03A015B019D01512C8017910720F4C0
:100F000088519C4F55245394801B910BC50CD11CC8
:100F100010E0AC15BD0520F49D0128513C4F11E0B7
:100F2000D901AC19BD09E10EF11C20E06E157F0559
:100F300030F45B0138E1A31A3CEFB30A21E0B501BC
:100F40006E197F09820E911C30E04815590530F466
:100F50003A0128E1621A2CEF720A31E0A301481924
:100F600059094083462F440F440F252F2370242B0B
:100F70002183562F5295569556955370272F2370DF
:100F8000220F220F4A2F4295407F252B242B2283AC
:100F90005A2F52955F702B2F23702295207F482F58
:100FA0004295440F440F407C252B242B238392959C
:100FB000990F990F907C86958695892B848381E083
:100FC00083270F900F900F900F900F90DF91CF918C
:100FD0001F910F91FF90EF90DF90CF90BF90AF9057
:100FE0009F908F907F906F905F90089580E0E9CF01
:100FF0000F931F93CF93DF93CDB7DEB72A970FB62A
:10100000F894DEBF0FBECDBF4E835F8368877987BC
:101010008A8719821A821B8280EC8C8369E16D8336
:101020008E010A5F1F4F20E030E040E050ECC80125
:101030000E94D506811105C085E0F80111928A95BC
:10104000E9F784B5806384BD85B5887F826085BDFE
:1010500016BC4E815F81688579858A850E94560617
:1010600085B5877049F0A99AA99BFECF84B58F7C7E
:1010700084BD85B5887F85BD2A960FB6F894DEBFFE
:101080000FBECDBFDF91CF911F910F9108951F9398
:10109000CF93DF93CDB7DEB762970FB6F894DEBF7C
:1010A0000FBECDBF8091810086FB112710F98F7B89
:1010B00010FF8064809381000E94EA012E873F87A1
:1010C000488B598B6A8B1D8786E0FE013D96DE01B9
:1010D000179601900D928A95E1F78091D7038823A6
:1010E00081F18091DE039091DF032091DC03309148
:1010F000DD038217930729F101969093DF03809314
:10110000DE0326E0FE013796DE01119601900D9276
:101110002A95E1F74091D8035091D903009711F433
:1011200081E090E026E0289FD001299FB00D112496
:10113000A40FB51F1697FE01319601900D922A95C6
:10114000E1F762960FB6F894DEBF0FBECDBFDF9118
:10115000CF911F910895CF93DF9300D000D01F92BD
:10116000CDB7DEB740E050E060E070E887E50F9073
:101170000F900F900F900F90DF91CF910C94F80784
:101180009F92AF92BF92CF92DF92EF92FF920F9316
:101190001F93CF93DF93CDB7DEB76B970FB6F8945D
:1011A000DEBF0FBECDBF1F8A188E198E80E88A8FD2
:1011B0008FE28B8F8091DE039091DF03892B09F4FE
:1011C0007BC05E0187E0A80EB11C61E070E0C50144
:1011D0000E940801882309F46FC082E0E82EF12CF8
:1011E0008E010E5E1F4FFE013D966F0195E0992E18
:1011F0008091DE039091DF038E159F0508F45CC09B
:10120000B701CE0101960E940801882309F454C059
:1012100085E0FE013296D80101900D928A95E1F7A2
:10122000288539854A855B856C85C8010E94D5066D
:10123000882309F441C08F81882339F12F89388DA3
:10124000498D5A8D6B8DC8010E94D50681112CC025
:10125000F801892D11928A95E9F7F601892D1192ED
:101260008A95E9F74D855E856F85788989890E9421
:10127000560686E0FE013196D50101900D928A95C1
:10128000E1F79FEFE91AF90AB3CF85E0F801D6013B
:1012900001900D928A95E1F74D855E856F8578897D
:1012A00089890E94F807E5CF85E0F801D601019011
:1012B0000D928A95E1F7D6CF6B960FB6F894DEBF04
:1012C0000FBECDBFDF91CF911F910F91FF90EF9097
:1012D000DF90CF90BF90AF909F9008952F923F9254
:1012E0004F925F926F927F928F929F92AF92BF9236
:1012F000CF92DF92EF92FF920F931F93CF93DF93E2
:10130000CDB7DEB72C970FB6F894DEBF0FBECDBFBA
:101310006090CA037090CB0388E391E00E94F404CC
:101320008091D603823319F08F5F8093D60301E05A
:1013300010E093E0492E512C8091DE039091DF0361
:101340008017910708F48EC0B801CE0107960E945D
:101350000801882309F486C086E0FE013796DE0185
:10136000119601900D928A95E1F7FF802090CA03B3
:101370003090CB037092CB036092CA0388E391E074
:101380000E94120582E090E00E9481008AE391E0D1
:10139000F11002C08EE391E00E94B4040E94D903D0
:1013A00082E090E09093D5038093D4038A809B8160
:1013B000892F8370982E969596958C81282F22954B
:1013C000220F220F207CA22EA92A982F969596955F
:1013D0009370B92E982F92959F708D81282F22950A
:1013E000207FC22EC92A982F92959370D92E82956C
:1013F0008695869583709E81292F220F220FE22EDB
:10140000E82AF92EF294F694F69483E0F82288E321
:1014100091E00E9412058114910409F44BC0C401AB
:101420000E94A600C5010E94A600C6010E94A60057
:10143000C7010E94A60082E491E00E94120582E4A6
:1014400091E00E94120581E090E00E946C005092B1
:10145000D5034092D4033092CB032092CA030F5F8E
:101460001F4F6ACF8091D603882319F08150809353
:10147000D60382E491E00E94F4047092CB03609260
:10148000CA032C960FB6F894DEBF0FBECDBFDF9116
:10149000CF911F910F91FF90EF90DF90CF90BF9071
:1014A000AF909F908F907F906F905F904F903F9004
:1014B0002F900895A114B10409F0B4CFC114D10440
:1014C00009F0B3CFE114F10409F4B5CFB1CFEFE6E1
:1014D000F0E080818F7D8083B59A0C94DD0180914E
:1014E000100190911101A0911201B0911301E7ED4B
:1014F000F3E081839283A383B4831086178280E50F
:1015000090E09683858381E0808340E060E084E220
:1015100090E00E94C40141E060E085E290E00E941A
:10152000C4010E94DD01E0EBF0E080818C7F8260ED
:1015300080838181877F818389EF8093B3001092BC
:10154000B20084E792E09093010180930001E0E70C
:10155000F0E08081826080839FB7F8941092B60398
:10156000E7EBF3E080818C7F8083808183708083D0
:10157000E8EBF3E080818C7F80838081837F8083B0
:1015800080818F708083E9EBF3E08081807F8083AE
:1015900080818F7C808380818F738083EAEBF3E08E
:1015A0008081807C808380818F7380839FBF0E9435
:1015B000E301E0E8F0E081818F7B818387E498E0BC
:1015C0009093030180930201B59AEFE6F0E08081E9
:1015D0008062808308950F931F93CF93DF93EC0174
:1015E0008B01CB010E94BC10009781F09983888306
:1015F0001B830A83688179818A819B810E941F04F1
:1016000081E0DF91CF911F910F91089580E0F9CF94
:10161000CF93DF93EC018A819B810097B1F0919584
:1016200081959109288139818217930770F068812B
:1016300079818A819B810E941F04888199810E94FF
:101640005811198218821B821A82DF91CF91089556
:10165000CF92DF92EF92FF920F931F93CF93DF937E
:1016600000D000D0CDB7DEB78C0184E0C82ED12CDD
:10167000D801ED91FC91309771F0E280F380DC822B
:10168000CB82FA83E983CE0101960E94080BF80110
:10169000F182E082EDCF0F900F900F900F90DF91CD
:1016A000CF911F910F91FF90EF90DF90CF90089511
:1016B0000F931F93CF93DF9300D000D0CDB7DEB749
:1016C0008C018CE090E09C838B831A830983C80192
:1016D0000E94080BC80104960E94080BCE010196D7
:1016E0000E94080B0F900F900F900F90DF91CF91F9
:1016F0001F910F9108950C94580B0F931F93CF9344
:10170000DF938C01FC01C081D181209741F0888159
:1017100099810E94580B0A80DB81C02DF6CFC80149
:10172000DF91CF911F910F910C94280BCB010C945A
:101730007D0B4F925F926F927F928F929F92AF92AA
:10174000BF92CF92DF92EF92FF920F931F93CF93AE
:10175000DF93CDB7DEB728970FB6F894DEBF0FBE84
:10176000CDBF7C01CB015A0169011A8219821C820A
:101770001B821E821D8218861F820E94B4042B01C8
:101780003C01C5010E94B4044B015C016114710469
:1017900009F5F701118210821382128215821482D8
:1017A00017821682C70128960FB6F894DEBF0FBEC7
:1017B000CDBFDF91CF911F910F91FF90EF90DF9000
:1017C000CF90BF90AF909F908F907F906F905F90E1
:1017D0004F900895B301CE0101960E94EB0A882331
:1017E000C1F269817A818B819C81A30192010E945F
:1017F0006C04A114B10429F4CE0101960E94080BD7
:10180000C8CFB501CE0105960E94EB0A8823A1F34B
:101810006D817E818F819885A50194010E946C0461
:1018200049815A816B817C818D819E81AF81B88590
:10183000F701408351836283738384839583A683F6
:10184000B783D186C08613870287ACCFAF92BF9291
:10185000CF92DF92EF92FF920F931F93CF93DF937C
:10186000CDB7DEB764970FB6F894DEBF0FBECDBF1D
:101870005C01C986DA86EB86FC860D871E872F877A
:10188000388B498B5A8B6B8B7C8B1E821D82188602
:101890001F826CE070E0CE0105960E94EB0A182FC3
:1018A0008823F1F09E01275F3F4F4CE050E06D81AF
:1018B0007E818F8198850E946C04ED80FE801A8263
:1018C00019821C821B8264E070E0CE0101960E94A6
:1018D000EB0A182F811116C0CE0105960E94080B45
:1018E000812F64960FB6F894DEBF0FBECDBFDF9197
:1018F000CF911F910F91FF90EF90DF90CF90BF900D
:10190000AF900895E981FA81F182E082D5018D914D
:101910009C911197892B11F4ED93FC93D5011296AC
:101920008D919C91009729F0DC011396FC93EE9326
:101930001297D5011396FC93EE931297D1CF1F9275
:101940000F920FB60F9211242F933F938F939F9373
:10195000AF93BF938091C0039091C103A091C20344
:10196000B091C3033091BF0323E0230F2D3758F507
:101970000196A11DB11D2093BF038093C0039093D6
:10198000C103A093C203B093C3038091BB039091A2
:10199000BC03A091BD03B091BE030196A11DB11D72
:1019A0008093BB039093BC03A093BD03B093BE038D
:1019B000BF91AF919F918F913F912F910F900FBE4B
:1019C0000F901F90189526E8230F0296A11DB11DB8
:1019D000D2CF1F920F920FB60F9211242F933F93E5
:1019E0004F935F936F937F938F939F93AF93BF9327
:1019F000EF93FF93E0910201F09103010995FF91AC
:101A0000EF91BF91AF919F918F917F916F915F9176
:101A10004F913F912F910F900FBE0F901F901895EF
:101A20001F920F920FB60F9211242F933F934F9353
:101A30005F936F937F938F939F93AF93BF93EF9336
:101A4000FF93E0910001F09101010995FF91EF9161
:101A5000BF91AF919F918F917F916F915F914F91C6
:101A60003F912F910F900FBE0F901F9018951092DD
:101A7000C703E8ECF3E080E391E0958384838AE296
:101A800091E09187808783E090E095878487168630
:101A9000E7EDF3E01082128211821482138208951E
:101AA000CF93DF93CDB7DEB7CD58D1090FB6F894F9
:101AB000DEBF0FBECDBF789484B5826084BD84B58F
:101AC000816084BD85B5826085BD85B5816085BD39
:101AD00080916E00816080936E00109281008091F1
:101AE0008100826080938100809181008160809379
:101AF0008100809180008160809380008091B1009E
:101B000084608093B1008091B00081608093B000C8
:101B100080917A00846080937A0080917A0082605C
:101B200080937A0080917A00816080937A0080911E
:101B30007A00806880937A001092C1000E9422018E
:101B4000882331F085E395E09093CF038093CE0313
:101B50000E942201882331F082E295E09093D30322
:101B60008093D2038CEC93E09093C9038093C803D5
:101B700080ED93E09093CB038093CA038091100192
:101B800090911101A0911201B09113018093D8039B
:101B90009093D903A093DA03B093DB031092DF0391
:101BA0001092DE0380E590E09093DD038093DC03E8
:101BB00011E01093D7031092C7038BE290E090934B
:101BC000C5038093C40385E08093C60341E065E0CC
:101BD0008AE290E00E94C40140E06091C6038091D7
:101BE000C4039091C5030E94C4011093C70395B527
:101BF00084B58F73836084BD987F986095BD85E3BD
:101C000087BD8AE188BD84E491E00E94F404C7574F
:101C1000DF4F19821882C958D040C557DF4F19824B
:101C20001882CB58D04010E000E02FE63AE04FE5B4
:101C300051E06FE671E0CE018A589F4F0E94990BE8
:101C4000E796CFACE797E896DFACE897E996EFAC7C
:101C5000E997EA96FFACEA97EB960FADEB97EC9617
:101C60001FADEC97ED962FADED97EE963FADEE974D
:101C7000EF964FADEF97C158DF4F5881CF57D04007
:101C8000C058DF4F6881C058D040CF57DF4F7881B0
:101C9000C158D040CE0187579F4F0E94260C10E0BC
:101CA00000E027E63AE041E751E06FE771E0CE015E
:101CB00086599F4F0E94990BAB96CFACAB97AC96D1
:101CC000DFACAC97AD96EFACAD97AE96FFACAE97F0
:101CD000AF960FADAF97E0961FADE097E1962FADB1
:101CE000E197E2963FADE297E3964FADE397E49636
:101CF0005FADE497E5966FADE597E6967FADE69725
:101D0000CE0187579F4F0E94260C10E000E02EE680
:101D100039E041E851E065E971E0CE01825A9F4F18
:101D20000E94990B6F96CFAC6F97A096DFACA097EF
:101D3000A196EFACA197A296FFACA297A3960FAD88
:101D4000A397A4961FADA497A5962FADA597A69689
:101D50003FADA697A7964FADA797A8965FADA8975A
:101D6000A9966FADA997AA967FADAA97CE0187577E
:101D70009F4F0E94260C10E000E020EC38E047E97D
:101D800051E067EB71E0CE018E5A9F4F0E94990B94
:101D90006396CFAC63976496DFAC64976596EFACBF
:101DA00065976696FFAC669767960FAD67976896DE
:101DB0001FAD689769962FAD69976A963FAD6A9790
:101DC0006B964FAD6B976C965FAD6C976D966FADE4
:101DD0006D976E967FAD6E97CE0187579F4F0E948D
:101DE000260C10E000E02BEA38E04CEA51E06CEC05
:101DF00071E0CE018A5B9F4F0E94990B2796CFAC72
:101E000027972896DFAC28972996EFAC29972A9632
:101E1000FFAC2A972B960FAD2B972C961FAD2C97C6
:101E20002D962FAD2D972E963FAD2E972F964FAD19
:101E30002F9760965FAD609761966FAD61976296E0
:101E40007FAD6297CE0187579F4F0E94260C8E016F
:101E500007571F4F24E935E049EB51E067EC71E08B
:101E6000CE01CA960E94990BCAACDBACECACFDACBF
:101E70000EAD1FAD21962FAD219722963FAD229733
:101E800023964FAD239724965FAD249725966FAD8B
:101E9000259726967FAD2697CE0187579F4F0E94A4
:101EA000260C8823F1F08E0107571F4F26E93BE0EF
:101EB00049EC51E06EEC71E0CE018E960E94990BD8
:101EC000CEA4DFA4E8A8F9A80AA91BA92CA93DA9BA
:101ED0004EA95FA968AD79ADCE0187579F4F0E948B
:101EE000260CCE0187579F4F0E946A05CE010196AE
:101EF0002C013EE1632E31E0732E91E5E92E94E052
:101F0000F92E28E1C22E21E0D22E33243394C75774
:101F1000DF4F88819981C958D040892B09F4D4C0FA
:101F200019A618A61BA61AA67AA269A280E2A82E54
:101F3000B12CB501A201CE0183960E94B70388237C
:101F400011F0FDA6ECA68091C8039091C903CE576D
:101F5000DF4FD982C882C258D040CC57DF4F998317
:101F60008883C458D040C957DF4F1882C758D04023
:101F7000C857DF4F1882C858D040BE0163577F4F03
:101F8000CE018E579F4F0E9452038823C1F0C35742
:101F9000DF4F8881CD58D040803279F38D3069F39E
:101FA0008950833050F3C957DF4F8881C758D040DC
:101FB000882329F0C857DF4F3882C858D04010E036
:101FC000BE0163577F4FCE018E579F4F0E94520331
:101FD000082F882399F0C357DF4F6881CD58D04030
:101FE000603261F06D3051F087EF860F833030F052
:101FF000CE0181960E947903102FE2CF112309F4BC
:1020000086CF28A539A58AA59BA54FA141111EC041
:102010004DA15EA10097D1F066277727681B790B49
:102020006217730798F04217530780F0BC01620FE4
:10203000731F615071096417750740F0CA0101965A
:10204000821B930B2115310509F00197CE57DF4F05
:1020500039832883C258D040CC57DF4F9983888377
:10206000C458D040CA57DF4F19821882C658D04092
:10207000C757DF4F08811981C958D0400115110594
:1020800061F0BE016E577F4FF801808191810E94FF
:102090009705F80102811381F1CFCA57DF4FA8815C
:1020A000B981C658D040109709F431CF1896ED91F8
:1020B000FC9119971A966D917C91309709F41DCF78
:1020C00090E080E0099515CFCE0187579F4F0E9481
:1020D0007D0BCE0187579F4F0E94280B80ED91E02A
:1020E0000E94F40400E010E001151105E9F30E94DC
:1020F0000000FACFA1E21A2EAA1BBB1BFD010DC0E6
:10210000AA1FBB1FEE1FFF1FA217B307E407F507A7
:1021100020F0A21BB30BE40BF50B661F771F881F83
:10212000991F1A9469F760957095809590959B0119
:10213000AC01BD01CF0108950E94AD10A59F900D87
:10214000B49F900DA49F800D911D11240895EE0F52
:10215000FF1F0590F491E02D0994A29FB001B39F59
:10216000C001A39F700D811D1124911DB29F700DA0
:10217000811D1124911D08950F931F93CF93DF9319
:102180008230910510F482E090E0E091E203F0915A
:10219000E30330E020E0B0E0A0E0309799F42115AF
:1021A000310509F44AC0281B390B24303105D8F514
:1021B0008A819B816115710589F1FB01938382837B
:1021C000FE0111C0408151810281138148175907D6
:1021D000E0F04817590799F4109761F012960C93A4
:1021E000129713961C933296CF01DF91CF911F91D6
:1021F0000F9108950093E2031093E303F4CF2115A8
:10220000310551F04217530738F0A901DB019A015B
:10221000BD01DF01F801C1CFEF01F9CF9093E303D6
:102220008093E203CDCFFE01E20FF31F81939193E0
:102230002250310939832883D7CF2091E003309190
:10224000E103232B41F420910601309107013093E3
:10225000E1032093E0032091040130910501211551
:10226000310541F42DB73EB7409108015091090165
:10227000241B350BE091E003F091E103E217F30733
:10228000A0F42E1B3F0B2817390778F0AC014E5FE6
:102290005F4F2417350748F04E0F5F1F5093E1033F
:1022A0004093E003819391939FCFF0E0E0E09CCFD7
:1022B000CF93DF930097E9F0FC01329713821282EB
:1022C000A091E203B091E303ED0130E020E010972C
:1022D000A1F420813181820F931F2091E00330917E
:1022E000E1032817390709F061C0F093E103E09397
:1022F000E003DF91CF910895EA01CE17DF07E8F5FB
:102300004A815B819E0141155105B1F7E901FB83CB
:10231000EA8349915991C40FD51FEC17FD0761F469
:10232000808191810296840F951FE90199838883AA
:10233000828193819B838A83F0E0E0E012968D9105
:102340009C9113970097B9F52D913C911197CD0170
:102350000296820F931F2091E0033091E10328172A
:10236000390739F6309751F51092E3031092E203E2
:10237000B093E103A093E003BCCFD383C283408139
:102380005181840F951FC817D90761F44E5F5F4FC5
:1023900088819981480F591F518340838A819B818D
:1023A000938382832115310509F0B0CFF093E303C5
:1023B000E093E2039ECFFD01DC01C0CF13821282C5
:0623C000D7CFF894FFCF17
:1023C600C301C3010000E4038000000000004E03C7
:1023D600D601E0010000000052030000000079036E
:1023E600000000009D03000000003703000000000D
:1023F60048032D2D003D3D00280059455300204E31
:102406004F0029004952207369676E616C20706C19
:10241600617965722F7265636F726465722E004210
:102426006567696E207265636F7264696E670062C4
:1024360000456E64207265636F7264696E6700653D
:10244600005072696E7420636170747572656420E1
:10245600646174610070005265706C61792063611B
:102466007074757265642064617461005465737478
:1024760020656D6974746572004C69737420636FAE
:102486006D6D616E6473003F0045786974005E008F
:06249600446F6E652E008C
:00000001FF
