:100000000C9435000C945D000C945D000C945D0024
:100010000C945D000C945D000C945D000C94840EB7
:100020000C945D000C945D000C945D0E0C945D00CE
:100030000C945D000C945D000C945D000C945D00CC
:100040000C94130E0C945D000C945D000C945D00F8
:100050000C945D000C945D000C945D000C945D00AC
:100060000C945D000C945D00AB0E11241FBECFEF0D
:10007000D8E0DEBFCDBF11E0A0E0B1E0E8E4F7E2F8
:1000800002C005900D92AE3CB107D9F723E0AEEC6B
:10009000B1E001C01D92AC3DB207E1F710E0C5E34D
:1000A000D0E004C02197FE010E946812C433D1073A
:1000B000C9F70E94C40E0C94A2130C940000A091E6
:1000C000C203B091C303ED91FC9111970190F081AF
:1000D000E02D682FCD0109942091CC033091CD0300
:1000E0002115310529F4019751F080E20C945F004D
:1000F0002130310521F022303105A9F308958AE03D
:10010000F5CFCF93DF93EC010E946C008091CC037C
:100110009091CD03009729F4219759F0DF91CF9169
:1001200008958130910529F082309105A9F3039754
:10013000A9F7C0E08091CE03C81780F780E20E9443
:100140005F0080E20E945F00CF5FF4CF4F925F922A
:100150006F927F928F929F92AF92BF92CF92DF92D7
:10016000EF92FF920F931F93CF93DF936C0182E086
:1001700090E00E948100C091C203D091C303F12C92
:10018000E12C15E080E1882E87E2982EA12CB12C7D
:100190009AE0492E512C612C712CC701B601A501A2
:1001A00094010E943B12022F60E3620FE881F98103
:1001B0000190F081E02DCE010995A02FB0E0A501BE
:1001C00094010E945D12C61AD70AE80AF90AC5010D
:1001D000B401A30192010E943B1249015A0111503E
:1001E000E1F682E090E09093CD038093CC03DF9121
:1001F000CF911F910F91FF90EF90DF90CF90BF9024
:10020000AF909F908F907F906F905F904F900895E8
:10021000DC018091CF038823E9F061157105C9F0F5
:100220002091D6033091D7032617370790F096E038
:10023000969FF001979FF00D11242091D0033091EB
:10024000D103E20FF31F369701900D929A95E1F7D3
:10025000089580E00895E0ECF0E0818196E09283DB
:100260009581907F958390E19483908192609083B3
:100270008B7180618860818381E00895CF93FC0158
:10028000A0819181B92FB370A83E83E0B80708F030
:1002900081C0969596958281282F2295220F220F54
:1002A000207C622F692B982F96959695792F7370E5
:1002B000683E93E0790708F06DC0982F92959F7083
:1002C0008381482F4295407F242F292B982F929588
:1002D0009F70392F3370283E93E0390708F05AC0D9
:1002E00082958695869583709481C92FCC0FCC0F0B
:1002F0004C2F482B592F5295569556955370483E82
:10030000534008F047C02F5F3F4F40E0283E93E046
:10031000390719F441E030E020E0460F572F511D16
:1003200060E0483E83E0580719F461E050E040E0A7
:100330006A0F7B2F711D80E0683E93E0790719F406
:1003400081E070E060E06083642F660F660F972F96
:100350009370962B9183642F629566956695637072
:10036000952F9370990F990F422F4295407F962BAE
:10037000942B9283422F42954F709381907C232F30
:1003800023702295207F942B922B938391E08927D1
:10039000CF91089580E0FCCF0895FC01E11589E03C
:1003A000F80790F4683080F4908121E030E001C0DB
:1003B000220F6A95EAF7413021F4292B208381E04E
:1003C000089520952923FACF80E00895E0EBF0E02E
:1003D0008181887F81830895E0EBF0E08181887FCF
:1003E0008460818308951F93CF93DF93CDB7DEB7E9
:1003F0002A970FB6F894DEBF0FBECDBF0E94E6016C
:100400004FB7F89417B3169511702091AE038091F1
:10041000AF0383702E839F819C7F982B9F83809155
:10042000AF03282F269526958091B0038295880FDB
:10043000880F807C822B2091B003382F330F330F2D
:100440009370932B9F83982F929596959695937082
:100450008885807F2C70892B822B88879091B003B0
:10046000292F22952F709091B1039295907F922B16
:100470002091B103392F3295307F8F70832B88877D
:1004800092959F708985807C2073892B822B898728
:100490002091B20094E0299F900111248F738987E5
:1004A000832F8295880F880F807C26952695282B90
:1004B0002A874FBF0E94EC01112321F0CE0106963E
:1004C0000E943E0185E0FE013696DE011196019004
:1004D0000D928A95E1F729813A814B815C816D818A
:1004E00070E080E090E02A960FB6F894DEBF0FBE71
:1004F000CDBFDF91CF911F910895CF93DF9300D0AF
:1005000000D01F92CDB7DEB70E94F30129833A8352
:100510004B835C836D83CE0101960E943E01E9818D
:100520003A81A32FA370369536952B81822F829521
:10053000880F880F807C382B722F76957695737094
:1005400022952F709C81892F8295807F282B492F9F
:100550004295437092959695969593708D81582FFC
:10056000550F550F952B82958695869583705FB7AD
:10057000F894E093AE03EFEAF3E060816C7F6A2BBE
:100580006083A32FAA0FAA0F608163706A2B608318
:10059000E0EBF3E0329536953695337060816C7FF1
:1005A000362B3083672F660F660F3081337F362BF3
:1005B0003083622F6295607F30813F70362B3083AD
:1005C000E1EBF3E0322F32953F702081207F232B27
:1005D00020834295407F20812F7C242B2083392F3C
:1005E0003295330F330F307C20812F73232B2083E0
:1005F000E2EBF3E0292F269526959081907C922BB3
:100600009083982F9295990F990F907C80818F738A
:10061000892B80835FBF0F900F900F900F900F90EA
:10062000DF91CF910895EF92FF920F931F93CF9395
:10063000DF931F92CDB7DEB77C018B01D701ED911F
:10064000FC910190F081E02DBE016F5F7F4FC701EB
:100650000995882399F0D801ED91FC910190F081E2
:10066000E02D6981C80109958111E8CF0F90DF91D4
:10067000CF911F910F91FF90EF90089581E0F6CFF9
:10068000CF93DF931F92CDB7DEB76983DC0112965B
:10069000ED91FC91CE01019609950F90DF91CF91DC
:1006A0000895DC011296ED91FC91CB010994FB01B8
:1006B000108281E008950F931F93CF93DF93EC0195
:1006C0008E81882351F09C81DB019C931D821E82C8
:1006D000DF91CF911F910F9108958B018A819B81AA
:1006E000BE016C5F7F4FDC01ED91FC910190F081C8
:1006F000E02D0995882361F39C81F801908391E0B6
:100700009D83E6CFCF93DF931F92CDB7DEB7FC0179
:1007100069838681811118C064817581828193818A
:100720006817790761F481E086830384F485E02DFE
:10073000CE01019609950F90DF91CF910895CB01DD
:10074000019695838483F1CF80E0F5CFCF92DF923D
:10075000EF92FF921F93CF93DF931F92CDB7DEB737
:100760007C016B01BE016F5F7F4FC6010E945B037E
:10077000182F882331F06981C7010E9482038111FB
:10078000F1CF812F0F90DF91CF911F91FF90EF90CC
:10079000DF90CF900895FC01CB012681211113C079
:1007A00064817581228133816217730731F421E0FE
:1007B00026830384F485E02D09949B012F5F3F4F2E
:1007C00035832483F6CF80E00895FC01CA011382AB
:1007D00012821182108221E0248361157105A9F033
:1007E00022273327261B370B2417350770F0538336
:1007F0004283860F971F01979183808314824583DC
:1008000056836783708781E0089580E00895CF93D1
:10081000DF93CDB7DEB72F970FB6F894DEBF0FBECC
:10082000CDBFAB01BC0182E291E09F878E87198624
:1008300018861B861A8682E191E09A838983CE010D
:1008400003960E94E503882359F088E494E09D878D
:100850008C87BE016F5F7F4FCE010E960E941303FF
:100860002F960FB6F894DEBF0FBECDBFDF91CF91AC
:100870000895CF93DF93EC0102960E94E50388234D
:1008800021F028E434E03C872B87DF91CF91089555
:10089000611529E0720730F4FC018081FB0180833F
:1008A00081E0089580E00895CF93DF93EC010296F4
:1008B0000E94E503882321F02BE036E03C872B875C
:1008C000DF91CF910895CF93DF93CDB7DEB72D970A
:1008D0000FB6F894DEBF0FBECDBFAB01BC011986C9
:1008E00018861B861A868CE191E09A838983CE0153
:1008F00001960E945404882341F06091C2037091D4
:10090000C303CE0101960E9413032D960FB6F894EF
:10091000DEBF0FBECDBFDF91CF910895CF92DF92A2
:10092000EF92FF926B017C0190E080E00E948100D9
:10093000C701B6010E9463041092CD031092CC034C
:10094000FF90EF90DF90CF900895CF92DF92EF92DB
:10095000FF92CF93DF93CDB7DEB76A970FB6F894C7
:10096000DEBF0FBECDBF6B017C01BA01A9011986A4
:1009700018861B861A868CE191E09A8389831E8AE9
:100980001D8A188E1F8A82E191E09F878E87CE0193
:1009900001960E945404882379F0B701A601CE0184
:1009A0000E960E943904882339F0BE01625F7F4FA2
:1009B000CE0101960E9413036A960FB6F894DEBF2B
:1009C0000FBECDBFDF91CF91FF90EF90DF90CF9022
:1009D0000895EF92FF920F931F93CF93DF93CDB7BC
:1009E000DEB72E970FB6F894DEBF0FBECDBF7C01E9
:1009F000198618861B861A868CE191E09A83898372
:100A0000A701662777276E197F09CE0101960E94FC
:100A1000540410E000E0BE01625F7F4FCE010196FA
:100A20000E94CB03882331F08E85882319F00F5F55
:100A30001F4FF1CFB701C8012E960FB6F894DEBF55
:100A40000FBECDBFDF91CF911F910F91FF90EF901F
:100A50000895CF92DF92EF92FF920E94E9046B011A
:100A60007C0181E090E00E948100C701B6010E94F4
:100A700063048AE00E945F0083E090E09093CD03DE
:100A80008093CC03FF90EF90DF90CF9008950E9469
:100A9000E9040C948E04CF93DF93EC016881798193
:100AA0008A819B810E948E048E819F81892B51F0C7
:100AB00087E391E00E9447056C817D818E819F8153
:100AC0000E948E0481E090E00E946C0083E090E040
:100AD0009093CD038093CC03DF91CF910895CF9372
:100AE000DF93EC0186E391E00E9429058091CE031B
:100AF000823319F08F5F8093CE030990D881C02D87
:100B0000209751F070E060E0888199810E944B0548
:100B10000A80DB81C02DF4CF8091CE03882319F0A9
:100B200081508093CE0389E391E0DF91CF910C94C3
:100B30002905CB010C946F058F929F92AF92BF92C3
:100B4000CF92DF92EF92FF920F931F93CF93DF9399
:100B5000CDB7DEB76C970FB6F894DEBF0FBECDBF32
:100B60008C017B01FB0180809180A280B380FC011D
:100B700040815181628173811E8A1D8A188E1F8A6D
:100B80008CE191E09F878E87198618861B861A86CE
:100B90009A838983CE010E960E945404882311F112
:100BA000B501A401CE0101960E9454048823D1F01E
:100BB000DD24D394BE01645E7F4FCE010E960E9469
:100BC000CB03C82EBE01655E7F4FCE0101960E9409
:100BD000CB038D25CC20C9F0811104C09C8D8B8D59
:100BE000981741F36C960FB6F894DEBF0FBECDBFD9
:100BF000DF91CF911F910F91FF90EF90DF90CF90F9
:100C0000BF90AF909F908F900895882359F3F7017C
:100C100015830483E7CF611529E0720730F4FB01E7
:100C20002081FC01208381E0089580E00895FC018B
:100C300080819091C00095FFFCCF8093C600809189
:100C4000C00086FFFCCF8091C00080648093C0000C
:100C500081E00895FC018091C00087FFFCCF909156
:100C6000C0009695969597708091C60080839111EB
:100C7000F2CF81E00895611524E07207A8F4F99994
:100C8000FECFFC01908161BD272F237082B58C7F40
:100C9000822B82BD90BD8FB7F894FA9AF99A8FBFD4
:100CA000F999FECF81E0089580E00895FC01611577
:100CB00084E0780780F4F999FECF61BD872F8370B7
:100CC00092B59C7F982B92BDF89AF899FECF80B58B
:100CD000808381E0089580E0089500000000000016
:100CE000000000000000000000000895FF920F9334
:100CF0001F93CF93DF938430910538F1B0E0A0E0EB
:100D0000BC01CD0124E0660F771F881F991F2A952B
:100D1000D1F724E130E040E050E00E943B1289012D
:100D200003501109FFB6F894C1E0D0E00C171D077D
:100D300020F00E946D062196F9CFFFBE81E0DF9181
:100D4000CF911F910F91FF90089580E0F8CFCF933E
:100D5000DF93C0E2D3E00E946D062197E1F7DF91B7
:100D6000CF910895CF93DF93C8EED3E00E94A706FA
:100D70002197E1F7DF91CF910895DF92EF92FF92F3
:100D80000F931F93CF93DF9300D000D01F92CDB766
:100D9000DEB749835A836B837C838D8301E010E047
:100DA00029819A81392F33702017310768F028EE96
:100DB000E22E23E0F22E0E94B20681E0E81AF1084A
:100DC000D1F70F5F1F4FECCF969596958B81282F0B
:100DD0002295220F220F207C022F092B86958695C3
:100DE000182F13700115110559F0EE24E394F12C1E
:100DF0000E94B2068FEFE81AF80A0E151F05C0F719
:100E00009B8192959F708C81282F2295207F022FA5
:100E1000092B82958F70182F13700115110571F031
:100E2000DFB6F894EE24E394F12C0E94A7068FEF2E
:100E3000E81AF80A0E151F05C0F7DFBE8C818295EF
:100E40008695869583709D81292F220F220F822BF4
:100E500092959695969593700E94760681E00F90F4
:100E60000F900F900F900F90DF91CF911F910F91E6
:100E7000FF90EF90DF9008955F926F927F928F9234
:100E80009F92AF92BF92CF92DF92EF92FF920F9319
:100E90001F93CF93DF9300D000D01F92CDB7DEB762
:100EA000FC0129833A834B835C836D83408191816C
:100EB000592F5370483E23E0520708F0FEC0969524
:100EC00096958281282F2295220F220F207C622F57
:100ED000692B982F96959695792F7370683E33E01D
:100EE000730708F0EAC082958F702381922F929544
:100EF000907FA92FA82B822F82958F70B82FB37067
:100F0000A83E83E0B80708F0D8C02295269526951C
:100F100023703481132F110F110F812F822B932FE8
:100F20009295969596959370883E23E0920708F0E7
:100F3000C4C089803A81232F2370922E28EE821616
:100F400023E0920608F0B9C0369536952B81122F12
:100F50001295110F110F107CE12EE32A322F3695D6
:100F600036953370F32E38EEE31633E0F30608F0CF
:100F7000A4C0322F32953F702C81122F1295107F12
:100F8000C12EC32A322F32953370D32E38EEC316BA
:100F900033E0D30608F091C022952695269523705C
:100FA0003D81B32EBB0CBB0C0B2D022B132F1295C6
:100FB000169516951370083E23E0120708F07DC0C1
:100FC0003A015B019D01512C8017910720F4885153
:100FD0009C4F55245394801B910BC50CD11C10E0E1
:100FE000AC15BD0520F49D0128513C4F11E0D901FD
:100FF000AC19BD09E10EF11C20E06E157F0530F43F
:101000005B0138E1A31A3CEFB30A21E0B5016E1988
:101010007F09820E911C30E04815590530F43A01E1
:1010200028E1621A2CEF720A31E0A301481959092C
:101030004083462F440F440F252F2370242B2183F8
:10104000562F5295569556955370272F2370220F81
:10105000220F4A2F4295407F252B242B22835A2F83
:1010600052955F702B2F23702295207F482F429539
:10107000440F440F407C252B242B23839295990FFA
:10108000990F907C86958695892B848381E08327B0
:101090000F900F900F900F900F90DF91CF911F91B5
:1010A0000F91FF90EF90DF90CF90BF90AF909F9007
:1010B0008F907F906F905F90089580E0E9CF1F93AD
:1010C000CF93DF93CDB7DEB762970FB6F894DEBF4C
:1010D0000FBECDBF1091810016FB112710F90E94A1
:1010E000F3012E873F87488B598B6A8B1D8786E0DB
:1010F000FE013D96DE01179601900D928A95E1F76B
:101100008091CF03882371F18091D6039091D7030A
:101110002091D4033091D5038217930719F10196DA
:101120009093D7038093D60326E0FE013796DE0125
:10113000119601900D922A95E1F7009799F026E01B
:10114000289FD001299FB00D11248091D003909148
:10115000D103A80FB91F1697FE01319601900D9289
:101160002A95E1F790918100892F8F7B96FF80640B
:101170008093810062960FB6F894DEBF0FBECDBF9C
:10118000DF91CF911F9108958F929F92AF92BF925E
:10119000CF92DF92EF92FF920F931F93CF93DF9343
:1011A000CDB7DEB7E5970FB6F894DEBF0FBECDBF63
:1011B0001E8A1D8A188E1F8A8CE191E09F878E8778
:1011C0004091140150911501609116017091170121
:1011D000CE0140960E94E503882321F086E596E043
:1011E0009A8F898F88E291E09C8F8B8F1986188661
:1011F0001B861A8682E191E09A838983CE010E963E
:101200009E8F8D8F18A219A21092D7031092D60329
:10121000869622E0A22EB12CB501AC01C3970E94A4
:101220003904BE01655E7F4FCE0101960E94A60380
:10123000882309F468C088A1882311F081E089A37C
:1012400001E010E07E019EE2E90EF11CCC24C39483
:1012500096E0D92E8CA99DA98017910708F453C058
:1012600086E0A82EB12CB501A701CE0101960E94FF
:101270003904BE01655E7F4FCE0101960E94A60330
:10128000882309F440C088A18111C9A286E0F70132
:10129000DE01989601900D928A95E1F78091CF0337
:1012A000882389F18091D6039091D7032091D403AC
:1012B0003091D5038217930731F101969093D703AC
:1012C0008093D60326E0FE01B896DE019296019047
:1012D0000D922A95E1F70097B1F0D89ED001D99EE2
:1012E000B00D11248091D0039091D103A80FB91FA4
:1012F0001697FE01B2968D2D01900D928A95E1F719
:101300000F5F1F4FA7CFE5960FB6F894DEBF0FBE55
:10131000CDBFDF91CF911F910F91FF90EF90DF90A4
:10132000CF90BF90AF909F908F900895AF92BF9253
:10133000CF92DF92EF92FF920F931F93CF93DF93A1
:10134000CDB7DEB7A2970FB6F894DEBF0FBECDBF04
:101350001E8A1D8A188E1F8A82E191E09F878E87E0
:10136000409114015091150160911601709117017F
:10137000CE0140960E94E503882321F08BE396E09E
:101380009A8F898F198618861B861A868CE191E0C0
:101390009A8389838091CF03882309F442C0809186
:1013A000D6039091D7039AA389A36E0181E2C80E58
:1013B000D11C92E0E92EF12CB701A601CE010196D5
:1013C0000E945404BE01625F7F4FCE0101960E94CD
:1013D0001303882331F101E010E05E018BE1A80ED8
:1013E000B11C89A19AA180179107D8F0B801C50155
:1013F0000E9408018823A9F086E0E82EF12CB701AD
:10140000A501CE0101960E945404BE01625F7F4F88
:10141000CE0101960E941303882319F00F5F1F4F1E
:10142000E0CFA2960FB6F894DEBF0FBECDBFDF911E
:10143000CF911F910F91FF90EF90DF90CF90BF90D1
:10144000AF9008956F927F928F929F92AF92BF92CA
:10145000CF92DF92EF92FF920F931F93CF93DF9380
:10146000CDB7DEB7A5970FB6F894DEBF0FBECDBFE0
:1014700019A21AA21BA280E88CA38FE28DA33E01C1
:1014800087E0680E711C61E070E0C3010E940801F2
:10149000882309F49BC082E0C82ED12C8E01045E03
:1014A0001F4FFE0177967F01CE0142965C0190ECC2
:1014B000892E25E0922EB601CE0101960E940801E8
:1014C000882309F483C085E0FE013296D80101909B
:1014D0000D928A95E1F7288539854A855B856C856B
:1014E000C8010E943C07882309F470C08F818823BB
:1014F000E1F029A13AA14BA15CA16DA1C8010E9414
:101500003C0781115BC0F801892D11928A95E9F79A
:10151000F701892D11928A95E9F74F89588D698DC8
:101520007A8D8B8D0E94BD063DC085E0F801D70104
:1015300001900D928A95E1F785E0F701D5010190C0
:101540000D928A95E1F71D861E861F86888A69E1BD
:10155000698B20E030E040E050ECC5010E943C0780
:10156000811105C0F501892D11928A95E9F785B59C
:10157000887F826085BD84B58F73806484BD4A890D
:101580005B896C897D898E890E94BD0685B58770CF
:1015900049F0A99AA99BFECF84B58F7384BD85B508
:1015A000887F85BD86E0FE013196D30101900D92C2
:1015B0008A95E1F79FEFC91AD90A7DCF85E0F80136
:1015C000D70101900D928A95E1F7A7CFA5960FB6A6
:1015D000F894DEBF0FBECDBFDF91CF911F910F9169
:1015E000FF90EF90DF90CF90BF90AF909F908F9043
:1015F0007F906F9008952F923F924F925F926F92DB
:101600007F928F929F92AF92BF92CF92DF92EF9292
:10161000FF920F931F93CF93DF93CDB7DEB72C9735
:101620000FB6F894DEBF0FBECDBF6090C2037090BE
:10163000C3038CE391E00E9429058091CE0382339D
:1016400019F08F5F8093CE0388248394912C93E0CC
:10165000492E512CB401CE0107960E94080188231F
:1016600009F486C086E0FE013796DE0111960190EE
:101670000D928A95E1F71F812090C2033090C30339
:101680007092C3036092C2038CE391E00E9447050D
:1016900082E090E00E9481008EE391E0111102C08F
:1016A00082E491E00E94E9040E94630482E090E0F9
:1016B0009093CD038093CC03AA809B81892F837064
:1016C000B82E969596958C81282F2295220F220F61
:1016D000207CC22EC92A982F969596959370D92E64
:1016E000982F92959F708D81282F2295207FE22E32
:1016F000E92A982F92959370F92E82958695869572
:1017000083709E81292F220F220F022F082B192F61
:1017100012951695169513708CE391E00E9447057B
:10172000A114B10409F44CC0C5010E94A600C60171
:101730000E94A600C7010E94A600C8010E94A60040
:1017400086E491E00E94470586E491E00E94470507
:1017500081E090E00E946C005092CD034092CC0357
:101760003092C3032092C2038FEF881A980A72CF77
:101770008091CE03882319F081508093CE0386E4B4
:1017800091E00E9429057092C3036092C2032C96D7
:101790000FB6F894DEBF0FBECDBFDF91CF911F9182
:1017A0000F91FF90EF90DF90CF90BF90AF909F9000
:1017B0008F907F906F905F904F903F902F90089503
:1017C000C114D10409F0B3CFE114F10409F0B2CF90
:1017D0000115110509F4B4CFB0CFEFE6F0E0808138
:1017E0008F7D8083B59A0C94E6011092D7031092F6
:1017F000D60340E060E084E290E00E94CD0141E049
:1018000060E085E290E00E94CD010E94E601E0EBFD
:10181000F0E080818C7F826080838181877F8183FB
:1018200089EF8093B3001092B2008DE792E090931D
:10183000010180930001E0E7F0E080818260808315
:101840009FB7F8941092AE03EFEAF3E080818C7FAB
:101850008083808183708083E0EBF3E080818C7FE4
:1018600080838081837F808380818F708083E1EBA0
:10187000F3E08081807F808380818F7C8083808182
:101880008F738083E2EBF3E08081807C80838081B2
:101890008F7380839FBF0E94EC01E0E8F0E08181BC
:1018A0008F7B81838FE598E0909303018093020101
:1018B000B59AEFE6F0E080818062808308950F930F
:1018C0001F93CF93DF93EC018B01CB010E947D121C
:1018D000009781F0998388831B830A8368817981CB
:1018E0008A819B810E94070481E0DF91CF911F9143
:1018F0000F91089580E0F9CFCF93DF93EC018A81B7
:101900009B810097B1F0919581959109288139814A
:101910008217930770F0688179818A819B810E9488
:101920000704888199810E941913198218821B82E9
:101930001A82DF91CF910895CF92DF92EF92FF92BA
:101940000F931F93CF93DF9300D000D0CDB7DEB7B6
:101950008C0184E0C82ED12CD801ED91FC913097F8
:1019600071F0E280F380DC82CB82FA83E983CE01DE
:1019700001960E947C0CF801F182E082EDCF0F907D
:101980000F900F900F90DF91CF911F910F91FF90CB
:10199000EF90DF90CF9008950F931F93CF93DF9335
:1019A00000D000D0CDB7DEB78C018CE090E09C83F6
:1019B0008B831A830983C8010E947C0CC80104969A
:1019C0000E947C0CCE0101960E947C0C0F900F901F
:1019D0000F900F90DF91CF911F910F9108950C946C
:1019E000CC0C0F931F93CF93DF938C01FC01C0812C
:1019F000D181209741F0888199810E94CC0C0A8086
:101A0000DB81C02DF6CFC801DF91CF911F910F91DF
:101A10000C949C0CCB010C94F10C4F925F926F9242
:101A20007F928F929F92AF92BF92CF92DF92EF926E
:101A3000FF920F931F93CF93DF93CDB7DEB7289715
:101A40000FB6F894DEBF0FBECDBF7C01CB015A01AB
:101A500069011A8219821C821B821E821D821886CD
:101A60001F820E94E9042B013C01C5010E94E90488
:101A70004B015C016114710409F5F70111821082B8
:101A8000138212821582148217821682C701289649
:101A90000FB6F894DEBF0FBECDBFDF91CF911F917F
:101AA0000F91FF90EF90DF90CF90BF90AF909F90FD
:101AB0008F907F906F905F904F900895B301CE010B
:101AC00001960E945F0C8823C1F269817A818B8123
:101AD0009C81A30192010E94A504A114B10429F4E0
:101AE000CE0101960E947C0CC8CFB501CE010596AF
:101AF0000E945F0C8823A1F36D817E818F81988580
:101B0000A50194010E94A50449815A816B817C81C1
:101B10008D819E81AF81B885F701408351836283B7
:101B2000738384839583A683B783D186C086138706
:101B30000287ACCFAF92BF92CF92DF92EF92FF922B
:101B40000F931F93CF93DF93CDB7DEB764970FB694
:101B5000F894DEBF0FBECDBF5C01C986DA86EB8686
:101B6000FC860D871E872F87388B498B5A8B6B8B92
:101B70007C8B1E821D8218861F826CE070E0CE0175
:101B800005960E945F0C182F8823F1F09E01275FB5
:101B90003F4F4CE050E06D817E818F8198850E949F
:101BA000A504ED80FE801A8219821C821B8264E0EB
:101BB00070E0CE0101960E945F0C182F811116C0B3
:101BC000CE0105960E947C0C812F64960FB6F89486
:101BD000DEBF0FBECDBFDF91CF911F910F91FF9060
:101BE000EF90DF90CF90BF90AF900895E981FA8198
:101BF000F182E082D5018D919C911197892B11F48E
:101C0000ED93FC93D50112968D919C91009729F04C
:101C1000DC011396FC93EE931297D5011396FC9377
:101C2000EE931297D1CF1F920F920FB60F921124FD
:101C30002F933F938F939F93AF93BF938091B8035C
:101C40009091B903A091BA03B091BB033091B7034F
:101C500023E0230F2D3758F50196A11DB11D2093C8
:101C6000B7038093B8039093B903A093BA03B093DA
:101C7000BB038091B3039091B403A091B503B091DD
:101C8000B6030196A11DB11D8093B3039093B403D5
:101C9000A093B503B093B603BF91AF919F918F917D
:101CA0003F912F910F900FBE0F901F90189526E82F
:101CB000230F0296A11DB11DD2CF1F920F920FB616
:101CC0000F9211242F933F934F935F936F937F93C2
:101CD0008F939F93AF93BF93EF93FF93E091020194
:101CE000F09103010995FF91EF91BF91AF919F9101
:101CF0008F917F916F915F914F913F912F910F90B5
:101D00000FBE0F901F9018951F920F920FB60F9253
:101D100011242F933F934F935F936F937F938F93F0
:101D20009F93AF93BF93EF93FF93E0910001F091E6
:101D300001010995FF91EF91BF91AF919F918F9113
:101D40007F916F915F914F913F912F910F900FBEB7
:101D50000F901F9018951092BF03E0ECF3E084E31E
:101D600091E0958384838EE291E09187808783E080
:101D700090E0958784871686EFECF3E0108212825C
:101D80001182148213820895CF93DF93CDB7DEB70B
:101D9000C959D1090FB6F894DEBF0FBECDBF7894F4
:101DA00084B5826084BD84B5816084BD85B5826060
:101DB00085BD85B5816085BD80916E008160809311
:101DC0006E0010928100809181008260809381007A
:101DD000809181008160809381008091800081608A
:101DE000809380008091B10084608093B1008091E5
:101DF000B00081608093B00080917A00846080930D
:101E00007A0080917A00826080937A0080917A00D3
:101E1000816080937A0080917A00806880937A0054
:101E20001092C1000E942B01882331F08AE296E0D3
:101E30009093C7038093C6030E942B01882331F03F
:101E400087E196E09093CB038093CA0384EC93E000
:101E50009093C1038093C00388EC93E09093C303F5
:101E60008093C20380910A0190910B01A0910C0113
:101E7000B0910D018093D0039093D103A093D2032E
:101E8000B093D30380E590E09093D5038093D4037F
:101E90001092D7031092D60311E01093CF03109243
:101EA000BF038BE290E09093BD038093BC0386E078
:101EB0008093BE0341E066E08AE290E00E94CD019B
:101EC00040E06091BE038091BC039091BD030E94ED
:101ED000CD011093BF0340E06091BE038091BC032D
:101EE0009091BD030E94CD0185B594B5936094BDDA
:101EF000887F886085BD88E187BD16BC88E491E055
:101F00000E942905CB56DF4F19821882C559D0404F
:101F1000C956DF4F19821882C759D04010E000E03F
:101F200025EF3BE042E651E062E771E0CE018E57DB
:101F30009F4F0E940D0DCE57DF4FC880C258D04032
:101F4000CD57DF4FD880C358D040CC57DF4FE88003
:101F5000C458D040CB57DF4FF880C558D040CA573F
:101F6000DF4F0881C658D040C957DF4F1881C75886
:101F7000D040C857DF4F2881C858D040C757DF4FDF
:101F80003881C958D040C657DF4F4881CA58D04021
:101F9000C557DF4F5881CB58D040C457DF4F6881B9
:101FA000CC58D040C357DF4F7881CD58D040CE01B8
:101FB0008B569F4F0E949A0D10E000E02DEE3BE003
:101FC00044E751E06BEC71E0CE018A589F4F0E94CC
:101FD0000D0DE796CFACE797E896DFACE897E9966A
:101FE000EFACE997EA96FFACEA97EB960FADEB976B
:101FF000EC961FADEC97ED962FADED97EE963FADBD
:10200000EE97EF964FADEF97C158DF4F5881CF57FE
:10201000D040C058DF4F6881C058D040CF57DF4F05
:102020007881C158D040CE018B569F4F0E949A0DA7
:1020300010E000E02BEF3AE042E851E06DE871E09B
:10204000CE0186599F4F0E940D0DAB96CFACAB973A
:10205000AC96DFACAC97AD96EFACAD97AE96FFAC5F
:10206000AE97AF960FADAF97E0961FADE097E196B4
:102070002FADE197E2963FADE297E3964FADE39740
:10208000E4965FADE497E5966FADE597E6967FAD94
:10209000E697CE018B569F4F0E949A0D10E000E00C
:1020A00022E23AE04FE851E060E671E0CE01825A68
:1020B0009F4F0E940D0D6F96CFAC6F97A096DFAC2F
:1020C000A097A196EFACA197A296FFACA297A3967A
:1020D0000FADA397A4961FADA497A5962FADA59776
:1020E000A6963FADA697A7964FADA797A8965FADCA
:1020F000A897A9966FADA997AA967FADAA97CE018A
:102100008B569F4F0E949A0D10E000E026E939E0BF
:102110004BE951E06DEB71E0CE018E5A9F4F0E946A
:102120000D0D6396CFAC63976496DFAC64976596AC
:10213000EFAC65976696FFAC669767960FAD6797AD
:1021400068961FAD689769962FAD69976A963FADFF
:102150006A976B964FAD6B976C965FAD6C976D966B
:102160006FAD6D976E967FAD6E97CE018B569F4F7C
:102170000E949A0D10E000E024EC38E045EA51E0BE
:102180006FEA71E0CE018A5B9F4F0E940D0D27968A
:10219000CFAC27972896DFAC28972996EFAC2997E4
:1021A0002A96FFAC2A972B960FAD2B972C961FAD36
:1021B0002C972D962FAD2D972E963FAD2E972F96BF
:1021C0004FAD2F9760965FAD609761966FAD619749
:1021D00062967FAD6297CE018B569F4F0E949A0DFB
:1021E0008E010B561F4F29E935E041EB51E06FEBB3
:1021F00071E0CE01CA960E940D0DCAACDBACECAC0E
:10220000FDAC0EAD1FAD21962FAD219722963FADAF
:10221000229723964FAD239724965FAD249725965A
:102220006FAD259726967FAD2697CE018B569F4F93
:102230000E949A0D8823F1F08E010B561F4F2AE061
:102240003DE041EC51E066EC71E0CE018E960E94DB
:102250000D0DCEA4DFA4E8A8F9A80AA91BA92CA9F2
:102260003DA94EA95FA968AD79ADCE018B569F4FB0
:102270000E949A0DCE018B569F4F0E946F05CE0192
:1022800001963C0122E1E22E21E0F22E98E2C92ED5
:1022900091E0D92E55245394CB56DF4F88819981F4
:1022A000C559D040892B09F4D0C019A618A61BA681
:1022B0001AA6FAA2E9A280E2A82EB12CB501A301C8
:1022C000CE0181960E9439048091C0039091C10390
:1022D000C257DF4FD982C882CE58D040C057DF4F97
:1022E00099838883C059D040CD56DF4F1882C35997
:1022F000D040CC56DF4F1882C459D040BE0167563B
:102300007F4FCE0182579F4F0E945B038823C1F00D
:10231000C756DF4F8881C959D040803279F38D305C
:1023200069F38950833050F3CD56DF4F8881C3590C
:10233000D040882329F0CC56DF4F5882C459D04072
:1023400010E0BE0167567F4FCE0182579F4F0E941B
:102350005B03082F882399F0C756DF4F6881C9595E
:10236000D040603261F06D3051F087EF860F8330DE
:1023700030F0CE0181960E948203102FE2CF11230C
:1023800009F48ACF28A539A58AA59BA54FA141119B
:102390001EC04DA15EA10097D1F066277727681B6C
:1023A000790B6217730798F04217530780F0BC014E
:1023B000620F731F615071096417750740F0CA01FD
:1023C0000196821B930B2115310509F00197C25725
:1023D000DF4F39832883CE58D040C057DF4F9983D1
:1023E0008883C059D040CE56DF4F19821882C25917
:1023F000D040CB56DF4F08811981C559D040011517
:10240000110561F0BE0162577F4FF8018081918113
:102410000E949C05F80102811381F1CFCE56DF4F57
:10242000A881B981C259D040109709F435CF1896C8
:10243000ED91FC9119971A966D917C91309709F462
:1024400029CF90E080E0099521CFCE018B569F4F98
:102450000E94F10CCE018B569F4F0E949C0C88EC81
:1024600091E00E94290500E010E001151105E9F353
:102470000E940000FACFA1E21A2EAA1BBB1BFD018D
:102480000DC0AA1FBB1FEE1FFF1FA217B307E40753
:10249000F50720F0A21BB30BE40BF50B661F771FAB
:1024A000881F991F1A9469F760957095809590958B
:1024B0009B01AC01BD01CF0108950E946E12A59F42
:1024C000900DB49F900DA49F800D911D112408952F
:1024D000EE0FFF1F0590F491E02D0994A29FB0012B
:1024E000B39FC001A39F700D811D1124911DB29F48
:1024F000700D811D1124911D08950F931F93CF938B
:10250000DF938230910510F482E090E0E091DA03ED
:10251000F091DB0330E020E0B0E0A0E0309799F4E8
:102520002115310509F44AC0281B390B2430310527
:10253000D8F58A819B816115710589F1FB0193832F
:102540008283FE0111C040815181028113814817AD
:102550005907E0F04817590799F4109761F012965F
:102560000C93129713961C933296CF01DF91CF9163
:102570001F910F9108950093DA031093DB03F4CFBA
:102580002115310551F04217530738F0A901DB013D
:102590009A01BD01DF01F801C1CFEF01F9CF90939E
:1025A000DB038093DA03CDCFFE01E20FF31F8193AB
:1025B00091932250310939832883D7CF2091D803B2
:1025C0003091D903232B41F420910601309107016A
:1025D0003093D9032093D803209104013091050151
:1025E0002115310541F42DB73EB7409108015091B6
:1025F0000901241B350BE091D803F091D903E217B0
:10260000F307A0F42E1B3F0B2817390778F0AC0115
:102610004E5F5F4F2417350748F04E0F5F1F5093F2
:10262000D9034093D803819391939FCFF0E0E0E0EA
:102630009CCFCF93DF930097E9F0FC013297138290
:102640001282A091DA03B091DB03ED0130E020E0CB
:102650001097A1F420813181820F931F2091D8031C
:102660003091D9032817390709F061C0F093D903D5
:10267000E093D803DF91CF910895EA01CE17DF07E9
:10268000E8F54A815B819E0141155105B1F7E901E9
:10269000FB83EA8349915991C40FD51FEC17FD07BD
:1026A00061F4808191810296840F951FE9019983DD
:1026B0008883828193819B838A83F0E0E0E0129695
:1026C0008D919C9113970097B9F52D913C9111979D
:1026D000CD010296820F931F2091D8033091D90328
:1026E0002817390739F6309751F51092DB0310920D
:1026F000DA03B093D903A093D803BCCFD383C283AA
:1027000040815181840F951FC817D90761F44E5F2E
:102710005F4F88819981480F591F518340838A8177
:102720009B81938382832115310509F0B0CFF0930B
:10273000DB03E093DA039ECFFD01DC01C0CF1382FF
:082740001282D7CFF894FFCFFD
:10274800CC01CC010000DC038000CE01E0010000D8
:10275800000082030000FFFF00000000CB03000020
:1027680000005703000000005B0300000000400366
:102778000000000051032D2D003D3D002800594563
:102788005300204E4F0029004952207369676E613B
:102798006C20706C617965722F7265636F72646505
:1027A8007200426567696E207265636F7264696E54
:1027B80067006200456E64207265636F7264696EBB
:1027C80067005072696E7420646174610070005211
:1027D80065706C617920646174610053617665206D
:1027E80064617461004C6F61642064617461006CA1
:1027F800004C69737420636F6D6D616E6473003F84
:0E2808000045786974005E00446F6E65000044
:00000001FF
