:100000000C9435000C945D000C945D000C945D0024
:100010000C945D000C945D000C945D000C948113B5
:100020000C945D000C945D000C945A130C945D00CC
:100030000C945D000C945D000C945D000C945D00CC
:100040000C9410130C945D000C945D000C945D00F6
:100050000C945D000C945D000C945D000C945D00AC
:100060000C945D000C945D00B11311241FBECFEF02
:10007000D8E0DEBFCDBF12E0A0E0B1E0EEEFF1E3EB
:1000800002C005900D92A435B107D9F724E0A4E58C
:10009000B2E001C01D92AC36B207E1F710E0C5E353
:1000A000D0E004C02197FE010E94D217C433D107CB
:1000B000C9F70E94DF130C94FD180C940000A09166
:1000C0004C04B0914D04ED91FC9111970190F08199
:1000D000E02D682FCD0109942091560430915704EA
:1000E0002115310529F4019751F080E20C945F004D
:1000F0002130310521F022303105A9F308958AE03D
:10010000F5CFCF93DF93EC010E946C0080915604F1
:1001100090915704009729F4219759F0DF91CF91DE
:1001200008958130910529F082309105A9F3039754
:10013000A9F7C0E080915804C81780F780E20E94B8
:100140005F0080E20E945F00CF5FF4CFDC016115A9
:100150007105D1F080915F04909160048617970734
:1001600098F096E0969FF001979FF00D1124209152
:10017000590430915A04E20FF31F369701900D9203
:100180009A95E1F781E0089580E008954F925F929B
:100190006F927F928F929F92AF92BF92CF92DF9297
:1001A000EF92FF920F931F93CF93DF936C0182E046
:1001B00090E00E948100C0914C04D0914D04F12C3C
:1001C000E12C15E080E1882E87E2982EA12CB12C3D
:1001D0009AE0492E512C612C712CC701B601A50162
:1001E00094010E949617022F60E3620FE881F98163
:1001F0000190F081E02DCE010995A02FB0E0A5017E
:1002000094010E94C717C61AD70AE80AF90AC5015D
:10021000B401A30192010E94961749015A0111509D
:10022000E1F682E090E09093570480935604DF91CA
:10023000CF911F910F91FF90EF90DF90CF90BF90E3
:10024000AF909F908F907F906F905F904F900895A8
:10025000CF93DF93CDB7DEB72C970FB6F894DEBF00
:100260000FBECDBF4F83588769877A878B879C875E
:1002700080915F049091600420915D0430915E0450
:100280008217930751F480E02C960FB6F894DEBFE6
:100290000FBECDBFDF91CF9108950196909360047A
:1002A00080935F0426E0FE013796DE0111960190EF
:1002B0000D922A95E1F7009731F326E0289FD001AF
:1002C000299FB00D11248091590490915A04A80FD0
:1002D000B91F1697FE01319601900D922A95E1F70C
:1002E00081E0D2CF0895FC01E11589E0F80790F490
:1002F000683080F4908121E030E001C0220F6A95DF
:10030000EAF7413021F4292B208381E008952095DC
:100310002923FACF80E008958F929F92AF92BF92E7
:10032000CF92DF92EF92FF920F931F93CF93DF93C1
:10033000EC014A015B01122F032FC12CD12C760155
:10034000C394A7019601012E04C0220F331F441F3E
:10035000551F0A94D2F7211531054105510509F4BD
:100360004EC060E078E488EE91E00E949617CA01E2
:10037000B9016F5F7F4F8F4F9F4F96958795779508
:1003800067956115710581059105C9F18114910485
:10039000A104B104A1F1660F771F881F991FA50161
:1003A00094010E9496172F5F3F4F4F4F5F4F569516
:1003B0004795379527952115310541055105F9F0E8
:1003C00004C0CC0CDD1CEE1CFF1C0A95D2F7C21633
:1003D000D306E406F50698F01883215031093A83D4
:1003E000298381E0DF91CF911F910F91FF90EF90D2
:1003F000DF90CF90BF90AF909F908F90089580E056
:10040000F1CFCF93DF93CDB7DEB76E970FB6F894E9
:10041000DEBF0FBECDBF8091C1008F718B7F8093F7
:10042000C10086E08093C20082E08B8B83E08C8BDE
:1004300084E08D8B8CE08B8F89E0FE017396DE016A
:100440001A9601900D928A95E1F78B85813108F01B
:1004500052C09C85913108F04EC0891708F04BC0FE
:1004600089E0FE017396DE01119601900D928A9546
:10047000E1F72A813CE040E052EC61E070E0CE011F
:100480004C960E948C01882351F19C8D2D8D3E8DC0
:100490003F703F708091C500807F832B8093C500A3
:1004A0002093C4009330A9F48091C00082608093AF
:1004B000C0008091C100806188608093C10081E0AC
:1004C0006E960FB6F894DEBF0FBECDBFDF91CF9111
:1004D0000895943081F48091C0008D7FE8CF2B8106
:1004E0003CE040E052EC61E070E0CE014C960E94AE
:1004F0008C018111CACF80E0E3CFE0EBF0E0818195
:10050000887F81830895E0EBF0E08181887F8460BB
:1005100081830895CF93DF9300D01F92CDB7DEB7CC
:1005200026E038E048EE53E060E070E0CE0101964E
:100530000E948C018823E9F00E947D028091B00026
:100540008C7F82608093B0008091B100877F809320
:10055000B1008A818093B30087EE99E09093010106
:10056000809300011092B2008091700082608093AD
:1005700070000F900F900F90DF91CF910895CF935F
:10058000DF9300D000D01F92CDB7DEB76FB7F894DD
:1005900020913404E5E3F4E030814081842F869596
:1005A0008695E6E3F4E040814295440F440F407C99
:1005B000482B90815081852F82958F70E7E3F4E07E
:1005C00050815295507F582B80816FBF642F660FEA
:1005D000660F3370362B42954695469543709C7056
:1005E000652F6295607F492B462B52955F70807313
:1005F000582B60E070E080E090E00F900F900F903B
:100600000F900F90DF91CF910895EF92FF920F938B
:100610001F93CF93DF931F92CDB7DEB77C018B0181
:10062000D701ED91FC910190F081E02DBE016F5F4B
:100630007F4FC7010995882399F0D801ED91FC916E
:100640000190F081E02D6981C80109958111E8CF01
:100650000F90DF91CF911F910F91FF90EF90089530
:1006600081E0F6CFCF93DF931F92CDB7DEB76983DA
:10067000DC011296ED91FC91CE01019609950F9047
:10068000DF91CF910895DC011296ED91FC91CB01A1
:100690000994FB01108281E008950F931F93CF937B
:1006A000DF93EC018D81882351F09E81DB019C93C7
:1006B0001C821D82DF91CF911F910F9108958B01B4
:1006C0008A819B81BE016A5F7F4FDC01ED91FC91C5
:1006D0000190F081E02D0995882361F39E81F80156
:1006E000908391E09C83E6CFCF93DF931F92CDB7A9
:1006F000DEB7FC0169838681811118C06481758130
:10070000828193816817790761F481E0868303848D
:10071000F485E02DCE01019609950F90DF91CF91E0
:100720000895CB01019695838483F1CF80E0F5CFC6
:10073000CF92DF92EF92FF921F93CF93DF931F929E
:10074000CDB7DEB76C017B01BE016F5F7F4FC70184
:100750000E944D03182F882369F06981C6010E9409
:1007600074038111F1CFF7018481882319F091E09E
:100770009583182F812F0F90DF91CF911F91FF90BC
:10078000EF90DF90CF900895EF92FF920F931F9319
:10079000CF93DF93CDB7DEB728970FB6F894DEBFBF
:1007A0000FBECDBF7C0187E291E09A8389837C8371
:1007B0006B831D821E82BE01685F7F4FCE01019652
:1007C0000E944D03882369F088858032A1F38D3023
:1007D00091F38950833078F38D81882311F081E083
:1007E0008E8310E0BE01685F7F4FCE0101960E94AC
:1007F0004D03082F882371F06885603259F06D3001
:1008000049F087EF860F833028F0C7010E947403F8
:10081000102FE8CF812F28960FB6F894DEBF0FBEB9
:10082000CDBFDF91CF911F910F91FF90EF90089571
:10083000FC01CB012681211113C0648175812281C5
:1008400033816217730731F421E026830384F48532
:10085000E02D09949B012F5F3F4F35832483F6CF12
:1008600080E00895FC01458156812781308584818F
:10087000811121C08281938121153105E1F0662724
:100880007727621B730B64177507A8F08417950709
:1008900090F0B901640F751F6150710968177907ED
:1008A00050F09C012F5F3F4F241B350B4115510524
:1008B00011F021503109BA01C9010895FC01CA01A2
:1008C000138212821182108221E024836115710546
:1008D000A9F022273327261B370B2417350770F082
:1008E00053834283860F971F0197918380831482DD
:1008F000458356836783708781E0089580E008957B
:10090000CF93DF93EC0102960E945E04882321F0CE
:100910002DEB34E03C872B87DF91CF910895CF9367
:10092000DF93CDB7DEB72F970FB6F894DEBF0FBEBB
:10093000CDBFAB01BC018DE291E09F878E87198608
:1009400018861B861A8682E191E09A838983CE01FC
:1009500001960E948004882339F0BE016F5F7F4FAB
:10096000CE010E960E9405032F960FB6F894DEBFB7
:100970000FBECDBFDF91CF910895611529E07207B9
:1009800030F4FC018081FB01808381E0089580E0E8
:100990000895CF93DF93EC0102960E945E048823B2
:1009A00021F02AEF36E03C872B87DF91CF91089525
:1009B000CF93DF93CDB7DEB72D970FB6F894DEBF98
:1009C0000FBECDBFAB01BC01198618861B861A86E7
:1009D0008CE191E09A838983CE0101960E94C9043B
:1009E000882341F060914C0470914D04CE01019632
:1009F0000E9405032D960FB6F894DEBF0FBECDBF43
:100A0000DF91CF910895CF92DF92EF92FF926B0129
:100A10007C0190E080E00E948100C701B6010E9445
:100A2000D8041092570410925604FF90EF90DF9074
:100A3000CF900895CF92DF92EF92FF920F931F9382
:100A4000CF93DF93CDB7DEB7A0970FB6F894DEBF94
:100A50000FBECDBF6C018B01198618861B861A86C6
:100A600082E191E09A8389831E8A1D8A188E1F8AEB
:100A70008CE191E09F878E87AE01455E5F4F65E018
:100A800070E0CE0101960E948004B801CE0101966B
:100A90000E94C403F82E882391F1CE0103960E9490
:100AA0003204AB01BC01CE010E960E94C90410E0D5
:100AB00000E08AE0E82EBE01605E7F4FCE010E9618
:100AC0000E9418048823C1F088A180538A3038F529
:100AD0000A3999E1190718F5E09E9001E19E300D61
:100AE0001124082F10E0C801809590958217930774
:100AF000B0F0020F131FDFCFF601118300838F2D9B
:100B0000A0960FB6F894DEBF0FBECDBFDF91CF9198
:100B10001F910F91FF90EF90DF90CF900895F12CEF
:100B2000EECFCF92DF92EF92FF920F931F93CF936E
:100B3000DF93CDB7DEB76C970FB6F894DEBF0FBE6C
:100B4000CDBF69017A01198618861B861A862CE1A9
:100B500031E03A8329831E8A1D8A188E1F8A3F87B7
:100B60002E87AB01BC01CE0101960E94C904811100
:100B700002C080E021C0B701A601CE010E960E94FE
:100B8000C9048823B1F311E0BE01645E7F4FCE013A
:100B900001960E941804082FBE01655E7F4FCE01AA
:100BA0000E960E9418048127002331F08111E1CFB5
:100BB0002C8D9B8D291741F36C960FB6F894DEBFF0
:100BC0000FBECDBFDF91CF911F910F91FF90EF909E
:100BD000DF90CF9008950F931F93CF93DF938C01F5
:100BE000EB01288139814A815B81FC01608171813F
:100BF000828193810E949105882311F01D830C83CB
:100C0000DF91CF911F910F910895CF92DF92EF92D4
:100C1000FF92CF93DF93CDB7DEB76A970FB6F89404
:100C2000DEBF0FBECDBF6B017C01BA01A9011986E1
:100C300018861B861A868CE191E09A8389831E8A26
:100C40001D8A188E1F8A82E191E09F878E87CE01D0
:100C500001960E94C904882379F0B701A601CE014C
:100C60000E960E948004882339F0BE01625F7F4F98
:100C7000CE0101960E9405036A960FB6F894DEBF76
:100C80000FBECDBFDF91CF91FF90EF90DF90CF905F
:100C90000895EF92FF920F931F93CF93DF93CDB7F9
:100CA000DEB72E970FB6F894DEBF0FBECDBF7C0126
:100CB000198618861B861A868CE191E09A838983AF
:100CC000A701662777276E197F09CE0101960E943A
:100CD000C90410E000E0BE01625F7F4FCE010196C3
:100CE0000E941804882331F08E85882319F00F5F45
:100CF0001F4FF1CFB701C8012E960FB6F894DEBF93
:100D00000FBECDBFDF91CF911F910F91FF90EF905C
:100D10000895CF92DF92EF92FF920E9449066B01F5
:100D20007C0181E090E00E948100C701B6010E9431
:100D3000D8048AE00E945F0083E090E0909357041B
:100D400080935604FF90EF90DF90CF900895CF935B
:100D5000DF93EC01688179818A819B810E94030580
:100D60008E819F81892B61F08CE391E00E9449067E
:100D70000E9403056C817D818E819F810E94030505
:100D800081E090E00E946C0083E090E09093570433
:100D900080935604DF91CF910895CF93DF93EC01B8
:100DA0008BE391E00E94890680915804823319F008
:100DB0008F5F809358040990D881C02D209751F0FF
:100DC00070E060E0888199810E94A7060A80DB813B
:100DD000C02DF4CF80915804882319F0815080935E
:100DE00058048EE391E0DF91CF910C948906CB01FA
:100DF0000C94CD06611529E0720730F4FB012081C7
:100E0000FC01208381E0089580E00895FC01808149
:100E10009091C00095FFFCCF8093C6008091C000E8
:100E200086FFFCCF8091C00080648093C00081E089
:100E30000895FC018091C00087FFFCCF9091C00015
:100E40009695969597708091C60080839111F2CF08
:100E500081E00895611524E07207A8F4F999FECFA6
:100E6000FC01908161BD272F237082B58C7F822B7E
:100E700082BD90BD8FB7F894FA9AF99A8FBFF9990D
:100E8000FECF81E0089580E00895FC01611584E0C3
:100E9000780780F4F999FECF61BD872F837092B5F2
:100EA0009C7F982B92BDF89AF899FECF80B58083ED
:100EB00081E0089580E008959C01235031092D3090
:100EC0003742E0F40297B0E0A0E0BC01CD0124E09D
:100ED000660F771F881F991F2A95D1F724E130E00C
:100EE00040E050E00E9496172115310539F0C90104
:100EF0000E94A8130197E1F781E0089580E008952A
:100F00004F925F926F927F928F929F92AF92BF9219
:100F1000CF92DF92EF92FF920F931F93CF93DF93C5
:100F200000D000D01F92CDB7DEB7FC0129833A83F1
:100F30004B835C836D83A0809181892F8370B82E51
:100F400088EEA81683E0B80608F007C19695969536
:100F50008281282F2295220F220F207C622F692B5D
:100F6000982F96959695792F7370683E93E0790740
:100F700008F0F3C0982F92959F708381282F2295B7
:100F8000207FA22FA92B982F92959F70B92FB37015
:100F9000A83E93E0B90708F0E0C082958695869553
:100FA00083709481292F220F220F022F082B192FD3
:100FB0001295169516951370083E83E0180708F0F1
:100FC000CCC02981832F3370283E93E0390708F085
:100FD000C4C086958695F42E942F9295990F990FFB
:100FE000907C492F482B8F2D86958695582F5370CE
:100FF000483E83E0580708F0B0C0F2949FE0F92221
:10100000DC80ED2CE29480EFE8224E2C4F28FD2C62
:10101000F2949FE0F9229F2D9370592E88EE481686
:1010200083E0580608F099C0D294D694D69493E001
:10103000D922CD809C2C990C990CE92CED28FC2C04
:10104000F294F694F69483E0F82298EEE91693E091
:10105000F90608F082C038016E187F08C301885174
:101060009C4F3C01CC24C394D12C0E151F0510F0CD
:10107000D12CC12C8D010419150908511C4F0C19D4
:101080001D09C2018C0D9D1D88248394912CA817E5
:10109000B90710F0912C812C7B01E41AF50AC701E5
:1010A00088519C4F7C01E818F908480D591DCC2443
:1010B000C394D12C6417750710F0D12CC12C88EE85
:1010C000882E83E0982EC401821B930B8A0D9B1DF2
:1010D0008C199D09B4010E948217492F8083C70192
:1010E000B4010E948217582F550F550F4370452B9E
:1010F0004183482F42954695469543709370F92E4B
:10110000FF0CFF0CC801B4010E948217582F5295A2
:10111000507FF42AF52AF282182F12951F709370CF
:10112000492F4295407FC301B4010E948217582F76
:101130005295550F550F507C412B452B438392956B
:10114000990F990F907C86958695892B84832C0D19
:101150003D1D81E0A216B30608F480E00F900F90C9
:101160000F900F900F90DF91CF911F910F91FF90F3
:10117000EF90DF90CF90BF90AF909F908F907F9037
:101180006F905F904F9008959F92AF92BF92CF92D1
:10119000DF92EF92FF920F931F93CF93DF9300D0D4
:1011A00000D01F92CDB7DEB7FC0129833A834B8371
:1011B0005C836D8340819181592F5370483E63E079
:1011C000560708F0F2C0969596958281282F2295B1
:1011D000220F220F207CA22FA92B982F969596954F
:1011E000B92FB370A83E73E0B70708F0DEC0982FA0
:1011F00092959F708381282F2295207FA22EA92A65
:10120000982F92959370B92E98EEA91693E0B9068F
:1012100008F0CBC082958695869583709481292F9E
:10122000220F220FE22EE82AF92EF294F694F69479
:1012300093E0F92268EEE61663E0F60608F0B5C022
:101240000981832F132F1370083E73E0170708F0EE
:10125000ACC0869586956B81962F9295990F990FC4
:10126000907C292F282B862F86958695382F3370D2
:10127000283E83E0380708F098C0762F72957F707B
:101280006C81D62ED29480EFD8228D2D872B762F8D
:1012900072957F70972F9370883E73E0970708F0E0
:1012A00084C062956695669563707D81972E990CD2
:1012B000990CC92CC62AD72ED294D694D69463E022
:1012C000D62268EEC61663E0D60608F06EC0EC0CB7
:1012D000FD1CA80EB91E61E070E088EEE81683E000
:1012E000F80610F470E060E0A60EB71E2A0F3B1F50
:1012F00081E090E068EEA61663E0B60610F490E098
:1013000080E0280F391F040F151F81E090E0283E70
:1013100073E0370710F490E080E0080F191F88EEA3
:10132000C82E83E0D82EC801B6010E948217492F2B
:101330008083C901B6010E948217282F220F220F35
:101340004370422B4183282F2295269526952370A2
:101350009370392F330F330FC501B6010E948217E6
:10136000482F4295407F322B342B3283382F3295D1
:101370003F709370292F2295207FC701B6010E94EC
:101380008217482F4295440F440F407C232B242B77
:1013900023839295990F990F907C86958695892B3A
:1013A000848381E0083E134008F080E00F900F90A6
:1013B0000F900F900F90DF91CF911F910F91FF90A1
:1013C000EF90DF90CF90BF90AF909F900895CF9314
:1013D000DF9300D000D01F92CDB7DEB70E94BF02CE
:1013E00029833A834B835C836D8320911E01309166
:1013F0001F01409120015091210160912201CE01F5
:1014000001960E94C40849818A81682F637086957D
:1014100086959B81292F2295220F220F207C282B35
:10142000392F36953695337092959F708C81582F51
:101430005295507F952B829583705FB7F8944093B7
:101440003404E5E3F4E040814C7F462B4083622F77
:10145000660F660F40814370462B4083E6E3F4E05D
:10146000229526952695237040814C7F242B20833E
:10147000330F330F2081237F232B2083392F329585
:10148000307F20812F70232B2083E7E3F4E0292F86
:1014900022952F709081907F922B9083982F929518
:1014A000907F80818F7C892B808380818F73808364
:1014B000E8E3F4E08081807C808380818F73808387
:1014C0005FBF0F900F900F900F900F90DF91CF9113
:1014D00008950F931F93CF93DF93CDB7DEB72A976D
:1014E0000FB6F894DEBF0FBECDBF0FB7F8940E94C1
:1014F0007D020E94BF022E833F83488759876A87F7
:101500001091B2000E9483020FBFB99B10C02091BE
:101510001E0130911F0140912001509121016091E5
:101520002201CE0106960E94C4081091B200212F1C
:1015300030E0A8EEB3E00E94B8172091B30030E08D
:101540002F5F3F4F032E000C440B550B0E94961744
:10155000922F9295990F990F907C89858F73892B83
:1015600089873295330F330F307C26952695232BB0
:101570002A8785E0FE013696DE01119601900D92D4
:101580008A95E1F729813A814B815C816D8170E018
:1015900080E090E02A960FB6F894DEBF0FBECDBF74
:1015A000DF91CF911F910F910895CF92DF92EF922B
:1015B000FF921F93CF93DF9300D000D01F92CDB73F
:1015C000DEB70E94690AF42FE52F162F369536955F
:1015D000AF2FA295AA0FAA0FA07CA32BBF2FB69561
:1015E000B695B37020E432E44FE050E00E94C71794
:1015F0006B017C01F295FF702E2F2295207F2F2BFF
:101600003E2F32953370A8EEB3E00E94B8176C0DF0
:101610007D1D8E1D9F1DE295E695E695E370412F99
:10162000440F440F242F2E2B312F329536953695AB
:101630003370620F731F811D911D0F900F900F90DB
:101640000F900F90DF91CF911F91FF90EF90DF905F
:10165000CF900895AF92BF92CF92DF92EF92FF9218
:101660000F931F93CF93DF93CDB7DEB72F970FB6AE
:10167000F894DEBF0FBECDBF4B875C876D877F734D
:101680007E871F860E94BF022E833F83488759872B
:101690006A872B853C854D855E856F85CE010696D4
:1016A0000E94C408D82E882309F478C00E94BF0283
:1016B000D901B3700E818F81182F1370A017B10755
:1016C000A8F336953695942F9295990F990F907CA3
:1016D000E92FE32B942F96959695F92FF370429569
:1016E0004F70952F9295907F292F242B952F9295AF
:1016F0009F70392F33705295569556955370962F8B
:10170000990F990FE92EE52AF62EF294F694F694A5
:1017100093E0F922982F969596958885482F4295C3
:10172000440F440F407C642F692B982F9695969513
:10173000792F7370982F92959F708985C82EC294C7
:1017400040EFC4224C2D492B982F92959F70592F12
:10175000537082958695869583709A85C92ECC0C98
:10176000CC0CAC2CA82AB92EB294B694B69483E0D3
:10177000B8220A171B0790F0E617F70708F496CF70
:101780006E177F0758F02417350708F48FCF4217DC
:10179000530720F0EA14FB0408F488CF8D2D2F9610
:1017A0000FB6F894DEBF0FBECDBFDF91CF911F9172
:1017B0000F91FF90EF90DF90CF90BF90AF90089582
:1017C0001F93CF93DF93CDB7DEB762970FB6F89430
:1017D000DEBF0FBECDBF1091810016FB112710F99F
:1017E0000E94690A2E873F87488B598B6A8B81E05C
:1017F00018271D8796E0FE013D96DE0117960190A1
:101800000D929A95E1F79091610491111EC096E0B6
:10181000FE013796A2E6B4E001900D929A95E1F7A9
:101820008093610490918100809181008F7B96FF6D
:1018300080648093810062960FB6F894DEBF0FBE7D
:10184000CDBFDF91CF911F91089585E0FE013896BD
:10185000DE01129601900D928A95E1F720916304C2
:10186000309164044091650450916604609167046E
:10187000CE0102960E94800780916204898386E0EF
:10188000FE013796A2E6B4E001900D928A95E1F749
:1018900049815A816B817C818D819E810E942801C2
:1018A000C1CFAF92BF92CF92DF92EF92FF920F9390
:1018B0001F93CF93DF93CDB7DEB7A9970FB6F894F8
:1018C000DEBF0FBECDBF1E8A1D8A188E1F8A8CE117
:1018D00091E09F878E87409114015091150160918E
:1018E000160170911701CE0140960E945E04882374
:1018F00021F085E497E09A8F898F87E291E09C8FB1
:101900008B8F198618861B861A8682E191E09A834E
:101910008983CE010E969E8F8D8F1F8E18A2AE01E9
:10192000485D5F4F62E070E00D970E948004BE0149
:10193000655E7F4FCE0101960E949803882351F186
:1019400001E010E05E0182E2A80EB11C88A599A515
:1019500080179107F8F086E0E82EF12CB701A50179
:10196000CE0101960E948004BE01655E7F4FCE01CC
:1019700001960E949803882369F04AA15BA16CA19B
:101980007DA18EA19FA10E942801882319F00F5FDD
:101990001F4FDCCFA9960FB6F894DEBF0FBECDBFA8
:1019A000DF91CF911F910F91FF90EF90DF90CF903B
:1019B000BF90AF900895AF92BF92CF92DF92EF9217
:1019C000FF920F931F93CF93DF93CDB7DEB7A2970C
:1019D0000FB6F894DEBF0FBECDBF1E8A1D8A188ECB
:1019E0001F8A82E191E09F878E8740911401509178
:1019F00015016091160170911701CE0140960E9469
:101A00005E04882321F08AE297E09A8F898F1986F5
:101A100018861B861A868CE191E09A8389838091CF
:101A20005F04909160049AA389A3AE014F5D5F4F5C
:101A300062E070E0CE0101960E94C904BE01625FBF
:101A40007F4FCE0101960E940503882331F101E00A
:101A500010E05E018BE1A80EB11C89A19AA180174C
:101A60009107D8F0B801C5010E94A6008823A9F00B
:101A700086E0E82EF12CB701A501CE0101960E9467
:101A8000C904BE01625F7F4FCE0101960E9405032B
:101A9000882319F00F5F1F4FE0CFA2960FB6F8947E
:101AA000DEBF0FBECDBFDF91CF911F910F91FF9091
:101AB000EF90DF90CF90BF90AF9008953F924F92FC
:101AC0005F926F927F928F929F92AF92BF92CF92CE
:101AD000DF92EF92FF920F931F93CF93DF93CDB7D7
:101AE000DEB76D970FB6F894DEBF0FBECDBF609125
:101AF0004A0470914B04CE014C960E941A0588232B
:101B000009F4B6C001E010E092E1C92E91E0D92EAF
:101B10007E0184E1E80EF11C332433948C8D9D8D7D
:101B20008017910708F4A8C0A0904A04B0904B0415
:101B3000198618861B861A86DA82C98284E0682E86
:101B4000712CB301A701CE0101960E948004B5015A
:101B5000CE0101960E94C403882309F489C0CE01F6
:101B600003960E9432044B015C012091460430919F
:101B7000470440914804509149040E9491058823EC
:101B800009F466C03E8660914A0470914B04CE0110
:101B90004A960E941A05882309F46AC060914A0493
:101BA00070914B04CE0148960E941A05882309F4CF
:101BB0005FC060914A0470914B04C7010E941A05EE
:101BC000882309F455C060914A0470914B04CE01FA
:101BD00001960E941A05882309F44AC05A8D6B8D1C
:101BE000788D872F880F880F6370682B688B972FED
:101BF0009295969596959370798D7370770F770F70
:101C00008C89282F2295207F792B722B798B982F06
:101C100092959F708D8983708295807F2981322F64
:101C20003295330F330F307C892B832B8A8B9A812B
:101C3000392F3295330F330F307C922F969596952E
:101C4000932B9B8B4E850E9428010F5F1F4F66CF01
:101C50002091420430914304409144045091450442
:101C6000C501B4010E949105882311F01E868BCF17
:101C700081E491E00E9489066D960FB6F894DEBF6C
:101C80000FBECDBFDF91CF911F910F91FF90EF90CD
:101C9000DF90CF90BF90AF909F908F907F906F908C
:101CA0005F904F903F9008954F925F926F927F9216
:101CB0008F929F92AF92BF92CF92DF92EF92FF925C
:101CC0000F931F93CF93DF93CDB7DEB769970FB60E
:101CD000F894DEBF0FBECDBFE0905F04F0906004CB
:101CE000C7010E94C60081E090E00E946C0083E082
:101CF00090E0909357048093560401E010E06CE16B
:101D0000A62E61E0B62E73E0C72ED12CE016F106A8
:101D100008F488C0B801CE0144960E94A60086E06F
:101D2000FE017496DE011E9601900D928A95E1F7F0
:101D30007C8882E090E00E94810080904C0490902A
:101D40004D04198618861B861A86BA82A9827720C6
:101D500009F45FC0409146045091470460914804E3
:101D600070914904CE0101960E94C904B401CE01CC
:101D700001960E94050382E090E0909357048093BF
:101D800056049889892F869586952989722E729492
:101D9000770C770C30EC7322782A822F8695869503
:101DA0008370882E822F82958F702A89522E5294AA
:101DB00040EF5422582A822F82958370682E2295F4
:101DC0002695269523703B89432E440C440C422AC9
:101DD000932E92949694969453E095228F859370C7
:101DE0000E94C600872D982D0E94C600852D962D35
:101DF0000E94C600842D992D0E94C60081E090E0CB
:101E00000E946C00D0925704C09256040F5F1F4F7F
:101E10007DCF4091420450914304609144047091FD
:101E20004504A0CF69960FB6F894DEBF0FBECDBFB4
:101E3000DF91CF911F910F91FF90EF90DF90CF90A6
:101E4000BF90AF909F908F907F906F905F904F90DA
:101E50000895E9E5F4E017821682108608952F921E
:101E60003F924F925F926F927F928F929F92AF922A
:101E7000BF92CF92DF92EF92FF920F931F93CF9377
:101E8000DF93CDB7DEB7AF970FB6F894DEBF0FBEC6
:101E9000CDBF1DA21EA21FA280E888A781E689A748
:101EA00020915F04309160043EA72DA72224239443
:101EB000312CAE014E5F5F4F5BA74AA78DA59EA553
:101EC0008215930508F4BBC1B101CE0101960E94B1
:101ED000A6008981882309F41BC185E0FE013296A2
:101EE000DE01909601900D928A95E1F71FB7F89464
:101EF0000E94D50A6B017C0185B5887F826085BD13
:101F000084B58F73806484BDA9A18A2F8695869538
:101F1000EAA1AE2FA295AA0FAA0FA07CA82BBE2FD4
:101F2000B695B695B37020E432E44FE050E00E94DD
:101F3000C7174B015C01E295EF704BA1242F22954E
:101F4000207F2E2B342F32953370A8EEB3E00E9401
:101F5000B817DC01CB01880D991DAA1DBB1D429548
:101F60004695469543705CA1652F660F660F262F38
:101F7000242B352F3295369536953370820F931F6B
:101F8000A11DB11D8C0D9D1DAE1DBF1D4C015D0120
:101F9000EFE28E1A9108A108B108F4EF8F16F1E074
:101FA0009F06A104B10408F48FC02C013D0123E277
:101FB000421A22E0520A6108710838EE831633E0B3
:101FC0009306A104B10408F433C1C414D504E60493
:101FD000F70408F079C087519440A109B109C816E7
:101FE000D906EA06FB0608F059C01FBF9C01AD01E7
:101FF0002C193D094E095F0969017A011B8ECA013E
:10200000B90120E432E44FE050E00E949617422FDD
:10201000440F440F4CA74C8F22952695269523708C
:102020002FA7032F0370000F000FC701B60128EE82
:1020300033E040E050E00E949617F62EE72ECA01EA
:10204000B90128EE33E040E050E00E949617262FB9
:102050002295207F5FA5052B022B0D8F62956F7057
:1020600073707295707F8F2D8295880F880F807C9A
:10207000762B782B7E8F8E2D8295880F880F807C13
:10208000F694F6948F298F8F40E05CA5602F0E9414
:102090002A0BF8940E94D50A6B017C011FBF80E0D7
:1020A00090E0DC014C145D046E047F0430F0D30139
:1020B000C2018C199D09AE09BF090E945C07F89402
:1020C0000E94D50A6B017C0180E090E0DC018C1459
:1020D0009D04AE04BF0430F0D501C4018C199D09E4
:1020E000AE09BF090E945C0785B5877061F084B5B1
:1020F000806C84BDA99AA99BFECF84B58F7384BDE3
:1021000085B5887F85BD1FBF3FEF231A330AD6CE22
:102110002DA13EA14FA158A569A5CE0102960E940E
:102120008007811106C0EAA5FBA525E011922A953A
:10213000E9F785E0FE013296DE01569601900D9298
:102140008A95E1F70E94690A298B3A8B4B8B5C8B4D
:102150006D8B2E893F89488D598D6A8DCE014196B0
:102160000E94C4084E895F89688D798D8A8D0E948E
:102170002A0B882349F20E94690A2C873D874E87E3
:102180005F87688B85E0FE017196DE0117960190EE
:102190000D928A95E1F72C853D854E855F8568898E
:1021A000CE0107960E948007882309F4ADCFA88549
:1021B0008A2F86958695E985AE2FA295AA0FAA0F3C
:1021C000A07CA82BBE2FB695B695B37020E432E460
:1021D0004FE050E00E94C7176B017C01E295EF7061
:1021E0004A85242F2295207F2E2B342F3295337051
:1021F000A8EEB3E00E94B817DC01CB018C0D9D1D49
:10220000AE1DBF1D42954695469543705B85652F73
:10221000660F660F262F242B352F3295369536956F
:102220003370820F931FA11DB11D0E945C076CCFFC
:10223000C414D504E604F70408F430CF45CFAF96B4
:102240000FB6F894DEBF0FBECDBFDF91CF911F91C7
:102250000F91FF90EF90DF90CF90BF90AF909F9045
:102260008F907F906F905F904F903F902F90089548
:10227000EFE6F0E080818F7D8083089540E060E0AC
:1022800084E290E00E94730141E060E085E290E02A
:102290000E947301E0E8F0E081818F7B818380EE12
:1022A0009BE09093030180930201B59AEFE6F0E082
:1022B00080818062808308950F931F93CF93DF9373
:1022C000EC018B01CB010E94D817009781F0998314
:1022D00088831B830A83688179818A819B810E941C
:1022E0008F0481E0DF91CF911F910F91089580E0DD
:1022F000F9CFCF93DF93EC018A819B810097B1F0F6
:10230000919581959109288139818217930770F001
:10231000688179818A819B810E948F04888199815B
:102320000E947418198218821B821A82DF91CF9141
:102330000895CF92DF92EF92FF920F931F93CF9366
:10234000DF9300D000D0CDB7DEB78C0184E0C82E7B
:10235000D12CD801ED91FC91309771F0E280F3809F
:10236000FA83E983DC82CB82CE0101960E94791147
:10237000F801F182E082EDCF0F900F900F900F9057
:10238000DF91CF911F910F91FF90EF90DF90CF9051
:1023900008950F931F93CF93DF9300D000D0CDB754
:1023A000DEB78C019A8389838CE090E09C838B83D9
:1023B000C8010E947911C80104960E947911CE01CA
:1023C00001960E9479110F900F900F900F90DF915E
:1023D000CF911F910F9108950C94C9110F931F93E2
:1023E000CF93DF938C01FC01C081D181209741F014
:1023F000888199810E94C9110A80DB81C02DF6CFA6
:10240000C801DF91CF911F910F910C949911CB01CD
:102410000C94EE114F925F926F927F928F929F92E7
:10242000AF92BF92CF92DF92EF92FF920F931F93E2
:10243000CF93DF93CDB7DEB728970FB6F894DEBF02
:102440000FBECDBF7C01CB015A0169011A821982EE
:102450001C821B821E821D8218861F820E944906D2
:102460002B013C01C5010E9449064B015C0161142E
:10247000710409F5F701118210821382128215820C
:10248000148217821682C70128960FB6F894DEBF11
:102490000FBECDBFDF91CF911F910F91FF90EF90B5
:1024A000DF90CF90BF90AF909F908F907F906F9074
:1024B0005F904F900895B301CE0101960E945C1188
:1024C0008823C1F269817A818B819C81A301920169
:1024D0000E940506A114B10429F4CE0101960E94C0
:1024E0007911C8CFB501CE0105960E945C118823F1
:1024F000A1F36D817E818F819885A50194010E9451
:10250000050649815A816B817C818D819E81AF81D5
:10251000B885F701408351836283738384839583F5
:10252000A683B783D186C08613870287ACCFAF92CC
:10253000BF92CF92DF92EF92FF920F931F93CF93B0
:10254000DF93CDB7DEB764970FB6F894DEBF0FBE4A
:10255000CDBF5C01C986DA86EB86FC860D871E87B7
:102560002F87388B498B5A8B6B8B7C8B1E821D82FD
:1025700018861F826CE070E0CE0105960E945C1107
:10258000182F8823F1F09E01275F3F4F4CE050E069
:102590006D817E818F8198850E940506ED80FE8089
:1025A0001A8219821C821B8264E070E0CE010196BF
:1025B0000E945C11182F811116C0CE0105960E9451
:1025C0007911812F64960FB6F894DEBF0FBECDBF90
:1025D000DF91CF911F910F91FF90EF90DF90CF90FF
:1025E000BF90AF900895E981FA81F182E082D50130
:1025F0008D919C911197892B11F4ED93FC93D5014A
:1026000012968D919C91009729F0DC011396FC9312
:10261000EE931297D5011396FC93EE931297D1CFB8
:102620001F920F920FB60F9211242F933F938F9307
:102630009F93AF93BF9380913E0490913F04A091EC
:102640004004B091410430913D0423E0230F2D3725
:1026500058F50196A11DB11D20933D0480933E04C1
:1026600090933F04A0934004B093410480913904B7
:1026700090913A04A0913B04B0913C040196A11DB5
:10268000B11D8093390490933A04A0933B04B09316
:102690003C04BF91AF919F918F913F912F910F90EB
:1026A0000FBE0F901F90189526E8230F0296A11DCC
:1026B000B11DD2CF1F920F920FB60F9211242F93FC
:1026C0003F934F935F936F937F938F939F93AF93BA
:1026D000BF93EF93FF93E0910201F09103010995FD
:1026E000FF91EF91BF91AF919F918F917F916F91EA
:1026F0005F914F913F912F910F900FBE0F901F90C0
:1027000018951F920F920FB60F9211242F933F939B
:102710004F935F936F937F938F939F93AF93BF93E9
:10272000EF93FF93E0910001F09101010995FF9172
:10273000EF91BF91AF919F918F917F916F915F9139
:102740004F913F912F910F900FBE0F901F901895B2
:102750000000000000000000000000000000000079
:10276000089581E591E00E944906609346047093C4
:102770004704809348049093490483E591E00E94C4
:1027800049066093420470934304809344049093F9
:102790004504EAE4F4E089E391E09583848383E3EC
:1027A00091E09187808783E090E095878487168603
:1027B000E9E5F4E011821082138212820895CF932A
:1027C000DF93CDB7DEB7CF5AD1090FB6F894DEBF8D
:1027D0000FBECDBF789484B5826084BD84B581601E
:1027E00084BD85B5826085BD85B5816085BD8091DC
:1027F0006E00816080936E00109281008091810054
:10280000826080938100809181008160809381004B
:10281000809180008160809380008091B10084600D
:102820008093B1008091B00081608093B00080916E
:102830007A00846080937A0080917A00826080932D
:102840007A0080917A00816080937A0080917A008A
:10285000806880937A001092C1000E940102882350
:1028600031F089E197E090935104809350040E94E5
:102870000102882331F086E097E09093550480931D
:1028800054048EE494E090934B0480934A0482E5D0
:1028900094E090934D0480934C040E948A020E941D
:1028A00083020E948A020E94830280910A01909111
:1028B0000B01A0910C01B0910D01809359049093EC
:1028C0005A04A0935B04B0935C0480E590E090937D
:1028D0005E0480935D041092600410925F04109275
:1028E000610423E038E040EE58E261E070E0CE01A0
:1028F00001963C010E948C01882309F4D1C241E079
:1029000066E08AE290E00E94730140E066E08BE2BC
:1029100090E00E94730140E066E08BE290E00E944C
:10292000730185B5887F85BD84B5836084BD85B519
:10293000886085BD8A8187BD16BC80916E008E7FC0
:1029400080936E008EE691E00E948906C455DF4FA9
:1029500019821882CC5AD040C255DF4F1982188292
:10296000CE5AD04010E000E02EE331E148E851E0DB
:1029700068E971E0CE0186569F4F0E940A12C65642
:10298000DF4FC880CA59D040C556DF4FD880CB59D9
:10299000D040C456DF4FE880CC59D040C356DF4FFB
:1029A000F880CD59D040C256DF4F0881CE59D04073
:1029B000C156DF4F1881CF59D040C056DF4F288114
:1029C000C05AD040CF55DF4F3881C15AD040CE5584
:1029D000DF4F4881C25AD040CD55DF4F5881C35A8E
:1029E000D040CC55DF4F6881C45AD040CB55DF4F23
:1029F0007881C55AD040CE0184559F4F0E949712CE
:102A000010E000E028E331E14AE951E061EF71E0D4
:102A1000CE0182579F4F0E940A12C257DF4FC880D3
:102A2000CE58D040C157DF4FD880CF58D040C05784
:102A3000DF4FE880C059D040CF56DF4FF880C159F2
:102A4000D040CE56DF4F0881C259D040CD56DF4F1F
:102A50001881C359D040CC56DF4F2881C459D0408B
:102A6000CB56DF4F3881C559D040CA56DF4F488119
:102A7000C659D040C956DF4F5881C759D040C856B3
:102A8000DF4F6881C859D040C756DF4F7881C95998
:102A9000D040CE0184559F4F0E94971210E000E075
:102AA0002FE23FE048EA51E066E871E0CE018E5740
:102AB0009F4F0E940A12CE57DF4FC880C258D040A5
:102AC000CD57DF4FD880C358D040CC57DF4FE88078
:102AD000C458D040CB57DF4FF880C558D040CA57B4
:102AE000DF4F0881C658D040C957DF4F1881C758FB
:102AF000D040C857DF4F2881C858D040C757DF4F54
:102B00003881C958D040C657DF4F4881CA58D04095
:102B1000C557DF4F5881CB58D040C457DF4F68812D
:102B2000CC58D040C357DF4F7881CD58D040CE012C
:102B300084559F4F0E94971210E000E029E23FE089
:102B400044EB51E061EC71E0CE018A589F4F0E9446
:102B50000A12E796CFACE797E896DFACE897E996DC
:102B6000EFACE997EA96FFACEA97EB960FADEB97DF
:102B7000EC961FADEC97ED962FADED97EE963FAD31
:102B8000EE97EF964FADEF97C158DF4F5881CF5773
:102B9000D040C058DF4F6881C058D040CF57DF4F7A
:102BA0007881C158D040CE0184559F4F0E94971222
:102BB00010E000E024E53EE043EC51E069ED71E017
:102BC000CE0186599F4F0E940A12AB96CFACAB97AD
:102BD000AC96DFACAC97AD96EFACAD97AE96FFACD4
:102BE000AE97AF960FADAF97E0961FADE097E19629
:102BF0002FADE197E2963FADE297E3964FADE397B5
:102C0000E4965FADE497E5966FADE597E6967FAD08
:102C1000E697CE0184559F4F0E94971210E000E086
:102C20002EE53DE04CED51E063EF71E0CE01825ABC
:102C30009F4F0E940A126F96CFAC6F97A096DFACA1
:102C4000A097A196EFACA197A296FFACA297A396EE
:102C50000FADA397A4961FADA497A5962FADA597EA
:102C6000A6963FADA697A7964FADA797A8965FAD3E
:102C7000A897A9966FADA997AA967FADAA97CE01FE
:102C800084559F4F0E94971210E000E02BED3CE02E
:102C900046EF51E063E172E0CE018E5A9F4F0E94F1
:102CA0000A126396CFAC63976496DFAC649765961F
:102CB000EFAC65976696FFAC669767960FAD679722
:102CC00068961FAD689769962FAD69976A963FAD74
:102CD0006A976B964FAD6B976C965FAD6C976D96E0
:102CE0006FAD6D976E967FAD6E97CE0184559F4FF9
:102CF0000E94971210E000E021E53CE046E152E03E
:102D000065E372E0CE018A5B9F4F0E940A1227960C
:102D1000CFAC27972896DFAC28972996EFAC299758
:102D20002A96FFAC2A972B960FAD2B972C961FADAA
:102D30002C972D962FAD2D972E963FAD2E972F9633
:102D40004FAD2F9760965FAD609761966FAD6197BD
:102D500062967FAD6297CE0184559F4F0E94971275
:102D60008E0104551F4F27EF36E048E352E066E43A
:102D700072E0CE01CA960E940A12CAACDBACECAC7F
:102D8000FDAC0EAD1FAD21962FAD219722963FAD24
:102D9000229723964FAD239724965FAD24972596CF
:102DA0006FAD259726967FAD2697CE0184559F4F10
:102DB0000E9497128823F1F08E0104551F4F27E0DF
:102DC00032E148E452E06DE472E0CE018E960E945A
:102DD0000A12CEA4DFA4E8A8F9A80AA91BA92CA965
:102DE0003DA94EA95FA968AD79ADCE0184559F4F2D
:102DF0000E949712CE0184559F4F0E94CD0692E10A
:102E0000E92E91E0F92EC455DF4F88819981CC5A83
:102E1000D040892B09F460C019A618A61BA61AA6D3
:102E2000FAA2E9A280E2A82EB12CB501A301CE013D
:102E300081960E94800460914A0470914B04CE01F7
:102E400081960E94C4038823F1F2CE0183960E94EA
:102E50003204CA55DF4F79836883C65AD040C855BB
:102E6000DF4F99838883C85AD040C655DF4F1982F7
:102E70001882CA5AD040C455DF4F08811981CC5AF4
:102E8000D0400115110589F0BE016A557F4FF80148
:102E9000808191810E94EB05F80102811381F1CFBD
:102EA00085E591E00E9489064DCDC655DF4FA8818A
:102EB000B981CA5AD040109709F4A5CF1896ED9160
:102EC000FC9119971A966D917C91309709F49BCFDC
:102ED00090E080E0099597CFCE0184559F4F0E94E6
:102EE000EE11CE0184559F4F0E9499118FE492E01C
:102EF0000E94890600E010E001151105E9F30E9427
:102F00000000FACFAA1BBB1B51E107C0AA1FBB1FC1
:102F1000A617B70710F0A61BB70B881F991F5A9565
:102F2000A9F780959095BC01CD010895A1E21A2ED4
:102F3000AA1BBB1BFD010DC0AA1FBB1FEE1FFF1F5D
:102F4000A217B307E407F50720F0A21BB30BE40BAD
:102F5000F50B661F771F881F991F1A9469F76095F4
:102F60007095809590959B01AC01BD01CF010895AE
:102F7000A29FB001B39FC001A39F700D811D1124BA
:102F8000911DB29F700D811D1124911D08950E9405
:102F9000B817A59F900DB49F900DA49F800D911D13
:102FA00011240895EE0FFF1F0590F491E02D099470
:102FB0000F931F93CF93DF938230910510F482E03B
:102FC00090E0E0916A04F0916B0430E020E0B0E022
:102FD000A0E0309799F42115310509F44AC0281B67
:102FE000390B24303105D8F58A819B816115710533
:102FF00089F1FB0193838283FE0111C040815181DD
:103000000281138148175907E0F04817590799F4CE
:10301000109761F012960C93129713961C933296A8
:10302000CF01DF91CF911F910F91089500936A0412
:1030300010936B04F4CF2115310551F0421753075B
:1030400038F0A901DB019A01BD01DF01F801C1CF10
:10305000EF01F9CF90936B0480936A04CDCFFE010A
:10306000E20FF31F81939193225031093983288312
:10307000D7CF2091680430916904232B41F420912B
:103080000601309107013093690420936804209170
:103090000401309105012115310541F42DB73EB7EA
:1030A0004091080150910901241B350BE0916804FF
:1030B000F0916904E217F307A0F42E1B3F0B2817C9
:1030C000390778F0AC014E5F5F4F2417350748F0A1
:1030D0004E0F5F1F5093690440936804819391934E
:1030E0009FCFF0E0E0E09CCFCF93DF930097E9F033
:1030F000FC01329713821282A0916A04B0916B0492
:10310000ED0130E020E01097A1F420813181820FA1
:10311000931F20916804309169042817390709F03A
:1031200061C0F0936904E0936804DF91CF91089542
:10313000EA01CE17DF07E8F54A815B819E01411560
:103140005105B1F7E901FB83EA8349915991C40F15
:10315000D51FEC17FD0761F4808191810296840FE1
:10316000951FE90199838883828193819B838A8358
:10317000F0E0E0E012968D919C9113970097B9F5DD
:103180002D913C911197CD010296820F931F2091B2
:103190006804309169042817390739F6309751F5DA
:1031A00010926B0410926A04B0936904A0936804AF
:1031B000BCCFD383C28340815181840F951FC81730
:1031C000D90761F44E5F5F4F88819981480F591F7D
:1031D000518340838A819B819383828321153105AA
:1031E00009F0B0CFF0936B04E0936A049ECFFD0129
:0E31F000DC01C0CF13821282D7CFF894FFCF3C
:1031FE007201720100006C0480005402E0010000B4
:10320E00000074030000FFFF00000000180400001F
:10321E00100000000000004D0300000000490300F4
:10322E0000000032030000000043032D2D003D3D41
:10323E00004661696C656420746F207061727365FD
:10324E000059004E004661696C656420746F2073EE
:10325E006574206672657175656E63792E004952CC
:10326E00207369676E616C20706C617965722F7264
:10327E0065636F7264657200426567696E20726580
:10328E00636F7264696E67006200456E64207265DA
:10329E00636F7264696E67005265706C6179206449
:1032AE006174610044697363617264206461746166
:1032BE000064005072696E74206461746120746FD2
:1032CE00206F757473696465006573004C6F61647B
:1032DE0020646174612066726F6D206F75747369FE
:1032EE00646500656C0053617665206461746120CD
:1032FE00746F20696E7465726E616C206D656D6F92
:10330E007279006973004C6F61642064617461208E
:10331E0066726F6D20696E7465726E616C206D657C
:10332E006D6F727900696C004C69737420636F6DF8
:10333E006D616E6473003F0045786974005E0044F1
:04334E006F6E650039
:00000001FF
