:100000000C9435000C945D000C945D000C945D0024
:100010000C945D000C945D000C945D000C948015B4
:100020000C945D000C945D000C9459150C943215E1
:100030000C945D000C945D000C945D000C945D00CC
:100040000C94E8140C945D000C945D000C945D001D
:100050000C945D000C945D000C945D000C945D00AC
:100060000C945D000C945D00B01511241FBECFEF01
:10007000D8E0DEBFCDBF12E0A0E0B1E0ECE3F7E3F3
:1000800002C005900D92A835B107D9F724E0A8E584
:10009000B2E001C01D92AA37B207E1F710E0C5E354
:1000A000D0E004C02197FE010E94711AC433D10729
:1000B000C9F70E94E9150C949C1B0C940000A091B8
:1000C0005C04B0915D04ED91FC9111970190F08179
:1000D000E02D682FCD0109942091660430916704CA
:1000E0002115310529F4019751F080E20C945F004D
:1000F0002130310521F022303105A9F308958AE03D
:10010000F5CFCF93DF93EC010E946C0080916604E1
:1001100090916704009729F4219759F0DF91CF91CE
:1001200008958130910529F082309105A9F3039754
:10013000A9F7C0E080916804C81780F780E20E94A8
:100140005F0080E20E945F00CF5FF4CFDC016115A9
:100150007105D1F08091740490917504861797070A
:1001600098F096E0969FF001979FF00D1124209152
:100170006E0430916F04E20FF31F369701900D92D9
:100180009A95E1F781E0089580E008954F925F929B
:100190006F927F928F929F92AF92BF92CF92DF9297
:1001A000EF92FF920F931F93CF93DF936C0182E046
:1001B00090E00E948100C0915C04D0915D04F12C1C
:1001C000E12C15E080E1882E87E2982EA12CB12C3D
:1001D0009AE0492E512C612C712CC701B601A50162
:1001E00094010E94351A022F60E3620FE881F981C1
:1001F0000190F081E02DCE010995A02FB0E0A5017E
:1002000094010E94661AC61AD70AE80AF90AC501BB
:10021000B401A30192010E94351A49015A011150FB
:10022000E1F682E090E09093670480936604DF91AA
:10023000CF911F910F91FF90EF90DF90CF90BF90E3
:10024000AF909F908F907F906F905F904F900895A8
:10025000CF93DF93CDB7DEB72C970FB6F894DEBF00
:100260000FBECDBF4F83588769877A878B879C875E
:1002700080917404909175042091720430917304FC
:100280008217930751F480E02C960FB6F894DEBFE6
:100290000FBECDBFDF91CF91089501969093750465
:1002A0008093740426E0FE013796DE0111960190DA
:1002B0000D922A95E1F7009731F326E0289FD001AF
:1002C000299FB00D112480916E0490916F04A80FA6
:1002D000B91F1697FE01319601900D922A95E1F70C
:1002E00081E0D2CF0895FC01E11589E0F80790F490
:1002F000683080F4908121E030E001C0220F6A95DF
:10030000EAF7413021F4292B208381E008952095DC
:100310002923FACF80E008958F929F92AF92BF92E7
:10032000CF92DF92EF92FF920F931F93CF93DF93C1
:10033000EC014A015B01122F032FC12CD12C760155
:10034000C394A7019601012E04C0220F331F441F3E
:10035000551F0A94D2F7211531054105510509F4BD
:100360004EC060E078E488EE91E00E94351ACA0140
:10037000B9016F5F7F4F8F4F9F4F96958795779508
:1003800067956115710581059105C9F18114910485
:10039000A104B104A1F1660F771F881F991FA50161
:1003A00094010E94351A2F5F3F4F4F4F5F4F569574
:1003B0004795379527952115310541055105F9F0E8
:1003C00004C0CC0CDD1CEE1CFF1C0A95D2F7C21633
:1003D000D306E406F50698F01883215031093A83D4
:1003E000298381E0DF91CF911F910F91FF90EF90D2
:1003F000DF90CF90BF90AF909F908F90089580E056
:10040000F1CFCF93DF93CDB7DEB76E970FB6F894E9
:10041000DEBF0FBECDBF8091C1008F718B7F8093F7
:10042000C10086E08093C20082E08B8B83E08C8BDE
:1004300084E08D8B8CE08B8F89E0FE017396DE016A
:100440001A9601900D928A95E1F78B85813108F01B
:1004500052C09C85913108F04EC0891708F04BC0FE
:1004600089E0FE017396DE01119601900D928A9546
:10047000E1F72A813CE040E052EC61E070E0CE011F
:100480004C960E948C01882351F19C8D2D8D3E8DC0
:100490003F703F708091C500807F832B8093C500A3
:1004A0002093C4009330A9F48091C00082608093AF
:1004B000C0008091C100806188608093C10081E0AC
:1004C0006E960FB6F894DEBF0FBECDBFDF91CF9111
:1004D0000895943081F48091C0008D7FE8CF2B8106
:1004E0003CE040E052EC61E070E0CE014C960E94AE
:1004F0008C018111CACF80E0E3CFE0EBF0E0818195
:10050000887F81830895E0EBF0E08181887F8460BB
:1005100081830895CF93DF9300D01F92CDB7DEB7CC
:1005200026E038E048EE53E060E070E0CE0101964E
:100530000E948C018823E9F00E947D028091B00026
:100540008C7F82608093B0008091B100877F809320
:10055000B1008A818093B30087EE99E09093010106
:10056000809300011092B2008091700082608093AD
:1005700070000F900F900F90DF91CF910895CF935F
:10058000DF9300D000D01F92CDB7DEB76FB7F894DD
:1005900020913F04E0E4F4E030814081842F86958F
:1005A0008695E1E4F4E040814295440F440F407C9D
:1005B000482B90815081852F82958F70E2E4F4E082
:1005C00050815295507F582B80816FBF642F660FEA
:1005D000660F3370362B42954695469543709C7056
:1005E000652F6295607F492B462B52955F70807313
:1005F000582B60E070E080E090E00F900F900F903B
:100600000F900F90DF91CF910895EF92FF920F938B
:100610001F93CF93DF931F92CDB7DEB77C018B0181
:10062000D701ED91FC910190F081E02DBE016F5F4B
:100630007F4FC7010995882399F0D801ED91FC916E
:100640000190F081E02D6981C80109958111E8CF01
:100650000F90DF91CF911F910F91FF90EF90089530
:1006600081E0F6CFCF93DF931F92CDB7DEB76983DA
:10067000DC011296ED91FC91CE01019609950F9047
:10068000DF91CF910895DC011296ED91FC91CB01A1
:100690000994FB01108281E008950F931F93CF937B
:1006A000DF93EC018D81882351F09E81DB019C93C7
:1006B0001C821D82DF91CF911F910F9108958B01B4
:1006C0008A819B81BE016A5F7F4FDC01ED91FC91C5
:1006D0000190F081E02D0995882361F39E81F80156
:1006E000908391E09C83E6CFCF93DF931F92CDB7A9
:1006F000DEB7FC0169838681811118C06481758130
:10070000828193816817790761F481E0868303848D
:10071000F485E02DCE01019609950F90DF91CF91E0
:100720000895CB01019695838483F1CF80E0F5CFC6
:10073000CF92DF92EF92FF921F93CF93DF931F929E
:10074000CDB7DEB76C017B01BE016F5F7F4FC70184
:100750000E944D03182F882369F06981C6010E9409
:1007600074038111F1CFF7018481882319F091E09E
:100770009583182F812F0F90DF91CF911F91FF90BC
:10078000EF90DF90CF900895EF92FF920F931F9319
:10079000CF93DF93CDB7DEB728970FB6F894DEBFBF
:1007A0000FBECDBF7C018BE291E09A8389837C836D
:1007B0006B831D821E82BE01685F7F4FCE01019652
:1007C0000E944D03882369F088858032A1F38D3023
:1007D00091F38950833078F38D81882311F081E083
:1007E0008E8310E0BE01685F7F4FCE0101960E94AC
:1007F0004D03082F882371F06885603259F06D3001
:1008000049F087EF860F833028F0C7010E947403F8
:10081000102FE8CF812F28960FB6F894DEBF0FBEB9
:10082000CDBFDF91CF911F910F91FF90EF90089571
:10083000FC01CB012681211113C0648175812281C5
:1008400033816217730731F421E026830384F48532
:10085000E02D09949B012F5F3F4F35832483F6CF12
:1008600080E00895FC01458156812781308584818F
:10087000811121C08281938121153105E1F0662724
:100880007727621B730B64177507A8F08417950709
:1008900090F0B901640F751F6150710968177907ED
:1008A00050F09C012F5F3F4F241B350B4115510524
:1008B00011F021503109BA01C9010895FC01CA01A2
:1008C000138212821182108221E024836115710546
:1008D000A9F022273327261B370B2417350770F082
:1008E00053834283860F971F0197918380831482DD
:1008F000458356836783708781E0089580E008957B
:10090000CF93DF93EC0102960E945E04882321F0CE
:100910002DEB34E03C872B87DF91CF910895CF9367
:10092000DF93CDB7DEB72F970FB6F894DEBF0FBEBB
:10093000CDBFAB01BC0181E391E09F878E87198613
:1009400018861B861A8686E191E09A838983CE01F8
:1009500001960E948004882339F0BE016F5F7F4FAB
:10096000CE010E960E9405032F960FB6F894DEBFB7
:100970000FBECDBFDF91CF910895611529E07207B9
:1009800030F4FC018081FB01808381E0089580E0E8
:100990000895CF93DF93EC0102960E945E048823B2
:1009A00021F02AEF36E03C872B87DF91CF91089525
:1009B000CF93DF93CDB7DEB72D970FB6F894DEBF98
:1009C0000FBECDBFAB01BC01198618861B861A86E7
:1009D00080E291E09A838983CE0101960E94C90446
:1009E000882341F060915C0470915D04CE01019612
:1009F0000E9405032D960FB6F894DEBF0FBECDBF43
:100A0000DF91CF910895CF92DF92EF92FF926B0129
:100A10007C0190E080E00E948100C701B6010E9445
:100A2000D8041092670410926604FF90EF90DF9054
:100A3000CF900895CF92DF92EF92FF920F931F9382
:100A4000CF93DF93CDB7DEB7A0970FB6F894DEBF94
:100A50000FBECDBF6C018B01198618861B861A86C6
:100A600086E191E09A8389831E8A1D8A188E1F8AE7
:100A700080E291E09F878E87AE01455E5F4F65E023
:100A800070E0CE0101960E948004B801CE0101966B
:100A90000E94C403F82E882391F1CE0103960E9490
:100AA0003204AB01BC01CE010E960E94C90410E0D5
:100AB00000E08AE0E82EBE01605E7F4FCE010E9618
:100AC0000E9418048823C1F088A180538A3038F529
:100AD0000A3999E1190718F5E09E9001E19E300D61
:100AE0001124082F10E0C801809590958217930774
:100AF000B0F0020F131FDFCFF601118300838F2D9B
:100B0000A0960FB6F894DEBF0FBECDBFDF91CF9198
:100B10001F910F91FF90EF90DF90CF900895F12CEF
:100B2000EECFCF92DF92EF92FF920F931F93CF936E
:100B3000DF93CDB7DEB76C970FB6F894DEBF0FBE6C
:100B4000CDBF69017A01198618861B861A8620E2B4
:100B500031E03A8329831E8A1D8A188E1F8A3F87B7
:100B60002E87AB01BC01CE0101960E94C904811100
:100B700002C080E021C0B701A601CE010E960E94FE
:100B8000C9048823B1F311E0BE01645E7F4FCE013A
:100B900001960E941804082FBE01655E7F4FCE01AA
:100BA0000E960E9418048127002331F08111E1CFB5
:100BB0002C8D9B8D291741F36C960FB6F894DEBFF0
:100BC0000FBECDBFDF91CF911F910F91FF90EF909E
:100BD000DF90CF9008950F931F93CF93DF938C01F5
:100BE000EB01288139814A815B81FC01608171813F
:100BF000828193810E949105882311F01D830C83CB
:100C0000DF91CF911F910F910895CF92DF92EF92D4
:100C1000FF92CF93DF93CDB7DEB76A970FB6F89404
:100C2000DEBF0FBECDBF6B017C01BA01A9011986E1
:100C300018861B861A8680E291E09A8389831E8A31
:100C40001D8A188E1F8A86E191E09F878E87CE01CC
:100C500001960E94C904882379F0B701A601CE014C
:100C60000E960E948004882339F0BE01625F7F4F98
:100C7000CE0101960E9405036A960FB6F894DEBF76
:100C80000FBECDBFDF91CF91FF90EF90DF90CF905F
:100C90000895EF92FF920F931F93CF93DF93CDB7F9
:100CA000DEB72E970FB6F894DEBF0FBECDBF7C0126
:100CB000198618861B861A8680E291E09A838983BA
:100CC000A701662777276E197F09CE0101960E943A
:100CD000C90410E000E0BE01625F7F4FCE010196C3
:100CE0000E941804882331F08E85882319F00F5F45
:100CF0001F4FF1CFB701C8012E960FB6F894DEBF93
:100D00000FBECDBFDF91CF911F910F91FF90EF905C
:100D10000895CF92DF92EF92FF920E9449066B01F5
:100D20007C0181E090E00E948100C701B6010E9431
:100D3000D8048AE00E945F0083E090E0909367040B
:100D400080936604FF90EF90DF90CF900895CF934B
:100D5000DF93EC01688179818A819B810E94030580
:100D60008E819F81892B61F080E491E00E94490689
:100D70000E9403056C817D818E819F810E94030505
:100D800081E090E00E946C0083E090E09093670423
:100D900080936604DF91CF910895CF93DF93EC01A8
:100DA0008FE391E00E94890680916804823319F0F4
:100DB0008F5F809368040990D881C02D209751F0EF
:100DC00070E060E0888199810E94A7060A80DB813B
:100DD000C02DF4CF80916804882319F0815080934E
:100DE000680482E491E0DF91CF910C948906CB01F5
:100DF0000C94CD06611529E0720730F4FB012081C7
:100E0000FC01208381E0089580E00895FC01808149
:100E10009091C00095FFFCCF8093C6008091C000E8
:100E200086FFFCCF8091C00080648093C00081E089
:100E30000895FC018091C00087FFFCCF9091C00015
:100E40009695969597708091C60080839111F2CF08
:100E500081E00895611524E07207A8F4F999FECFA6
:100E6000FC01908161BD272F237082B58C7F822B7E
:100E700082BD90BD8FB7F894FA9AF99A8FBFF9990D
:100E8000FECF81E0089580E00895FC01611584E0C3
:100E9000780780F4F999FECF61BD872F837092B5F2
:100EA0009C7F982B92BDF89AF899FECF80B58083ED
:100EB00081E0089580E008959C01235031092D3090
:100EC0003742E0F40297B0E0A0E0BC01CD0124E09D
:100ED000660F771F881F991F2A95D1F724E130E00C
:100EE00040E050E00E94351A2115310539F0C90162
:100EF0000E94A7150197E1F781E0089580E0089529
:100F00004F925F926F927F928F929F92AF92BF9219
:100F1000CF92DF92EF92FF920F931F93CF93DF93C5
:100F200000D000D01F92CDB7DEB7FC0129833A83F1
:100F30004B835C836D83A0809181892F8370B82E51
:100F400088EEA81683E0B80608F007C19695969536
:100F50008281282F2295220F220F207C622F692B5D
:100F6000982F96959695792F7370683E93E0790740
:100F700008F0F3C0982F92959F708381282F2295B7
:100F8000207FA22FA92B982F92959F70B92FB37015
:100F9000A83E93E0B90708F0E0C082958695869553
:100FA00083709481292F220F220F022F082B192FD3
:100FB0001295169516951370083E83E0180708F0F1
:100FC000CCC02981832F3370283E93E0390708F085
:100FD000C4C086958695F42E942F9295990F990FFB
:100FE000907C492F482B8F2D86958695582F5370CE
:100FF000483E83E0580708F0B0C0F2949FE0F92221
:10100000DC80ED2CE29480EFE8224E2C4F28FD2C62
:10101000F2949FE0F9229F2D9370592E88EE481686
:1010200083E0580608F099C0D294D694D69493E001
:10103000D922CD809C2C990C990CE92CED28FC2C04
:10104000F294F694F69483E0F82298EEE91693E091
:10105000F90608F082C038016E187F08C301885174
:101060009C4F3C01CC24C394D12C0E151F0510F0CD
:10107000D12CC12C8D010419150908511C4F0C19D4
:101080001D09C2018C0D9D1D88248394912CA817E5
:10109000B90710F0912C812C7B01E41AF50AC701E5
:1010A00088519C4F7C01E818F908480D591DCC2443
:1010B000C394D12C6417750710F0D12CC12C88EE85
:1010C000882E83E0982EC401821B930B8A0D9B1DF2
:1010D0008C199D09B4010E94211A492F8083C701F0
:1010E000B4010E94211A582F550F550F4370452BFC
:1010F0004183482F42954695469543709370F92E4B
:10110000FF0CFF0CC801B4010E94211A582F529500
:10111000507FF42AF52AF282182F12951F709370CF
:10112000492F4295407FC301B4010E94211A582FD4
:101130005295550F550F507C412B452B438392956B
:10114000990F990F907C86958695892B84832C0D19
:101150003D1D81E0A216B30608F480E00F900F90C9
:101160000F900F900F90DF91CF911F910F91FF90F3
:10117000EF90DF90CF90BF90AF909F908F907F9037
:101180006F905F904F9008959F92AF92BF92CF92D1
:10119000DF92EF92FF920F931F93CF93DF9300D0D4
:1011A00000D01F92CDB7DEB7FC0129833A834B8371
:1011B0005C836D8340819181592F5370483E63E079
:1011C000560708F0F2C0969596958281282F2295B1
:1011D000220F220F207CA22FA92B982F969596954F
:1011E000B92FB370A83E73E0B70708F0DEC0982FA0
:1011F00092959F708381282F2295207FA22EA92A65
:10120000982F92959370B92E98EEA91693E0B9068F
:1012100008F0CBC082958695869583709481292F9E
:10122000220F220FE22EE82AF92EF294F694F69479
:1012300093E0F92268EEE61663E0F60608F0B5C022
:101240000981832F132F1370083E73E0170708F0EE
:10125000ACC0869586956B81962F9295990F990FC4
:10126000907C292F282B862F86958695382F3370D2
:10127000283E83E0380708F098C0762F72957F707B
:101280006C81D62ED29480EFD8228D2D872B762F8D
:1012900072957F70972F9370883E73E0970708F0E0
:1012A00084C062956695669563707D81972E990CD2
:1012B000990CC92CC62AD72ED294D694D69463E022
:1012C000D62268EEC61663E0D60608F06EC0EC0CB7
:1012D000FD1CA80EB91E61E070E088EEE81683E000
:1012E000F80610F470E060E0A60EB71E2A0F3B1F50
:1012F00081E090E068EEA61663E0B60610F490E098
:1013000080E0280F391F040F151F81E090E0283E70
:1013100073E0370710F490E080E0080F191F88EEA3
:10132000C82E83E0D82EC801B6010E94211A492F89
:101330008083C901B6010E94211A282F220F220F93
:101340004370422B4183282F2295269526952370A2
:101350009370392F330F330FC501B6010E94211A44
:10136000482F4295407F322B342B3283382F3295D1
:101370003F709370292F2295207FC701B6010E94EC
:10138000211A482F4295440F440F407C232B242BD5
:1013900023839295990F990F907C86958695892B3A
:1013A000848381E0083E134008F080E00F900F90A6
:1013B0000F900F900F90DF91CF911F910F91FF90A1
:1013C000EF90DF90CF90BF90AF909F900895CF9314
:1013D000DF9300D000D01F92CDB7DEB70E94BF02CE
:1013E00029833A834B835C836D8320912201309162
:1013F0002301409124015091250160912601CE01E5
:1014000001960E94C40849818A81682F637086957D
:1014100086959B81292F2295220F220F207C282B35
:10142000392F36953695337092959F708C81582F51
:101430005295507F952B829583705FB7F8944093B7
:101440003F04E0E4F4E040814C7F462B4083622F70
:10145000660F660F40814370462B4083E1E4F4E061
:10146000229526952695237040814C7F242B20833E
:10147000330F330F2081237F232B2083392F329585
:10148000307F20812F70232B2083E2E4F4E0292F8A
:1014900022952F709081907F922B9083982F929518
:1014A000907F80818F7C892B808380818F73808364
:1014B000E3E4F4E08081807C808380818F7380838B
:1014C0005FBF0F900F900F900F900F90DF91CF9113
:1014D00008950F931F93CF93DF93CDB7DEB72A976D
:1014E0000FB6F894DEBF0FBECDBF0FB7F8940E94C1
:1014F0007D020E94BF022E833F83488759876A87F7
:101500001091B2000E9483020FBFB99B10C02091BE
:1015100022013091230140912401509125016091D5
:101520002601CE0106960E94C4081091B200212F18
:1015300030E0A8EEB3E00E94571A2091B30030E0EB
:101540002F5F3F4F032E000C440B550B0E94351AA2
:10155000922F9295990F990F907C89858F73892B83
:1015600089873295330F330F307C26952695232BB0
:101570002A8785E0FE013696DE01119601900D92D4
:101580008A95E1F729813A814B815C816D8170E018
:1015900080E090E02A960FB6F894DEBF0FBECDBF74
:1015A000DF91CF911F910F910895CF92DF92EF922B
:1015B000FF921F93CF93DF9300D000D01F92CDB73F
:1015C000DEB70E94690AF42FE52F162F369536955F
:1015D000AF2FA295AA0FAA0FA07CA32BBF2FB69561
:1015E000B695B37020E432E44FE050E00E94661AF2
:1015F0006B017C01F295FF702E2F2295207F2F2BFF
:101600003E2F32953370A8EEB3E00E94571A6C0D4E
:101610007D1D8E1D9F1DE295E695E695E370412F99
:10162000440F440F242F2E2B312F329536953695AB
:101630003370620F731F811D911D0F900F900F90DB
:101640000F900F90DF91CF911F91FF90EF90DF905F
:10165000CF900895AF92BF92CF92DF92EF92FF9218
:101660000F931F93CF93DF93CDB7DEB72F970FB6AE
:10167000F894DEBF0FBECDBF4B875C876D877F734D
:101680007E871F860E94BF022E833F83488759872B
:101690006A872B853C854D855E856F85CE010696D4
:1016A0000E94C408D82E882309F478C00E94BF0283
:1016B000D901B3700E818F81182F1370A017B10755
:1016C000A8F336953695942F9295990F990F907CA3
:1016D000E92FE32B942F96959695F92FF370429569
:1016E0004F70952F9295907F292F242B952F9295AF
:1016F0009F70392F33705295569556955370962F8B
:10170000990F990FE92EE52AF62EF294F694F694A5
:1017100093E0F922982F969596958885482F4295C3
:10172000440F440F407C642F692B982F9695969513
:10173000792F7370982F92959F708985C82EC294C7
:1017400040EFC4224C2D492B982F92959F70592F12
:10175000537082958695869583709A85C92ECC0C98
:10176000CC0CAC2CA82AB92EB294B694B69483E0D3
:10177000B8220A171B0790F0E617F70708F496CF70
:101780006E177F0758F02417350708F48FCF4217DC
:10179000530720F0EA14FB0408F488CF8D2D2F9610
:1017A0000FB6F894DEBF0FBECDBFDF91CF911F9172
:1017B0000F91FF90EF90DF90CF90BF90AF90089582
:1017C000FC0186E390E0918380838FE690E0938331
:1017D000828380E890E09583848384E890E0978317
:1017E000868386E890E09187808788E890E09387F9
:1017F00082878AE890E09587848708950F931F93E6
:10180000CF93DF93CDB7DEB7E2970FB6F894DEBF84
:101810000FBECDBFCE010F960E94E00BEB89FC8975
:10182000118116FB112710F9CE0101960E94E00BE1
:10183000709144043091450490914504892F869518
:101840008695909146049295990F990F907C982BCC
:101850006091460480914604282F22952F70809134
:1018600047048295807F822B509147042091470442
:10187000422F429546954695437020914804220F89
:10188000220F242B409148047D8F792F770F770FFB
:101890003370372B3E8F9295969596959370362F91
:1018A0003C70682F6295607F932B962B9F8F82955B
:1018B0008F705073322F3295330F330F307C852B5E
:1018C000832B88A3407C26952695242B29A3E98584
:1018D000FA8520813181A8EEB3E00E94571A209149
:1018E00006013091070150E040E00E94351A337044
:1018F00019A61AA61BA6522F5295550F550F507CAC
:101900005CA7632F6295660F660F607C269526950F
:10191000622B6DA720E030E040E0CE014D960E94A2
:10192000C40885E0FE017D96DE019E9601900D9231
:101930008A95E1F785E0FE01BE96DE01949601905E
:101940000D928A95E1F781E018271BA396E0FE012E
:10195000B396DE015D9601900D929A95E1F7909114
:101960003E0491111EC096E0FE017D96A8E3B4E00E
:1019700001900D929A95E1F780933E04EB89FC89E2
:10198000918181818F7B96FF80648183E2960FB67F
:10199000F894DEBF0FBECDBFDF91CF911F910F91A5
:1019A000089580913804898385E0FE017E96DE01EA
:1019B000129601900D928A95E1F78E010E5F1F4FEE
:1019C0002091390430913A0440913B0450913C04F9
:1019D00060913D04C8010E948007811105C085E027
:1019E000F80111928A95E9F786E0FE017D96A8E359
:1019F000B4E001900D928A95E1F749815A816B819B
:101A00007C818D819E810E942801B8CF8F929F9208
:101A1000AF92BF92CF92DF92EF92FF920F931F93FC
:101A2000CF93DF9300D000D01F92CDB7DEB784E410
:101A3000882E84E0982ED4017C9195E4A92E94E020
:101A4000B92EF50120819081892F8695869536E4FF
:101A5000E32E34E0F32ED7019C919295990F990FC4
:101A6000907C982B3C918C91482F42954F7007E4C5
:101A700014E0F80180818295807F842B6081408111
:101A8000429546954695437058E4C52E54E0D52EB0
:101A9000D6015C91550F550F452B5C917983792FB9
:101AA000770F770F2370272B2A839295969596951B
:101AB00093703C70282F2295207F932B922B9B8331
:101AC00082958F706073942F9295990F990F907CE7
:101AD000862B892B8C83507C842F86958695852B2D
:101AE0008D832091690430916A0440916B04509178
:101AF0006C0460916D04CE0101960E94C408E981D6
:101B00006A81562F5370669566953B81732F729547
:101B1000770F770F707C672B832F82958F702C81C6
:101B2000922F9295907F982B822F829586958695FD
:101B300083704D81742F770F770F872BD401EC932F
:101B4000F50170817C7F752B7083562F550F550FD3
:101B500070817370752B7083762F7295769576955C
:101B60007370D7016C916C7F672B6C93532F5C70F3
:101B70003C91337F352B3C93592F5295507F3C91AC
:101B80003F70352B3C93392F32953F70F80190818F
:101B9000907F932B9083207390819F7C922B9083D6
:101BA000282F2295220F220F207C90819F73922B49
:101BB000908386958695D6019C91907C892B8C93F9
:101BC000407C8C918F73842B8C930F900F900F908F
:101BD0000F900F90DF91CF911F910F91FF90EF9099
:101BE000DF90CF90BF90AF909F908F900895AF926D
:101BF000BF92CF92DF92EF92FF920F931F93CF93FA
:101C0000DF93CDB7DEB7A9970FB6F894DEBF0FBE4E
:101C1000CDBF1E8A1D8A188E1F8A80E291E09F87A1
:101C20008E87409118015091190160911A017091AD
:101C30001B01CE0140960E945E04882321F085E4BA
:101C400097E09A8F898F8BE291E09C8F8B8F19861A
:101C500018861B861A8686E191E09A838983CE01D5
:101C60000E969E8F8D8F1F8E18A2AE01485D5F4F1E
:101C700062E070E00D970E948004BE01655E7F4FB8
:101C8000CE0101960E949803882351F101E010E0F3
:101C90005E0182E2A80EB11C88A599A58017910764
:101CA000F8F086E0E82EF12CB701A501CE010196EF
:101CB0000E948004BE01655E7F4FCE0101960E94A6
:101CC0009803882369F04AA15BA16CA17DA18EA134
:101CD0009FA10E942801882319F00F5F1F4FDCCFBE
:101CE000A9960FB6F894DEBF0FBECDBFDF91CF919E
:101CF0001F910F91FF90EF90DF90CF90BF90AF902A
:101D00000895AF92BF92CF92DF92EF92FF920F931E
:101D10001F93CF93DF93CDB7DEB7A2970FB6F8949A
:101D2000DEBF0FBECDBF1E8A1D8A188E1F8A86E1B8
:101D300091E09F878E874091180150911901609121
:101D40001A0170911B01CE0140960E945E04882307
:101D500021F08AE297E09A8F898F198618861B8670
:101D60001A8680E291E09A8389838091740490912D
:101D700075049AA389A3AE014F5D5F4F62E070E0E6
:101D8000CE0101960E94C904BE01625F7F4FCE0161
:101D900001960E940503882331F101E010E05E0105
:101DA0008BE1A80EB11C89A19AA180179107D8F0E8
:101DB000B801C5010E94A6008823A9F086E0E82E9C
:101DC000F12CB701A501CE0101960E94C904BE0104
:101DD000625F7F4FCE0101960E940503882319F0B0
:101DE0000F5F1F4FE0CFA2960FB6F894DEBF0FBE75
:101DF000CDBFDF91CF911F910F91FF90EF90DF90BA
:101E0000CF90BF90AF9008953F924F925F926F92A4
:101E10007F928F929F92AF92BF92CF92DF92EF927A
:101E2000FF920F931F93CF93DF93CDB7DEB76D97DC
:101E30000FB6F894DEBF0FBECDBF60915A0470910B
:101E40005B04CE014C960E941A05882309F4B6C0A3
:101E500001E010E096E1C92E91E0D92E7E0184E1E7
:101E6000E80EF11C332433948C8D9D8D80179107DF
:101E700008F4A8C0A0905A04B0905B041986188694
:101E80001B861A86DA82C98284E0682E712CB3011F
:101E9000A701CE0101960E948004B501CE010196F2
:101EA0000E94C403882309F489C0CE0103960E94CE
:101EB00032044B015C01209156043091570440914B
:101EC0005804509159040E949105882309F466C072
:101ED0003E8660915A0470915B04CE014A960E943E
:101EE0001A05882309F46AC060915A0470915B0452
:101EF000CE0148960E941A05882309F45FC06091BC
:101F00005A0470915B04C7010E941A05882309F4E2
:101F100055C060915A0470915B04CE0101960E94F5
:101F20001A05882309F44AC05A8D6B8D788D872F46
:101F3000880F880F6370682B688B972F9295969502
:101F400096959370798D7370770F770F8C89282F02
:101F50002295207F792B722B798B982F92959F70E9
:101F60008D8983708295807F2981322F3295330F3E
:101F7000330F307C892B832B8A8B9A81392F3295B2
:101F8000330F330F307C922F96959695932B9B8B26
:101F90004E850E9428010F5F1F4F66CF209152048B
:101FA000309153044091540450915504C501B4013B
:101FB0000E949105882311F01E868BCF85E491E065
:101FC0000E9489066D960FB6F894DEBF0FBECDBF96
:101FD000DF91CF911F910F91FF90EF90DF90CF9005
:101FE000BF90AF909F908F907F906F905F904F9039
:101FF0003F9008954F925F926F927F928F929F923F
:10200000AF92BF92CF92DF92EF92FF920F931F9306
:10201000CF93DF93CDB7DEB769970FB6F894DEBFE5
:102020000FBECDBFE0907404F0907504C7010E940C
:10203000C60081E090E00E946C0083E090E0909305
:1020400067048093660401E010E060E2A62E61E080
:10205000B62E73E0C72ED12CE016F10608F488C026
:10206000B801CE0144960E94A60086E0FE01749657
:10207000DE011E9601900D928A95E1F77C8882E040
:1020800090E00E94810080905C0490905D0419862D
:1020900018861B861A86BA82A982772009F45FC047
:1020A000409156045091570460915804709159041E
:1020B000CE0101960E94C904B401CE0101960E948E
:1020C000050382E090E0909367048093660498890A
:1020D000892F869586952989722E7294770C770CB4
:1020E00030EC7322782A822F869586958370882E0D
:1020F000822F82958F702A89522E529440EF54225B
:10210000582A822F82958370682E229526952695CF
:1021100023703B89432E440C440C422A932E929404
:102120009694969453E095228F8593700E94C600F2
:10213000872D982D0E94C600852D962D0E94C600E1
:10214000842D992D0E94C60081E090E00E946C00D1
:10215000D0926704C09266040F5F1F4F7DCF4091FD
:102160005204509153046091540470915504A0CFCF
:1021700069960FB6F894DEBF0FBECDBFDF91CF9149
:102180001F910F91FF90EF90DF90CF90BF90AF9095
:102190009F908F907F906F905F904F9008951092D6
:1021A00075041092740408952F923F924F925F929B
:1021B0006F927F928F929F92AF92BF92CF92DF9257
:1021C000EF92FF920F931F93CF93DF93CDB7DEB7BC
:1021D000AF970FB6F894DEBF0FBECDBF1DA21EA2F3
:1021E0001FA280E888A781E689A720917404309116
:1021F00075043EA72DA722242394312CAE014E5FF7
:102200005F4F5BA74AA78DA59EA58215930508F48D
:10221000BBC1B101CE0101960E94A600898188232D
:1022200009F41BC185E0FE013296DE019096019013
:102230000D928A95E1F71FB7F8940E94D50A6B01B9
:102240007C0185B5887F826085BD84B58F7380648D
:1022500084BDA9A18A2F86958695EAA1AE2FA29565
:10226000AA0FAA0FA07CA82BBE2FB695B695B37067
:1022700020E432E44FE050E00E94661A4B015C011A
:10228000E295EF704BA1242F2295207F2E2B342F27
:1022900032953370A8EEB3E00E94571ADC01CB01EF
:1022A000880D991DAA1DBB1D429546954695437004
:1022B0005CA1652F660F660F262F242B352F3295D4
:1022C000369536953370820F931FA11DB11D8C0D6D
:1022D0009D1DAE1DBF1D4C015D01EFE28E1A9108E0
:1022E000A108B108F4EF8F16F1E09F06A104B10434
:1022F00008F48FC02C013D0123E2421A22E0520A69
:102300006108710838EE831633E09306A104B10426
:1023100008F433C1C414D504E604F70408F079C006
:1023200087519440A109B109C816D906EA06FB06EF
:1023300008F059C01FBF9C01AD012C193D094E0981
:102340005F0969017A011B8ECA01B90120E432E4F8
:102350004FE050E00E94351A422F440F440F4CA723
:102360004C8F22952695269523702FA7032F037057
:10237000000F000FC701B60128EE33E040E050E047
:102380000E94351AF62EE72ECA01B90128EE33E075
:1023900040E050E00E94351A262F2295207F5FA54D
:1023A000052B022B0D8F62956F7073707295707F85
:1023B0008F2D8295880F880F807C762B782B7E8FCF
:1023C0008E2D8295880F880F807CF694F6948F2945
:1023D0008F8F40E05CA5602F0E942A0BF8940E942A
:1023E000D50A6B017C011FBF80E090E0DC014C143A
:1023F0005D046E047F0430F0D301C2018C199D0985
:10240000AE09BF090E945C07F8940E94D50A6B01CF
:102410007C0180E090E0DC018C149D04AE04BF04DC
:1024200030F0D501C4018C199D09AE09BF090E9485
:102430005C0785B5877061F084B5806C84BDA99A0E
:10244000A99BFECF84B58F7384BD85B5887F85BD7C
:102450001FBF3FEF231A330AD6CE2DA13EA14FA1B5
:1024600058A569A5CE0102960E948007811106C079
:10247000EAA5FBA525E011922A95E9F785E0FE0182
:102480003296DE01569601900D928A95E1F70E94F0
:10249000690A298B3A8B4B8B5C8B6D8B2E893F891C
:1024A000488D598D6A8DCE0141960E94C4084E898F
:1024B0005F89688D798D8A8D0E942A0B882349F265
:1024C0000E94690A2C873D874E875F87688B85E06D
:1024D000FE017196DE01179601900D928A95E1F743
:1024E0002C853D854E855F856889CE0107960E94C3
:1024F0008007882309F4ADCFA8858A2F8695869515
:10250000E985AE2FA295AA0FAA0FA07CA82BBE2FFB
:10251000B695B695B37020E432E44FE050E00E94E7
:10252000661A6B017C01E295EF704A85242F229593
:10253000207F2E2B342F32953370A8EEB3E00E940B
:10254000571ADC01CB018C0D9D1DAE1DBF1D4295A0
:102550004695469543705B85652F660F660F262F5F
:10256000242B352F3295369536953370820F931F75
:10257000A11DB11D0E945C076CCFC414D504E604F4
:10258000F70408F430CF45CFAF960FB6F894DEBF0E
:102590000FBECDBFDF91CF911F910F91FF90EF90B4
:1025A000DF90CF90BF90AF909F908F907F906F9073
:1025B0005F904F903F902F900895CF93DF93CDB7CA
:1025C000DEB76C970FB6F894DEBF0FBECDBFCE015D
:1025D0000F960E94E00BCE0101960E94E00BED8168
:1025E000FE818181887F8183E989FA8980818F7D5D
:1025F0008083EF85F8898081806280836C960FB636
:10260000F894DEBF0FBECDBFDF91CF910895CF9379
:10261000DF93CDB7DEB76C970FB6F894DEBF0FBE71
:10262000CDBFCE010F960E94E00B10923E04EF85C5
:10263000F889808180628083E989FA89808180625B
:102640008083CE0101960E94E00BED81FE818181A5
:10265000887F816081836C960FB6F894DEBF0FBED1
:10266000CDBFDF91CF9108950F931F93CF93DF9349
:10267000EC018B01CB010E94771A009781F09983BE
:1026800088831B830A83688179818A819B810E9468
:102690008F0481E0DF91CF911F910F91089580E029
:1026A000F9CFCF93DF93EC018A819B810097B1F042
:1026B000919581959109288139818217930770F04E
:1026C000688179818A819B810E948F0488819981A8
:1026D0000E94131B198218821B821A82DF91CF91EC
:1026E0000895CF92DF92EF92FF920F931F93CF93B3
:1026F000DF9300D000D0CDB7DEB78C0184E0C82EC8
:10270000D12CD801ED91FC91309771F0E280F380EB
:10271000FA83E983DC82CB82CE0101960E945113B9
:10272000F801F182E082EDCF0F900F900F900F90A3
:10273000DF91CF911F910F91FF90EF90DF90CF909D
:1027400008950F931F93CF93DF9300D000D0CDB7A0
:10275000DEB78C019A8389838CE090E09C838B8325
:10276000C8010E945113C80104960E945113CE0162
:1027700001960E9451130F900F900F900F90DF91D0
:10278000CF911F910F9108950C94A1130F931F9354
:10279000CF93DF938C01FC01C081D181209741F060
:1027A000888199810E94A1130A80DB81C02DF6CF18
:1027B000C801DF91CF911F910F910C947113CB0140
:1027C0000C94C6134F925F926F927F928F929F925A
:1027D000AF92BF92CF92DF92EF92FF920F931F932F
:1027E000CF93DF93CDB7DEB728970FB6F894DEBF4F
:1027F0000FBECDBF7C01CB015A0169011A8219823B
:102800001C821B821E821D8218861F820E9449061E
:102810002B013C01C5010E9449064B015C0161147A
:10282000710409F5F7011182108213821282158258
:10283000148217821682C70128960FB6F894DEBF5D
:102840000FBECDBFDF91CF911F910F91FF90EF9001
:10285000DF90CF90BF90AF909F908F907F906F90C0
:102860005F904F900895B301CE0101960E943413FA
:102870008823C1F269817A818B819C81A3019201B5
:102880000E940506A114B10429F4CE0101960E940C
:102890005113C8CFB501CE0105960E943413882389
:1028A000A1F36D817E818F819885A50194010E949D
:1028B000050649815A816B817C818D819E81AF8122
:1028C000B885F70140835183628373838483958342
:1028D000A683B783D186C08613870287ACCFAF9219
:1028E000BF92CF92DF92EF92FF920F931F93CF93FD
:1028F000DF93CDB7DEB764970FB6F894DEBF0FBE97
:10290000CDBF5C01C986DA86EB86FC860D871E8703
:102910002F87388B498B5A8B6B8B7C8B1E821D8249
:1029200018861F826CE070E0CE0105960E94341379
:10293000182F8823F1F09E01275F3F4F4CE050E0B5
:102940006D817E818F8198850E940506ED80FE80D5
:102950001A8219821C821B8264E070E0CE0101960B
:102960000E943413182F811116C0CE0105960E94C3
:102970005113812F64960FB6F894DEBF0FBECDBF02
:10298000DF91CF911F910F91FF90EF90DF90CF904B
:10299000BF90AF900895E981FA81F182E082D5017C
:1029A0008D919C911197892B11F4ED93FC93D50196
:1029B00012968D919C91009729F0DC011396FC935F
:1029C000EE931297D5011396FC93EE931297D1CF05
:1029D0001F920F920FB60F9211242F933F938F9354
:1029E0009F93AF93BF9380914E0490914F04A09119
:1029F0005004B091510430914D0423E0230F2D3742
:102A000058F50196A11DB11D20934D0480934E04ED
:102A100090934F04A0935004B093510480914904C3
:102A200090914A04A0914B04B0914C040196A11DD1
:102A3000B11D8093490490934A04A0934B04B09332
:102A40004C04BF91AF919F918F913F912F910F9027
:102A50000FBE0F901F90189526E8230F0296A11D18
:102A6000B11DD2CF1F920F920FB60F9211242F9348
:102A70003F934F935F936F937F938F939F93AF9306
:102A8000BF93EF93FF93E0910401F0910501099545
:102A9000FF91EF91BF91AF919F918F917F916F9136
:102AA0005F914F913F912F910F900FBE0F901F900C
:102AB00018951F920F920FB60F9211242F933F93E8
:102AC0004F935F936F937F938F939F93AF93BF9336
:102AD000EF93FF93E0910201F09103010995FF91BB
:102AE000EF91BF91AF919F918F917F916F915F9186
:102AF0004F913F912F910F900FBE0F901F901895FF
:102B00001F920F920FB60F9211242F933F934F9362
:102B10005F936F937F938F939F93AF93BF93EF9345
:102B2000FF93E0910001F09101010995FF91EF9170
:102B3000BF91AF919F918F917F916F915F914F91D5
:102B40003F912F910F900FBE0F901F90189500008E
:102B500000000000000000000000000000000895D8
:102B600085E591E00E9449066093560470935704EE
:102B7000809358049093590487E591E00E94490698
:102B800060935204709353048093540490935504BB
:102B9000EAE5F4E08DE391E09583848387E391E0B7
:102BA0009187808783E090E0958784871686EEE69C
:102BB000F4E0118210821382128210926904109242
:102BC0006A0480E180936B0410926C0410926D048F
:102BD0000895CF93DF93CDB7DEB7C05BD1090FB6B1
:102BE000F894DEBF0FBECDBF789484B5826084BDFB
:102BF00084B5816084BD85B5826085BD85B5816001
:102C000085BD80916E00816080936E00109281007E
:102C10008091810082608093810080918100816039
:102C200080938100809180008160809380008091FA
:102C3000B10084608093B1008091B0008160809386
:102C4000B00080917A00846080937A0080917A004D
:102C5000826080937A0080917A00816080937A000C
:102C600080917A00806880937A001092C1000E945F
:102C70000102882331F089E197E090936104809309
:102C800060040E940102882331F086E097E090936F
:102C90006504809364048EE594E090935B048093D4
:102CA0005A0482E694E090935D0480935C040E9451
:102CB0008A020E9483020E948A020E9483028091FB
:102CC0000E0190910F01A0911001B091110180931C
:102CD0006E0490936F04A0937004B093710480E528
:102CE00090E0909373048093720410927504109294
:102CF0007404CE0181960E94E00B40E060E084E223
:102D000090E00E94730141E060E085E290E00E9463
:102D10007301CE0101963C010E94E00BED81FE8122
:102D20008181887F8183EDA1FEA180818C7F80835A
:102D30008181877E8860818320E030E148EE53E026
:102D400060E070E0C3010E948C018A819B81EBA549
:102D5000FCA5918380838A819B81019690930701D2
:102D60008093060186E09DE0909305018093040125
:102D700029A13AA1F901808182608083ABA1BCA125
:102D80008C9182608C9310924404809145048C7FD6
:102D9000809345048091450483708093450480911D
:102DA00046048C7F8093460480914604837F809301
:102DB0004604809146048F708093460480914704B6
:102DC000807F80934704809147048F7C80934704E1
:102DD000809147048F738093470480914804807CDE
:102DE00080934804809148048F73809348048FA196
:102DF00098A5FC01118210828EEF9BE09093030155
:102E0000809302018C918F7D8C93F9018081806287
:102E10008083EDA1FEA181818F7B818323E038E057
:102E200040EE58E261E070E0C3010E948C0188230B
:102E300009F4D5C241E066E08AE290E00E947301A5
:102E400040E066E08BE290E00E94730140E066E0C3
:102E50008BE290E00E94730185B5887F85BD84B5C3
:102E6000836084BD85B5886085BD8A8187BD16BCB9
:102E700080916E008E7F80936E0082E791E00E94C9
:102E80008906C355DF4F19821882CD5AD040C155EB
:102E9000DF4F19821882CF5AD04010E000E027E0BF
:102EA00033E14CE851E06CE971E0CE0185569F4F6B
:102EB0000E94E213C556DF4FC880CB59D040C4569C
:102EC000DF4FD880CC59D040C356DF4FE880CD5972
:102ED000D040C256DF4FF880CE59D040C156DF4FA8
:102EE0000881CF59D040C056DF4F1881C05AD0401A
:102EF000CF55DF4F2881C15AD040CE55DF4F3881A2
:102F0000C25AD040CD55DF4F4881C35AD040CC552E
:102F1000DF4F5881C45AD040CB55DF4F6881C55A26
:102F2000D040CA55DF4F7881C65AD040CE01835574
:102F30009F4F0E946F1410E000E02DED32E14EE94A
:102F400051E065EF71E0CE0181579F4F0E94E2137F
:102F5000C157DF4FC880CF58D040C057DF4FD8800F
:102F6000C059D040CF56DF4FE880C159D040CE562F
:102F7000DF4FF880C259D040CD56DF4F0881C3598A
:102F8000D040CC56DF4F1881C459D040CB56DF4FCC
:102F90002881C559D040CA56DF4F3881C659D04024
:102FA000C956DF4F4881C759D040C856DF4F5881B6
:102FB000C859D040C756DF4F6881C959D040C6565E
:102FC000DF4F7881CA59D040CE0183559F4F0E9470
:102FD0006F1410E000E024ED30E14CEA51E06AE8C3
:102FE00071E0CE018D579F4F0E94E213CD57DF4F06
:102FF000C880C358D040CC57DF4FD880C458D04089
:10300000CB57DF4FE880C558D040CA57DF4FF88014
:10301000C658D040C957DF4F0881C758D040C8575D
:10302000DF4F1881C858D040C757DF4F2881C95893
:10303000D040C657DF4F3881CA58D040C557DF4F00
:103040004881CB58D040C457DF4F5881CC58D0402E
:10305000C357DF4F6881CD58D040C257DF4F7881CA
:10306000CE58D040CE0183559F4F0E946F1410E080
:1030700000E02FEC30E148EB51E065EC71E0CE016F
:1030800089589F4F0E94E213E896CFACE897E996E3
:10309000DFACE997EA96EFACEA97EB96FFACEB97DB
:1030A000EC960FADEC97ED961FADED97EE962FAD2C
:1030B000EE97EF963FADEF97C158DF4F4881CF575E
:1030C000D040C058DF4F5881C058D040CF57DF4F55
:1030D0006881C158D040CE57DF4F7881C258D04068
:1030E000CE0183559F4F0E946F1410E000E02AEF3D
:1030F0003FE047EC51E06DED71E0CE0185599F4F07
:103100000E94E213AC96CFACAC97AD96DFACAD9716
:10311000AE96EFACAE97AF96FFACAF97E0960FAD23
:10312000E097E1961FADE197E2962FADE297E39627
:103130003FADE397E4964FADE497E5965FADE59735
:10314000E6966FADE697E7967FADE797CE0183559C
:103150009F4F0E946F1410E000E024E03FE040EE3B
:1031600051E067EF71E0CE01815A9F4F0E94E21358
:10317000A096CFACA097A196DFACA197A296EFAC9A
:10318000A297A396FFACA397A4960FADA497A5967C
:103190001FADA597A6962FADA697A7963FADA7976B
:1031A000A8964FADA897A9965FADA997AA966FADBF
:1031B000AA97AB967FADAB97CE0183559F4F0E94E8
:1031C0006F1410E000E021E83EE04AEF51E067E1D3
:1031D00072E0CE018D5A9F4F0E94E2136496CFACED
:1031E00064976596DFAC65976696EFAC66976796D1
:1031F000FFAC679768960FAD689769961FAD6997A2
:103200006A962FAD6A976B963FAD6B976C964FADF4
:103210006C976D965FAD6D976E966FAD6E976F966E
:103220007FAD6F97CE0183559F4F0E946F1410E0C2
:1032300000E027EF3DE04AE152E069E372E0CE01B1
:10324000895B9F4F0E94E2132896CFAC289729965E
:10325000DFAC29972A96EFAC2A972B96FFAC2B97D9
:103260002C960FAD2C972D961FAD2D972E962FAD2A
:103270002E972F963FAD2F9760964FAD6097619632
:103280005FAD619762966FAD629763967FAD63970E
:10329000CE0183559F4F0E946F148E0103551F4F1F
:1032A00027EF36E04CE352E06AE472E0CE01CB96C1
:1032B0000E94E213CBACDCACEDACFEAC0FAD2196C2
:1032C0001FAD219722962FAD229723963FAD2397CE
:1032D00024964FAD249725965FAD259726966FAD22
:1032E000269727967FAD2797CE0183559F4F0E9443
:1032F0006F148823F1F08E0103551F4F2FED33E13A
:103300004CE452E061E572E0CE018F960E94E21338
:10331000CFA4D8A8E9A8FAA80BA91CA92DA93EA951
:103320004FA958AD69AD7AADCE0183559F4F0E942C
:103330006F14CE0183559F4F0E94CD0696E1E92E72
:1033400091E0F92EC355DF4F88819981CD5AD04045
:10335000892B09F460C019A618A61BA61AA6FAA202
:10336000E9A280E2A82EB12CB501A301CE0181967D
:103370000E94800460915A0470915B04CE01819692
:103380000E94C4038823F1F2CE0183960E94320486
:10339000C955DF4F79836883C75AD040C755DF4F7F
:1033A00099838883C95AD040C555DF4F1982188246
:1033B000CB5AD040C355DF4F08811981CD5AD04038
:1033C0000115110589F0BE0169557F4FF801808113
:1033D00091810E94EB05F80102811381F1CF89E50B
:1033E00091E00E94890649CDC555DF4FA881B9817A
:1033F000CB5AD040109709F4A5CF1896ED91FC91C7
:1034000019971A966D917C91309709F49BCF90E0B3
:1034100080E0099597CFCE0183559F4F0E94C61338
:10342000CE0183559F4F0E94711383E592E00E9465
:10343000890600E010E001151105E9F30E94000083
:10344000FACFAA1BBB1B51E107C0AA1FBB1FA617BF
:10345000B70710F0A61BB70B881F991F5A95A9F73D
:1034600080959095BC01CD010895A1E21A2EAA1B6A
:10347000BB1BFD010DC0AA1FBB1FEE1FFF1FA21724
:10348000B307E407F50720F0A21BB30BE40BF50B21
:10349000661F771F881F991F1A9469F760957095AA
:1034A000809590959B01AC01BD01CF010895A29F2D
:1034B000B001B39FC001A39F700D811D1124911D08
:1034C000B29F700D811D1124911D08950E94571AFD
:1034D000A59F900DB49F900DA49F800D911D112468
:1034E0000895EE0FFF1F0590F491E02D09940F93BE
:1034F0001F93CF93DF938230910510F482E090E028
:10350000E0917804F091790430E020E0B0E0A0E0B0
:10351000309799F42115310509F44AC0281B390B5D
:1035200024303105D8F58A819B816115710589F1B7
:10353000FB0193838283FE0111C04081518102818E
:10354000138148175907E0F04817590799F4109765
:1035500061F012960C93129713961C933296CF013A
:10356000DF91CF911F910F910895009378041093EC
:103570007904F4CF2115310551F04217530738F083
:10358000A901DB019A01BD01DF01F801C1CFEF0103
:10359000F9CF9093790480937804CDCFFE01E20FA8
:1035A000F31F819391932250310939832883D7CF18
:1035B0002091760430917704232B41F420910A0165
:1035C00030910B0130937704209376042091080109
:1035D000309109012115310541F42DB73EB74091D5
:1035E0000C0150910D01241B350BE0917604F091F4
:1035F0007704E217F307A0F42E1B3F0B28173907B7
:1036000078F0AC014E5F5F4F2417350748F04E0F3E
:103610005F1F5093770440937604819391939FCFDB
:10362000F0E0E0E09CCFCF93DF930097E9F0FC015E
:10363000329713821282A0917804B0917904ED013F
:1036400030E020E01097A1F420813181820F931F98
:1036500020917604309177042817390709F061C06A
:10366000F0937704E0937604DF91CF910895EA0117
:10367000CE17DF07E8F54A815B819E0141155105B0
:10368000B1F7E901FB83EA8349915991C40FD51F32
:10369000EC17FD0761F4808191810296840F951FDC
:1036A000E90199838883828193819B838A83F0E0F7
:1036B000E0E012968D919C9113970097B9F52D91AA
:1036C0003C911197CD010296820F931F20917604B1
:1036D000309177042817390739F6309751F5109251
:1036E000790410927804B0937704A0937604BCCF49
:1036F000D383C28340815181840F951FC817D90796
:1037000061F44E5F5F4F88819981480F591F518343
:1037100040838A819B81938382832115310509F03F
:10372000B0CFF0937904E09378049ECFFD01DC01E3
:0C373000C0CF13821282D7CFF894FFCFD5
:10373C00720172017201010000007A0480005802CB
:10374C00E0010000000074030000FFFF0000000017
:10375C0018040000100000000000004D03000000E1
:10376C000049030000000032030000000043032D59
:10377C002D003D3D004661696C656420746F2070BE
:10378C00617273650059004E004661696C65642076
:10379C00746F20736574206672657175656E6379DC
:1037AC002E004952207369676E616C20706C6179D0
:1037BC0065722F7265636F7264657200426567692A
:1037CC006E207265636F7264696E67006200456E8D
:1037DC0064207265636F7264696E67005265706C09
:1037EC00617920646174610044697363617264205F
:1037FC00646174610064005072696E742064617459
:10380C006120746F206F7574736964650065730053
:10381C004C6F616420646174612066726F6D206FFF
:10382C0075747369646500656C005361766520641A
:10383C0061746120746F20696E7465726E616C20A6
:10384C006D656D6F7279006973004C6F61642064F3
:10385C006174612066726F6D20696E7465726E6141
:10386C006C206D656D6F727900696C004C697374B6
:10387C0020636F6D6D616E6473003F0045786974F1
:08388C00005E00446F6E650050
:00000001FF
