:100000000C9435000C945D000C945D000C945D0024
:100010000C945D000C945D000C945D000C945D00EC
:100020000C945D000C945D000C94B30C0C94BB0B11
:100030000C945D000C945D000C945D000C945D00CC
:100040000C94710B0C945D000C945D000C945D009D
:100050000C945D000C945D000C945D000C945D00AC
:100060000C945D000C945D003C0D11241FBECFEF7D
:10007000D8E0DEBFCDBF11E0A0E0B1E0ECEDF3E2EF
:1000800002C005900D92A23DB107D9F723E0A2ED81
:10009000B1E001C01D92A03EB207E1F710E0C5E358
:1000A000D0E004C02197FE010E94B210C433D107F2
:1000B000C9F70E94550D0C94EC110C940000A0910E
:1000C000C603B091C703ED91FC9111970190F081A7
:1000D000E02D682FCD0109942091D0033091D103F8
:1000E0002115310529F4019751F080E20C945F004D
:1000F0002130310521F022303105A9F308958AE03D
:10010000F5CFCF93DF93EC010E946C008091D00378
:100110009091D103009729F4219759F0DF91CF9165
:1001200008958130910529F082309105A9F3039754
:10013000A9F7C0E08091D203C81780F780E20E943F
:100140005F0080E20E945F00CF5FF4CF4F925F922A
:100150006F927F928F929F92AF92BF92CF92DF92D7
:10016000EF92FF920F931F93CF93DF936C0182E086
:1001700090E00E948100C091C603D091C703F12C8A
:10018000E12C15E080E1882E87E2982EA12CB12C7D
:100190009AE0492E512C612C712CC701B601A501A2
:1001A00094010E948510022F60E3620FE881F981BB
:1001B0000190F081E02DCE010995A02FB0E0A501BE
:1001C00094010E94A710C61AD70AE80AF90AC501C5
:1001D000B401A30192010E94851049015A011150F6
:1001E000E1F682E090E09093D1038093D003DF9119
:1001F000CF911F910F91FF90EF90DF90CF90BF9024
:10020000AF909F908F907F906F905F904F900895E8
:10021000DC012091D4033091D5036115710511F4EF
:1002200061E070E096E0969FF001979FF00D112439
:1002300026503109E20FF31F01900D929A95E1F7D4
:1002400081E00895E0ECF0E0818196E09283958171
:10025000907F958390E194839081926090838B71DD
:1002600080618860818381E00895FC01E11589E067
:10027000F80790F4683080F4908121E030E001C00C
:10028000220F6A95EAF7413021F4292B208381E07F
:10029000089520952923FACF80E00895EF92FF92E8
:1002A0000F931F93CF93DF931F92CDB7DEB77C01DF
:1002B0008B01D701ED91FC910190F081E02DBE0101
:1002C0006F5F7F4FC7010995882399F0D801ED91A1
:1002D000FC910190F081E02D6981C801099581119F
:1002E000E8CF0F90DF91CF911F910F91FF90EF908A
:1002F000089581E0F6CFCF93DF931F92CDB7DEB79D
:100300006983DC011296ED91FC91CE01019609956D
:100310000F90DF91CF910895DC011296ED91FC9141
:10032000CB010994FB01108281E008950F931F9384
:10033000CF93DF93EC018E81882351F09C81DB0108
:100340009C931D821E82DF91CF911F910F91089582
:100350008B018A819B81BE016C5F7F4FDC01ED9137
:10036000FC910190F081E02D0995882361F39C8137
:10037000F801908391E09D83E6CFCF93DF931F92A6
:10038000CDB7DEB7FC0169838681811118C0648115
:100390007581828193816817790761F481E0868392
:1003A0000384F485E02DCE01019609950F90DF912D
:1003B000CF910895CB01019695838483F1CF80E09E
:1003C000F5CFFC01CB012681211113C06481758119
:1003D000228133816217730731F421E0268303847D
:1003E000F485E02D09949B012F5F3F4F35832483D3
:1003F000F6CF80E00895FC01CA01138212821182B7
:10040000108221E0248361157105A9F0222733278A
:10041000261B370B2417350770F053834283860F52
:10042000971F019791838083148245835683678346
:10043000708781E0089580E00895CF93DF93CDB772
:10044000DEB72D970FB6F894DEBF0FBECDBFAB0160
:10045000BC01198618861B861A8680E291E09A8371
:100460008983CE0103960E94FB01882361F08AE50F
:1004700093E09D878C876091C6037091C703CE017E
:1004800001960E944E012D960FB6F894DEBF0FBE66
:10049000CDBFDF91CF910895CF92DF92EF92FF927F
:1004A0006B017C0190E080E00E948100C701B601F1
:1004B0000E941D021092D1031092D003FF90EF9082
:1004C000DF90CF900895CF93DF93CDB7DEB72F970E
:1004D0000FB6F894DEBF0FBECDBFAB01BC018AE002
:1004E00091E09F878E87198618861B861A868AE177
:1004F00091E09A838983CE0103960E94FB018823B1
:1005000059F085E992E09D878C87BE016F5F7F4F30
:10051000CE010E960E944E012F960FB6F894DEBFC4
:100520000FBECDBFDF91CF910895611529E072070D
:1005300030F4FC018081FB01808381E0089580E03C
:100540000895CF93DF93EC0102960E94FB0188236C
:1005500021F02AE533E03C872B87DF91CF91089586
:10056000CF92DF92EF92FF92CF93DF93CDB7DEB7BA
:100570006A970FB6F894DEBF0FBECDBF6B017C014A
:10058000BA01A901198618861B861A8680E291E0B5
:100590009A8389831E8A1D8A188E1F8A8AE191E0B8
:1005A0009F878E87CE0101960E94A102882399F031
:1005B000B701A601CE0140960E94FB01882359F0A5
:1005C00085E992E09A8F898FBE01625F7F4FCE01ED
:1005D00001960E944E016A960FB6F894DEBF0FBED8
:1005E000CDBFDF91CF91FF90EF90DF90CF90089536
:1005F000EF92FF920F931F93CF93DF93CDB7DEB7A8
:100600002E970FB6F894DEBF0FBECDBF7C011986C2
:1006100018861B861A8680E291E09A838983A70157
:10062000662777276E197F09CE0101960E94A102E5
:1006300010E000E0BE01625F7F4FCE0101960E9494
:10064000E101882331F08E85882319F00F5F1F4F59
:10065000F1CFB701C8012E960FB6F894DEBF0FBEDA
:10066000CDBFDF91CF911F910F91FF90EF90089533
:10067000CF92DF92EF92FF920E94F8026B017C0111
:1006800081E090E00E948100C701B6010E941D0236
:100690008AE00E945F0083E090E09093D103809312
:1006A000D003FF90EF90DF90CF9008950E94F80262
:1006B0000C944C02611529E0720730F4FB01208193
:1006C000FC01208381E0089580E00895FC01808191
:1006D0009091C00095FFFCCF8093C6008091C00030
:1006E00086FFFCCF8091C00080648093C00081E0D1
:1006F0000895FC018091C00087FFFCCF9091C0005D
:100700009695969597708091C60080839111F2CF4F
:1007100081E00895CF93DF93EC01688179818A812C
:100720009B810E944C028E819F81892B51F08FE228
:1007300091E00E9456036C817D818E819F810E9491
:100740004C0281E090E00E946C0083E090E0909386
:10075000D1038093D003DF91CF910895CF93DF939E
:10076000EC018EE291E00E9438038091D203823343
:1007700019F08F5F8093D2030990D881C02D209704
:1007800051F070E060E0888199810E948A030A80BC
:10079000DB81C02DF4CF8091D203882319F08150E2
:1007A0008093D20381E391E0DF91CF910C943803E1
:1007B000CB010C94AE038F929F92AF92BF92CF92D7
:1007C000DF92EF92FF920F931F93CF93DF93CDB7FA
:1007D000DEB76C970FB6F894DEBF0FBECDBF8C01AD
:1007E0007B01FB0180809180A280B380FC0140816D
:1007F0005181628173811E8A1D8A188E1F8A80E250
:1008000091E09F878E87198618861B861A869A83A1
:100810008983CE010E960E94A102882311F1B501B1
:10082000A401CE0101960E94A1028823D1F0DD240B
:10083000D394BE01645E7F4FCE010E960E94E1010B
:10084000C82EBE01655E7F4FCE0101960E94E10178
:100850008D25CC20C9F0811104C09C8D8B8D9817FB
:1008600041F36C960FB6F894DEBF0FBECDBFDF919B
:10087000CF911F910F91FF90EF90DF90CF90BF909D
:10088000AF909F908F900895882359F3F7011583B7
:100890000483E7CF0000000000000000000000001B
:1008A000000000000895FF920F931F93CF93DF93F2
:1008B0008430910538F1B0E0A0E0BC01CD0124E026
:1008C000660F771F881F991F2A95D1F724E130E022
:1008D00040E050E00E948510890103501109FFB6E5
:1008E000F894C1E0D0E00C171D0720F00E944A04E4
:1008F0002196F9CFFFBE81E0DF91CF911F910F913B
:10090000FF90089580E0F8CFCF93DF93C0E2D3E06B
:100910000E944A042197E1F7DF91CF910895CF9388
:10092000DF93C8EED3E00E9484042197E1F7DF91C2
:10093000CF910895DF92EF92FF920F931F93CF9381
:10094000DF9300D000D01F92CDB7DEB749835A8322
:100950006B837C838D8301E010E029819A81392F9C
:1009600033702017310768F028EEE22E23E0F22ED4
:100970000E948F0481E0E81AF108D1F70F5F1F4F42
:10098000ECCF969596958B81282F2295220F220FDA
:10099000207C022F092B86958695182F1370011540
:1009A000110559F0EE24E394F12C0E948F048FEF8F
:1009B000E81AF80A0E151F05C0F79B8192959F70E3
:1009C0008C81282F2295207F022F092B82958F70F2
:1009D000182F13700115110571F0DFB6F894EE248D
:1009E000E394F12C0E9484048FEFE81AF80A0E15A4
:1009F0001F05C0F7DFBE8C81829586958695837032
:100A00009D81292F220F220F822B929596959695E4
:100A100093700E94530481E00F900F900F900F90FD
:100A20000F90DF91CF911F910F91FF90EF90DF908A
:100A300008955F926F927F928F929F92AF92BF9232
:100A4000CF92DF92EF92FF920F931F93CF93DF939A
:100A500000D000D01F92CDB7DEB7FC0129833A83C6
:100A60004B835C836D8340819181592F5370483E45
:100A700023E0520708F0FEC0969596958281282FB4
:100A80002295220F220F207C622F692B982F96959A
:100A90009695792F7370683E33E0730708F0EAC0CB
:100AA00082958F702381922F9295907FA92FA82BEA
:100AB000822F82958F70B82FB370A83E83E0B8075D
:100AC00008F0D8C022952695269523703481132FDF
:100AD000110F110F812F822B932F9295969596953A
:100AE0009370883E23E0920708F0C4C089803A8161
:100AF000232F2370922E28EE821623E0920608F010
:100B0000B9C0369536952B81122F1295110F110F02
:100B1000107CE12EE32A322F369536953370F32E72
:100B200038EEE31633E0F30608F0A4C0322F329516
:100B30003F702C81122F1295107FC12EC32A322FA5
:100B400032953370D32E38EEC31633E0D30608F057
:100B500091C022952695269523703D81B32EBB0C1E
:100B6000BB0C0B2D022B132F129516951695137097
:100B7000083E23E0120708F07DC03A015B019D01A9
:100B8000512C8017910720F488519C4F5524539481
:100B9000801B910BC50CD11C10E0AC15BD0520F4D9
:100BA0009D0128513C4F11E0D901AC19BD09E10E5E
:100BB000F11C20E06E157F0530F45B0138E1A31ACB
:100BC0003CEFB30A21E0B5016E197F09820E911C3A
:100BD00030E04815590530F43A0128E1621A2CEF4B
:100BE000720A31E0A301481959094083462F440F86
:100BF000440F252F2370242B2183562F5295569571
:100C000056955370272F2370220F220F4A2F42959B
:100C1000407F252B242B22835A2F52955F702B2F38
:100C200023702295207F482F4295440F440F407C2B
:100C3000252B242B23839295990F990F907C8695D1
:100C40008695892B848381E083270F900F900F90E6
:100C50000F900F90DF91CF911F910F91FF90EF9028
:100C6000DF90CF90BF90AF909F908F907F906F90CC
:100C70005F90089580E0E9CF0F931F93CF93DF93A8
:100C8000CDB7DEB72A970FB6F894DEBF0FBECDBF43
:100C90004E835F83688779878A8719821A821B82CD
:100CA00080EC8C8369E16D838E010A5F1F4F20E029
:100CB00030E040E050ECC8010E941905811105C0E8
:100CC00085E0F80111928A95E9F78091B000806380
:100CD0008093B0008091B100887F82608093B100E2
:100CE0001092B2004E815F81688579858A850E9465
:100CF0009A048091B100877069F0B99AB99BFECFD0
:100D00008091B0008F7C8093B0008091B100887F8B
:100D10008093B1002A960FB6F894DEBF0FBECDBF08
:100D2000DF91CF911F910F910895FC0186E390E030
:100D3000918380838FE690E09383828380E890E0C4
:100D40009583848384E890E09783868386E890E0A7
:100D50009187808788E890E0938782878AE890E08F
:100D6000958784870895CF93DF93CDB7DEB72E970D
:100D70000FB6F894DEBF0FBECDBFCE0101960E9424
:100D80009506ED81FE818181887F8183EB81FC81E5
:100D900080818D7F80832E960FB6F894DEBF0FBEC4
:100DA000CDBFDF91CF910895BF92CF92DF92EF92A6
:100DB000FF920F931F93CF93DF93CDB7DEB72E979C
:100DC0000FB6F894DEBF0FBECDBFBFB6F894F0905B
:100DD000B203E3EBF3E030813370C32EE0808E2D5D
:100DE00086958695E4EBF3E040814295440F440FED
:100DF000407CE42EE82A9081969596959370D92EA2
:100E00001081812F82958F70E5EBF3E010811295B0
:100E1000107F182B008102950370CE0101960E946D
:100E20009506EF81F88560817181BFBE3E2D330F3D
:100E3000330F3C294E2D42954695469543709D2D86
:100E4000990F990F812F8295807F492B482B512F25
:100E500052955F700295007FCB0196958795182F6C
:100E60001295110F110F107C502B512B692F629589
:100E7000660F660F607C86958695682B2F2D70E037
:100E800080E090E02E960FB6F894DEBF0FBECDBF87
:100E9000DF91CF911F910F91FF90EF90DF90CF9056
:100EA000BF900895CF93DF9300D000D01F92CDB7AD
:100EB000DEB740E050E060E070E887E50F900F900B
:100EC0000F900F900F90DF91CF910C943C069F9262
:100ED000AF92BF92CF92DF92EF92FF920F931F9348
:100EE000CF93DF93CDB7DEB76B970FB6F894DEBF25
:100EF0000FBECDBF1F8A188E198E80E88A8F8FE2B1
:100F00008B8F8091DA039091DB03892B09F47BC0EE
:100F10005E0187E0A80EB11C61E070E0C5010E948F
:100F20000801882309F46FC082E0E82EF12C8E01BD
:100F30000E5E1F4FFE013D966F0195E0992E809148
:100F4000DA039091DB038E159F0508F45CC0B701AE
:100F5000CE0101960E940801882309F454C085E05F
:100F6000FE013296D80101900D928A95E1F728850D
:100F700039854A855B856C85C8010E9419058823DF
:100F800009F441C08F81882339F12F89388D498D2B
:100F90005A8D6B8DC8010E94190581112CC0F80172
:100FA000892D11928A95E9F7F601892D11928A957A
:100FB000E9F74D855E856F85788989890E949A0455
:100FC00086E0FE013196D50101900D928A95E1F7F8
:100FD0009FEFE91AF90AB3CF85E0F801D601019035
:100FE0000D928A95E1F74D855E856F8578898989AF
:100FF0000E943C06E5CF85E0F801D60101900D92F4
:101000008A95E1F7D6CF6B960FB6F894DEBF0FBE88
:10101000CDBFDF91CF911F910F91FF90EF90DF90A7
:10102000CF90BF90AF909F9008952F923F924F9294
:101030005F926F927F928F929F92AF92BF92CF9268
:10104000DF92EF92FF920F931F93CF93DF93CDB771
:10105000DEB72C970FB6F894DEBF0FBECDBF609001
:10106000C6037090C70384E391E00E943803809127
:10107000D203823319F08F5F8093D20301E010E036
:1010800093E0492E512C8091DA039091DB03801775
:10109000910708F48EC0B801CE0107960E9408019E
:1010A000882309F486C086E0FE013796DE0111969A
:1010B00001900D928A95E1F7FF802090C603309051
:1010C000C7037092C7036092C60384E391E00E9455
:1010D000560382E090E00E94810086E391E0F110E7
:1010E00002C08AE391E00E94F8020E941D0282E0A1
:1010F00090E09093D1038093D0038A809B81892FC5
:101100008370982E969596958C81282F2295220F84
:10111000220F207CA22EA92A982F9695969593703F
:10112000B92E982F92959F708D81282F2295207F20
:10113000C22EC92A982F92959370D92E82958695A2
:10114000869583709E81292F220F220FE22EE82A96
:10115000F92EF294F694F69483E0F82284E391E079
:101160000E9456038114910409F44BC0C4010E94EB
:10117000A600C5010E94A600C6010E94A600C701E4
:101180000E94A6008EE391E00E9456038EE391E058
:101190000E94560381E090E00E946C005092D103BF
:1011A0004092D0033092C7032092C6030F5F1F4FB7
:1011B0006ACF8091D203882319F081508093D203A3
:1011C0008EE391E00E9438037092C7036092C603D9
:1011D0002C960FB6F894DEBF0FBECDBFDF91CF9136
:1011E0001F910F91FF90EF90DF90CF90BF90AF9045
:1011F0009F908F907F906F905F904F903F902F9037
:101200000895A114B10409F0B4CFC114D10409F0B8
:10121000B3CFE114F10409F4B5CFB1CFCF93DF938D
:10122000CDB7DEB72E970FB6F894DEBF0FBECDBF99
:10123000CE0101960E949506EB81FC8180818F7D15
:101240008083E981FA818081806280830E94B30675
:101250002E960FB6F894DEBF0FBECDBFDF91CF91B3
:101260000895CF93DF93CDB7DEB76C970FB6F894A0
:10127000DEBF0FBECDBF80910C0190910D01A091FA
:101280000E01B0910F01E3EDF3E081839283A3831C
:10129000B4831086178280E590E09683858381E091
:1012A0008083CE010F960E94950640E060E084E2C4
:1012B00090E00E94350141E060E085E290E00E940C
:1012C00035019FB7F8941092B203E3EBF3E080810D
:1012D0008C7F8083808183708083E4EBF3E0808166
:1012E0008C7F80838081837F808380818F708083E7
:1012F000E5EBF3E08081807F808380818F7C808339
:1013000080818F738083E6EBF3E08081807C808333
:1013100080818F7380839FBFCE0101960E949506C6
:101320000E94B306ED81FE818181807E90819C7F49
:1013300090838A608183EF81F88511821082EB852A
:10134000FC858FEC97E091838083EB81FC81808129
:1013500082608083EB89FC8981818F7B8183E9892D
:10136000FA898081806280836C960FB6F894DEBF24
:101370000FBECDBFDF91CF9108950F931F93CF93F1
:10138000DF93EC018B01CB010E94C710009781F025
:10139000998388831B830A83688179818A819B81F1
:1013A0000E94630281E0DF91CF911F910F91089518
:1013B00080E0F9CFCF93DF93EC018A819B81009786
:1013C000B1F0919581959109288139818217930710
:1013D00070F0688179818A819B810E946302888193
:1013E00099810E946311198218821B821A82DF91EF
:1013F000CF910895CF92DF92EF92FF920F931F93B8
:10140000CF93DF9300D000D0CDB7DEB78C0184E05E
:10141000C82ED12CD801ED91FC91309771F0E2806B
:10142000F380DC82CB82FA83E983CE0101960E94AD
:10143000DA09F801F182E082EDCF0F900F900F9062
:101440000F90DF91CF911F910F91FF90EF90DF9060
:10145000CF9008950F931F93CF93DF9300D000D0C8
:10146000CDB7DEB78C018CE090E09C838B831A8330
:101470000983C8010E94DA09C80104960E94DA09AA
:10148000CE0101960E94DA090F900F900F900F90F5
:10149000DF91CF911F910F9108950C942A0A0F9319
:1014A0001F93CF93DF938C01FC01C081D1812097E2
:1014B00041F0888199810E942A0A0A80DB81C02D2F
:1014C000F6CFC801DF91CF911F910F910C94FA09CB
:1014D000CB010C944F0A4F925F926F927F928F9242
:1014E0009F92AF92BF92CF92DF92EF92FF920F93B3
:1014F0001F93CF93DF93CDB7DEB728970FB6F8943D
:10150000DEBF0FBECDBF7C01CB015A0169011A823B
:1015100019821C821B821E821D8218861F820E94D5
:10152000F8022B013C01C5010E94F8024B015C014D
:101530006114710409F5F70111821082138212827D
:101540001582148217821682C70128960FB6F89466
:10155000DEBF0FBECDBFDF91CF911F910F91FF90E6
:10156000EF90DF90CF90BF90AF909F908F907F9043
:101570006F905F904F900895B301CE0101960E9445
:10158000BD098823C1F269817A818B819C81A30185
:1015900092010E94B002A114B10429F4CE01019677
:1015A0000E94DA09C8CFB501CE0105960E94BD0997
:1015B0008823A1F36D817E818F819885A501940197
:1015C0000E94B00249815A816B817C818D819E810C
:1015D000AF81B885F701408351836283738384832D
:1015E0009583A683B783D186C08613870287ACCF45
:1015F000AF92BF92CF92DF92EF92FF920F931F9321
:10160000CF93DF93CDB7DEB764970FB6F894DEBF04
:101610000FBECDBF5C01C986DA86EB86FC860D87DE
:101620001E872F87388B498B5A8B6B8B7C8B1E8246
:101630001D8218861F826CE070E0CE0105960E9424
:10164000BD09182F8823F1F09E01275F3F4F4CE022
:1016500050E06D817E818F8198850E94B002ED807F
:10166000FE801A8219821C821B8264E070E0CE0127
:1016700001960E94BD09182F811116C0CE01059652
:101680000E94DA09812F64960FB6F894DEBF0FBE70
:10169000CDBFDF91CF911F910F91FF90EF90DF9021
:1016A000CF90BF90AF900895E981FA81F182E082F6
:1016B000D5018D919C911197892B11F4ED93FC9399
:1016C000D50112968D919C91009729F0DC0113961B
:1016D000FC93EE931297D5011396FC93EE93129719
:1016E000D1CF1F920F920FB60F9211242F933F93D9
:1016F0008F939F93AF93BF938091BC039091BD0351
:10170000A091BE03B091BF033091BB0323E0230F30
:101710002D3758F50196A11DB11D2093BB03809371
:10172000BC039093BD03A093BE03B093BF0380910D
:10173000B7039091B803A091B903B091BA03019691
:10174000A11DB11D8093B7039093B803A093B90373
:10175000B093BA03BF91AF919F918F913F912F9119
:101760000F900FBE0F901F90189526E8230F02963A
:10177000A11DB11DD2CF1F920F920FB60F9211244F
:101780002F933F934F935F936F937F938F939F9389
:10179000AF93BF93EF93FF93CF93DF93CDB7DEB7B4
:1017A0002597DEBFCDBF0E94D406832F752F2983D6
:1017B0003A834B835C836D83E22FF32FF37086951E
:1017C0008695942F9295990F990F907C292F282B0D
:1017D000842F86958695382F337042954F70529599
:1017E000507F852F842B472F42954F70942F9370F5
:1017F0007295769576957370A62FAA0FAA0F4A2F29
:10180000472B562F5295569556955370E83E63E0F8
:10181000F60768F5283E63E0360748F5883E63E042
:10182000960728F5483E63E0560708F5BC016F5F50
:101830007F4F90E0683E83E0780719F491E070E014
:1018400060E0290F311D90E0283E83E0380719F44D
:1018500091E030E020E0E90FF11DE83E83E0F80779
:1018600011F4F0E0E0E0F3703370CB0193706FB7E8
:10187000F894E093B203EF2FE3707091B3037C7F91
:101880007E2B7093B303E22FEE0FEE0F7091B30334
:1018900073707E2B7093B303722F72957695769545
:1018A00073702091B4032C7F272B2093B4033370E3
:1018B000330F330F2091B403237F232B2093B403E2
:1018C000382F3295307F2091B4032F70232B209333
:1018D000B403282F22952F708091B503807F822B2F
:1018E0008093B50393709295907F8091B5038F7C20
:1018F000892B8093B503942F9295990F990F907C23
:101900008091B5038F73892B8093B503942F96959F
:1019100096958091B603807C892B8093B603952F92
:101920009295990F990F907C8091B6038F73892BB4
:101930008093B6036FBF0F900F900F900F900F9092
:10194000DF91CF91FF91EF91BF91AF919F918F91D7
:101950007F916F915F914F913F912F910F900FBEAB
:101960000F901F90189578941F920F920FB60F92B8
:1019700011241F932F933F934F935F936F937F9304
:101980008F939F93AF93BF93EF93FF93CF93DF9387
:10199000CDB7DEB7A097F894DEBF7894CDBFCE0167
:1019A00001960E949506ED81FE81818186FB1127BB
:1019B00010F98F7B10FF806481830E94D4062C8FE6
:1019C0003D8F4E8F5F8F68A31B8F86E0FE017B9655
:1019D000DE01559601900D928A95E1F78091D3032F
:1019E000882381F18091DA039091DB032091D80361
:1019F0003091D9038217930729F101969093DB0365
:101A00008093DA0326E0FE017596DE011F960190B1
:101A10000D922A95E1F74091D4035091D503009798
:101A200011F481E090E026E0289FD001299FB00DBD
:101A30001124A40FB51F1697FE013F9601900D9239
:101A40002A95E1F7A0960FB6F894DEBF0FBECDBF82
:101A5000DF91CF91FF91EF91BF91AF919F918F91C6
:101A60007F916F915F914F913F912F911F910F90B7
:101A70000FBE0F901F9018951092C303E4ECF3E093
:101A80008CE291E09583848386E291E09187808760
:101A900083E090E0958784871686E3EDF3E010827B
:101AA00012821182148213820895CF93DF93CDB7EF
:101AB000DEB7CD58D1090FB6F894DEBF0FBECDBF4B
:101AC000789484B5826084BD84B5816084BD85B519
:101AD000826085BD85B5816085BD80916E00816025
:101AE00080936E00109281008091810082608093CB
:101AF00081008091810081608093810080918000CD
:101B00008160809380008091B10084608093B100F7
:101B10008091B00081608093B00080917A008460F1
:101B200080937A0080917A00826080937A0080911D
:101B30007A00816080937A0080917A008068809337
:101B40007A001092C1000E942201882331F089E7B7
:101B500093E09093CB038093CA030E9422018823D1
:101B600031F086E693E09093CF038093CE0388EC28
:101B700093E09093C5038093C4038CEC93E090931F
:101B8000C7038093C60380910C0190910D01A09131
:101B90000E01B0910F018093D4039093D503A093CD
:101BA000D603B093D7031092DB031092DA0380E5DB
:101BB00090E09093D9038093D80311E01093D3035E
:101BC0001092C3038BE290E09093C1038093C00313
:101BD00083E08093C20341E063E08AE290E00E94E8
:101BE000350140E06091C2038091C0039091C10330
:101BF0000E9435011093C3039091B1008091B00011
:101C00008F7383608093B000987F98609093B10049
:101C100083E38093B30089E18093B40080E491E092
:101C20000E943803C757DF4F19821882C958D04025
:101C3000C557DF4F19821882CB58D04010E000E022
:101C400021E339E04BE551E06BE671E0CE018A58C3
:101C50009F4F0E946B0AE796CFACE797E896DFAC00
:101C6000E897E996EFACE997EA96FFACEA97EB962E
:101C70000FADEB97EC961FADEC97ED962FADED9772
:101C8000EE963FADEE97EF964FADEF97C158DF4F11
:101C90005881CF57D040C058DF4F6881C058D040DE
:101CA000CF57DF4F7881C158D040CE0187579F4F23
:101CB0000E94F80A10E000E02EE039E04DE651E025
:101CC0006BE771E0CE0186599F4F0E946B0AAB967D
:101CD000CFACAB97AC96DFACAC97AD96EFACAD9715
:101CE000AE96FFACAE97AF960FADAF97E0961FAD37
:101CF000E097E1962FADE197E2963FADE297E3964C
:101D00004FADE397E4965FADE497E5966FADE59749
:101D1000E6967FADE697CE0187579F4F0E94F80A5F
:101D200010E000E025E138E04DE751E061E971E0C5
:101D3000CE01825A9F4F0E946B0A6F96CFAC6F976D
:101D4000A096DFACA097A196EFACA197A296FFACAE
:101D5000A297A3960FADA397A4961FADA497A5969F
:101D60002FADA597A6963FADA697A7964FADA7977F
:101D7000A8965FADA897A9966FADA997AA967FADD3
:101D8000AA97CE0187579F4F0E94F80A10E000E003
:101D900027E637E043E951E063EB71E0CE018E5A6C
:101DA0009F4F0E946B0A6396CFAC63976496DFAC3B
:101DB00064976596EFAC65976696FFAC66976796F5
:101DC0000FAD679768961FAD689769962FAD6997B5
:101DD0006A963FAD6A976B964FAD6B976C965FAD09
:101DE0006C976D966FAD6D976E967FAD6E97CE01C9
:101DF00087579F4F0E94F80A10E000E022E537E085
:101E000048EA51E068EC71E0CE018A5B9F4F0E9486
:101E10006B0A2796CFAC27972896DFAC2897299690
:101E2000EFAC29972A96FFAC2A972B960FAD2B97EC
:101E30002C961FAD2C972D962FAD2D972E963FAD3E
:101E40002E972F964FAD2F9760965FAD6097619656
:101E50006FAD619762967FAD6297CE0187579F4FB6
:101E60000E94F80A8E0107571F4F28ED33E045EB1B
:101E700051E063EC71E0CE01CA960E946B0ACAACD5
:101E8000DBACECACFDAC0EAD1FAD21962FAD2197B8
:101E900022963FAD229723964FAD239724965FADB0
:101EA000249725966FAD259726967FAD2697CE0170
:101EB00087579F4F0E94F80A8823F1F08E01075739
:101EC0001F4F28E63AE045EC51E06AEC71E0CE01A4
:101ED0008E960E946B0ACEA4DFA4E8A8F9A80AA9EE
:101EE0001BA92CA93DA94EA95FA968AD79ADCE016A
:101EF00087579F4F0E94F80ACE0187579F4F0E9435
:101F0000AE03CE0101962C013AE1632E31E0732E2F
:101F100095E9E92E92E0F92E24E1C22E21E0D22E9D
:101F200033243394C757DF4F88819981C958D040F3
:101F3000892B09F4D4C019A618A61BA61AA67AA242
:101F400069A280E2A82EB12CB501A201CE01839630
:101F50000E94FB01882311F0FDA6ECA68091C4032A
:101F60009091C503CE57DF4FD982C882C258D04066
:101F7000CC57DF4F99838883C458D040C957DF4F6F
:101F80001882C758D040C857DF4F1882C858D04071
:101F9000BE0163577F4FCE018E579F4F0E9496011F
:101FA0008823C1F0C357DF4F8881CD58D04080329D
:101FB00079F38D3069F38950833050F3C957DF4F7F
:101FC0008881C758D040882329F0C857DF4F38820E
:101FD000C858D04010E0BE0163577F4FCE018E57E6
:101FE0009F4F0E949601082F882399F0C357DF4F17
:101FF0006881CD58D040603261F06D3051F087EF8C
:10200000860F833030F0CE0181960E94BD01102FE3
:10201000E2CF112309F486CF28A539A58AA59BA56F
:102020004FA141111EC04DA15EA10097D1F06627BE
:102030007727681B790B6217730798F042175307CD
:1020400080F0BC01620F731F61507109641775073E
:1020500040F0CA010196821B930B2115310509F04E
:102060000197CE57DF4F39832883C258D040CC57D1
:10207000DF4F99838883C458D040CA57DF4F1982F5
:102080001882C658D040C757DF4F08811981C958F8
:10209000D0400115110561F0BE016E577F4FF80168
:1020A000808191810E94DB03F80102811381F1CFCD
:1020B000CA57DF4FA881B981C658D040109709F49C
:1020C00031CF1896ED91FC9119971A966D917C91EC
:1020D000309709F41DCF90E080E0099515CFCE012F
:1020E00087579F4F0E944F0ACE0187579F4F0E94EC
:1020F000FA098CEC91E00E94380300E010E0011531
:102100001105E9F30E940000FACFA1E21A2EAA1BE2
:10211000BB1BFD010DC0AA1FBB1FEE1FFF1FA21797
:10212000B307E407F50720F0A21BB30BE40BF50B94
:10213000661F771F881F991F1A9469F7609570951D
:10214000809590959B01AC01BD01CF0108950E943F
:10215000B810A59F900DB49F900DA49F800D911D68
:1021600011240895EE0FFF1F0590F491E02D0994BE
:10217000A29FB001B39FC001A39F700D811D1124C8
:10218000911DB29F700D811D1124911D08950F9313
:102190001F93CF93DF938230910510F482E090E09B
:1021A000E091DE03F091DF0330E020E0B0E0A0E05A
:1021B000309799F42115310509F44AC0281B390BD1
:1021C00024303105D8F58A819B816115710589F12B
:1021D000FB0193838283FE0111C040815181028102
:1021E000138148175907E0F04817590799F41097D9
:1021F00061F012960C93129713961C933296CF01AE
:10220000DF91CF911F910F9108950093DE031093FA
:10221000DF03F4CF2115310551F04217530738F091
:10222000A901DB019A01BD01DF01F801C1CFEF0176
:10223000F9CF9093DF038093DE03CDCFFE01E20F51
:10224000F31F819391932250310939832883D7CF8B
:102250002091DC033091DD03232B41F42091020116
:10226000309103013093DD032093DC0320910001C2
:10227000309101012115310541F42DB73EB7409150
:10228000040150910501241B350BE091DC03F09112
:10229000DD03E217F307A0F42E1B3F0B28173907C5
:1022A00078F0AC014E5F5F4F2417350748F04E0FB2
:1022B0005F1F5093DD034093DC03819391939FCF85
:1022C000F0E0E0E09CCFCF93DF930097E9F0FC01D2
:1022D000329713821282A091DE03B091DF03ED01E9
:1022E00030E020E01097A1F420813181820F931F0C
:1022F0002091DC033091DD032817390709F061C014
:10230000F093DD03E093DC03DF91CF910895EA01C0
:10231000CE17DF07E8F54A815B819E014115510523
:10232000B1F7E901FB83EA8349915991C40FD51FA5
:10233000EC17FD0761F4808191810296840F951F4F
:10234000E90199838883828193819B838A83F0E06A
:10235000E0E012968D919C9113970097B9F52D911D
:102360003C911197CD010296820F931F2091DC03BF
:102370003091DD032817390739F6309751F510925F
:10238000DF031092DE03B093DD03A093DC03BCCF28
:10239000D383C28340815181840F951FC817D90709
:1023A00061F44E5F5F4F88819981480F591F5183B7
:1023B00040838A819B81938382832115310509F0B3
:1023C000B0CFF093DF03E093DE039ECFFD01DC018D
:0C23D000C0CF13821282D7CFF894FFCF49
:1023DC000000E0038000000000009201D201E00147
:1023EC0000000000960100000000BD01000000008C
:1023FC00E101000000007B01000000008C012D2D8C
:10240C00003D3D00280059455300204E4F00290047
:10241C004952207369676E616C20706C61796572CA
:10242C002F7265636F726465722E00426567696E08
:10243C00207265636F7264696E67006200456E643A
:10244C00207265636F7264696E6700650050726913
:10245C006E7420636170747572656420646174615C
:10246C000070005265706C617920636170747572D4
:10247C0065642064617461005465737420656D69D2
:10248C0074746572004C69737420636F6D6D616E4A
:10249C006473003F0045786974005E00446F6E659C
:0224AC002E0000
:00000001FF
